{
	"tutorialtoken-box-master/KNS/PANCAKE/BUSD.sol": {
		"BEP20Token": {
			"abi": [
				{
					"inputs": [],
					"payable": false,
					"stateMutability": "nonpayable",
					"type": "constructor"
				},
				{
					"anonymous": false,
					"inputs": [
						{
							"indexed": true,
							"internalType": "address",
							"name": "owner",
							"type": "address"
						},
						{
							"indexed": true,
							"internalType": "address",
							"name": "spender",
							"type": "address"
						},
						{
							"indexed": false,
							"internalType": "uint256",
							"name": "value",
							"type": "uint256"
						}
					],
					"name": "Approval",
					"type": "event"
				},
				{
					"anonymous": false,
					"inputs": [
						{
							"indexed": true,
							"internalType": "address",
							"name": "previousOwner",
							"type": "address"
						},
						{
							"indexed": true,
							"internalType": "address",
							"name": "newOwner",
							"type": "address"
						}
					],
					"name": "OwnershipTransferred",
					"type": "event"
				},
				{
					"anonymous": false,
					"inputs": [
						{
							"indexed": true,
							"internalType": "address",
							"name": "from",
							"type": "address"
						},
						{
							"indexed": true,
							"internalType": "address",
							"name": "to",
							"type": "address"
						},
						{
							"indexed": false,
							"internalType": "uint256",
							"name": "value",
							"type": "uint256"
						}
					],
					"name": "Transfer",
					"type": "event"
				},
				{
					"constant": true,
					"inputs": [],
					"name": "_decimals",
					"outputs": [
						{
							"internalType": "uint8",
							"name": "",
							"type": "uint8"
						}
					],
					"payable": false,
					"stateMutability": "view",
					"type": "function"
				},
				{
					"constant": true,
					"inputs": [],
					"name": "_name",
					"outputs": [
						{
							"internalType": "string",
							"name": "",
							"type": "string"
						}
					],
					"payable": false,
					"stateMutability": "view",
					"type": "function"
				},
				{
					"constant": true,
					"inputs": [],
					"name": "_symbol",
					"outputs": [
						{
							"internalType": "string",
							"name": "",
							"type": "string"
						}
					],
					"payable": false,
					"stateMutability": "view",
					"type": "function"
				},
				{
					"constant": true,
					"inputs": [
						{
							"internalType": "address",
							"name": "owner",
							"type": "address"
						},
						{
							"internalType": "address",
							"name": "spender",
							"type": "address"
						}
					],
					"name": "allowance",
					"outputs": [
						{
							"internalType": "uint256",
							"name": "",
							"type": "uint256"
						}
					],
					"payable": false,
					"stateMutability": "view",
					"type": "function"
				},
				{
					"constant": false,
					"inputs": [
						{
							"internalType": "address",
							"name": "spender",
							"type": "address"
						},
						{
							"internalType": "uint256",
							"name": "amount",
							"type": "uint256"
						}
					],
					"name": "approve",
					"outputs": [
						{
							"internalType": "bool",
							"name": "",
							"type": "bool"
						}
					],
					"payable": false,
					"stateMutability": "nonpayable",
					"type": "function"
				},
				{
					"constant": true,
					"inputs": [
						{
							"internalType": "address",
							"name": "account",
							"type": "address"
						}
					],
					"name": "balanceOf",
					"outputs": [
						{
							"internalType": "uint256",
							"name": "",
							"type": "uint256"
						}
					],
					"payable": false,
					"stateMutability": "view",
					"type": "function"
				},
				{
					"constant": false,
					"inputs": [
						{
							"internalType": "uint256",
							"name": "amount",
							"type": "uint256"
						}
					],
					"name": "burn",
					"outputs": [
						{
							"internalType": "bool",
							"name": "",
							"type": "bool"
						}
					],
					"payable": false,
					"stateMutability": "nonpayable",
					"type": "function"
				},
				{
					"constant": true,
					"inputs": [],
					"name": "decimals",
					"outputs": [
						{
							"internalType": "uint8",
							"name": "",
							"type": "uint8"
						}
					],
					"payable": false,
					"stateMutability": "view",
					"type": "function"
				},
				{
					"constant": false,
					"inputs": [
						{
							"internalType": "address",
							"name": "spender",
							"type": "address"
						},
						{
							"internalType": "uint256",
							"name": "subtractedValue",
							"type": "uint256"
						}
					],
					"name": "decreaseAllowance",
					"outputs": [
						{
							"internalType": "bool",
							"name": "",
							"type": "bool"
						}
					],
					"payable": false,
					"stateMutability": "nonpayable",
					"type": "function"
				},
				{
					"constant": true,
					"inputs": [],
					"name": "getOwner",
					"outputs": [
						{
							"internalType": "address",
							"name": "",
							"type": "address"
						}
					],
					"payable": false,
					"stateMutability": "view",
					"type": "function"
				},
				{
					"constant": false,
					"inputs": [
						{
							"internalType": "address",
							"name": "spender",
							"type": "address"
						},
						{
							"internalType": "uint256",
							"name": "addedValue",
							"type": "uint256"
						}
					],
					"name": "increaseAllowance",
					"outputs": [
						{
							"internalType": "bool",
							"name": "",
							"type": "bool"
						}
					],
					"payable": false,
					"stateMutability": "nonpayable",
					"type": "function"
				},
				{
					"constant": false,
					"inputs": [
						{
							"internalType": "uint256",
							"name": "amount",
							"type": "uint256"
						}
					],
					"name": "mint",
					"outputs": [
						{
							"internalType": "bool",
							"name": "",
							"type": "bool"
						}
					],
					"payable": false,
					"stateMutability": "nonpayable",
					"type": "function"
				},
				{
					"constant": true,
					"inputs": [],
					"name": "name",
					"outputs": [
						{
							"internalType": "string",
							"name": "",
							"type": "string"
						}
					],
					"payable": false,
					"stateMutability": "view",
					"type": "function"
				},
				{
					"constant": true,
					"inputs": [],
					"name": "owner",
					"outputs": [
						{
							"internalType": "address",
							"name": "",
							"type": "address"
						}
					],
					"payable": false,
					"stateMutability": "view",
					"type": "function"
				},
				{
					"constant": false,
					"inputs": [],
					"name": "renounceOwnership",
					"outputs": [],
					"payable": false,
					"stateMutability": "nonpayable",
					"type": "function"
				},
				{
					"constant": true,
					"inputs": [],
					"name": "symbol",
					"outputs": [
						{
							"internalType": "string",
							"name": "",
							"type": "string"
						}
					],
					"payable": false,
					"stateMutability": "view",
					"type": "function"
				},
				{
					"constant": true,
					"inputs": [],
					"name": "totalSupply",
					"outputs": [
						{
							"internalType": "uint256",
							"name": "",
							"type": "uint256"
						}
					],
					"payable": false,
					"stateMutability": "view",
					"type": "function"
				},
				{
					"constant": false,
					"inputs": [
						{
							"internalType": "address",
							"name": "recipient",
							"type": "address"
						},
						{
							"internalType": "uint256",
							"name": "amount",
							"type": "uint256"
						}
					],
					"name": "transfer",
					"outputs": [
						{
							"internalType": "bool",
							"name": "",
							"type": "bool"
						}
					],
					"payable": false,
					"stateMutability": "nonpayable",
					"type": "function"
				},
				{
					"constant": false,
					"inputs": [
						{
							"internalType": "address",
							"name": "sender",
							"type": "address"
						},
						{
							"internalType": "address",
							"name": "recipient",
							"type": "address"
						},
						{
							"internalType": "uint256",
							"name": "amount",
							"type": "uint256"
						}
					],
					"name": "transferFrom",
					"outputs": [
						{
							"internalType": "bool",
							"name": "",
							"type": "bool"
						}
					],
					"payable": false,
					"stateMutability": "nonpayable",
					"type": "function"
				},
				{
					"constant": false,
					"inputs": [
						{
							"internalType": "address",
							"name": "newOwner",
							"type": "address"
						}
					],
					"name": "transferOwnership",
					"outputs": [],
					"payable": false,
					"stateMutability": "nonpayable",
					"type": "function"
				}
			],
			"devdoc": {
				"methods": {
					"allowance(address,address)": {
						"details": "See {BEP20-allowance}."
					},
					"approve(address,uint256)": {
						"details": "See {BEP20-approve}.    * Requirements:    * - `spender` cannot be the zero address."
					},
					"balanceOf(address)": {
						"details": "See {BEP20-balanceOf}."
					},
					"burn(uint256)": {
						"details": "Burn `amount` tokens and decreasing the total supply."
					},
					"decimals()": {
						"details": "Returns the token decimals."
					},
					"decreaseAllowance(address,uint256)": {
						"details": "Atomically decreases the allowance granted to `spender` by the caller.    * This is an alternative to {approve} that can be used as a mitigation for problems described in {BEP20-approve}.    * Emits an {Approval} event indicating the updated allowance.    * Requirements:    * - `spender` cannot be the zero address. - `spender` must have allowance for the caller of at least `subtractedValue`."
					},
					"getOwner()": {
						"details": "Returns the bep token owner."
					},
					"increaseAllowance(address,uint256)": {
						"details": "Atomically increases the allowance granted to `spender` by the caller.    * This is an alternative to {approve} that can be used as a mitigation for problems described in {BEP20-approve}.    * Emits an {Approval} event indicating the updated allowance.    * Requirements:    * - `spender` cannot be the zero address."
					},
					"mint(uint256)": {
						"details": "Creates `amount` tokens and assigns them to `msg.sender`, increasing the total supply.    * Requirements    * - `msg.sender` must be the token owner"
					},
					"name()": {
						"details": "Returns the token name."
					},
					"owner()": {
						"details": "Returns the address of the current owner."
					},
					"renounceOwnership()": {
						"details": "Leaves the contract without owner. It will not be possible to call `onlyOwner` functions anymore. Can only be called by the current owner.    * NOTE: Renouncing ownership will leave the contract without an owner, thereby removing any functionality that is only available to the owner."
					},
					"symbol()": {
						"details": "Returns the token symbol."
					},
					"totalSupply()": {
						"details": "See {BEP20-totalSupply}."
					},
					"transfer(address,uint256)": {
						"details": "See {BEP20-transfer}.    * Requirements:    * - `recipient` cannot be the zero address. - the caller must have a balance of at least `amount`."
					},
					"transferFrom(address,address,uint256)": {
						"details": "See {BEP20-transferFrom}.    * Emits an {Approval} event indicating the updated allowance. This is not required by the EIP. See the note at the beginning of {BEP20};    * Requirements: - `sender` and `recipient` cannot be the zero address. - `sender` must have a balance of at least `amount`. - the caller must have allowance for `sender`'s tokens of at least `amount`."
					},
					"transferOwnership(address)": {
						"details": "Transfers ownership of the contract to a new account (`newOwner`). Can only be called by the current owner."
					}
				}
			},
			"evm": {
				"assembly": "    /* \"tutorialtoken-box-master/KNS/PANCAKE/BUSD.sol\":11376:19390  contract BEP20Token is Context, IBEP20, Ownable {\r... */\n  mstore(0x40, 0x80)\n    /* \"tutorialtoken-box-master/KNS/PANCAKE/BUSD.sol\":11703:11952  constructor() public {\r... */\n  callvalue\n    /* \"--CODEGEN--\":8:17   */\n  dup1\n    /* \"--CODEGEN--\":5:7   */\n  iszero\n  tag_1\n  jumpi\n    /* \"--CODEGEN--\":30:31   */\n  0x00\n    /* \"--CODEGEN--\":27:28   */\n  dup1\n    /* \"--CODEGEN--\":20:32   */\n  revert\n    /* \"--CODEGEN--\":5:7   */\ntag_1:\n  pop\n    /* \"tutorialtoken-box-master/KNS/PANCAKE/BUSD.sol\":9885:9902  address msgSender */\n  0x00\n    /* \"tutorialtoken-box-master/KNS/PANCAKE/BUSD.sol\":9905:9917  _msgSender() */\n  tag_7\n  sub(shl(0xe0, 0x01), 0x01)\n    /* \"tutorialtoken-box-master/KNS/PANCAKE/BUSD.sol\":9905:9915  _msgSender */\n  tag_8\n    /* \"tutorialtoken-box-master/KNS/PANCAKE/BUSD.sol\":9905:9917  _msgSender() */\n  and\n  jump\t// in\ntag_7:\n    /* \"tutorialtoken-box-master/KNS/PANCAKE/BUSD.sol\":9924:9930  _owner */\n  0x00\n    /* \"tutorialtoken-box-master/KNS/PANCAKE/BUSD.sol\":9924:9942  _owner = msgSender */\n  dup1\n  sload\n  not(sub(shl(0xa0, 0x01), 0x01))\n  and\n  sub(shl(0xa0, 0x01), 0x01)\n  dup4\n  and\n  swap1\n  dup2\n  or\n  dup3\n  sstore\n    /* \"tutorialtoken-box-master/KNS/PANCAKE/BUSD.sol\":9954:9997  OwnershipTransferred(address(0), msgSender) */\n  mload(0x40)\n    /* \"tutorialtoken-box-master/KNS/PANCAKE/BUSD.sol\":9924:9942  _owner = msgSender */\n  swap3\n  swap4\n  pop\n  swap2\n    /* \"tutorialtoken-box-master/KNS/PANCAKE/BUSD.sol\":9954:9997  OwnershipTransferred(address(0), msgSender) */\n  0x8be0079c531659141344cd1fd0a4f28419497f9722a3daafe3b4186f6b6457e0\n  swap1\n    /* \"tutorialtoken-box-master/KNS/PANCAKE/BUSD.sol\":9924:9930  _owner */\n  dup3\n  swap1\n    /* \"tutorialtoken-box-master/KNS/PANCAKE/BUSD.sol\":9954:9997  OwnershipTransferred(address(0), msgSender) */\n  log3\n  pop\n    /* \"tutorialtoken-box-master/KNS/PANCAKE/BUSD.sol\":11731:11751  _name = \"BUSD Token\" */\n  0x40\n  dup1\n  mload\n  dup1\n  dup3\n  add\n  swap1\n  swap2\n  mstore\n  0x0a\n  dup1\n  dup3\n  mstore\n  shl(0xb1, 0x212aa9a2102a37b5b2b7)\n  0x20\n  swap1\n  swap3\n  add\n  swap2\n  dup3\n  mstore\n  tag_10\n  swap2\n    /* \"tutorialtoken-box-master/KNS/PANCAKE/BUSD.sol\":11731:11736  _name */\n  0x06\n  swap2\n    /* \"tutorialtoken-box-master/KNS/PANCAKE/BUSD.sol\":11731:11751  _name = \"BUSD Token\" */\n  tag_11\n  jump\t// in\ntag_10:\n  pop\n    /* \"tutorialtoken-box-master/KNS/PANCAKE/BUSD.sol\":11758:11774  _symbol = \"BUSD\" */\n  0x40\n  dup1\n  mload\n  dup1\n  dup3\n  add\n  swap1\n  swap2\n  mstore\n  0x04\n  dup1\n  dup3\n  mstore\n  shl(0xe2, 0x109554d1)\n  0x20\n  swap1\n  swap3\n  add\n  swap2\n  dup3\n  mstore\n  tag_12\n  swap2\n    /* \"tutorialtoken-box-master/KNS/PANCAKE/BUSD.sol\":11758:11765  _symbol */\n  0x05\n  swap2\n    /* \"tutorialtoken-box-master/KNS/PANCAKE/BUSD.sol\":11758:11774  _symbol = \"BUSD\" */\n  tag_11\n  jump\t// in\ntag_12:\n  pop\n    /* \"tutorialtoken-box-master/KNS/PANCAKE/BUSD.sol\":11781:11790  _decimals */\n  0x04\n    /* \"tutorialtoken-box-master/KNS/PANCAKE/BUSD.sol\":11781:11795  _decimals = 18 */\n  dup1\n  sload\n  not(0xff)\n  and\n    /* \"tutorialtoken-box-master/KNS/PANCAKE/BUSD.sol\":11793:11795  18 */\n  0x12\n    /* \"tutorialtoken-box-master/KNS/PANCAKE/BUSD.sol\":11781:11795  _decimals = 18 */\n  or\n  swap1\n  sstore\n    /* \"tutorialtoken-box-master/KNS/PANCAKE/BUSD.sol\":11817:11843  31000000000000000000000000 */\n  0x19a4815e0ad0c67f000000\n    /* \"tutorialtoken-box-master/KNS/PANCAKE/BUSD.sol\":11802:11814  _totalSupply */\n  0x03\n    /* \"tutorialtoken-box-master/KNS/PANCAKE/BUSD.sol\":11802:11843  _totalSupply = 31000000000000000000000000 */\n  dup2\n  swap1\n  sstore\n    /* \"tutorialtoken-box-master/KNS/PANCAKE/BUSD.sol\":11860:11870  msg.sender */\n  caller\n    /* \"tutorialtoken-box-master/KNS/PANCAKE/BUSD.sol\":11781:11790  _decimals */\n  0x00\n    /* \"tutorialtoken-box-master/KNS/PANCAKE/BUSD.sol\":11850:11871  _balances[msg.sender] */\n  dup2\n  dup2\n  mstore\n    /* \"tutorialtoken-box-master/KNS/PANCAKE/BUSD.sol\":11781:11795  _decimals = 18 */\n  0x01\n    /* \"tutorialtoken-box-master/KNS/PANCAKE/BUSD.sol\":11850:11871  _balances[msg.sender] */\n  0x20\n  swap1\n  dup2\n  mstore\n  0x40\n  dup1\n  dup4\n  keccak256\n    /* \"tutorialtoken-box-master/KNS/PANCAKE/BUSD.sol\":11850:11886  _balances[msg.sender] = _totalSupply */\n  dup6\n  swap1\n  sstore\n    /* \"tutorialtoken-box-master/KNS/PANCAKE/BUSD.sol\":11900:11946  Transfer(address(0), msg.sender, _totalSupply) */\n  dup1\n  mload\n  swap5\n  dup6\n  mstore\n  mload\n    /* \"tutorialtoken-box-master/KNS/PANCAKE/BUSD.sol\":11860:11870  msg.sender */\n  swap3\n  swap4\n    /* \"tutorialtoken-box-master/KNS/PANCAKE/BUSD.sol\":11781:11790  _decimals */\n  swap2\n  swap3\n    /* \"tutorialtoken-box-master/KNS/PANCAKE/BUSD.sol\":11900:11946  Transfer(address(0), msg.sender, _totalSupply) */\n  0xddf252ad1be2c89b69c2b068fc378daa952ba7f163c4a11628f55a4df523b3ef\n  swap3\n  dup2\n  swap1\n  sub\n  swap1\n  swap2\n  add\n  swap1\n  log3\n    /* \"tutorialtoken-box-master/KNS/PANCAKE/BUSD.sol\":11376:19390  contract BEP20Token is Context, IBEP20, Ownable {\r... */\n  jump(tag_13)\n    /* \"tutorialtoken-box-master/KNS/PANCAKE/BUSD.sol\":3773:3865  function _msgSender() internal view returns (address payable) {\r... */\ntag_8:\n    /* \"tutorialtoken-box-master/KNS/PANCAKE/BUSD.sol\":3849:3859  msg.sender */\n  caller\n    /* \"tutorialtoken-box-master/KNS/PANCAKE/BUSD.sol\":3773:3865  function _msgSender() internal view returns (address payable) {\r... */\ntag_14:\n  swap1\n  jump\t// out\n    /* \"tutorialtoken-box-master/KNS/PANCAKE/BUSD.sol\":11376:19390  contract BEP20Token is Context, IBEP20, Ownable {\r... */\ntag_11:\n  dup3\n  dup1\n  sload\n  0x01\n  dup2\n  0x01\n  and\n  iszero\n  0x0100\n  mul\n  sub\n  and\n  0x02\n  swap1\n  div\n  swap1\n  0x00\n  mstore\n  keccak256(0x00, 0x20)\n  swap1\n  0x1f\n  add\n  0x20\n  swap1\n  div\n  dup2\n  add\n  swap3\n  dup3\n  0x1f\n  lt\n  tag_16\n  jumpi\n  dup1\n  mload\n  not(0xff)\n  and\n  dup4\n  dup1\n  add\n  or\n  dup6\n  sstore\n  jump(tag_18)\ntag_16:\n  dup3\n  dup1\n  add\n  0x01\n  add\n  dup6\n  sstore\n  dup3\n  iszero\n  tag_18\n  jumpi\n  swap2\n  dup3\n  add\ntag_17:\n  dup3\n  dup2\n  gt\n  iszero\n  tag_18\n  jumpi\n  dup3\n  mload\n  dup3\n  sstore\n  swap2\n  0x20\n  add\n  swap2\n  swap1\n  0x01\n  add\n  swap1\n  jump(tag_17)\ntag_18:\n  pop\n  tag_19\n  swap3\n  swap2\n  pop\n  tag_20\n  jump\t// in\ntag_19:\n  pop\n  swap1\n  jump\t// out\ntag_20:\n  tag_14\n  swap2\n  swap1\ntag_22:\n  dup1\n  dup3\n  gt\n  iszero\n  tag_19\n  jumpi\n  0x00\n  dup2\n  sstore\n  0x01\n  add\n  jump(tag_22)\ntag_13:\n  dataSize(sub_0)\n  dup1\n  dataOffset(sub_0)\n  0x00\n  codecopy\n  0x00\n  return\nstop\n\nsub_0: assembly {\n        /* \"tutorialtoken-box-master/KNS/PANCAKE/BUSD.sol\":11376:19390  contract BEP20Token is Context, IBEP20, Ownable {\r... */\n      mstore(0x40, 0x80)\n      callvalue\n        /* \"--CODEGEN--\":8:17   */\n      dup1\n        /* \"--CODEGEN--\":5:7   */\n      iszero\n      tag_1\n      jumpi\n        /* \"--CODEGEN--\":30:31   */\n      0x00\n        /* \"--CODEGEN--\":27:28   */\n      dup1\n        /* \"--CODEGEN--\":20:32   */\n      revert\n        /* \"--CODEGEN--\":5:7   */\n    tag_1:\n        /* \"tutorialtoken-box-master/KNS/PANCAKE/BUSD.sol\":11376:19390  contract BEP20Token is Context, IBEP20, Ownable {\r... */\n      pop\n      jumpi(tag_2, lt(calldatasize, 0x04))\n      shr(0xe0, calldataload(0x00))\n      dup1\n      0x06fdde03\n      eq\n      tag_3\n      jumpi\n      dup1\n      0x095ea7b3\n      eq\n      tag_4\n      jumpi\n      dup1\n      0x18160ddd\n      eq\n      tag_5\n      jumpi\n      dup1\n      0x23b872dd\n      eq\n      tag_6\n      jumpi\n      dup1\n      0x313ce567\n      eq\n      tag_7\n      jumpi\n      dup1\n      0x32424aa3\n      eq\n      tag_8\n      jumpi\n      dup1\n      0x39509351\n      eq\n      tag_9\n      jumpi\n      dup1\n      0x42966c68\n      eq\n      tag_10\n      jumpi\n      dup1\n      0x70a08231\n      eq\n      tag_11\n      jumpi\n      dup1\n      0x715018a6\n      eq\n      tag_12\n      jumpi\n      dup1\n      0x893d20e8\n      eq\n      tag_13\n      jumpi\n      dup1\n      0x8da5cb5b\n      eq\n      tag_14\n      jumpi\n      dup1\n      0x95d89b41\n      eq\n      tag_15\n      jumpi\n      dup1\n      0xa0712d68\n      eq\n      tag_16\n      jumpi\n      dup1\n      0xa457c2d7\n      eq\n      tag_17\n      jumpi\n      dup1\n      0xa9059cbb\n      eq\n      tag_18\n      jumpi\n      dup1\n      0xb09f1266\n      eq\n      tag_19\n      jumpi\n      dup1\n      0xd28d8852\n      eq\n      tag_20\n      jumpi\n      dup1\n      0xdd62ed3e\n      eq\n      tag_21\n      jumpi\n      dup1\n      0xf2fde38b\n      eq\n      tag_22\n      jumpi\n    tag_2:\n      0x00\n      dup1\n      revert\n        /* \"tutorialtoken-box-master/KNS/PANCAKE/BUSD.sol\":12422:12501  function name() external view returns (string memory) {\r... */\n    tag_3:\n      tag_23\n      tag_24\n      jump\t// in\n    tag_23:\n      0x40\n      dup1\n      mload\n      0x20\n      dup1\n      dup3\n      mstore\n      dup4\n      mload\n      dup2\n      dup4\n      add\n      mstore\n      dup4\n      mload\n      swap2\n      swap3\n      dup4\n      swap3\n      swap1\n      dup4\n      add\n      swap2\n      dup6\n      add\n      swap1\n      dup1\n      dup4\n      dup4\n      0x00\n        /* \"--CODEGEN--\":8:108   */\n    tag_25:\n        /* \"--CODEGEN--\":33:36   */\n      dup4\n        /* \"--CODEGEN--\":30:31   */\n      dup2\n        /* \"--CODEGEN--\":27:37   */\n      lt\n        /* \"--CODEGEN--\":8:108   */\n      iszero\n      tag_27\n      jumpi\n        /* \"--CODEGEN--\":90:101   */\n      dup2\n      dup2\n      add\n        /* \"--CODEGEN--\":84:102   */\n      mload\n        /* \"--CODEGEN--\":71:82   */\n      dup4\n      dup3\n      add\n        /* \"--CODEGEN--\":64:103   */\n      mstore\n        /* \"--CODEGEN--\":52:54   */\n      0x20\n        /* \"--CODEGEN--\":45:55   */\n      add\n        /* \"--CODEGEN--\":8:108   */\n      jump(tag_25)\n    tag_27:\n        /* \"--CODEGEN--\":12:26   */\n      pop\n        /* \"tutorialtoken-box-master/KNS/PANCAKE/BUSD.sol\":12422:12501  function name() external view returns (string memory) {\r... */\n      pop\n      pop\n      pop\n      swap1\n      pop\n      swap1\n      dup2\n      add\n      swap1\n      0x1f\n      and\n      dup1\n      iszero\n      tag_28\n      jumpi\n      dup1\n      dup3\n      sub\n      dup1\n      mload\n      0x01\n      dup4\n      0x20\n      sub\n      0x0100\n      exp\n      sub\n      not\n      and\n      dup2\n      mstore\n      0x20\n      add\n      swap2\n      pop\n    tag_28:\n      pop\n      swap3\n      pop\n      pop\n      pop\n      mload(0x40)\n      dup1\n      swap2\n      sub\n      swap1\n      return\n        /* \"tutorialtoken-box-master/KNS/PANCAKE/BUSD.sol\":13462:13606  function approve(address spender, uint256 amount) external returns (bool) {\r... */\n    tag_4:\n      tag_29\n      0x04\n      dup1\n      calldatasize\n      sub\n        /* \"--CODEGEN--\":13:15   */\n      0x40\n        /* \"--CODEGEN--\":8:11   */\n      dup2\n        /* \"--CODEGEN--\":5:16   */\n      lt\n        /* \"--CODEGEN--\":2:4   */\n      iszero\n      tag_30\n      jumpi\n        /* \"--CODEGEN--\":29:30   */\n      0x00\n        /* \"--CODEGEN--\":26:27   */\n      dup1\n        /* \"--CODEGEN--\":19:31   */\n      revert\n        /* \"--CODEGEN--\":2:4   */\n    tag_30:\n      pop\n      sub(shl(0xa0, 0x01), 0x01)\n        /* \"tutorialtoken-box-master/KNS/PANCAKE/BUSD.sol\":13462:13606  function approve(address spender, uint256 amount) external returns (bool) {\r... */\n      dup2\n      calldataload\n      and\n      swap1\n      0x20\n      add\n      calldataload\n      tag_31\n      jump\t// in\n    tag_29:\n      0x40\n      dup1\n      mload\n      swap2\n      iszero\n      iszero\n      dup3\n      mstore\n      mload\n      swap1\n      dup2\n      swap1\n      sub\n      0x20\n      add\n      swap1\n      return\n        /* \"tutorialtoken-box-master/KNS/PANCAKE/BUSD.sol\":12557:12644  function totalSupply() external view returns (uint256) {\r... */\n    tag_5:\n      tag_32\n      tag_33\n      jump\t// in\n    tag_32:\n      0x40\n      dup1\n      mload\n      swap2\n      dup3\n      mstore\n      mload\n      swap1\n      dup2\n      swap1\n      sub\n      0x20\n      add\n      swap1\n      return\n        /* \"tutorialtoken-box-master/KNS/PANCAKE/BUSD.sol\":14051:14343  function transferFrom(address sender, address recipient, uint256 amount) external returns (bool) {\r... */\n    tag_6:\n      tag_29\n      0x04\n      dup1\n      calldatasize\n      sub\n        /* \"--CODEGEN--\":13:15   */\n      0x60\n        /* \"--CODEGEN--\":8:11   */\n      dup2\n        /* \"--CODEGEN--\":5:16   */\n      lt\n        /* \"--CODEGEN--\":2:4   */\n      iszero\n      tag_35\n      jumpi\n        /* \"--CODEGEN--\":29:30   */\n      0x00\n        /* \"--CODEGEN--\":26:27   */\n      dup1\n        /* \"--CODEGEN--\":19:31   */\n      revert\n        /* \"--CODEGEN--\":2:4   */\n    tag_35:\n      pop\n      sub(shl(0xa0, 0x01), 0x01)\n        /* \"tutorialtoken-box-master/KNS/PANCAKE/BUSD.sol\":14051:14343  function transferFrom(address sender, address recipient, uint256 amount) external returns (bool) {\r... */\n      dup2\n      calldataload\n      dup2\n      and\n      swap2\n      0x20\n      dup2\n      add\n      calldataload\n      swap1\n      swap2\n      and\n      swap1\n      0x40\n      add\n      calldataload\n      tag_36\n      jump\t// in\n        /* \"tutorialtoken-box-master/KNS/PANCAKE/BUSD.sol\":12150:12229  function decimals() external view returns (uint8) {\r... */\n    tag_7:\n      tag_37\n      tag_38\n      jump\t// in\n    tag_37:\n      0x40\n      dup1\n      mload\n      0xff\n      swap1\n      swap3\n      and\n      dup3\n      mstore\n      mload\n      swap1\n      dup2\n      swap1\n      sub\n      0x20\n      add\n      swap1\n      return\n        /* \"tutorialtoken-box-master/KNS/PANCAKE/BUSD.sol\":11624:11646  uint8 public _decimals */\n    tag_8:\n      tag_37\n      tag_40\n      jump\t// in\n        /* \"tutorialtoken-box-master/KNS/PANCAKE/BUSD.sol\":14725:14925  function increaseAllowance(address spender, uint256 addedValue) public returns (bool) {\r... */\n    tag_9:\n      tag_29\n      0x04\n      dup1\n      calldatasize\n      sub\n        /* \"--CODEGEN--\":13:15   */\n      0x40\n        /* \"--CODEGEN--\":8:11   */\n      dup2\n        /* \"--CODEGEN--\":5:16   */\n      lt\n        /* \"--CODEGEN--\":2:4   */\n      iszero\n      tag_42\n      jumpi\n        /* \"--CODEGEN--\":29:30   */\n      0x00\n        /* \"--CODEGEN--\":26:27   */\n      dup1\n        /* \"--CODEGEN--\":19:31   */\n      revert\n        /* \"--CODEGEN--\":2:4   */\n    tag_42:\n      pop\n      sub(shl(0xa0, 0x01), 0x01)\n        /* \"tutorialtoken-box-master/KNS/PANCAKE/BUSD.sol\":14725:14925  function increaseAllowance(address spender, uint256 addedValue) public returns (bool) {\r... */\n      dup2\n      calldataload\n      and\n      swap1\n      0x20\n      add\n      calldataload\n      tag_43\n      jump\t// in\n        /* \"tutorialtoken-box-master/KNS/PANCAKE/BUSD.sol\":16053:16163  function burn(uint256 amount) public returns (bool) {\r... */\n    tag_10:\n      tag_29\n      0x04\n      dup1\n      calldatasize\n      sub\n        /* \"--CODEGEN--\":13:15   */\n      0x20\n        /* \"--CODEGEN--\":8:11   */\n      dup2\n        /* \"--CODEGEN--\":5:16   */\n      lt\n        /* \"--CODEGEN--\":2:4   */\n      iszero\n      tag_45\n      jumpi\n        /* \"--CODEGEN--\":29:30   */\n      0x00\n        /* \"--CODEGEN--\":26:27   */\n      dup1\n        /* \"--CODEGEN--\":19:31   */\n      revert\n        /* \"--CODEGEN--\":2:4   */\n    tag_45:\n      pop\n        /* \"tutorialtoken-box-master/KNS/PANCAKE/BUSD.sol\":16053:16163  function burn(uint256 amount) public returns (bool) {\r... */\n      calldataload\n      tag_46\n      jump\t// in\n        /* \"tutorialtoken-box-master/KNS/PANCAKE/BUSD.sol\":12698:12804  function balanceOf(address account) external view returns (uint256) {\r... */\n    tag_11:\n      tag_32\n      0x04\n      dup1\n      calldatasize\n      sub\n        /* \"--CODEGEN--\":13:15   */\n      0x20\n        /* \"--CODEGEN--\":8:11   */\n      dup2\n        /* \"--CODEGEN--\":5:16   */\n      lt\n        /* \"--CODEGEN--\":2:4   */\n      iszero\n      tag_48\n      jumpi\n        /* \"--CODEGEN--\":29:30   */\n      0x00\n        /* \"--CODEGEN--\":26:27   */\n      dup1\n        /* \"--CODEGEN--\":19:31   */\n      revert\n        /* \"--CODEGEN--\":2:4   */\n    tag_48:\n      pop\n        /* \"tutorialtoken-box-master/KNS/PANCAKE/BUSD.sol\":12698:12804  function balanceOf(address account) external view returns (uint256) {\r... */\n      calldataload\n      sub(shl(0xa0, 0x01), 0x01)\n      and\n      tag_49\n      jump\t// in\n        /* \"tutorialtoken-box-master/KNS/PANCAKE/BUSD.sol\":10678:10808  function renounceOwnership() public onlyOwner {\r... */\n    tag_12:\n      tag_50\n      tag_51\n      jump\t// in\n    tag_50:\n      stop\n        /* \"tutorialtoken-box-master/KNS/PANCAKE/BUSD.sol\":12012:12091  function getOwner() external view returns (address) {\r... */\n    tag_13:\n      tag_52\n      tag_53\n      jump\t// in\n    tag_52:\n      0x40\n      dup1\n      mload\n      sub(shl(0xa0, 0x01), 0x01)\n      swap1\n      swap3\n      and\n      dup3\n      mstore\n      mload\n      swap1\n      dup2\n      swap1\n      sub\n      0x20\n      add\n      swap1\n      return\n        /* \"tutorialtoken-box-master/KNS/PANCAKE/BUSD.sol\":10076:10149  function owner() public view returns (address) {\r... */\n    tag_14:\n      tag_52\n      tag_55\n      jump\t// in\n        /* \"tutorialtoken-box-master/KNS/PANCAKE/BUSD.sol\":12286:12369  function symbol() external view returns (string memory) {\r... */\n    tag_15:\n      tag_23\n      tag_57\n      jump\t// in\n        /* \"tutorialtoken-box-master/KNS/PANCAKE/BUSD.sol\":15848:15968  function mint(uint256 amount) public onlyOwner returns (bool) {\r... */\n    tag_16:\n      tag_29\n      0x04\n      dup1\n      calldatasize\n      sub\n        /* \"--CODEGEN--\":13:15   */\n      0x20\n        /* \"--CODEGEN--\":8:11   */\n      dup2\n        /* \"--CODEGEN--\":5:16   */\n      lt\n        /* \"--CODEGEN--\":2:4   */\n      iszero\n      tag_63\n      jumpi\n        /* \"--CODEGEN--\":29:30   */\n      0x00\n        /* \"--CODEGEN--\":26:27   */\n      dup1\n        /* \"--CODEGEN--\":19:31   */\n      revert\n        /* \"--CODEGEN--\":2:4   */\n    tag_63:\n      pop\n        /* \"tutorialtoken-box-master/KNS/PANCAKE/BUSD.sol\":15848:15968  function mint(uint256 amount) public onlyOwner returns (bool) {\r... */\n      calldataload\n      tag_64\n      jump\t// in\n        /* \"tutorialtoken-box-master/KNS/PANCAKE/BUSD.sol\":15397:15648  function decreaseAllowance(address spender, uint256 subtractedValue) public returns (bool) {\r... */\n    tag_17:\n      tag_29\n      0x04\n      dup1\n      calldatasize\n      sub\n        /* \"--CODEGEN--\":13:15   */\n      0x40\n        /* \"--CODEGEN--\":8:11   */\n      dup2\n        /* \"--CODEGEN--\":5:16   */\n      lt\n        /* \"--CODEGEN--\":2:4   */\n      iszero\n      tag_66\n      jumpi\n        /* \"--CODEGEN--\":29:30   */\n      0x00\n        /* \"--CODEGEN--\":26:27   */\n      dup1\n        /* \"--CODEGEN--\":19:31   */\n      revert\n        /* \"--CODEGEN--\":2:4   */\n    tag_66:\n      pop\n      sub(shl(0xa0, 0x01), 0x01)\n        /* \"tutorialtoken-box-master/KNS/PANCAKE/BUSD.sol\":15397:15648  function decreaseAllowance(address spender, uint256 subtractedValue) public returns (bool) {\r... */\n      dup2\n      calldataload\n      and\n      swap1\n      0x20\n      add\n      calldataload\n      tag_67\n      jump\t// in\n        /* \"tutorialtoken-box-master/KNS/PANCAKE/BUSD.sol\":12998:13148  function transfer(address recipient, uint256 amount) external returns (bool) {\r... */\n    tag_18:\n      tag_29\n      0x04\n      dup1\n      calldatasize\n      sub\n        /* \"--CODEGEN--\":13:15   */\n      0x40\n        /* \"--CODEGEN--\":8:11   */\n      dup2\n        /* \"--CODEGEN--\":5:16   */\n      lt\n        /* \"--CODEGEN--\":2:4   */\n      iszero\n      tag_69\n      jumpi\n        /* \"--CODEGEN--\":29:30   */\n      0x00\n        /* \"--CODEGEN--\":26:27   */\n      dup1\n        /* \"--CODEGEN--\":19:31   */\n      revert\n        /* \"--CODEGEN--\":2:4   */\n    tag_69:\n      pop\n      sub(shl(0xa0, 0x01), 0x01)\n        /* \"tutorialtoken-box-master/KNS/PANCAKE/BUSD.sol\":12998:13148  function transfer(address recipient, uint256 amount) external returns (bool) {\r... */\n      dup2\n      calldataload\n      and\n      swap1\n      0x20\n      add\n      calldataload\n      tag_70\n      jump\t// in\n        /* \"tutorialtoken-box-master/KNS/PANCAKE/BUSD.sol\":11651:11672  string public _symbol */\n    tag_19:\n      tag_23\n      tag_72\n      jump\t// in\n        /* \"tutorialtoken-box-master/KNS/PANCAKE/BUSD.sol\":11677:11696  string public _name */\n    tag_20:\n      tag_23\n      tag_78\n      jump\t// in\n        /* \"tutorialtoken-box-master/KNS/PANCAKE/BUSD.sol\":13202:13332  function allowance(address owner, address spender) external view returns (uint256) {\r... */\n    tag_21:\n      tag_32\n      0x04\n      dup1\n      calldatasize\n      sub\n        /* \"--CODEGEN--\":13:15   */\n      0x40\n        /* \"--CODEGEN--\":8:11   */\n      dup2\n        /* \"--CODEGEN--\":5:16   */\n      lt\n        /* \"--CODEGEN--\":2:4   */\n      iszero\n      tag_84\n      jumpi\n        /* \"--CODEGEN--\":29:30   */\n      0x00\n        /* \"--CODEGEN--\":26:27   */\n      dup1\n        /* \"--CODEGEN--\":19:31   */\n      revert\n        /* \"--CODEGEN--\":2:4   */\n    tag_84:\n      pop\n      sub(shl(0xa0, 0x01), 0x01)\n        /* \"tutorialtoken-box-master/KNS/PANCAKE/BUSD.sol\":13202:13332  function allowance(address owner, address spender) external view returns (uint256) {\r... */\n      dup2\n      calldataload\n      dup2\n      and\n      swap2\n      0x20\n      add\n      calldataload\n      and\n      tag_85\n      jump\t// in\n        /* \"tutorialtoken-box-master/KNS/PANCAKE/BUSD.sol\":10953:11056  function transferOwnership(address newOwner) public onlyOwner {\r... */\n    tag_22:\n      tag_50\n      0x04\n      dup1\n      calldatasize\n      sub\n        /* \"--CODEGEN--\":13:15   */\n      0x20\n        /* \"--CODEGEN--\":8:11   */\n      dup2\n        /* \"--CODEGEN--\":5:16   */\n      lt\n        /* \"--CODEGEN--\":2:4   */\n      iszero\n      tag_87\n      jumpi\n        /* \"--CODEGEN--\":29:30   */\n      0x00\n        /* \"--CODEGEN--\":26:27   */\n      dup1\n        /* \"--CODEGEN--\":19:31   */\n      revert\n        /* \"--CODEGEN--\":2:4   */\n    tag_87:\n      pop\n        /* \"tutorialtoken-box-master/KNS/PANCAKE/BUSD.sol\":10953:11056  function transferOwnership(address newOwner) public onlyOwner {\r... */\n      calldataload\n      sub(shl(0xa0, 0x01), 0x01)\n      and\n      tag_88\n      jump\t// in\n        /* \"tutorialtoken-box-master/KNS/PANCAKE/BUSD.sol\":12422:12501  function name() external view returns (string memory) {\r... */\n    tag_24:\n        /* \"tutorialtoken-box-master/KNS/PANCAKE/BUSD.sol\":12490:12495  _name */\n      0x06\n        /* \"tutorialtoken-box-master/KNS/PANCAKE/BUSD.sol\":12483:12495  return _name */\n      dup1\n      sload\n      0x40\n      dup1\n      mload\n      0x20\n      0x1f\n      0x02\n      not(0x00)\n      0x0100\n      0x01\n      dup9\n      and\n      iszero\n      mul\n      add\n      swap1\n      swap6\n      and\n      swap5\n      swap1\n      swap5\n      div\n      swap4\n      dup5\n      add\n      dup2\n      swap1\n      div\n      dup2\n      mul\n      dup3\n      add\n      dup2\n      add\n      swap1\n      swap3\n      mstore\n      dup3\n      dup2\n      mstore\n        /* \"tutorialtoken-box-master/KNS/PANCAKE/BUSD.sol\":12461:12474  string memory */\n      0x60\n      swap4\n        /* \"tutorialtoken-box-master/KNS/PANCAKE/BUSD.sol\":12483:12495  return _name */\n      swap1\n      swap3\n        /* \"tutorialtoken-box-master/KNS/PANCAKE/BUSD.sol\":12490:12495  _name */\n      swap1\n      swap2\n        /* \"tutorialtoken-box-master/KNS/PANCAKE/BUSD.sol\":12483:12495  return _name */\n      dup4\n      add\n        /* \"tutorialtoken-box-master/KNS/PANCAKE/BUSD.sol\":12490:12495  _name */\n      dup3\n        /* \"tutorialtoken-box-master/KNS/PANCAKE/BUSD.sol\":12483:12495  return _name */\n      dup3\n      dup1\n      iszero\n      tag_90\n      jumpi\n      dup1\n      0x1f\n      lt\n      tag_91\n      jumpi\n      0x0100\n      dup1\n      dup4\n      sload\n      div\n      mul\n      dup4\n      mstore\n      swap2\n      0x20\n      add\n      swap2\n      jump(tag_90)\n    tag_91:\n      dup3\n      add\n      swap2\n      swap1\n      0x00\n      mstore\n      keccak256(0x00, 0x20)\n      swap1\n    tag_92:\n      dup2\n      sload\n      dup2\n      mstore\n      swap1\n      0x01\n      add\n      swap1\n      0x20\n      add\n      dup1\n      dup4\n      gt\n      tag_92\n      jumpi\n      dup3\n      swap1\n      sub\n      0x1f\n      and\n      dup3\n      add\n      swap2\n    tag_90:\n      pop\n      pop\n      pop\n      pop\n      pop\n      swap1\n      pop\n        /* \"tutorialtoken-box-master/KNS/PANCAKE/BUSD.sol\":12422:12501  function name() external view returns (string memory) {\r... */\n      swap1\n      jump\t// out\n        /* \"tutorialtoken-box-master/KNS/PANCAKE/BUSD.sol\":13462:13606  function approve(address spender, uint256 amount) external returns (bool) {\r... */\n    tag_31:\n        /* \"tutorialtoken-box-master/KNS/PANCAKE/BUSD.sol\":13530:13534  bool */\n      0x00\n        /* \"tutorialtoken-box-master/KNS/PANCAKE/BUSD.sol\":13543:13582  _approve(_msgSender(), spender, amount) */\n      tag_94\n        /* \"tutorialtoken-box-master/KNS/PANCAKE/BUSD.sol\":13552:13564  _msgSender() */\n      tag_95\n        /* \"tutorialtoken-box-master/KNS/PANCAKE/BUSD.sol\":13552:13562  _msgSender */\n      tag_96\n        /* \"tutorialtoken-box-master/KNS/PANCAKE/BUSD.sol\":13552:13564  _msgSender() */\n      jump\t// in\n    tag_95:\n        /* \"tutorialtoken-box-master/KNS/PANCAKE/BUSD.sol\":13566:13573  spender */\n      dup5\n        /* \"tutorialtoken-box-master/KNS/PANCAKE/BUSD.sol\":13575:13581  amount */\n      dup5\n        /* \"tutorialtoken-box-master/KNS/PANCAKE/BUSD.sol\":13543:13551  _approve */\n      tag_97\n        /* \"tutorialtoken-box-master/KNS/PANCAKE/BUSD.sol\":13543:13582  _approve(_msgSender(), spender, amount) */\n      jump\t// in\n    tag_94:\n      pop\n        /* \"tutorialtoken-box-master/KNS/PANCAKE/BUSD.sol\":13596:13600  true */\n      0x01\n        /* \"tutorialtoken-box-master/KNS/PANCAKE/BUSD.sol\":13462:13606  function approve(address spender, uint256 amount) external returns (bool) {\r... */\n      swap3\n      swap2\n      pop\n      pop\n      jump\t// out\n        /* \"tutorialtoken-box-master/KNS/PANCAKE/BUSD.sol\":12557:12644  function totalSupply() external view returns (uint256) {\r... */\n    tag_33:\n        /* \"tutorialtoken-box-master/KNS/PANCAKE/BUSD.sol\":12626:12638  _totalSupply */\n      sload(0x03)\n        /* \"tutorialtoken-box-master/KNS/PANCAKE/BUSD.sol\":12557:12644  function totalSupply() external view returns (uint256) {\r... */\n      swap1\n      jump\t// out\n        /* \"tutorialtoken-box-master/KNS/PANCAKE/BUSD.sol\":14051:14343  function transferFrom(address sender, address recipient, uint256 amount) external returns (bool) {\r... */\n    tag_36:\n        /* \"tutorialtoken-box-master/KNS/PANCAKE/BUSD.sol\":14142:14146  bool */\n      0x00\n        /* \"tutorialtoken-box-master/KNS/PANCAKE/BUSD.sol\":14155:14191  _transfer(sender, recipient, amount) */\n      tag_100\n        /* \"tutorialtoken-box-master/KNS/PANCAKE/BUSD.sol\":14165:14171  sender */\n      dup5\n        /* \"tutorialtoken-box-master/KNS/PANCAKE/BUSD.sol\":14173:14182  recipient */\n      dup5\n        /* \"tutorialtoken-box-master/KNS/PANCAKE/BUSD.sol\":14184:14190  amount */\n      dup5\n        /* \"tutorialtoken-box-master/KNS/PANCAKE/BUSD.sol\":14155:14164  _transfer */\n      tag_101\n        /* \"tutorialtoken-box-master/KNS/PANCAKE/BUSD.sol\":14155:14191  _transfer(sender, recipient, amount) */\n      jump\t// in\n    tag_100:\n        /* \"tutorialtoken-box-master/KNS/PANCAKE/BUSD.sol\":14198:14319  _approve(sender, _msgSender(), _allowances[sender][_msgSender()].sub(amount, \"BEP20: transfer amount exceeds allowance\")) */\n      tag_102\n        /* \"tutorialtoken-box-master/KNS/PANCAKE/BUSD.sol\":14207:14213  sender */\n      dup5\n        /* \"tutorialtoken-box-master/KNS/PANCAKE/BUSD.sol\":14215:14227  _msgSender() */\n      tag_103\n        /* \"tutorialtoken-box-master/KNS/PANCAKE/BUSD.sol\":14215:14225  _msgSender */\n      tag_96\n        /* \"tutorialtoken-box-master/KNS/PANCAKE/BUSD.sol\":14215:14227  _msgSender() */\n      jump\t// in\n    tag_103:\n        /* \"tutorialtoken-box-master/KNS/PANCAKE/BUSD.sol\":14229:14318  _allowances[sender][_msgSender()].sub(amount, \"BEP20: transfer amount exceeds allowance\") */\n      tag_104\n        /* \"tutorialtoken-box-master/KNS/PANCAKE/BUSD.sol\":14267:14273  amount */\n      dup6\n        /* \"tutorialtoken-box-master/KNS/PANCAKE/BUSD.sol\":14229:14318  _allowances[sender][_msgSender()].sub(amount, \"BEP20: transfer amount exceeds allowance\") */\n      mload(0x40)\n      dup1\n      0x60\n      add\n      0x40\n      mstore\n      dup1\n      0x28\n      dup2\n      mstore\n      0x20\n      add\n      data_4f3506f4ba71c79c3cbd442a3afeb30e9b27af2d84e116a4385b34e267d2287e\n      0x28\n      swap2\n      codecopy\n      sub(shl(0xa0, 0x01), 0x01)\n        /* \"tutorialtoken-box-master/KNS/PANCAKE/BUSD.sol\":14229:14248  _allowances[sender] */\n      dup11\n      and\n      0x00\n      swap1\n      dup2\n      mstore\n        /* \"tutorialtoken-box-master/KNS/PANCAKE/BUSD.sol\":14229:14240  _allowances */\n      0x02\n        /* \"tutorialtoken-box-master/KNS/PANCAKE/BUSD.sol\":14229:14248  _allowances[sender] */\n      0x20\n      mstore\n      0x40\n      dup2\n      keccak256\n      swap1\n        /* \"tutorialtoken-box-master/KNS/PANCAKE/BUSD.sol\":14249:14261  _msgSender() */\n      tag_105\n        /* \"tutorialtoken-box-master/KNS/PANCAKE/BUSD.sol\":14249:14259  _msgSender */\n      tag_96\n        /* \"tutorialtoken-box-master/KNS/PANCAKE/BUSD.sol\":14249:14261  _msgSender() */\n      jump\t// in\n    tag_105:\n      sub(shl(0xa0, 0x01), 0x01)\n        /* \"tutorialtoken-box-master/KNS/PANCAKE/BUSD.sol\":14229:14262  _allowances[sender][_msgSender()] */\n      and\n      dup2\n      mstore\n      0x20\n      dup2\n      add\n      swap2\n      swap1\n      swap2\n      mstore\n      0x40\n      add\n      0x00\n      keccak256\n      sload\n      swap2\n        /* \"tutorialtoken-box-master/KNS/PANCAKE/BUSD.sol\":14229:14318  _allowances[sender][_msgSender()].sub(amount, \"BEP20: transfer amount exceeds allowance\") */\n      swap1\n      0xffffffff\n        /* \"tutorialtoken-box-master/KNS/PANCAKE/BUSD.sol\":14229:14266  _allowances[sender][_msgSender()].sub */\n      tag_106\n        /* \"tutorialtoken-box-master/KNS/PANCAKE/BUSD.sol\":14229:14318  _allowances[sender][_msgSender()].sub(amount, \"BEP20: transfer amount exceeds allowance\") */\n      and\n      jump\t// in\n    tag_104:\n        /* \"tutorialtoken-box-master/KNS/PANCAKE/BUSD.sol\":14198:14206  _approve */\n      tag_97\n        /* \"tutorialtoken-box-master/KNS/PANCAKE/BUSD.sol\":14198:14319  _approve(sender, _msgSender(), _allowances[sender][_msgSender()].sub(amount, \"BEP20: transfer amount exceeds allowance\")) */\n      jump\t// in\n    tag_102:\n      pop\n        /* \"tutorialtoken-box-master/KNS/PANCAKE/BUSD.sol\":14333:14337  true */\n      0x01\n        /* \"tutorialtoken-box-master/KNS/PANCAKE/BUSD.sol\":14051:14343  function transferFrom(address sender, address recipient, uint256 amount) external returns (bool) {\r... */\n      swap4\n      swap3\n      pop\n      pop\n      pop\n      jump\t// out\n        /* \"tutorialtoken-box-master/KNS/PANCAKE/BUSD.sol\":12150:12229  function decimals() external view returns (uint8) {\r... */\n    tag_38:\n        /* \"tutorialtoken-box-master/KNS/PANCAKE/BUSD.sol\":12214:12223  _decimals */\n      and(0xff, sload(0x04))\n        /* \"tutorialtoken-box-master/KNS/PANCAKE/BUSD.sol\":12150:12229  function decimals() external view returns (uint8) {\r... */\n      swap1\n      jump\t// out\n        /* \"tutorialtoken-box-master/KNS/PANCAKE/BUSD.sol\":11624:11646  uint8 public _decimals */\n    tag_40:\n      and(0xff, sload(0x04))\n      dup2\n      jump\t// out\n        /* \"tutorialtoken-box-master/KNS/PANCAKE/BUSD.sol\":14725:14925  function increaseAllowance(address spender, uint256 addedValue) public returns (bool) {\r... */\n    tag_43:\n        /* \"tutorialtoken-box-master/KNS/PANCAKE/BUSD.sol\":14805:14809  bool */\n      0x00\n        /* \"tutorialtoken-box-master/KNS/PANCAKE/BUSD.sol\":14818:14901  _approve(_msgSender(), spender, _allowances[_msgSender()][spender].add(addedValue)) */\n      tag_94\n        /* \"tutorialtoken-box-master/KNS/PANCAKE/BUSD.sol\":14827:14839  _msgSender() */\n      tag_110\n        /* \"tutorialtoken-box-master/KNS/PANCAKE/BUSD.sol\":14827:14837  _msgSender */\n      tag_96\n        /* \"tutorialtoken-box-master/KNS/PANCAKE/BUSD.sol\":14827:14839  _msgSender() */\n      jump\t// in\n    tag_110:\n        /* \"tutorialtoken-box-master/KNS/PANCAKE/BUSD.sol\":14841:14848  spender */\n      dup5\n        /* \"tutorialtoken-box-master/KNS/PANCAKE/BUSD.sol\":14850:14900  _allowances[_msgSender()][spender].add(addedValue) */\n      tag_104\n        /* \"tutorialtoken-box-master/KNS/PANCAKE/BUSD.sol\":14889:14899  addedValue */\n      dup6\n        /* \"tutorialtoken-box-master/KNS/PANCAKE/BUSD.sol\":14850:14861  _allowances */\n      0x02\n        /* \"tutorialtoken-box-master/KNS/PANCAKE/BUSD.sol\":14850:14875  _allowances[_msgSender()] */\n      0x00\n        /* \"tutorialtoken-box-master/KNS/PANCAKE/BUSD.sol\":14862:14874  _msgSender() */\n      tag_112\n        /* \"tutorialtoken-box-master/KNS/PANCAKE/BUSD.sol\":14862:14872  _msgSender */\n      tag_96\n        /* \"tutorialtoken-box-master/KNS/PANCAKE/BUSD.sol\":14862:14874  _msgSender() */\n      jump\t// in\n    tag_112:\n      sub(shl(0xa0, 0x01), 0x01)\n        /* \"tutorialtoken-box-master/KNS/PANCAKE/BUSD.sol\":14850:14875  _allowances[_msgSender()] */\n      swap1\n      dup2\n      and\n      dup3\n      mstore\n      0x20\n      dup1\n      dup4\n      add\n      swap4\n      swap1\n      swap4\n      mstore\n      0x40\n      swap2\n      dup3\n      add\n      0x00\n      swap1\n      dup2\n      keccak256\n        /* \"tutorialtoken-box-master/KNS/PANCAKE/BUSD.sol\":14850:14884  _allowances[_msgSender()][spender] */\n      swap2\n      dup13\n      and\n      dup2\n      mstore\n      swap3\n      mstore\n      swap1\n      keccak256\n      sload\n      swap1\n        /* \"tutorialtoken-box-master/KNS/PANCAKE/BUSD.sol\":14850:14900  _allowances[_msgSender()][spender].add(addedValue) */\n      0xffffffff\n        /* \"tutorialtoken-box-master/KNS/PANCAKE/BUSD.sol\":14850:14888  _allowances[_msgSender()][spender].add */\n      tag_113\n        /* \"tutorialtoken-box-master/KNS/PANCAKE/BUSD.sol\":14850:14900  _allowances[_msgSender()][spender].add(addedValue) */\n      and\n      jump\t// in\n        /* \"tutorialtoken-box-master/KNS/PANCAKE/BUSD.sol\":16053:16163  function burn(uint256 amount) public returns (bool) {\r... */\n    tag_46:\n        /* \"tutorialtoken-box-master/KNS/PANCAKE/BUSD.sol\":16099:16103  bool */\n      0x00\n        /* \"tutorialtoken-box-master/KNS/PANCAKE/BUSD.sol\":16112:16139  _burn(_msgSender(), amount) */\n      tag_115\n        /* \"tutorialtoken-box-master/KNS/PANCAKE/BUSD.sol\":16118:16130  _msgSender() */\n      tag_116\n        /* \"tutorialtoken-box-master/KNS/PANCAKE/BUSD.sol\":16118:16128  _msgSender */\n      tag_96\n        /* \"tutorialtoken-box-master/KNS/PANCAKE/BUSD.sol\":16118:16130  _msgSender() */\n      jump\t// in\n    tag_116:\n        /* \"tutorialtoken-box-master/KNS/PANCAKE/BUSD.sol\":16132:16138  amount */\n      dup4\n        /* \"tutorialtoken-box-master/KNS/PANCAKE/BUSD.sol\":16112:16117  _burn */\n      tag_117\n        /* \"tutorialtoken-box-master/KNS/PANCAKE/BUSD.sol\":16112:16139  _burn(_msgSender(), amount) */\n      jump\t// in\n    tag_115:\n      pop\n        /* \"tutorialtoken-box-master/KNS/PANCAKE/BUSD.sol\":16153:16157  true */\n      0x01\n        /* \"tutorialtoken-box-master/KNS/PANCAKE/BUSD.sol\":16053:16163  function burn(uint256 amount) public returns (bool) {\r... */\n      swap2\n      swap1\n      pop\n      jump\t// out\n        /* \"tutorialtoken-box-master/KNS/PANCAKE/BUSD.sol\":12698:12804  function balanceOf(address account) external view returns (uint256) {\r... */\n    tag_49:\n      sub(shl(0xa0, 0x01), 0x01)\n        /* \"tutorialtoken-box-master/KNS/PANCAKE/BUSD.sol\":12780:12798  _balances[account] */\n      and\n        /* \"tutorialtoken-box-master/KNS/PANCAKE/BUSD.sol\":12757:12764  uint256 */\n      0x00\n        /* \"tutorialtoken-box-master/KNS/PANCAKE/BUSD.sol\":12780:12798  _balances[account] */\n      swap1\n      dup2\n      mstore\n        /* \"tutorialtoken-box-master/KNS/PANCAKE/BUSD.sol\":12780:12789  _balances */\n      0x01\n        /* \"tutorialtoken-box-master/KNS/PANCAKE/BUSD.sol\":12780:12798  _balances[account] */\n      0x20\n      mstore\n      0x40\n      swap1\n      keccak256\n      sload\n      swap1\n        /* \"tutorialtoken-box-master/KNS/PANCAKE/BUSD.sol\":12698:12804  function balanceOf(address account) external view returns (uint256) {\r... */\n      jump\t// out\n        /* \"tutorialtoken-box-master/KNS/PANCAKE/BUSD.sol\":10678:10808  function renounceOwnership() public onlyOwner {\r... */\n    tag_51:\n        /* \"tutorialtoken-box-master/KNS/PANCAKE/BUSD.sol\":10280:10292  _msgSender() */\n      tag_120\n        /* \"tutorialtoken-box-master/KNS/PANCAKE/BUSD.sol\":10280:10290  _msgSender */\n      tag_96\n        /* \"tutorialtoken-box-master/KNS/PANCAKE/BUSD.sol\":10280:10292  _msgSender() */\n      jump\t// in\n    tag_120:\n        /* \"tutorialtoken-box-master/KNS/PANCAKE/BUSD.sol\":10270:10276  _owner */\n      sload(0x00)\n      sub(shl(0xa0, 0x01), 0x01)\n      swap1\n      dup2\n      and\n        /* \"tutorialtoken-box-master/KNS/PANCAKE/BUSD.sol\":10270:10292  _owner == _msgSender() */\n      swap2\n      and\n      eq\n        /* \"tutorialtoken-box-master/KNS/PANCAKE/BUSD.sol\":10262:10329  require(_owner == _msgSender(), \"Ownable: caller is not the owner\") */\n      tag_121\n      jumpi\n      0x40\n      dup1\n      mload\n      shl(0xe5, 0x461bcd)\n      dup2\n      mstore\n      0x20\n      0x04\n      dup3\n      add\n      dup2\n      swap1\n      mstore\n      0x24\n      dup3\n      add\n      mstore\n      0x00\n      dup1\n      mload\n      0x20\n      data_9924ebdf1add33d25d4ef888e16131f0a5687b0580a36c21b5c301a6c462effe\n      dup4\n      codecopy\n      dup2\n      mload\n      swap2\n      mstore\n      0x44\n      dup3\n      add\n      mstore\n      swap1\n      mload\n      swap1\n      dup2\n      swap1\n      sub\n      0x64\n      add\n      swap1\n      revert\n    tag_121:\n        /* \"tutorialtoken-box-master/KNS/PANCAKE/BUSD.sol\":10773:10774  0 */\n      0x00\n        /* \"tutorialtoken-box-master/KNS/PANCAKE/BUSD.sol\":10757:10763  _owner */\n      dup1\n      sload\n        /* \"tutorialtoken-box-master/KNS/PANCAKE/BUSD.sol\":10736:10776  OwnershipTransferred(_owner, address(0)) */\n      mload(0x40)\n      sub(shl(0xa0, 0x01), 0x01)\n        /* \"tutorialtoken-box-master/KNS/PANCAKE/BUSD.sol\":10757:10763  _owner */\n      swap1\n      swap2\n      and\n      swap1\n      0x00\n      dup1\n      mload\n      0x20\n      data_9c064737b570a74c2bac5d21056d93ac53115214216cd14d4a0fc9b60be81231\n      dup4\n      codecopy\n      dup2\n      mload\n      swap2\n      mstore\n        /* \"tutorialtoken-box-master/KNS/PANCAKE/BUSD.sol\":10736:10776  OwnershipTransferred(_owner, address(0)) */\n      swap1\n        /* \"tutorialtoken-box-master/KNS/PANCAKE/BUSD.sol\":10773:10774  0 */\n      dup4\n      swap1\n        /* \"tutorialtoken-box-master/KNS/PANCAKE/BUSD.sol\":10736:10776  OwnershipTransferred(_owner, address(0)) */\n      log3\n        /* \"tutorialtoken-box-master/KNS/PANCAKE/BUSD.sol\":10800:10801  0 */\n      0x00\n        /* \"tutorialtoken-box-master/KNS/PANCAKE/BUSD.sol\":10783:10802  _owner = address(0) */\n      dup1\n      sload\n      not(sub(shl(0xa0, 0x01), 0x01))\n      and\n      swap1\n      sstore\n        /* \"tutorialtoken-box-master/KNS/PANCAKE/BUSD.sol\":10678:10808  function renounceOwnership() public onlyOwner {\r... */\n      jump\t// out\n        /* \"tutorialtoken-box-master/KNS/PANCAKE/BUSD.sol\":12012:12091  function getOwner() external view returns (address) {\r... */\n    tag_53:\n        /* \"tutorialtoken-box-master/KNS/PANCAKE/BUSD.sol\":12055:12062  address */\n      0x00\n        /* \"tutorialtoken-box-master/KNS/PANCAKE/BUSD.sol\":12078:12085  owner() */\n      tag_124\n        /* \"tutorialtoken-box-master/KNS/PANCAKE/BUSD.sol\":12078:12083  owner */\n      tag_55\n        /* \"tutorialtoken-box-master/KNS/PANCAKE/BUSD.sol\":12078:12085  owner() */\n      jump\t// in\n    tag_124:\n        /* \"tutorialtoken-box-master/KNS/PANCAKE/BUSD.sol\":12071:12085  return owner() */\n      swap1\n      pop\n        /* \"tutorialtoken-box-master/KNS/PANCAKE/BUSD.sol\":12012:12091  function getOwner() external view returns (address) {\r... */\n      swap1\n      jump\t// out\n        /* \"tutorialtoken-box-master/KNS/PANCAKE/BUSD.sol\":10076:10149  function owner() public view returns (address) {\r... */\n    tag_55:\n        /* \"tutorialtoken-box-master/KNS/PANCAKE/BUSD.sol\":10114:10121  address */\n      0x00\n        /* \"tutorialtoken-box-master/KNS/PANCAKE/BUSD.sol\":10137:10143  _owner */\n      sload\n      sub(shl(0xa0, 0x01), 0x01)\n      and\n        /* \"tutorialtoken-box-master/KNS/PANCAKE/BUSD.sol\":10076:10149  function owner() public view returns (address) {\r... */\n      swap1\n      jump\t// out\n        /* \"tutorialtoken-box-master/KNS/PANCAKE/BUSD.sol\":12286:12369  function symbol() external view returns (string memory) {\r... */\n    tag_57:\n        /* \"tutorialtoken-box-master/KNS/PANCAKE/BUSD.sol\":12356:12363  _symbol */\n      0x05\n        /* \"tutorialtoken-box-master/KNS/PANCAKE/BUSD.sol\":12349:12363  return _symbol */\n      dup1\n      sload\n      0x40\n      dup1\n      mload\n      0x20\n      0x1f\n      0x02\n      not(0x00)\n      0x0100\n      0x01\n      dup9\n      and\n      iszero\n      mul\n      add\n      swap1\n      swap6\n      and\n      swap5\n      swap1\n      swap5\n      div\n      swap4\n      dup5\n      add\n      dup2\n      swap1\n      div\n      dup2\n      mul\n      dup3\n      add\n      dup2\n      add\n      swap1\n      swap3\n      mstore\n      dup3\n      dup2\n      mstore\n        /* \"tutorialtoken-box-master/KNS/PANCAKE/BUSD.sol\":12327:12340  string memory */\n      0x60\n      swap4\n        /* \"tutorialtoken-box-master/KNS/PANCAKE/BUSD.sol\":12349:12363  return _symbol */\n      swap1\n      swap3\n        /* \"tutorialtoken-box-master/KNS/PANCAKE/BUSD.sol\":12356:12363  _symbol */\n      swap1\n      swap2\n        /* \"tutorialtoken-box-master/KNS/PANCAKE/BUSD.sol\":12349:12363  return _symbol */\n      dup4\n      add\n        /* \"tutorialtoken-box-master/KNS/PANCAKE/BUSD.sol\":12356:12363  _symbol */\n      dup3\n        /* \"tutorialtoken-box-master/KNS/PANCAKE/BUSD.sol\":12349:12363  return _symbol */\n      dup3\n      dup1\n      iszero\n      tag_90\n      jumpi\n      dup1\n      0x1f\n      lt\n      tag_91\n      jumpi\n      0x0100\n      dup1\n      dup4\n      sload\n      div\n      mul\n      dup4\n      mstore\n      swap2\n      0x20\n      add\n      swap2\n      jump(tag_90)\n        /* \"tutorialtoken-box-master/KNS/PANCAKE/BUSD.sol\":15848:15968  function mint(uint256 amount) public onlyOwner returns (bool) {\r... */\n    tag_64:\n        /* \"tutorialtoken-box-master/KNS/PANCAKE/BUSD.sol\":15904:15908  bool */\n      0x00\n        /* \"tutorialtoken-box-master/KNS/PANCAKE/BUSD.sol\":10280:10292  _msgSender() */\n      tag_131\n        /* \"tutorialtoken-box-master/KNS/PANCAKE/BUSD.sol\":10280:10290  _msgSender */\n      tag_96\n        /* \"tutorialtoken-box-master/KNS/PANCAKE/BUSD.sol\":10280:10292  _msgSender() */\n      jump\t// in\n    tag_131:\n        /* \"tutorialtoken-box-master/KNS/PANCAKE/BUSD.sol\":10270:10276  _owner */\n      sload(0x00)\n      sub(shl(0xa0, 0x01), 0x01)\n      swap1\n      dup2\n      and\n        /* \"tutorialtoken-box-master/KNS/PANCAKE/BUSD.sol\":10270:10292  _owner == _msgSender() */\n      swap2\n      and\n      eq\n        /* \"tutorialtoken-box-master/KNS/PANCAKE/BUSD.sol\":10262:10329  require(_owner == _msgSender(), \"Ownable: caller is not the owner\") */\n      tag_132\n      jumpi\n      0x40\n      dup1\n      mload\n      shl(0xe5, 0x461bcd)\n      dup2\n      mstore\n      0x20\n      0x04\n      dup3\n      add\n      dup2\n      swap1\n      mstore\n      0x24\n      dup3\n      add\n      mstore\n      0x00\n      dup1\n      mload\n      0x20\n      data_9924ebdf1add33d25d4ef888e16131f0a5687b0580a36c21b5c301a6c462effe\n      dup4\n      codecopy\n      dup2\n      mload\n      swap2\n      mstore\n      0x44\n      dup3\n      add\n      mstore\n      swap1\n      mload\n      swap1\n      dup2\n      swap1\n      sub\n      0x64\n      add\n      swap1\n      revert\n    tag_132:\n        /* \"tutorialtoken-box-master/KNS/PANCAKE/BUSD.sol\":15917:15944  _mint(_msgSender(), amount) */\n      tag_115\n        /* \"tutorialtoken-box-master/KNS/PANCAKE/BUSD.sol\":15923:15935  _msgSender() */\n      tag_135\n        /* \"tutorialtoken-box-master/KNS/PANCAKE/BUSD.sol\":15923:15933  _msgSender */\n      tag_96\n        /* \"tutorialtoken-box-master/KNS/PANCAKE/BUSD.sol\":15923:15935  _msgSender() */\n      jump\t// in\n    tag_135:\n        /* \"tutorialtoken-box-master/KNS/PANCAKE/BUSD.sol\":15937:15943  amount */\n      dup4\n        /* \"tutorialtoken-box-master/KNS/PANCAKE/BUSD.sol\":15917:15922  _mint */\n      tag_136\n        /* \"tutorialtoken-box-master/KNS/PANCAKE/BUSD.sol\":15917:15944  _mint(_msgSender(), amount) */\n      jump\t// in\n        /* \"tutorialtoken-box-master/KNS/PANCAKE/BUSD.sol\":15397:15648  function decreaseAllowance(address spender, uint256 subtractedValue) public returns (bool) {\r... */\n    tag_67:\n        /* \"tutorialtoken-box-master/KNS/PANCAKE/BUSD.sol\":15482:15486  bool */\n      0x00\n        /* \"tutorialtoken-box-master/KNS/PANCAKE/BUSD.sol\":15495:15624  _approve(_msgSender(), spender, _allowances[_msgSender()][spender].sub(subtractedValue, \"BEP20: decreased allowance below zero\")) */\n      tag_94\n        /* \"tutorialtoken-box-master/KNS/PANCAKE/BUSD.sol\":15504:15516  _msgSender() */\n      tag_139\n        /* \"tutorialtoken-box-master/KNS/PANCAKE/BUSD.sol\":15504:15514  _msgSender */\n      tag_96\n        /* \"tutorialtoken-box-master/KNS/PANCAKE/BUSD.sol\":15504:15516  _msgSender() */\n      jump\t// in\n    tag_139:\n        /* \"tutorialtoken-box-master/KNS/PANCAKE/BUSD.sol\":15518:15525  spender */\n      dup5\n        /* \"tutorialtoken-box-master/KNS/PANCAKE/BUSD.sol\":15527:15623  _allowances[_msgSender()][spender].sub(subtractedValue, \"BEP20: decreased allowance below zero\") */\n      tag_104\n        /* \"tutorialtoken-box-master/KNS/PANCAKE/BUSD.sol\":15566:15581  subtractedValue */\n      dup6\n        /* \"tutorialtoken-box-master/KNS/PANCAKE/BUSD.sol\":15527:15623  _allowances[_msgSender()][spender].sub(subtractedValue, \"BEP20: decreased allowance below zero\") */\n      mload(0x40)\n      dup1\n      0x60\n      add\n      0x40\n      mstore\n      dup1\n      0x25\n      dup2\n      mstore\n      0x20\n      add\n      data_b7060b3538dcd3ddc8a941c91636a8115a1aa46914747fd9809d543bbb46cd22\n      0x25\n      swap2\n      codecopy\n        /* \"tutorialtoken-box-master/KNS/PANCAKE/BUSD.sol\":15527:15538  _allowances */\n      0x02\n        /* \"tutorialtoken-box-master/KNS/PANCAKE/BUSD.sol\":15527:15552  _allowances[_msgSender()] */\n      0x00\n        /* \"tutorialtoken-box-master/KNS/PANCAKE/BUSD.sol\":15539:15551  _msgSender() */\n      tag_141\n        /* \"tutorialtoken-box-master/KNS/PANCAKE/BUSD.sol\":15539:15549  _msgSender */\n      tag_96\n        /* \"tutorialtoken-box-master/KNS/PANCAKE/BUSD.sol\":15539:15551  _msgSender() */\n      jump\t// in\n    tag_141:\n      sub(shl(0xa0, 0x01), 0x01)\n        /* \"tutorialtoken-box-master/KNS/PANCAKE/BUSD.sol\":15527:15552  _allowances[_msgSender()] */\n      swap1\n      dup2\n      and\n      dup3\n      mstore\n      0x20\n      dup1\n      dup4\n      add\n      swap4\n      swap1\n      swap4\n      mstore\n      0x40\n      swap2\n      dup3\n      add\n      0x00\n      swap1\n      dup2\n      keccak256\n        /* \"tutorialtoken-box-master/KNS/PANCAKE/BUSD.sol\":15527:15561  _allowances[_msgSender()][spender] */\n      swap2\n      dup14\n      and\n      dup2\n      mstore\n      swap3\n      mstore\n      swap1\n      keccak256\n      sload\n      swap2\n        /* \"tutorialtoken-box-master/KNS/PANCAKE/BUSD.sol\":15527:15623  _allowances[_msgSender()][spender].sub(subtractedValue, \"BEP20: decreased allowance below zero\") */\n      swap1\n      0xffffffff\n        /* \"tutorialtoken-box-master/KNS/PANCAKE/BUSD.sol\":15527:15565  _allowances[_msgSender()][spender].sub */\n      tag_106\n        /* \"tutorialtoken-box-master/KNS/PANCAKE/BUSD.sol\":15527:15623  _allowances[_msgSender()][spender].sub(subtractedValue, \"BEP20: decreased allowance below zero\") */\n      and\n      jump\t// in\n        /* \"tutorialtoken-box-master/KNS/PANCAKE/BUSD.sol\":12998:13148  function transfer(address recipient, uint256 amount) external returns (bool) {\r... */\n    tag_70:\n        /* \"tutorialtoken-box-master/KNS/PANCAKE/BUSD.sol\":13069:13073  bool */\n      0x00\n        /* \"tutorialtoken-box-master/KNS/PANCAKE/BUSD.sol\":13082:13124  _transfer(_msgSender(), recipient, amount) */\n      tag_94\n        /* \"tutorialtoken-box-master/KNS/PANCAKE/BUSD.sol\":13092:13104  _msgSender() */\n      tag_144\n        /* \"tutorialtoken-box-master/KNS/PANCAKE/BUSD.sol\":13092:13102  _msgSender */\n      tag_96\n        /* \"tutorialtoken-box-master/KNS/PANCAKE/BUSD.sol\":13092:13104  _msgSender() */\n      jump\t// in\n    tag_144:\n        /* \"tutorialtoken-box-master/KNS/PANCAKE/BUSD.sol\":13106:13115  recipient */\n      dup5\n        /* \"tutorialtoken-box-master/KNS/PANCAKE/BUSD.sol\":13117:13123  amount */\n      dup5\n        /* \"tutorialtoken-box-master/KNS/PANCAKE/BUSD.sol\":13082:13091  _transfer */\n      tag_101\n        /* \"tutorialtoken-box-master/KNS/PANCAKE/BUSD.sol\":13082:13124  _transfer(_msgSender(), recipient, amount) */\n      jump\t// in\n        /* \"tutorialtoken-box-master/KNS/PANCAKE/BUSD.sol\":11651:11672  string public _symbol */\n    tag_72:\n      0x05\n      dup1\n      sload\n      0x40\n      dup1\n      mload\n      0x20\n      0x02\n      0x01\n      dup6\n      and\n      iszero\n      0x0100\n      mul\n      not(0x00)\n      add\n      swap1\n      swap5\n      and\n      swap4\n      swap1\n      swap4\n      div\n      0x1f\n      dup2\n      add\n      dup5\n      swap1\n      div\n      dup5\n      mul\n      dup3\n      add\n      dup5\n      add\n      swap1\n      swap3\n      mstore\n      dup2\n      dup2\n      mstore\n      swap3\n      swap2\n      dup4\n      add\n      dup3\n      dup3\n      dup1\n      iszero\n      tag_145\n      jumpi\n      dup1\n      0x1f\n      lt\n      tag_146\n      jumpi\n      0x0100\n      dup1\n      dup4\n      sload\n      div\n      mul\n      dup4\n      mstore\n      swap2\n      0x20\n      add\n      swap2\n      jump(tag_145)\n    tag_146:\n      dup3\n      add\n      swap2\n      swap1\n      0x00\n      mstore\n      keccak256(0x00, 0x20)\n      swap1\n    tag_147:\n      dup2\n      sload\n      dup2\n      mstore\n      swap1\n      0x01\n      add\n      swap1\n      0x20\n      add\n      dup1\n      dup4\n      gt\n      tag_147\n      jumpi\n      dup3\n      swap1\n      sub\n      0x1f\n      and\n      dup3\n      add\n      swap2\n    tag_145:\n      pop\n      pop\n      pop\n      pop\n      pop\n      dup2\n      jump\t// out\n        /* \"tutorialtoken-box-master/KNS/PANCAKE/BUSD.sol\":11677:11696  string public _name */\n    tag_78:\n      0x06\n      dup1\n      sload\n      0x40\n      dup1\n      mload\n      0x20\n      0x02\n      0x01\n      dup6\n      and\n      iszero\n      0x0100\n      mul\n      not(0x00)\n      add\n      swap1\n      swap5\n      and\n      swap4\n      swap1\n      swap4\n      div\n      0x1f\n      dup2\n      add\n      dup5\n      swap1\n      div\n      dup5\n      mul\n      dup3\n      add\n      dup5\n      add\n      swap1\n      swap3\n      mstore\n      dup2\n      dup2\n      mstore\n      swap3\n      swap2\n      dup4\n      add\n      dup3\n      dup3\n      dup1\n      iszero\n      tag_145\n      jumpi\n      dup1\n      0x1f\n      lt\n      tag_146\n      jumpi\n      0x0100\n      dup1\n      dup4\n      sload\n      div\n      mul\n      dup4\n      mstore\n      swap2\n      0x20\n      add\n      swap2\n      jump(tag_145)\n        /* \"tutorialtoken-box-master/KNS/PANCAKE/BUSD.sol\":13202:13332  function allowance(address owner, address spender) external view returns (uint256) {\r... */\n    tag_85:\n      sub(shl(0xa0, 0x01), 0x01)\n        /* \"tutorialtoken-box-master/KNS/PANCAKE/BUSD.sol\":13299:13317  _allowances[owner] */\n      swap2\n      dup3\n      and\n        /* \"tutorialtoken-box-master/KNS/PANCAKE/BUSD.sol\":13276:13283  uint256 */\n      0x00\n        /* \"tutorialtoken-box-master/KNS/PANCAKE/BUSD.sol\":13299:13317  _allowances[owner] */\n      swap1\n      dup2\n      mstore\n        /* \"tutorialtoken-box-master/KNS/PANCAKE/BUSD.sol\":13299:13310  _allowances */\n      0x02\n        /* \"tutorialtoken-box-master/KNS/PANCAKE/BUSD.sol\":13299:13317  _allowances[owner] */\n      0x20\n      swap1\n      dup2\n      mstore\n      0x40\n      dup1\n      dup4\n      keccak256\n        /* \"tutorialtoken-box-master/KNS/PANCAKE/BUSD.sol\":13299:13326  _allowances[owner][spender] */\n      swap4\n      swap1\n      swap5\n      and\n      dup3\n      mstore\n      swap2\n      swap1\n      swap2\n      mstore\n      keccak256\n      sload\n      swap1\n        /* \"tutorialtoken-box-master/KNS/PANCAKE/BUSD.sol\":13202:13332  function allowance(address owner, address spender) external view returns (uint256) {\r... */\n      jump\t// out\n        /* \"tutorialtoken-box-master/KNS/PANCAKE/BUSD.sol\":10953:11056  function transferOwnership(address newOwner) public onlyOwner {\r... */\n    tag_88:\n        /* \"tutorialtoken-box-master/KNS/PANCAKE/BUSD.sol\":10280:10292  _msgSender() */\n      tag_153\n        /* \"tutorialtoken-box-master/KNS/PANCAKE/BUSD.sol\":10280:10290  _msgSender */\n      tag_96\n        /* \"tutorialtoken-box-master/KNS/PANCAKE/BUSD.sol\":10280:10292  _msgSender() */\n      jump\t// in\n    tag_153:\n        /* \"tutorialtoken-box-master/KNS/PANCAKE/BUSD.sol\":10270:10276  _owner */\n      sload(0x00)\n      sub(shl(0xa0, 0x01), 0x01)\n      swap1\n      dup2\n      and\n        /* \"tutorialtoken-box-master/KNS/PANCAKE/BUSD.sol\":10270:10292  _owner == _msgSender() */\n      swap2\n      and\n      eq\n        /* \"tutorialtoken-box-master/KNS/PANCAKE/BUSD.sol\":10262:10329  require(_owner == _msgSender(), \"Ownable: caller is not the owner\") */\n      tag_154\n      jumpi\n      0x40\n      dup1\n      mload\n      shl(0xe5, 0x461bcd)\n      dup2\n      mstore\n      0x20\n      0x04\n      dup3\n      add\n      dup2\n      swap1\n      mstore\n      0x24\n      dup3\n      add\n      mstore\n      0x00\n      dup1\n      mload\n      0x20\n      data_9924ebdf1add33d25d4ef888e16131f0a5687b0580a36c21b5c301a6c462effe\n      dup4\n      codecopy\n      dup2\n      mload\n      swap2\n      mstore\n      0x44\n      dup3\n      add\n      mstore\n      swap1\n      mload\n      swap1\n      dup2\n      swap1\n      sub\n      0x64\n      add\n      swap1\n      revert\n    tag_154:\n        /* \"tutorialtoken-box-master/KNS/PANCAKE/BUSD.sol\":11022:11050  _transferOwnership(newOwner) */\n      tag_156\n        /* \"tutorialtoken-box-master/KNS/PANCAKE/BUSD.sol\":11041:11049  newOwner */\n      dup2\n        /* \"tutorialtoken-box-master/KNS/PANCAKE/BUSD.sol\":11022:11040  _transferOwnership */\n      tag_157\n        /* \"tutorialtoken-box-master/KNS/PANCAKE/BUSD.sol\":11022:11050  _transferOwnership(newOwner) */\n      jump\t// in\n    tag_156:\n        /* \"tutorialtoken-box-master/KNS/PANCAKE/BUSD.sol\":10953:11056  function transferOwnership(address newOwner) public onlyOwner {\r... */\n      pop\n      jump\t// out\n        /* \"tutorialtoken-box-master/KNS/PANCAKE/BUSD.sol\":3773:3865  function _msgSender() internal view returns (address payable) {\r... */\n    tag_96:\n        /* \"tutorialtoken-box-master/KNS/PANCAKE/BUSD.sol\":3849:3859  msg.sender */\n      caller\n        /* \"tutorialtoken-box-master/KNS/PANCAKE/BUSD.sol\":3773:3865  function _msgSender() internal view returns (address payable) {\r... */\n      swap1\n      jump\t// out\n        /* \"tutorialtoken-box-master/KNS/PANCAKE/BUSD.sol\":18673:18993  function _approve(address owner, address spender, uint256 amount) internal {\r... */\n    tag_97:\n      sub(shl(0xa0, 0x01), 0x01)\n        /* \"tutorialtoken-box-master/KNS/PANCAKE/BUSD.sol\":18763:18782  owner != address(0) */\n      dup4\n      and\n        /* \"tutorialtoken-box-master/KNS/PANCAKE/BUSD.sol\":18755:18823  require(owner != address(0), \"BEP20: approve from the zero address\") */\n      tag_160\n      jumpi\n      mload(0x40)\n      shl(0xe5, 0x461bcd)\n      dup2\n      mstore\n      0x04\n      add\n      dup1\n      dup1\n      0x20\n      add\n      dup3\n      dup2\n      sub\n      dup3\n      mstore\n      0x24\n      dup2\n      mstore\n      0x20\n      add\n      dup1\n      data_1441cfbef485de93bedecc35b3d10fa2992db382c4c9c583a6e423a140abe4a4\n      0x24\n      swap2\n      codecopy\n      0x40\n      add\n      swap2\n      pop\n      pop\n      mload(0x40)\n      dup1\n      swap2\n      sub\n      swap1\n      revert\n    tag_160:\n      sub(shl(0xa0, 0x01), 0x01)\n        /* \"tutorialtoken-box-master/KNS/PANCAKE/BUSD.sol\":18838:18859  spender != address(0) */\n      dup3\n      and\n        /* \"tutorialtoken-box-master/KNS/PANCAKE/BUSD.sol\":18830:18898  require(spender != address(0), \"BEP20: approve to the zero address\") */\n      tag_161\n      jumpi\n      mload(0x40)\n      shl(0xe5, 0x461bcd)\n      dup2\n      mstore\n      0x04\n      add\n      dup1\n      dup1\n      0x20\n      add\n      dup3\n      dup2\n      sub\n      dup3\n      mstore\n      0x22\n      dup2\n      mstore\n      0x20\n      add\n      dup1\n      data_f10e7571e18b354270dee950932fb6a745efc79414b2b2556185a4ed6a1af0d5\n      0x22\n      swap2\n      codecopy\n      0x40\n      add\n      swap2\n      pop\n      pop\n      mload(0x40)\n      dup1\n      swap2\n      sub\n      swap1\n      revert\n    tag_161:\n      sub(shl(0xa0, 0x01), 0x01)\n        /* \"tutorialtoken-box-master/KNS/PANCAKE/BUSD.sol\":18907:18925  _allowances[owner] */\n      dup1\n      dup5\n      and\n      0x00\n      dup2\n      dup2\n      mstore\n        /* \"tutorialtoken-box-master/KNS/PANCAKE/BUSD.sol\":18907:18918  _allowances */\n      0x02\n        /* \"tutorialtoken-box-master/KNS/PANCAKE/BUSD.sol\":18907:18925  _allowances[owner] */\n      0x20\n      swap1\n      dup2\n      mstore\n      0x40\n      dup1\n      dup4\n      keccak256\n        /* \"tutorialtoken-box-master/KNS/PANCAKE/BUSD.sol\":18907:18934  _allowances[owner][spender] */\n      swap5\n      dup8\n      and\n      dup1\n      dup5\n      mstore\n      swap5\n      dup3\n      mstore\n      swap2\n      dup3\n      swap1\n      keccak256\n        /* \"tutorialtoken-box-master/KNS/PANCAKE/BUSD.sol\":18907:18943  _allowances[owner][spender] = amount */\n      dup6\n      swap1\n      sstore\n        /* \"tutorialtoken-box-master/KNS/PANCAKE/BUSD.sol\":18955:18987  Approval(owner, spender, amount) */\n      dup2\n      mload\n      dup6\n      dup2\n      mstore\n      swap2\n      mload\n      0x8c5be1e5ebec7d5bd14f71427d1e84f3dd0314c0f7b2291e5b200ac8c7c3b925\n      swap3\n      dup2\n      swap1\n      sub\n      swap1\n      swap2\n      add\n      swap1\n      log3\n        /* \"tutorialtoken-box-master/KNS/PANCAKE/BUSD.sol\":18673:18993  function _approve(address owner, address spender, uint256 amount) internal {\r... */\n      pop\n      pop\n      pop\n      jump\t// out\n        /* \"tutorialtoken-box-master/KNS/PANCAKE/BUSD.sol\":16623:17072  function _transfer(address sender, address recipient, uint256 amount) internal {\r... */\n    tag_101:\n      sub(shl(0xa0, 0x01), 0x01)\n        /* \"tutorialtoken-box-master/KNS/PANCAKE/BUSD.sol\":16717:16737  sender != address(0) */\n      dup4\n      and\n        /* \"tutorialtoken-box-master/KNS/PANCAKE/BUSD.sol\":16709:16779  require(sender != address(0), \"BEP20: transfer from the zero address\") */\n      tag_163\n      jumpi\n      mload(0x40)\n      shl(0xe5, 0x461bcd)\n      dup2\n      mstore\n      0x04\n      add\n      dup1\n      dup1\n      0x20\n      add\n      dup3\n      dup2\n      sub\n      dup3\n      mstore\n      0x25\n      dup2\n      mstore\n      0x20\n      add\n      dup1\n      data_0d26cf302d50b28de74be656b11d67092b32131e5712d1bcf08c4e976dacda57\n      0x25\n      swap2\n      codecopy\n      0x40\n      add\n      swap2\n      pop\n      pop\n      mload(0x40)\n      dup1\n      swap2\n      sub\n      swap1\n      revert\n    tag_163:\n      sub(shl(0xa0, 0x01), 0x01)\n        /* \"tutorialtoken-box-master/KNS/PANCAKE/BUSD.sol\":16794:16817  recipient != address(0) */\n      dup3\n      and\n        /* \"tutorialtoken-box-master/KNS/PANCAKE/BUSD.sol\":16786:16857  require(recipient != address(0), \"BEP20: transfer to the zero address\") */\n      tag_164\n      jumpi\n      mload(0x40)\n      shl(0xe5, 0x461bcd)\n      dup2\n      mstore\n      0x04\n      add\n      dup1\n      dup1\n      0x20\n      add\n      dup3\n      dup2\n      sub\n      dup3\n      mstore\n      0x23\n      dup2\n      mstore\n      0x20\n      add\n      dup1\n      data_ade9efcb59e42e439ffe61509b352b1af56d64ccb68d80b039b7b69578f371d2\n      0x23\n      swap2\n      codecopy\n      0x40\n      add\n      swap2\n      pop\n      pop\n      mload(0x40)\n      dup1\n      swap2\n      sub\n      swap1\n      revert\n    tag_164:\n        /* \"tutorialtoken-box-master/KNS/PANCAKE/BUSD.sol\":16886:16957  _balances[sender].sub(amount, \"BEP20: transfer amount exceeds balance\") */\n      tag_165\n        /* \"tutorialtoken-box-master/KNS/PANCAKE/BUSD.sol\":16908:16914  amount */\n      dup2\n        /* \"tutorialtoken-box-master/KNS/PANCAKE/BUSD.sol\":16886:16957  _balances[sender].sub(amount, \"BEP20: transfer amount exceeds balance\") */\n      mload(0x40)\n      dup1\n      0x60\n      add\n      0x40\n      mstore\n      dup1\n      0x26\n      dup2\n      mstore\n      0x20\n      add\n      data_a91efd7a65ef5b4ae4d6568d674798b78a5a89184dd296c100513251c22d3e73\n      0x26\n      swap2\n      codecopy\n      sub(shl(0xa0, 0x01), 0x01)\n        /* \"tutorialtoken-box-master/KNS/PANCAKE/BUSD.sol\":16886:16903  _balances[sender] */\n      dup7\n      and\n      0x00\n      swap1\n      dup2\n      mstore\n        /* \"tutorialtoken-box-master/KNS/PANCAKE/BUSD.sol\":16886:16895  _balances */\n      0x01\n        /* \"tutorialtoken-box-master/KNS/PANCAKE/BUSD.sol\":16886:16903  _balances[sender] */\n      0x20\n      mstore\n      0x40\n      swap1\n      keccak256\n      sload\n      swap2\n        /* \"tutorialtoken-box-master/KNS/PANCAKE/BUSD.sol\":16886:16957  _balances[sender].sub(amount, \"BEP20: transfer amount exceeds balance\") */\n      swap1\n      0xffffffff\n        /* \"tutorialtoken-box-master/KNS/PANCAKE/BUSD.sol\":16886:16907  _balances[sender].sub */\n      tag_106\n        /* \"tutorialtoken-box-master/KNS/PANCAKE/BUSD.sol\":16886:16957  _balances[sender].sub(amount, \"BEP20: transfer amount exceeds balance\") */\n      and\n      jump\t// in\n    tag_165:\n      sub(shl(0xa0, 0x01), 0x01)\n        /* \"tutorialtoken-box-master/KNS/PANCAKE/BUSD.sol\":16866:16883  _balances[sender] */\n      dup1\n      dup6\n      and\n      0x00\n      swap1\n      dup2\n      mstore\n        /* \"tutorialtoken-box-master/KNS/PANCAKE/BUSD.sol\":16866:16875  _balances */\n      0x01\n        /* \"tutorialtoken-box-master/KNS/PANCAKE/BUSD.sol\":16866:16883  _balances[sender] */\n      0x20\n      mstore\n      0x40\n      dup1\n      dup3\n      keccak256\n        /* \"tutorialtoken-box-master/KNS/PANCAKE/BUSD.sol\":16866:16957  _balances[sender] = _balances[sender].sub(amount, \"BEP20: transfer amount exceeds balance\") */\n      swap4\n      swap1\n      swap4\n      sstore\n        /* \"tutorialtoken-box-master/KNS/PANCAKE/BUSD.sol\":16987:17007  _balances[recipient] */\n      swap1\n      dup5\n      and\n      dup2\n      mstore\n      keccak256\n      sload\n        /* \"tutorialtoken-box-master/KNS/PANCAKE/BUSD.sol\":16987:17019  _balances[recipient].add(amount) */\n      tag_166\n      swap1\n        /* \"tutorialtoken-box-master/KNS/PANCAKE/BUSD.sol\":17012:17018  amount */\n      dup3\n        /* \"tutorialtoken-box-master/KNS/PANCAKE/BUSD.sol\":16987:17019  _balances[recipient].add(amount) */\n      0xffffffff\n        /* \"tutorialtoken-box-master/KNS/PANCAKE/BUSD.sol\":16987:17011  _balances[recipient].add */\n      tag_113\n        /* \"tutorialtoken-box-master/KNS/PANCAKE/BUSD.sol\":16987:17019  _balances[recipient].add(amount) */\n      and\n      jump\t// in\n    tag_166:\n      sub(shl(0xa0, 0x01), 0x01)\n        /* \"tutorialtoken-box-master/KNS/PANCAKE/BUSD.sol\":16964:16984  _balances[recipient] */\n      dup1\n      dup5\n      and\n      0x00\n      dup2\n      dup2\n      mstore\n        /* \"tutorialtoken-box-master/KNS/PANCAKE/BUSD.sol\":16964:16973  _balances */\n      0x01\n        /* \"tutorialtoken-box-master/KNS/PANCAKE/BUSD.sol\":16964:16984  _balances[recipient] */\n      0x20\n      swap1\n      dup2\n      mstore\n      0x40\n      swap2\n      dup3\n      swap1\n      keccak256\n        /* \"tutorialtoken-box-master/KNS/PANCAKE/BUSD.sol\":16964:17019  _balances[recipient] = _balances[recipient].add(amount) */\n      swap5\n      swap1\n      swap5\n      sstore\n        /* \"tutorialtoken-box-master/KNS/PANCAKE/BUSD.sol\":17031:17066  Transfer(sender, recipient, amount) */\n      dup1\n      mload\n      dup6\n      dup2\n      mstore\n      swap1\n      mload\n        /* \"tutorialtoken-box-master/KNS/PANCAKE/BUSD.sol\":16964:16984  _balances[recipient] */\n      swap2\n      swap4\n        /* \"tutorialtoken-box-master/KNS/PANCAKE/BUSD.sol\":17031:17066  Transfer(sender, recipient, amount) */\n      swap3\n      dup8\n      and\n      swap3\n      0x00\n      dup1\n      mload\n      0x20\n      data_ada389e1fc24a8587c776340efb91b36e675792ab631816100d55df0b5cf3cbc\n      dup4\n      codecopy\n      dup2\n      mload\n      swap2\n      mstore\n      swap3\n      swap2\n      dup3\n      swap1\n      sub\n      add\n      swap1\n      log3\n        /* \"tutorialtoken-box-master/KNS/PANCAKE/BUSD.sol\":16623:17072  function _transfer(address sender, address recipient, uint256 amount) internal {\r... */\n      pop\n      pop\n      pop\n      jump\t// out\n        /* \"tutorialtoken-box-master/KNS/PANCAKE/BUSD.sol\":5732:5910  function sub(uint256 a, uint256 b, string memory errorMessage) internal pure returns (uint256) {\r... */\n    tag_106:\n        /* \"tutorialtoken-box-master/KNS/PANCAKE/BUSD.sol\":5818:5825  uint256 */\n      0x00\n        /* \"tutorialtoken-box-master/KNS/PANCAKE/BUSD.sol\":5850:5862  errorMessage */\n      dup2\n        /* \"tutorialtoken-box-master/KNS/PANCAKE/BUSD.sol\":5842:5848  b <= a */\n      dup5\n      dup5\n      gt\n      iszero\n        /* \"tutorialtoken-box-master/KNS/PANCAKE/BUSD.sol\":5834:5863  require(b <= a, errorMessage) */\n      tag_168\n      jumpi\n      mload(0x40)\n      shl(0xe5, 0x461bcd)\n      dup2\n      mstore\n      0x04\n      add\n      dup1\n      dup1\n      0x20\n      add\n      dup3\n      dup2\n      sub\n      dup3\n      mstore\n      dup4\n      dup2\n      dup2\n      mload\n      dup2\n      mstore\n      0x20\n      add\n      swap2\n      pop\n      dup1\n      mload\n      swap1\n      0x20\n      add\n      swap1\n      dup1\n      dup4\n      dup4\n        /* \"--CODEGEN--\":23:24   */\n      0x00\n        /* \"--CODEGEN--\":8:108   */\n    tag_169:\n        /* \"--CODEGEN--\":33:36   */\n      dup4\n        /* \"--CODEGEN--\":30:31   */\n      dup2\n        /* \"--CODEGEN--\":27:37   */\n      lt\n        /* \"--CODEGEN--\":8:108   */\n      iszero\n      tag_171\n      jumpi\n        /* \"--CODEGEN--\":90:101   */\n      dup2\n      dup2\n      add\n        /* \"--CODEGEN--\":84:102   */\n      mload\n        /* \"--CODEGEN--\":71:82   */\n      dup4\n      dup3\n      add\n        /* \"--CODEGEN--\":64:103   */\n      mstore\n        /* \"--CODEGEN--\":52:54   */\n      0x20\n        /* \"--CODEGEN--\":45:55   */\n      add\n        /* \"--CODEGEN--\":8:108   */\n      jump(tag_169)\n    tag_171:\n        /* \"--CODEGEN--\":12:26   */\n      pop\n        /* \"tutorialtoken-box-master/KNS/PANCAKE/BUSD.sol\":5834:5863  require(b <= a, errorMessage) */\n      pop\n      pop\n      pop\n      swap1\n      pop\n      swap1\n      dup2\n      add\n      swap1\n      0x1f\n      and\n      dup1\n      iszero\n      tag_172\n      jumpi\n      dup1\n      dup3\n      sub\n      dup1\n      mload\n      0x01\n      dup4\n      0x20\n      sub\n      0x0100\n      exp\n      sub\n      not\n      and\n      dup2\n      mstore\n      0x20\n      add\n      swap2\n      pop\n    tag_172:\n      pop\n      swap3\n      pop\n      pop\n      pop\n      mload(0x40)\n      dup1\n      swap2\n      sub\n      swap1\n      revert\n    tag_168:\n      pop\n      pop\n      pop\n        /* \"tutorialtoken-box-master/KNS/PANCAKE/BUSD.sol\":5882:5887  a - b */\n      swap1\n      sub\n      swap1\n        /* \"tutorialtoken-box-master/KNS/PANCAKE/BUSD.sol\":5732:5910  function sub(uint256 a, uint256 b, string memory errorMessage) internal pure returns (uint256) {\r... */\n      jump\t// out\n        /* \"tutorialtoken-box-master/KNS/PANCAKE/BUSD.sol\":4905:5072  function add(uint256 a, uint256 b) internal pure returns (uint256) {\r... */\n    tag_113:\n        /* \"tutorialtoken-box-master/KNS/PANCAKE/BUSD.sol\":4963:4970  uint256 */\n      0x00\n        /* \"tutorialtoken-box-master/KNS/PANCAKE/BUSD.sol\":4991:4996  a + b */\n      dup3\n      dup3\n      add\n        /* \"tutorialtoken-box-master/KNS/PANCAKE/BUSD.sol\":5011:5017  c >= a */\n      dup4\n      dup2\n      lt\n      iszero\n        /* \"tutorialtoken-box-master/KNS/PANCAKE/BUSD.sol\":5003:5049  require(c >= a, \"SafeMath: addition overflow\") */\n      tag_174\n      jumpi\n      0x40\n      dup1\n      mload\n      shl(0xe5, 0x461bcd)\n      dup2\n      mstore\n      0x20\n      0x04\n      dup3\n      add\n      mstore\n      0x1b\n      0x24\n      dup3\n      add\n      mstore\n      shl(0x28, 0x536166654d6174683a206164646974696f6e206f766572666c6f77)\n      0x44\n      dup3\n      add\n      mstore\n      swap1\n      mload\n      swap1\n      dup2\n      swap1\n      sub\n      0x64\n      add\n      swap1\n      revert\n    tag_174:\n        /* \"tutorialtoken-box-master/KNS/PANCAKE/BUSD.sol\":5065:5066  c */\n      swap4\n        /* \"tutorialtoken-box-master/KNS/PANCAKE/BUSD.sol\":4905:5072  function add(uint256 a, uint256 b) internal pure returns (uint256) {\r... */\n      swap3\n      pop\n      pop\n      pop\n      jump\t// out\n        /* \"tutorialtoken-box-master/KNS/PANCAKE/BUSD.sol\":17931:18261  function _burn(address account, uint256 amount) internal {\r... */\n    tag_117:\n      sub(shl(0xa0, 0x01), 0x01)\n        /* \"tutorialtoken-box-master/KNS/PANCAKE/BUSD.sol\":18003:18024  account != address(0) */\n      dup3\n      and\n        /* \"tutorialtoken-box-master/KNS/PANCAKE/BUSD.sol\":17995:18062  require(account != address(0), \"BEP20: burn from the zero address\") */\n      tag_176\n      jumpi\n      mload(0x40)\n      shl(0xe5, 0x461bcd)\n      dup2\n      mstore\n      0x04\n      add\n      dup1\n      dup1\n      0x20\n      add\n      dup3\n      dup2\n      sub\n      dup3\n      mstore\n      0x21\n      dup2\n      mstore\n      0x20\n      add\n      dup1\n      data_b81edbf10508d9b81724f18ff8f3d8bfba9790734ce1f1c54dfe1030b4914855\n      0x21\n      swap2\n      codecopy\n      0x40\n      add\n      swap2\n      pop\n      pop\n      mload(0x40)\n      dup1\n      swap2\n      sub\n      swap1\n      revert\n    tag_176:\n        /* \"tutorialtoken-box-master/KNS/PANCAKE/BUSD.sol\":18092:18160  _balances[account].sub(amount, \"BEP20: burn amount exceeds balance\") */\n      tag_177\n        /* \"tutorialtoken-box-master/KNS/PANCAKE/BUSD.sol\":18115:18121  amount */\n      dup2\n        /* \"tutorialtoken-box-master/KNS/PANCAKE/BUSD.sol\":18092:18160  _balances[account].sub(amount, \"BEP20: burn amount exceeds balance\") */\n      mload(0x40)\n      dup1\n      0x60\n      add\n      0x40\n      mstore\n      dup1\n      0x22\n      dup2\n      mstore\n      0x20\n      add\n      data_deaa84b30175fd0578812c46240362b7914652a35e6707ad7e1556891e4ae032\n      0x22\n      swap2\n      codecopy\n      sub(shl(0xa0, 0x01), 0x01)\n        /* \"tutorialtoken-box-master/KNS/PANCAKE/BUSD.sol\":18092:18110  _balances[account] */\n      dup6\n      and\n      0x00\n      swap1\n      dup2\n      mstore\n        /* \"tutorialtoken-box-master/KNS/PANCAKE/BUSD.sol\":18092:18101  _balances */\n      0x01\n        /* \"tutorialtoken-box-master/KNS/PANCAKE/BUSD.sol\":18092:18110  _balances[account] */\n      0x20\n      mstore\n      0x40\n      swap1\n      keccak256\n      sload\n      swap2\n        /* \"tutorialtoken-box-master/KNS/PANCAKE/BUSD.sol\":18092:18160  _balances[account].sub(amount, \"BEP20: burn amount exceeds balance\") */\n      swap1\n      0xffffffff\n        /* \"tutorialtoken-box-master/KNS/PANCAKE/BUSD.sol\":18092:18114  _balances[account].sub */\n      tag_106\n        /* \"tutorialtoken-box-master/KNS/PANCAKE/BUSD.sol\":18092:18160  _balances[account].sub(amount, \"BEP20: burn amount exceeds balance\") */\n      and\n      jump\t// in\n    tag_177:\n      sub(shl(0xa0, 0x01), 0x01)\n        /* \"tutorialtoken-box-master/KNS/PANCAKE/BUSD.sol\":18071:18089  _balances[account] */\n      dup4\n      and\n      0x00\n      swap1\n      dup2\n      mstore\n        /* \"tutorialtoken-box-master/KNS/PANCAKE/BUSD.sol\":18071:18080  _balances */\n      0x01\n        /* \"tutorialtoken-box-master/KNS/PANCAKE/BUSD.sol\":18071:18089  _balances[account] */\n      0x20\n      mstore\n      0x40\n      swap1\n      keccak256\n        /* \"tutorialtoken-box-master/KNS/PANCAKE/BUSD.sol\":18071:18160  _balances[account] = _balances[account].sub(amount, \"BEP20: burn amount exceeds balance\") */\n      sstore\n        /* \"tutorialtoken-box-master/KNS/PANCAKE/BUSD.sol\":18182:18194  _totalSupply */\n      sload(0x03)\n        /* \"tutorialtoken-box-master/KNS/PANCAKE/BUSD.sol\":18182:18206  _totalSupply.sub(amount) */\n      tag_178\n      swap1\n        /* \"tutorialtoken-box-master/KNS/PANCAKE/BUSD.sol\":18199:18205  amount */\n      dup3\n        /* \"tutorialtoken-box-master/KNS/PANCAKE/BUSD.sol\":18182:18206  _totalSupply.sub(amount) */\n      0xffffffff\n        /* \"tutorialtoken-box-master/KNS/PANCAKE/BUSD.sol\":18182:18198  _totalSupply.sub */\n      tag_179\n        /* \"tutorialtoken-box-master/KNS/PANCAKE/BUSD.sol\":18182:18206  _totalSupply.sub(amount) */\n      and\n      jump\t// in\n    tag_178:\n        /* \"tutorialtoken-box-master/KNS/PANCAKE/BUSD.sol\":18167:18179  _totalSupply */\n      0x03\n        /* \"tutorialtoken-box-master/KNS/PANCAKE/BUSD.sol\":18167:18206  _totalSupply = _totalSupply.sub(amount) */\n      sstore\n        /* \"tutorialtoken-box-master/KNS/PANCAKE/BUSD.sol\":18218:18255  Transfer(account, address(0), amount) */\n      0x40\n      dup1\n      mload\n      dup3\n      dup2\n      mstore\n      swap1\n      mload\n        /* \"tutorialtoken-box-master/KNS/PANCAKE/BUSD.sol\":18244:18245  0 */\n      0x00\n      swap2\n      sub(shl(0xa0, 0x01), 0x01)\n        /* \"tutorialtoken-box-master/KNS/PANCAKE/BUSD.sol\":18218:18255  Transfer(account, address(0), amount) */\n      dup6\n      and\n      swap2\n      0x00\n      dup1\n      mload\n      0x20\n      data_ada389e1fc24a8587c776340efb91b36e675792ab631816100d55df0b5cf3cbc\n      dup4\n      codecopy\n      dup2\n      mload\n      swap2\n      mstore\n      swap2\n      dup2\n      swap1\n      sub\n      0x20\n      add\n      swap1\n      log3\n        /* \"tutorialtoken-box-master/KNS/PANCAKE/BUSD.sol\":17931:18261  function _burn(address account, uint256 amount) internal {\r... */\n      pop\n      pop\n      jump\t// out\n        /* \"tutorialtoken-box-master/KNS/PANCAKE/BUSD.sol\":17333:17623  function _mint(address account, uint256 amount) internal {\r... */\n    tag_136:\n      sub(shl(0xa0, 0x01), 0x01)\n        /* \"tutorialtoken-box-master/KNS/PANCAKE/BUSD.sol\":17405:17426  account != address(0) */\n      dup3\n      and\n        /* \"tutorialtoken-box-master/KNS/PANCAKE/BUSD.sol\":17397:17462  require(account != address(0), \"BEP20: mint to the zero address\") */\n      tag_181\n      jumpi\n      0x40\n      dup1\n      mload\n      shl(0xe5, 0x461bcd)\n      dup2\n      mstore\n      0x20\n      0x04\n      dup3\n      add\n      mstore\n      0x1f\n      0x24\n      dup3\n      add\n      mstore\n      0x42455032303a206d696e7420746f20746865207a65726f206164647265737300\n      0x44\n      dup3\n      add\n      mstore\n      swap1\n      mload\n      swap1\n      dup2\n      swap1\n      sub\n      0x64\n      add\n      swap1\n      revert\n    tag_181:\n        /* \"tutorialtoken-box-master/KNS/PANCAKE/BUSD.sol\":17486:17498  _totalSupply */\n      sload(0x03)\n        /* \"tutorialtoken-box-master/KNS/PANCAKE/BUSD.sol\":17486:17510  _totalSupply.add(amount) */\n      tag_182\n      swap1\n        /* \"tutorialtoken-box-master/KNS/PANCAKE/BUSD.sol\":17503:17509  amount */\n      dup3\n        /* \"tutorialtoken-box-master/KNS/PANCAKE/BUSD.sol\":17486:17510  _totalSupply.add(amount) */\n      0xffffffff\n        /* \"tutorialtoken-box-master/KNS/PANCAKE/BUSD.sol\":17486:17502  _totalSupply.add */\n      tag_113\n        /* \"tutorialtoken-box-master/KNS/PANCAKE/BUSD.sol\":17486:17510  _totalSupply.add(amount) */\n      and\n      jump\t// in\n    tag_182:\n        /* \"tutorialtoken-box-master/KNS/PANCAKE/BUSD.sol\":17471:17483  _totalSupply */\n      0x03\n        /* \"tutorialtoken-box-master/KNS/PANCAKE/BUSD.sol\":17471:17510  _totalSupply = _totalSupply.add(amount) */\n      sstore\n      sub(shl(0xa0, 0x01), 0x01)\n        /* \"tutorialtoken-box-master/KNS/PANCAKE/BUSD.sol\":17538:17556  _balances[account] */\n      dup3\n      and\n      0x00\n      swap1\n      dup2\n      mstore\n        /* \"tutorialtoken-box-master/KNS/PANCAKE/BUSD.sol\":17538:17547  _balances */\n      0x01\n        /* \"tutorialtoken-box-master/KNS/PANCAKE/BUSD.sol\":17538:17556  _balances[account] */\n      0x20\n      mstore\n      0x40\n      swap1\n      keccak256\n      sload\n        /* \"tutorialtoken-box-master/KNS/PANCAKE/BUSD.sol\":17538:17568  _balances[account].add(amount) */\n      tag_183\n      swap1\n        /* \"tutorialtoken-box-master/KNS/PANCAKE/BUSD.sol\":17561:17567  amount */\n      dup3\n        /* \"tutorialtoken-box-master/KNS/PANCAKE/BUSD.sol\":17538:17568  _balances[account].add(amount) */\n      0xffffffff\n        /* \"tutorialtoken-box-master/KNS/PANCAKE/BUSD.sol\":17538:17560  _balances[account].add */\n      tag_113\n        /* \"tutorialtoken-box-master/KNS/PANCAKE/BUSD.sol\":17538:17568  _balances[account].add(amount) */\n      and\n      jump\t// in\n    tag_183:\n      sub(shl(0xa0, 0x01), 0x01)\n        /* \"tutorialtoken-box-master/KNS/PANCAKE/BUSD.sol\":17517:17535  _balances[account] */\n      dup4\n      and\n      0x00\n      dup2\n      dup2\n      mstore\n        /* \"tutorialtoken-box-master/KNS/PANCAKE/BUSD.sol\":17517:17526  _balances */\n      0x01\n        /* \"tutorialtoken-box-master/KNS/PANCAKE/BUSD.sol\":17517:17535  _balances[account] */\n      0x20\n      swap1\n      dup2\n      mstore\n      0x40\n      dup1\n      dup4\n      keccak256\n        /* \"tutorialtoken-box-master/KNS/PANCAKE/BUSD.sol\":17517:17568  _balances[account] = _balances[account].add(amount) */\n      swap5\n      swap1\n      swap5\n      sstore\n        /* \"tutorialtoken-box-master/KNS/PANCAKE/BUSD.sol\":17580:17617  Transfer(address(0), account, amount) */\n      dup4\n      mload\n      dup6\n      dup2\n      mstore\n      swap4\n      mload\n        /* \"tutorialtoken-box-master/KNS/PANCAKE/BUSD.sol\":17517:17535  _balances[account] */\n      swap3\n      swap4\n      swap2\n      swap3\n      0x00\n      dup1\n      mload\n      0x20\n      data_ada389e1fc24a8587c776340efb91b36e675792ab631816100d55df0b5cf3cbc\n      dup4\n      codecopy\n      dup2\n      mload\n      swap2\n      mstore\n        /* \"tutorialtoken-box-master/KNS/PANCAKE/BUSD.sol\":17580:17617  Transfer(address(0), account, amount) */\n      swap3\n      dup2\n      swap1\n      sub\n      swap1\n      swap2\n      add\n      swap1\n      log3\n        /* \"tutorialtoken-box-master/KNS/PANCAKE/BUSD.sol\":17333:17623  function _mint(address account, uint256 amount) internal {\r... */\n      pop\n      pop\n      jump\t// out\n        /* \"tutorialtoken-box-master/KNS/PANCAKE/BUSD.sol\":11154:11369  function _transferOwnership(address newOwner) internal {\r... */\n    tag_157:\n      sub(shl(0xa0, 0x01), 0x01)\n        /* \"tutorialtoken-box-master/KNS/PANCAKE/BUSD.sol\":11224:11246  newOwner != address(0) */\n      dup2\n      and\n        /* \"tutorialtoken-box-master/KNS/PANCAKE/BUSD.sol\":11216:11289  require(newOwner != address(0), \"Ownable: new owner is the zero address\") */\n      tag_185\n      jumpi\n      mload(0x40)\n      shl(0xe5, 0x461bcd)\n      dup2\n      mstore\n      0x04\n      add\n      dup1\n      dup1\n      0x20\n      add\n      dup3\n      dup2\n      sub\n      dup3\n      mstore\n      0x26\n      dup2\n      mstore\n      0x20\n      add\n      dup1\n      data_245f15ff17f551913a7a18385165551503906a406f905ac1c2437281a7cd0cfe\n      0x26\n      swap2\n      codecopy\n      0x40\n      add\n      swap2\n      pop\n      pop\n      mload(0x40)\n      dup1\n      swap2\n      sub\n      swap1\n      revert\n    tag_185:\n        /* \"tutorialtoken-box-master/KNS/PANCAKE/BUSD.sol\":11322:11328  _owner */\n      0x00\n      dup1\n      sload\n        /* \"tutorialtoken-box-master/KNS/PANCAKE/BUSD.sol\":11301:11339  OwnershipTransferred(_owner, newOwner) */\n      mload(0x40)\n      sub(shl(0xa0, 0x01), 0x01)\n      dup1\n      dup6\n      and\n      swap4\n        /* \"tutorialtoken-box-master/KNS/PANCAKE/BUSD.sol\":11322:11328  _owner */\n      swap3\n      and\n      swap2\n      0x00\n      dup1\n      mload\n      0x20\n      data_9c064737b570a74c2bac5d21056d93ac53115214216cd14d4a0fc9b60be81231\n      dup4\n      codecopy\n      dup2\n      mload\n      swap2\n      mstore\n        /* \"tutorialtoken-box-master/KNS/PANCAKE/BUSD.sol\":11301:11339  OwnershipTransferred(_owner, newOwner) */\n      swap2\n      log3\n        /* \"tutorialtoken-box-master/KNS/PANCAKE/BUSD.sol\":11346:11352  _owner */\n      0x00\n        /* \"tutorialtoken-box-master/KNS/PANCAKE/BUSD.sol\":11346:11363  _owner = newOwner */\n      dup1\n      sload\n      not(sub(shl(0xa0, 0x01), 0x01))\n      and\n      sub(shl(0xa0, 0x01), 0x01)\n      swap3\n      swap1\n      swap3\n      and\n      swap2\n      swap1\n      swap2\n      or\n      swap1\n      sstore\n        /* \"tutorialtoken-box-master/KNS/PANCAKE/BUSD.sol\":11154:11369  function _transferOwnership(address newOwner) internal {\r... */\n      jump\t// out\n        /* \"tutorialtoken-box-master/KNS/PANCAKE/BUSD.sol\":5327:5457  function sub(uint256 a, uint256 b) internal pure returns (uint256) {\r... */\n    tag_179:\n        /* \"tutorialtoken-box-master/KNS/PANCAKE/BUSD.sol\":5385:5392  uint256 */\n      0x00\n        /* \"tutorialtoken-box-master/KNS/PANCAKE/BUSD.sol\":5408:5451  sub(a, b, \"SafeMath: subtraction overflow\") */\n      tag_174\n        /* \"tutorialtoken-box-master/KNS/PANCAKE/BUSD.sol\":5412:5413  a */\n      dup4\n        /* \"tutorialtoken-box-master/KNS/PANCAKE/BUSD.sol\":5415:5416  b */\n      dup4\n        /* \"tutorialtoken-box-master/KNS/PANCAKE/BUSD.sol\":5408:5451  sub(a, b, \"SafeMath: subtraction overflow\") */\n      mload(0x40)\n      dup1\n      0x40\n      add\n      0x40\n      mstore\n      dup1\n      0x1e\n      dup2\n      mstore\n      0x20\n      add\n      0x536166654d6174683a207375627472616374696f6e206f766572666c6f770000\n      dup2\n      mstore\n      pop\n        /* \"tutorialtoken-box-master/KNS/PANCAKE/BUSD.sol\":5408:5411  sub */\n      tag_106\n        /* \"tutorialtoken-box-master/KNS/PANCAKE/BUSD.sol\":5408:5451  sub(a, b, \"SafeMath: subtraction overflow\") */\n      jump\t// in\n    stop\n    data_0d26cf302d50b28de74be656b11d67092b32131e5712d1bcf08c4e976dacda57 42455032303a207472616e736665722066726f6d20746865207a65726f2061646472657373\n    data_1441cfbef485de93bedecc35b3d10fa2992db382c4c9c583a6e423a140abe4a4 42455032303a20617070726f76652066726f6d20746865207a65726f2061646472657373\n    data_245f15ff17f551913a7a18385165551503906a406f905ac1c2437281a7cd0cfe 4f776e61626c653a206e6577206f776e657220697320746865207a65726f2061646472657373\n    data_4f3506f4ba71c79c3cbd442a3afeb30e9b27af2d84e116a4385b34e267d2287e 42455032303a207472616e7366657220616d6f756e74206578636565647320616c6c6f77616e6365\n    data_9924ebdf1add33d25d4ef888e16131f0a5687b0580a36c21b5c301a6c462effe 4f776e61626c653a2063616c6c6572206973206e6f7420746865206f776e6572\n    data_9c064737b570a74c2bac5d21056d93ac53115214216cd14d4a0fc9b60be81231 8be0079c531659141344cd1fd0a4f28419497f9722a3daafe3b4186f6b6457e0\n    data_a91efd7a65ef5b4ae4d6568d674798b78a5a89184dd296c100513251c22d3e73 42455032303a207472616e7366657220616d6f756e7420657863656564732062616c616e6365\n    data_ada389e1fc24a8587c776340efb91b36e675792ab631816100d55df0b5cf3cbc ddf252ad1be2c89b69c2b068fc378daa952ba7f163c4a11628f55a4df523b3ef\n    data_ade9efcb59e42e439ffe61509b352b1af56d64ccb68d80b039b7b69578f371d2 42455032303a207472616e7366657220746f20746865207a65726f2061646472657373\n    data_b7060b3538dcd3ddc8a941c91636a8115a1aa46914747fd9809d543bbb46cd22 42455032303a2064656372656173656420616c6c6f77616e63652062656c6f77207a65726f\n    data_b81edbf10508d9b81724f18ff8f3d8bfba9790734ce1f1c54dfe1030b4914855 42455032303a206275726e2066726f6d20746865207a65726f2061646472657373\n    data_deaa84b30175fd0578812c46240362b7914652a35e6707ad7e1556891e4ae032 42455032303a206275726e20616d6f756e7420657863656564732062616c616e6365\n    data_f10e7571e18b354270dee950932fb6a745efc79414b2b2556185a4ed6a1af0d5 42455032303a20617070726f766520746f20746865207a65726f2061646472657373\n\n    auxdata: 0xa265627a7a7231582002413a4124ecfc15b1b6e1e5aef97e3c1b39c37ca234adaa736d52084119eaf464736f6c63430005100032\n}\n",
				"bytecode": {
					"linkReferences": {},
					"object": "60806040523480156200001157600080fd5b506000620000276001600160e01b036200014016565b600080546001600160a01b0319166001600160a01b0383169081178255604051929350917f8be0079c531659141344cd1fd0a4f28419497f9722a3daafe3b4186f6b6457e0908290a35060408051808201909152600a80825269212aa9a2102a37b5b2b760b11b6020909201918252620000a49160069162000145565b5060408051808201909152600480825263109554d160e21b6020909201918252620000d29160059162000145565b506004805460ff191660121790556a19a4815e0ad0c67f0000006003819055336000818152600160209081526040808320859055805194855251929391927fddf252ad1be2c89b69c2b068fc378daa952ba7f163c4a11628f55a4df523b3ef9281900390910190a3620001e7565b335b90565b828054600181600116156101000203166002900490600052602060002090601f016020900481019282601f106200018857805160ff1916838001178555620001b8565b82800160010185558215620001b8579182015b82811115620001b85782518255916020019190600101906200019b565b50620001c6929150620001ca565b5090565b6200014291905b80821115620001c65760008155600101620001d1565b6110db80620001f76000396000f3fe608060405234801561001057600080fd5b50600436106100fc5760003560e01c806306fdde0314610101578063095ea7b31461017e57806318160ddd146101be57806323b872dd146101d8578063313ce5671461020e57806332424aa31461022c578063395093511461023457806342966c681461026057806370a082311461027d578063715018a6146102a3578063893d20e8146102ad5780638da5cb5b146102d157806395d89b41146102d9578063a0712d68146102e1578063a457c2d7146102fe578063a9059cbb1461032a578063b09f126614610356578063d28d88521461035e578063dd62ed3e14610366578063f2fde38b14610394575b600080fd5b6101096103ba565b6040805160208082528351818301528351919283929083019185019080838360005b8381101561014357818101518382015260200161012b565b50505050905090810190601f1680156101705780820380516001836020036101000a031916815260200191505b509250505060405180910390f35b6101aa6004803603604081101561019457600080fd5b506001600160a01b038135169060200135610450565b604080519115158252519081900360200190f35b6101c661046d565b60408051918252519081900360200190f35b6101aa600480360360608110156101ee57600080fd5b506001600160a01b03813581169160208101359091169060400135610473565b610216610500565b6040805160ff9092168252519081900360200190f35b610216610509565b6101aa6004803603604081101561024a57600080fd5b506001600160a01b038135169060200135610512565b6101aa6004803603602081101561027657600080fd5b5035610566565b6101c66004803603602081101561029357600080fd5b50356001600160a01b0316610581565b6102ab61059c565b005b6102b561062c565b604080516001600160a01b039092168252519081900360200190f35b6102b561063b565b61010961064a565b6101aa600480360360208110156102f757600080fd5b50356106ab565b6101aa6004803603604081101561031457600080fd5b506001600160a01b038135169060200135610716565b6101aa6004803603604081101561034057600080fd5b506001600160a01b038135169060200135610784565b610109610798565b610109610826565b6101c66004803603604081101561037c57600080fd5b506001600160a01b0381358116916020013516610881565b6102ab600480360360208110156103aa57600080fd5b50356001600160a01b03166108ac565b60068054604080516020601f60026000196101006001881615020190951694909404938401819004810282018101909252828152606093909290918301828280156104465780601f1061041b57610100808354040283529160200191610446565b820191906000526020600020905b81548152906001019060200180831161042957829003601f168201915b5050505050905090565b600061046461045d610910565b8484610914565b50600192915050565b60035490565b6000610480848484610a00565b6104f68461048c610910565b6104f185604051806060016040528060288152602001610f4c602891396001600160a01b038a166000908152600260205260408120906104ca610910565b6001600160a01b03168152602081019190915260400160002054919063ffffffff610b4c16565b610914565b5060019392505050565b60045460ff1690565b60045460ff1681565b600061046461051f610910565b846104f18560026000610530610910565b6001600160a01b03908116825260208083019390935260409182016000908120918c16815292529020549063ffffffff610be316565b6000610579610573610910565b83610c42565b506001919050565b6001600160a01b031660009081526001602052604090205490565b6105a4610910565b6000546001600160a01b039081169116146105f4576040805162461bcd60e51b81526020600482018190526024820152600080516020610f74833981519152604482015290519081900360640190fd5b600080546040516001600160a01b0390911690600080516020610f94833981519152908390a3600080546001600160a01b0319169055565b600061063661063b565b905090565b6000546001600160a01b031690565b60058054604080516020601f60026000196101006001881615020190951694909404938401819004810282018101909252828152606093909290918301828280156104465780601f1061041b57610100808354040283529160200191610446565b60006106b5610910565b6000546001600160a01b03908116911614610705576040805162461bcd60e51b81526020600482018190526024820152600080516020610f74833981519152604482015290519081900360640190fd5b610579610710610910565b83610d2c565b6000610464610723610910565b846104f18560405180606001604052806025815260200161101d602591396002600061074d610910565b6001600160a01b03908116825260208083019390935260409182016000908120918d1681529252902054919063ffffffff610b4c16565b6000610464610791610910565b8484610a00565b6005805460408051602060026001851615610100026000190190941693909304601f8101849004840282018401909252818152929183018282801561081e5780601f106107f35761010080835404028352916020019161081e565b820191906000526020600020905b81548152906001019060200180831161080157829003601f168201915b505050505081565b6006805460408051602060026001851615610100026000190190941693909304601f8101849004840282018401909252818152929183018282801561081e5780601f106107f35761010080835404028352916020019161081e565b6001600160a01b03918216600090815260026020908152604080832093909416825291909152205490565b6108b4610910565b6000546001600160a01b03908116911614610904576040805162461bcd60e51b81526020600482018190526024820152600080516020610f74833981519152604482015290519081900360640190fd5b61090d81610e0c565b50565b3390565b6001600160a01b0383166109595760405162461bcd60e51b8152600401808060200182810382526024815260200180610f026024913960400191505060405180910390fd5b6001600160a01b03821661099e5760405162461bcd60e51b81526004018080602001828103825260228152602001806110856022913960400191505060405180910390fd5b6001600160a01b03808416600081815260026020908152604080832094871680845294825291829020859055815185815291517f8c5be1e5ebec7d5bd14f71427d1e84f3dd0314c0f7b2291e5b200ac8c7c3b9259281900390910190a3505050565b6001600160a01b038316610a455760405162461bcd60e51b8152600401808060200182810382526025815260200180610edd6025913960400191505060405180910390fd5b6001600160a01b038216610a8a5760405162461bcd60e51b8152600401808060200182810382526023815260200180610ffa6023913960400191505060405180910390fd5b610acd81604051806060016040528060268152602001610fb4602691396001600160a01b038616600090815260016020526040902054919063ffffffff610b4c16565b6001600160a01b038085166000908152600160205260408082209390935590841681522054610b02908263ffffffff610be316565b6001600160a01b038084166000818152600160209081526040918290209490945580518581529051919392871692600080516020610fda83398151915292918290030190a3505050565b60008184841115610bdb5760405162461bcd60e51b81526004018080602001828103825283818151815260200191508051906020019080838360005b83811015610ba0578181015183820152602001610b88565b50505050905090810190601f168015610bcd5780820380516001836020036101000a031916815260200191505b509250505060405180910390fd5b505050900390565b600082820183811015610c3b576040805162461bcd60e51b815260206004820152601b60248201527a536166654d6174683a206164646974696f6e206f766572666c6f7760281b604482015290519081900360640190fd5b9392505050565b6001600160a01b038216610c875760405162461bcd60e51b81526004018080602001828103825260218152602001806110426021913960400191505060405180910390fd5b610cca81604051806060016040528060228152602001611063602291396001600160a01b038516600090815260016020526040902054919063ffffffff610b4c16565b6001600160a01b038316600090815260016020526040902055600354610cf6908263ffffffff610e9a16565b6003556040805182815290516000916001600160a01b03851691600080516020610fda8339815191529181900360200190a35050565b6001600160a01b038216610d87576040805162461bcd60e51b815260206004820152601f60248201527f42455032303a206d696e7420746f20746865207a65726f206164647265737300604482015290519081900360640190fd5b600354610d9a908263ffffffff610be316565b6003556001600160a01b038216600090815260016020526040902054610dc6908263ffffffff610be316565b6001600160a01b0383166000818152600160209081526040808320949094558351858152935192939192600080516020610fda8339815191529281900390910190a35050565b6001600160a01b038116610e515760405162461bcd60e51b8152600401808060200182810382526026815260200180610f266026913960400191505060405180910390fd5b600080546040516001600160a01b0380851693921691600080516020610f9483398151915291a3600080546001600160a01b0319166001600160a01b0392909216919091179055565b6000610c3b83836040518060400160405280601e81526020017f536166654d6174683a207375627472616374696f6e206f766572666c6f770000815250610b4c56fe42455032303a207472616e736665722066726f6d20746865207a65726f206164647265737342455032303a20617070726f76652066726f6d20746865207a65726f20616464726573734f776e61626c653a206e6577206f776e657220697320746865207a65726f206164647265737342455032303a207472616e7366657220616d6f756e74206578636565647320616c6c6f77616e63654f776e61626c653a2063616c6c6572206973206e6f7420746865206f776e65728be0079c531659141344cd1fd0a4f28419497f9722a3daafe3b4186f6b6457e042455032303a207472616e7366657220616d6f756e7420657863656564732062616c616e6365ddf252ad1be2c89b69c2b068fc378daa952ba7f163c4a11628f55a4df523b3ef42455032303a207472616e7366657220746f20746865207a65726f206164647265737342455032303a2064656372656173656420616c6c6f77616e63652062656c6f77207a65726f42455032303a206275726e2066726f6d20746865207a65726f206164647265737342455032303a206275726e20616d6f756e7420657863656564732062616c616e636542455032303a20617070726f766520746f20746865207a65726f2061646472657373a265627a7a7231582002413a4124ecfc15b1b6e1e5aef97e3c1b39c37ca234adaa736d52084119eaf464736f6c63430005100032",
					"opcodes": "PUSH1 0x80 PUSH1 0x40 MSTORE CALLVALUE DUP1 ISZERO PUSH3 0x11 JUMPI PUSH1 0x0 DUP1 REVERT JUMPDEST POP PUSH1 0x0 PUSH3 0x27 PUSH1 0x1 PUSH1 0x1 PUSH1 0xE0 SHL SUB PUSH3 0x140 AND JUMP JUMPDEST PUSH1 0x0 DUP1 SLOAD PUSH1 0x1 PUSH1 0x1 PUSH1 0xA0 SHL SUB NOT AND PUSH1 0x1 PUSH1 0x1 PUSH1 0xA0 SHL SUB DUP4 AND SWAP1 DUP2 OR DUP3 SSTORE PUSH1 0x40 MLOAD SWAP3 SWAP4 POP SWAP2 PUSH32 0x8BE0079C531659141344CD1FD0A4F28419497F9722A3DAAFE3B4186F6B6457E0 SWAP1 DUP3 SWAP1 LOG3 POP PUSH1 0x40 DUP1 MLOAD DUP1 DUP3 ADD SWAP1 SWAP2 MSTORE PUSH1 0xA DUP1 DUP3 MSTORE PUSH10 0x212AA9A2102A37B5B2B7 PUSH1 0xB1 SHL PUSH1 0x20 SWAP1 SWAP3 ADD SWAP2 DUP3 MSTORE PUSH3 0xA4 SWAP2 PUSH1 0x6 SWAP2 PUSH3 0x145 JUMP JUMPDEST POP PUSH1 0x40 DUP1 MLOAD DUP1 DUP3 ADD SWAP1 SWAP2 MSTORE PUSH1 0x4 DUP1 DUP3 MSTORE PUSH4 0x109554D1 PUSH1 0xE2 SHL PUSH1 0x20 SWAP1 SWAP3 ADD SWAP2 DUP3 MSTORE PUSH3 0xD2 SWAP2 PUSH1 0x5 SWAP2 PUSH3 0x145 JUMP JUMPDEST POP PUSH1 0x4 DUP1 SLOAD PUSH1 0xFF NOT AND PUSH1 0x12 OR SWAP1 SSTORE PUSH11 0x19A4815E0AD0C67F000000 PUSH1 0x3 DUP2 SWAP1 SSTORE CALLER PUSH1 0x0 DUP2 DUP2 MSTORE PUSH1 0x1 PUSH1 0x20 SWAP1 DUP2 MSTORE PUSH1 0x40 DUP1 DUP4 KECCAK256 DUP6 SWAP1 SSTORE DUP1 MLOAD SWAP5 DUP6 MSTORE MLOAD SWAP3 SWAP4 SWAP2 SWAP3 PUSH32 0xDDF252AD1BE2C89B69C2B068FC378DAA952BA7F163C4A11628F55A4DF523B3EF SWAP3 DUP2 SWAP1 SUB SWAP1 SWAP2 ADD SWAP1 LOG3 PUSH3 0x1E7 JUMP JUMPDEST CALLER JUMPDEST SWAP1 JUMP JUMPDEST DUP3 DUP1 SLOAD PUSH1 0x1 DUP2 PUSH1 0x1 AND ISZERO PUSH2 0x100 MUL SUB AND PUSH1 0x2 SWAP1 DIV SWAP1 PUSH1 0x0 MSTORE PUSH1 0x20 PUSH1 0x0 KECCAK256 SWAP1 PUSH1 0x1F ADD PUSH1 0x20 SWAP1 DIV DUP2 ADD SWAP3 DUP3 PUSH1 0x1F LT PUSH3 0x188 JUMPI DUP1 MLOAD PUSH1 0xFF NOT AND DUP4 DUP1 ADD OR DUP6 SSTORE PUSH3 0x1B8 JUMP JUMPDEST DUP3 DUP1 ADD PUSH1 0x1 ADD DUP6 SSTORE DUP3 ISZERO PUSH3 0x1B8 JUMPI SWAP2 DUP3 ADD JUMPDEST DUP3 DUP2 GT ISZERO PUSH3 0x1B8 JUMPI DUP3 MLOAD DUP3 SSTORE SWAP2 PUSH1 0x20 ADD SWAP2 SWAP1 PUSH1 0x1 ADD SWAP1 PUSH3 0x19B JUMP JUMPDEST POP PUSH3 0x1C6 SWAP3 SWAP2 POP PUSH3 0x1CA JUMP JUMPDEST POP SWAP1 JUMP JUMPDEST PUSH3 0x142 SWAP2 SWAP1 JUMPDEST DUP1 DUP3 GT ISZERO PUSH3 0x1C6 JUMPI PUSH1 0x0 DUP2 SSTORE PUSH1 0x1 ADD PUSH3 0x1D1 JUMP JUMPDEST PUSH2 0x10DB DUP1 PUSH3 0x1F7 PUSH1 0x0 CODECOPY PUSH1 0x0 RETURN INVALID PUSH1 0x80 PUSH1 0x40 MSTORE CALLVALUE DUP1 ISZERO PUSH2 0x10 JUMPI PUSH1 0x0 DUP1 REVERT JUMPDEST POP PUSH1 0x4 CALLDATASIZE LT PUSH2 0xFC JUMPI PUSH1 0x0 CALLDATALOAD PUSH1 0xE0 SHR DUP1 PUSH4 0x6FDDE03 EQ PUSH2 0x101 JUMPI DUP1 PUSH4 0x95EA7B3 EQ PUSH2 0x17E JUMPI DUP1 PUSH4 0x18160DDD EQ PUSH2 0x1BE JUMPI DUP1 PUSH4 0x23B872DD EQ PUSH2 0x1D8 JUMPI DUP1 PUSH4 0x313CE567 EQ PUSH2 0x20E JUMPI DUP1 PUSH4 0x32424AA3 EQ PUSH2 0x22C JUMPI DUP1 PUSH4 0x39509351 EQ PUSH2 0x234 JUMPI DUP1 PUSH4 0x42966C68 EQ PUSH2 0x260 JUMPI DUP1 PUSH4 0x70A08231 EQ PUSH2 0x27D JUMPI DUP1 PUSH4 0x715018A6 EQ PUSH2 0x2A3 JUMPI DUP1 PUSH4 0x893D20E8 EQ PUSH2 0x2AD JUMPI DUP1 PUSH4 0x8DA5CB5B EQ PUSH2 0x2D1 JUMPI DUP1 PUSH4 0x95D89B41 EQ PUSH2 0x2D9 JUMPI DUP1 PUSH4 0xA0712D68 EQ PUSH2 0x2E1 JUMPI DUP1 PUSH4 0xA457C2D7 EQ PUSH2 0x2FE JUMPI DUP1 PUSH4 0xA9059CBB EQ PUSH2 0x32A JUMPI DUP1 PUSH4 0xB09F1266 EQ PUSH2 0x356 JUMPI DUP1 PUSH4 0xD28D8852 EQ PUSH2 0x35E JUMPI DUP1 PUSH4 0xDD62ED3E EQ PUSH2 0x366 JUMPI DUP1 PUSH4 0xF2FDE38B EQ PUSH2 0x394 JUMPI JUMPDEST PUSH1 0x0 DUP1 REVERT JUMPDEST PUSH2 0x109 PUSH2 0x3BA JUMP JUMPDEST PUSH1 0x40 DUP1 MLOAD PUSH1 0x20 DUP1 DUP3 MSTORE DUP4 MLOAD DUP2 DUP4 ADD MSTORE DUP4 MLOAD SWAP2 SWAP3 DUP4 SWAP3 SWAP1 DUP4 ADD SWAP2 DUP6 ADD SWAP1 DUP1 DUP4 DUP4 PUSH1 0x0 JUMPDEST DUP4 DUP2 LT ISZERO PUSH2 0x143 JUMPI DUP2 DUP2 ADD MLOAD DUP4 DUP3 ADD MSTORE PUSH1 0x20 ADD PUSH2 0x12B JUMP JUMPDEST POP POP POP POP SWAP1 POP SWAP1 DUP2 ADD SWAP1 PUSH1 0x1F AND DUP1 ISZERO PUSH2 0x170 JUMPI DUP1 DUP3 SUB DUP1 MLOAD PUSH1 0x1 DUP4 PUSH1 0x20 SUB PUSH2 0x100 EXP SUB NOT AND DUP2 MSTORE PUSH1 0x20 ADD SWAP2 POP JUMPDEST POP SWAP3 POP POP POP PUSH1 0x40 MLOAD DUP1 SWAP2 SUB SWAP1 RETURN JUMPDEST PUSH2 0x1AA PUSH1 0x4 DUP1 CALLDATASIZE SUB PUSH1 0x40 DUP2 LT ISZERO PUSH2 0x194 JUMPI PUSH1 0x0 DUP1 REVERT JUMPDEST POP PUSH1 0x1 PUSH1 0x1 PUSH1 0xA0 SHL SUB DUP2 CALLDATALOAD AND SWAP1 PUSH1 0x20 ADD CALLDATALOAD PUSH2 0x450 JUMP JUMPDEST PUSH1 0x40 DUP1 MLOAD SWAP2 ISZERO ISZERO DUP3 MSTORE MLOAD SWAP1 DUP2 SWAP1 SUB PUSH1 0x20 ADD SWAP1 RETURN JUMPDEST PUSH2 0x1C6 PUSH2 0x46D JUMP JUMPDEST PUSH1 0x40 DUP1 MLOAD SWAP2 DUP3 MSTORE MLOAD SWAP1 DUP2 SWAP1 SUB PUSH1 0x20 ADD SWAP1 RETURN JUMPDEST PUSH2 0x1AA PUSH1 0x4 DUP1 CALLDATASIZE SUB PUSH1 0x60 DUP2 LT ISZERO PUSH2 0x1EE JUMPI PUSH1 0x0 DUP1 REVERT JUMPDEST POP PUSH1 0x1 PUSH1 0x1 PUSH1 0xA0 SHL SUB DUP2 CALLDATALOAD DUP2 AND SWAP2 PUSH1 0x20 DUP2 ADD CALLDATALOAD SWAP1 SWAP2 AND SWAP1 PUSH1 0x40 ADD CALLDATALOAD PUSH2 0x473 JUMP JUMPDEST PUSH2 0x216 PUSH2 0x500 JUMP JUMPDEST PUSH1 0x40 DUP1 MLOAD PUSH1 0xFF SWAP1 SWAP3 AND DUP3 MSTORE MLOAD SWAP1 DUP2 SWAP1 SUB PUSH1 0x20 ADD SWAP1 RETURN JUMPDEST PUSH2 0x216 PUSH2 0x509 JUMP JUMPDEST PUSH2 0x1AA PUSH1 0x4 DUP1 CALLDATASIZE SUB PUSH1 0x40 DUP2 LT ISZERO PUSH2 0x24A JUMPI PUSH1 0x0 DUP1 REVERT JUMPDEST POP PUSH1 0x1 PUSH1 0x1 PUSH1 0xA0 SHL SUB DUP2 CALLDATALOAD AND SWAP1 PUSH1 0x20 ADD CALLDATALOAD PUSH2 0x512 JUMP JUMPDEST PUSH2 0x1AA PUSH1 0x4 DUP1 CALLDATASIZE SUB PUSH1 0x20 DUP2 LT ISZERO PUSH2 0x276 JUMPI PUSH1 0x0 DUP1 REVERT JUMPDEST POP CALLDATALOAD PUSH2 0x566 JUMP JUMPDEST PUSH2 0x1C6 PUSH1 0x4 DUP1 CALLDATASIZE SUB PUSH1 0x20 DUP2 LT ISZERO PUSH2 0x293 JUMPI PUSH1 0x0 DUP1 REVERT JUMPDEST POP CALLDATALOAD PUSH1 0x1 PUSH1 0x1 PUSH1 0xA0 SHL SUB AND PUSH2 0x581 JUMP JUMPDEST PUSH2 0x2AB PUSH2 0x59C JUMP JUMPDEST STOP JUMPDEST PUSH2 0x2B5 PUSH2 0x62C JUMP JUMPDEST PUSH1 0x40 DUP1 MLOAD PUSH1 0x1 PUSH1 0x1 PUSH1 0xA0 SHL SUB SWAP1 SWAP3 AND DUP3 MSTORE MLOAD SWAP1 DUP2 SWAP1 SUB PUSH1 0x20 ADD SWAP1 RETURN JUMPDEST PUSH2 0x2B5 PUSH2 0x63B JUMP JUMPDEST PUSH2 0x109 PUSH2 0x64A JUMP JUMPDEST PUSH2 0x1AA PUSH1 0x4 DUP1 CALLDATASIZE SUB PUSH1 0x20 DUP2 LT ISZERO PUSH2 0x2F7 JUMPI PUSH1 0x0 DUP1 REVERT JUMPDEST POP CALLDATALOAD PUSH2 0x6AB JUMP JUMPDEST PUSH2 0x1AA PUSH1 0x4 DUP1 CALLDATASIZE SUB PUSH1 0x40 DUP2 LT ISZERO PUSH2 0x314 JUMPI PUSH1 0x0 DUP1 REVERT JUMPDEST POP PUSH1 0x1 PUSH1 0x1 PUSH1 0xA0 SHL SUB DUP2 CALLDATALOAD AND SWAP1 PUSH1 0x20 ADD CALLDATALOAD PUSH2 0x716 JUMP JUMPDEST PUSH2 0x1AA PUSH1 0x4 DUP1 CALLDATASIZE SUB PUSH1 0x40 DUP2 LT ISZERO PUSH2 0x340 JUMPI PUSH1 0x0 DUP1 REVERT JUMPDEST POP PUSH1 0x1 PUSH1 0x1 PUSH1 0xA0 SHL SUB DUP2 CALLDATALOAD AND SWAP1 PUSH1 0x20 ADD CALLDATALOAD PUSH2 0x784 JUMP JUMPDEST PUSH2 0x109 PUSH2 0x798 JUMP JUMPDEST PUSH2 0x109 PUSH2 0x826 JUMP JUMPDEST PUSH2 0x1C6 PUSH1 0x4 DUP1 CALLDATASIZE SUB PUSH1 0x40 DUP2 LT ISZERO PUSH2 0x37C JUMPI PUSH1 0x0 DUP1 REVERT JUMPDEST POP PUSH1 0x1 PUSH1 0x1 PUSH1 0xA0 SHL SUB DUP2 CALLDATALOAD DUP2 AND SWAP2 PUSH1 0x20 ADD CALLDATALOAD AND PUSH2 0x881 JUMP JUMPDEST PUSH2 0x2AB PUSH1 0x4 DUP1 CALLDATASIZE SUB PUSH1 0x20 DUP2 LT ISZERO PUSH2 0x3AA JUMPI PUSH1 0x0 DUP1 REVERT JUMPDEST POP CALLDATALOAD PUSH1 0x1 PUSH1 0x1 PUSH1 0xA0 SHL SUB AND PUSH2 0x8AC JUMP JUMPDEST PUSH1 0x6 DUP1 SLOAD PUSH1 0x40 DUP1 MLOAD PUSH1 0x20 PUSH1 0x1F PUSH1 0x2 PUSH1 0x0 NOT PUSH2 0x100 PUSH1 0x1 DUP9 AND ISZERO MUL ADD SWAP1 SWAP6 AND SWAP5 SWAP1 SWAP5 DIV SWAP4 DUP5 ADD DUP2 SWAP1 DIV DUP2 MUL DUP3 ADD DUP2 ADD SWAP1 SWAP3 MSTORE DUP3 DUP2 MSTORE PUSH1 0x60 SWAP4 SWAP1 SWAP3 SWAP1 SWAP2 DUP4 ADD DUP3 DUP3 DUP1 ISZERO PUSH2 0x446 JUMPI DUP1 PUSH1 0x1F LT PUSH2 0x41B JUMPI PUSH2 0x100 DUP1 DUP4 SLOAD DIV MUL DUP4 MSTORE SWAP2 PUSH1 0x20 ADD SWAP2 PUSH2 0x446 JUMP JUMPDEST DUP3 ADD SWAP2 SWAP1 PUSH1 0x0 MSTORE PUSH1 0x20 PUSH1 0x0 KECCAK256 SWAP1 JUMPDEST DUP2 SLOAD DUP2 MSTORE SWAP1 PUSH1 0x1 ADD SWAP1 PUSH1 0x20 ADD DUP1 DUP4 GT PUSH2 0x429 JUMPI DUP3 SWAP1 SUB PUSH1 0x1F AND DUP3 ADD SWAP2 JUMPDEST POP POP POP POP POP SWAP1 POP SWAP1 JUMP JUMPDEST PUSH1 0x0 PUSH2 0x464 PUSH2 0x45D PUSH2 0x910 JUMP JUMPDEST DUP5 DUP5 PUSH2 0x914 JUMP JUMPDEST POP PUSH1 0x1 SWAP3 SWAP2 POP POP JUMP JUMPDEST PUSH1 0x3 SLOAD SWAP1 JUMP JUMPDEST PUSH1 0x0 PUSH2 0x480 DUP5 DUP5 DUP5 PUSH2 0xA00 JUMP JUMPDEST PUSH2 0x4F6 DUP5 PUSH2 0x48C PUSH2 0x910 JUMP JUMPDEST PUSH2 0x4F1 DUP6 PUSH1 0x40 MLOAD DUP1 PUSH1 0x60 ADD PUSH1 0x40 MSTORE DUP1 PUSH1 0x28 DUP2 MSTORE PUSH1 0x20 ADD PUSH2 0xF4C PUSH1 0x28 SWAP2 CODECOPY PUSH1 0x1 PUSH1 0x1 PUSH1 0xA0 SHL SUB DUP11 AND PUSH1 0x0 SWAP1 DUP2 MSTORE PUSH1 0x2 PUSH1 0x20 MSTORE PUSH1 0x40 DUP2 KECCAK256 SWAP1 PUSH2 0x4CA PUSH2 0x910 JUMP JUMPDEST PUSH1 0x1 PUSH1 0x1 PUSH1 0xA0 SHL SUB AND DUP2 MSTORE PUSH1 0x20 DUP2 ADD SWAP2 SWAP1 SWAP2 MSTORE PUSH1 0x40 ADD PUSH1 0x0 KECCAK256 SLOAD SWAP2 SWAP1 PUSH4 0xFFFFFFFF PUSH2 0xB4C AND JUMP JUMPDEST PUSH2 0x914 JUMP JUMPDEST POP PUSH1 0x1 SWAP4 SWAP3 POP POP POP JUMP JUMPDEST PUSH1 0x4 SLOAD PUSH1 0xFF AND SWAP1 JUMP JUMPDEST PUSH1 0x4 SLOAD PUSH1 0xFF AND DUP2 JUMP JUMPDEST PUSH1 0x0 PUSH2 0x464 PUSH2 0x51F PUSH2 0x910 JUMP JUMPDEST DUP5 PUSH2 0x4F1 DUP6 PUSH1 0x2 PUSH1 0x0 PUSH2 0x530 PUSH2 0x910 JUMP JUMPDEST PUSH1 0x1 PUSH1 0x1 PUSH1 0xA0 SHL SUB SWAP1 DUP2 AND DUP3 MSTORE PUSH1 0x20 DUP1 DUP4 ADD SWAP4 SWAP1 SWAP4 MSTORE PUSH1 0x40 SWAP2 DUP3 ADD PUSH1 0x0 SWAP1 DUP2 KECCAK256 SWAP2 DUP13 AND DUP2 MSTORE SWAP3 MSTORE SWAP1 KECCAK256 SLOAD SWAP1 PUSH4 0xFFFFFFFF PUSH2 0xBE3 AND JUMP JUMPDEST PUSH1 0x0 PUSH2 0x579 PUSH2 0x573 PUSH2 0x910 JUMP JUMPDEST DUP4 PUSH2 0xC42 JUMP JUMPDEST POP PUSH1 0x1 SWAP2 SWAP1 POP JUMP JUMPDEST PUSH1 0x1 PUSH1 0x1 PUSH1 0xA0 SHL SUB AND PUSH1 0x0 SWAP1 DUP2 MSTORE PUSH1 0x1 PUSH1 0x20 MSTORE PUSH1 0x40 SWAP1 KECCAK256 SLOAD SWAP1 JUMP JUMPDEST PUSH2 0x5A4 PUSH2 0x910 JUMP JUMPDEST PUSH1 0x0 SLOAD PUSH1 0x1 PUSH1 0x1 PUSH1 0xA0 SHL SUB SWAP1 DUP2 AND SWAP2 AND EQ PUSH2 0x5F4 JUMPI PUSH1 0x40 DUP1 MLOAD PUSH3 0x461BCD PUSH1 0xE5 SHL DUP2 MSTORE PUSH1 0x20 PUSH1 0x4 DUP3 ADD DUP2 SWAP1 MSTORE PUSH1 0x24 DUP3 ADD MSTORE PUSH1 0x0 DUP1 MLOAD PUSH1 0x20 PUSH2 0xF74 DUP4 CODECOPY DUP2 MLOAD SWAP2 MSTORE PUSH1 0x44 DUP3 ADD MSTORE SWAP1 MLOAD SWAP1 DUP2 SWAP1 SUB PUSH1 0x64 ADD SWAP1 REVERT JUMPDEST PUSH1 0x0 DUP1 SLOAD PUSH1 0x40 MLOAD PUSH1 0x1 PUSH1 0x1 PUSH1 0xA0 SHL SUB SWAP1 SWAP2 AND SWAP1 PUSH1 0x0 DUP1 MLOAD PUSH1 0x20 PUSH2 0xF94 DUP4 CODECOPY DUP2 MLOAD SWAP2 MSTORE SWAP1 DUP4 SWAP1 LOG3 PUSH1 0x0 DUP1 SLOAD PUSH1 0x1 PUSH1 0x1 PUSH1 0xA0 SHL SUB NOT AND SWAP1 SSTORE JUMP JUMPDEST PUSH1 0x0 PUSH2 0x636 PUSH2 0x63B JUMP JUMPDEST SWAP1 POP SWAP1 JUMP JUMPDEST PUSH1 0x0 SLOAD PUSH1 0x1 PUSH1 0x1 PUSH1 0xA0 SHL SUB AND SWAP1 JUMP JUMPDEST PUSH1 0x5 DUP1 SLOAD PUSH1 0x40 DUP1 MLOAD PUSH1 0x20 PUSH1 0x1F PUSH1 0x2 PUSH1 0x0 NOT PUSH2 0x100 PUSH1 0x1 DUP9 AND ISZERO MUL ADD SWAP1 SWAP6 AND SWAP5 SWAP1 SWAP5 DIV SWAP4 DUP5 ADD DUP2 SWAP1 DIV DUP2 MUL DUP3 ADD DUP2 ADD SWAP1 SWAP3 MSTORE DUP3 DUP2 MSTORE PUSH1 0x60 SWAP4 SWAP1 SWAP3 SWAP1 SWAP2 DUP4 ADD DUP3 DUP3 DUP1 ISZERO PUSH2 0x446 JUMPI DUP1 PUSH1 0x1F LT PUSH2 0x41B JUMPI PUSH2 0x100 DUP1 DUP4 SLOAD DIV MUL DUP4 MSTORE SWAP2 PUSH1 0x20 ADD SWAP2 PUSH2 0x446 JUMP JUMPDEST PUSH1 0x0 PUSH2 0x6B5 PUSH2 0x910 JUMP JUMPDEST PUSH1 0x0 SLOAD PUSH1 0x1 PUSH1 0x1 PUSH1 0xA0 SHL SUB SWAP1 DUP2 AND SWAP2 AND EQ PUSH2 0x705 JUMPI PUSH1 0x40 DUP1 MLOAD PUSH3 0x461BCD PUSH1 0xE5 SHL DUP2 MSTORE PUSH1 0x20 PUSH1 0x4 DUP3 ADD DUP2 SWAP1 MSTORE PUSH1 0x24 DUP3 ADD MSTORE PUSH1 0x0 DUP1 MLOAD PUSH1 0x20 PUSH2 0xF74 DUP4 CODECOPY DUP2 MLOAD SWAP2 MSTORE PUSH1 0x44 DUP3 ADD MSTORE SWAP1 MLOAD SWAP1 DUP2 SWAP1 SUB PUSH1 0x64 ADD SWAP1 REVERT JUMPDEST PUSH2 0x579 PUSH2 0x710 PUSH2 0x910 JUMP JUMPDEST DUP4 PUSH2 0xD2C JUMP JUMPDEST PUSH1 0x0 PUSH2 0x464 PUSH2 0x723 PUSH2 0x910 JUMP JUMPDEST DUP5 PUSH2 0x4F1 DUP6 PUSH1 0x40 MLOAD DUP1 PUSH1 0x60 ADD PUSH1 0x40 MSTORE DUP1 PUSH1 0x25 DUP2 MSTORE PUSH1 0x20 ADD PUSH2 0x101D PUSH1 0x25 SWAP2 CODECOPY PUSH1 0x2 PUSH1 0x0 PUSH2 0x74D PUSH2 0x910 JUMP JUMPDEST PUSH1 0x1 PUSH1 0x1 PUSH1 0xA0 SHL SUB SWAP1 DUP2 AND DUP3 MSTORE PUSH1 0x20 DUP1 DUP4 ADD SWAP4 SWAP1 SWAP4 MSTORE PUSH1 0x40 SWAP2 DUP3 ADD PUSH1 0x0 SWAP1 DUP2 KECCAK256 SWAP2 DUP14 AND DUP2 MSTORE SWAP3 MSTORE SWAP1 KECCAK256 SLOAD SWAP2 SWAP1 PUSH4 0xFFFFFFFF PUSH2 0xB4C AND JUMP JUMPDEST PUSH1 0x0 PUSH2 0x464 PUSH2 0x791 PUSH2 0x910 JUMP JUMPDEST DUP5 DUP5 PUSH2 0xA00 JUMP JUMPDEST PUSH1 0x5 DUP1 SLOAD PUSH1 0x40 DUP1 MLOAD PUSH1 0x20 PUSH1 0x2 PUSH1 0x1 DUP6 AND ISZERO PUSH2 0x100 MUL PUSH1 0x0 NOT ADD SWAP1 SWAP5 AND SWAP4 SWAP1 SWAP4 DIV PUSH1 0x1F DUP2 ADD DUP5 SWAP1 DIV DUP5 MUL DUP3 ADD DUP5 ADD SWAP1 SWAP3 MSTORE DUP2 DUP2 MSTORE SWAP3 SWAP2 DUP4 ADD DUP3 DUP3 DUP1 ISZERO PUSH2 0x81E JUMPI DUP1 PUSH1 0x1F LT PUSH2 0x7F3 JUMPI PUSH2 0x100 DUP1 DUP4 SLOAD DIV MUL DUP4 MSTORE SWAP2 PUSH1 0x20 ADD SWAP2 PUSH2 0x81E JUMP JUMPDEST DUP3 ADD SWAP2 SWAP1 PUSH1 0x0 MSTORE PUSH1 0x20 PUSH1 0x0 KECCAK256 SWAP1 JUMPDEST DUP2 SLOAD DUP2 MSTORE SWAP1 PUSH1 0x1 ADD SWAP1 PUSH1 0x20 ADD DUP1 DUP4 GT PUSH2 0x801 JUMPI DUP3 SWAP1 SUB PUSH1 0x1F AND DUP3 ADD SWAP2 JUMPDEST POP POP POP POP POP DUP2 JUMP JUMPDEST PUSH1 0x6 DUP1 SLOAD PUSH1 0x40 DUP1 MLOAD PUSH1 0x20 PUSH1 0x2 PUSH1 0x1 DUP6 AND ISZERO PUSH2 0x100 MUL PUSH1 0x0 NOT ADD SWAP1 SWAP5 AND SWAP4 SWAP1 SWAP4 DIV PUSH1 0x1F DUP2 ADD DUP5 SWAP1 DIV DUP5 MUL DUP3 ADD DUP5 ADD SWAP1 SWAP3 MSTORE DUP2 DUP2 MSTORE SWAP3 SWAP2 DUP4 ADD DUP3 DUP3 DUP1 ISZERO PUSH2 0x81E JUMPI DUP1 PUSH1 0x1F LT PUSH2 0x7F3 JUMPI PUSH2 0x100 DUP1 DUP4 SLOAD DIV MUL DUP4 MSTORE SWAP2 PUSH1 0x20 ADD SWAP2 PUSH2 0x81E JUMP JUMPDEST PUSH1 0x1 PUSH1 0x1 PUSH1 0xA0 SHL SUB SWAP2 DUP3 AND PUSH1 0x0 SWAP1 DUP2 MSTORE PUSH1 0x2 PUSH1 0x20 SWAP1 DUP2 MSTORE PUSH1 0x40 DUP1 DUP4 KECCAK256 SWAP4 SWAP1 SWAP5 AND DUP3 MSTORE SWAP2 SWAP1 SWAP2 MSTORE KECCAK256 SLOAD SWAP1 JUMP JUMPDEST PUSH2 0x8B4 PUSH2 0x910 JUMP JUMPDEST PUSH1 0x0 SLOAD PUSH1 0x1 PUSH1 0x1 PUSH1 0xA0 SHL SUB SWAP1 DUP2 AND SWAP2 AND EQ PUSH2 0x904 JUMPI PUSH1 0x40 DUP1 MLOAD PUSH3 0x461BCD PUSH1 0xE5 SHL DUP2 MSTORE PUSH1 0x20 PUSH1 0x4 DUP3 ADD DUP2 SWAP1 MSTORE PUSH1 0x24 DUP3 ADD MSTORE PUSH1 0x0 DUP1 MLOAD PUSH1 0x20 PUSH2 0xF74 DUP4 CODECOPY DUP2 MLOAD SWAP2 MSTORE PUSH1 0x44 DUP3 ADD MSTORE SWAP1 MLOAD SWAP1 DUP2 SWAP1 SUB PUSH1 0x64 ADD SWAP1 REVERT JUMPDEST PUSH2 0x90D DUP2 PUSH2 0xE0C JUMP JUMPDEST POP JUMP JUMPDEST CALLER SWAP1 JUMP JUMPDEST PUSH1 0x1 PUSH1 0x1 PUSH1 0xA0 SHL SUB DUP4 AND PUSH2 0x959 JUMPI PUSH1 0x40 MLOAD PUSH3 0x461BCD PUSH1 0xE5 SHL DUP2 MSTORE PUSH1 0x4 ADD DUP1 DUP1 PUSH1 0x20 ADD DUP3 DUP2 SUB DUP3 MSTORE PUSH1 0x24 DUP2 MSTORE PUSH1 0x20 ADD DUP1 PUSH2 0xF02 PUSH1 0x24 SWAP2 CODECOPY PUSH1 0x40 ADD SWAP2 POP POP PUSH1 0x40 MLOAD DUP1 SWAP2 SUB SWAP1 REVERT JUMPDEST PUSH1 0x1 PUSH1 0x1 PUSH1 0xA0 SHL SUB DUP3 AND PUSH2 0x99E JUMPI PUSH1 0x40 MLOAD PUSH3 0x461BCD PUSH1 0xE5 SHL DUP2 MSTORE PUSH1 0x4 ADD DUP1 DUP1 PUSH1 0x20 ADD DUP3 DUP2 SUB DUP3 MSTORE PUSH1 0x22 DUP2 MSTORE PUSH1 0x20 ADD DUP1 PUSH2 0x1085 PUSH1 0x22 SWAP2 CODECOPY PUSH1 0x40 ADD SWAP2 POP POP PUSH1 0x40 MLOAD DUP1 SWAP2 SUB SWAP1 REVERT JUMPDEST PUSH1 0x1 PUSH1 0x1 PUSH1 0xA0 SHL SUB DUP1 DUP5 AND PUSH1 0x0 DUP2 DUP2 MSTORE PUSH1 0x2 PUSH1 0x20 SWAP1 DUP2 MSTORE PUSH1 0x40 DUP1 DUP4 KECCAK256 SWAP5 DUP8 AND DUP1 DUP5 MSTORE SWAP5 DUP3 MSTORE SWAP2 DUP3 SWAP1 KECCAK256 DUP6 SWAP1 SSTORE DUP2 MLOAD DUP6 DUP2 MSTORE SWAP2 MLOAD PUSH32 0x8C5BE1E5EBEC7D5BD14F71427D1E84F3DD0314C0F7B2291E5B200AC8C7C3B925 SWAP3 DUP2 SWAP1 SUB SWAP1 SWAP2 ADD SWAP1 LOG3 POP POP POP JUMP JUMPDEST PUSH1 0x1 PUSH1 0x1 PUSH1 0xA0 SHL SUB DUP4 AND PUSH2 0xA45 JUMPI PUSH1 0x40 MLOAD PUSH3 0x461BCD PUSH1 0xE5 SHL DUP2 MSTORE PUSH1 0x4 ADD DUP1 DUP1 PUSH1 0x20 ADD DUP3 DUP2 SUB DUP3 MSTORE PUSH1 0x25 DUP2 MSTORE PUSH1 0x20 ADD DUP1 PUSH2 0xEDD PUSH1 0x25 SWAP2 CODECOPY PUSH1 0x40 ADD SWAP2 POP POP PUSH1 0x40 MLOAD DUP1 SWAP2 SUB SWAP1 REVERT JUMPDEST PUSH1 0x1 PUSH1 0x1 PUSH1 0xA0 SHL SUB DUP3 AND PUSH2 0xA8A JUMPI PUSH1 0x40 MLOAD PUSH3 0x461BCD PUSH1 0xE5 SHL DUP2 MSTORE PUSH1 0x4 ADD DUP1 DUP1 PUSH1 0x20 ADD DUP3 DUP2 SUB DUP3 MSTORE PUSH1 0x23 DUP2 MSTORE PUSH1 0x20 ADD DUP1 PUSH2 0xFFA PUSH1 0x23 SWAP2 CODECOPY PUSH1 0x40 ADD SWAP2 POP POP PUSH1 0x40 MLOAD DUP1 SWAP2 SUB SWAP1 REVERT JUMPDEST PUSH2 0xACD DUP2 PUSH1 0x40 MLOAD DUP1 PUSH1 0x60 ADD PUSH1 0x40 MSTORE DUP1 PUSH1 0x26 DUP2 MSTORE PUSH1 0x20 ADD PUSH2 0xFB4 PUSH1 0x26 SWAP2 CODECOPY PUSH1 0x1 PUSH1 0x1 PUSH1 0xA0 SHL SUB DUP7 AND PUSH1 0x0 SWAP1 DUP2 MSTORE PUSH1 0x1 PUSH1 0x20 MSTORE PUSH1 0x40 SWAP1 KECCAK256 SLOAD SWAP2 SWAP1 PUSH4 0xFFFFFFFF PUSH2 0xB4C AND JUMP JUMPDEST PUSH1 0x1 PUSH1 0x1 PUSH1 0xA0 SHL SUB DUP1 DUP6 AND PUSH1 0x0 SWAP1 DUP2 MSTORE PUSH1 0x1 PUSH1 0x20 MSTORE PUSH1 0x40 DUP1 DUP3 KECCAK256 SWAP4 SWAP1 SWAP4 SSTORE SWAP1 DUP5 AND DUP2 MSTORE KECCAK256 SLOAD PUSH2 0xB02 SWAP1 DUP3 PUSH4 0xFFFFFFFF PUSH2 0xBE3 AND JUMP JUMPDEST PUSH1 0x1 PUSH1 0x1 PUSH1 0xA0 SHL SUB DUP1 DUP5 AND PUSH1 0x0 DUP2 DUP2 MSTORE PUSH1 0x1 PUSH1 0x20 SWAP1 DUP2 MSTORE PUSH1 0x40 SWAP2 DUP3 SWAP1 KECCAK256 SWAP5 SWAP1 SWAP5 SSTORE DUP1 MLOAD DUP6 DUP2 MSTORE SWAP1 MLOAD SWAP2 SWAP4 SWAP3 DUP8 AND SWAP3 PUSH1 0x0 DUP1 MLOAD PUSH1 0x20 PUSH2 0xFDA DUP4 CODECOPY DUP2 MLOAD SWAP2 MSTORE SWAP3 SWAP2 DUP3 SWAP1 SUB ADD SWAP1 LOG3 POP POP POP JUMP JUMPDEST PUSH1 0x0 DUP2 DUP5 DUP5 GT ISZERO PUSH2 0xBDB JUMPI PUSH1 0x40 MLOAD PUSH3 0x461BCD PUSH1 0xE5 SHL DUP2 MSTORE PUSH1 0x4 ADD DUP1 DUP1 PUSH1 0x20 ADD DUP3 DUP2 SUB DUP3 MSTORE DUP4 DUP2 DUP2 MLOAD DUP2 MSTORE PUSH1 0x20 ADD SWAP2 POP DUP1 MLOAD SWAP1 PUSH1 0x20 ADD SWAP1 DUP1 DUP4 DUP4 PUSH1 0x0 JUMPDEST DUP4 DUP2 LT ISZERO PUSH2 0xBA0 JUMPI DUP2 DUP2 ADD MLOAD DUP4 DUP3 ADD MSTORE PUSH1 0x20 ADD PUSH2 0xB88 JUMP JUMPDEST POP POP POP POP SWAP1 POP SWAP1 DUP2 ADD SWAP1 PUSH1 0x1F AND DUP1 ISZERO PUSH2 0xBCD JUMPI DUP1 DUP3 SUB DUP1 MLOAD PUSH1 0x1 DUP4 PUSH1 0x20 SUB PUSH2 0x100 EXP SUB NOT AND DUP2 MSTORE PUSH1 0x20 ADD SWAP2 POP JUMPDEST POP SWAP3 POP POP POP PUSH1 0x40 MLOAD DUP1 SWAP2 SUB SWAP1 REVERT JUMPDEST POP POP POP SWAP1 SUB SWAP1 JUMP JUMPDEST PUSH1 0x0 DUP3 DUP3 ADD DUP4 DUP2 LT ISZERO PUSH2 0xC3B JUMPI PUSH1 0x40 DUP1 MLOAD PUSH3 0x461BCD PUSH1 0xE5 SHL DUP2 MSTORE PUSH1 0x20 PUSH1 0x4 DUP3 ADD MSTORE PUSH1 0x1B PUSH1 0x24 DUP3 ADD MSTORE PUSH27 0x536166654D6174683A206164646974696F6E206F766572666C6F77 PUSH1 0x28 SHL PUSH1 0x44 DUP3 ADD MSTORE SWAP1 MLOAD SWAP1 DUP2 SWAP1 SUB PUSH1 0x64 ADD SWAP1 REVERT JUMPDEST SWAP4 SWAP3 POP POP POP JUMP JUMPDEST PUSH1 0x1 PUSH1 0x1 PUSH1 0xA0 SHL SUB DUP3 AND PUSH2 0xC87 JUMPI PUSH1 0x40 MLOAD PUSH3 0x461BCD PUSH1 0xE5 SHL DUP2 MSTORE PUSH1 0x4 ADD DUP1 DUP1 PUSH1 0x20 ADD DUP3 DUP2 SUB DUP3 MSTORE PUSH1 0x21 DUP2 MSTORE PUSH1 0x20 ADD DUP1 PUSH2 0x1042 PUSH1 0x21 SWAP2 CODECOPY PUSH1 0x40 ADD SWAP2 POP POP PUSH1 0x40 MLOAD DUP1 SWAP2 SUB SWAP1 REVERT JUMPDEST PUSH2 0xCCA DUP2 PUSH1 0x40 MLOAD DUP1 PUSH1 0x60 ADD PUSH1 0x40 MSTORE DUP1 PUSH1 0x22 DUP2 MSTORE PUSH1 0x20 ADD PUSH2 0x1063 PUSH1 0x22 SWAP2 CODECOPY PUSH1 0x1 PUSH1 0x1 PUSH1 0xA0 SHL SUB DUP6 AND PUSH1 0x0 SWAP1 DUP2 MSTORE PUSH1 0x1 PUSH1 0x20 MSTORE PUSH1 0x40 SWAP1 KECCAK256 SLOAD SWAP2 SWAP1 PUSH4 0xFFFFFFFF PUSH2 0xB4C AND JUMP JUMPDEST PUSH1 0x1 PUSH1 0x1 PUSH1 0xA0 SHL SUB DUP4 AND PUSH1 0x0 SWAP1 DUP2 MSTORE PUSH1 0x1 PUSH1 0x20 MSTORE PUSH1 0x40 SWAP1 KECCAK256 SSTORE PUSH1 0x3 SLOAD PUSH2 0xCF6 SWAP1 DUP3 PUSH4 0xFFFFFFFF PUSH2 0xE9A AND JUMP JUMPDEST PUSH1 0x3 SSTORE PUSH1 0x40 DUP1 MLOAD DUP3 DUP2 MSTORE SWAP1 MLOAD PUSH1 0x0 SWAP2 PUSH1 0x1 PUSH1 0x1 PUSH1 0xA0 SHL SUB DUP6 AND SWAP2 PUSH1 0x0 DUP1 MLOAD PUSH1 0x20 PUSH2 0xFDA DUP4 CODECOPY DUP2 MLOAD SWAP2 MSTORE SWAP2 DUP2 SWAP1 SUB PUSH1 0x20 ADD SWAP1 LOG3 POP POP JUMP JUMPDEST PUSH1 0x1 PUSH1 0x1 PUSH1 0xA0 SHL SUB DUP3 AND PUSH2 0xD87 JUMPI PUSH1 0x40 DUP1 MLOAD PUSH3 0x461BCD PUSH1 0xE5 SHL DUP2 MSTORE PUSH1 0x20 PUSH1 0x4 DUP3 ADD MSTORE PUSH1 0x1F PUSH1 0x24 DUP3 ADD MSTORE PUSH32 0x42455032303A206D696E7420746F20746865207A65726F206164647265737300 PUSH1 0x44 DUP3 ADD MSTORE SWAP1 MLOAD SWAP1 DUP2 SWAP1 SUB PUSH1 0x64 ADD SWAP1 REVERT JUMPDEST PUSH1 0x3 SLOAD PUSH2 0xD9A SWAP1 DUP3 PUSH4 0xFFFFFFFF PUSH2 0xBE3 AND JUMP JUMPDEST PUSH1 0x3 SSTORE PUSH1 0x1 PUSH1 0x1 PUSH1 0xA0 SHL SUB DUP3 AND PUSH1 0x0 SWAP1 DUP2 MSTORE PUSH1 0x1 PUSH1 0x20 MSTORE PUSH1 0x40 SWAP1 KECCAK256 SLOAD PUSH2 0xDC6 SWAP1 DUP3 PUSH4 0xFFFFFFFF PUSH2 0xBE3 AND JUMP JUMPDEST PUSH1 0x1 PUSH1 0x1 PUSH1 0xA0 SHL SUB DUP4 AND PUSH1 0x0 DUP2 DUP2 MSTORE PUSH1 0x1 PUSH1 0x20 SWAP1 DUP2 MSTORE PUSH1 0x40 DUP1 DUP4 KECCAK256 SWAP5 SWAP1 SWAP5 SSTORE DUP4 MLOAD DUP6 DUP2 MSTORE SWAP4 MLOAD SWAP3 SWAP4 SWAP2 SWAP3 PUSH1 0x0 DUP1 MLOAD PUSH1 0x20 PUSH2 0xFDA DUP4 CODECOPY DUP2 MLOAD SWAP2 MSTORE SWAP3 DUP2 SWAP1 SUB SWAP1 SWAP2 ADD SWAP1 LOG3 POP POP JUMP JUMPDEST PUSH1 0x1 PUSH1 0x1 PUSH1 0xA0 SHL SUB DUP2 AND PUSH2 0xE51 JUMPI PUSH1 0x40 MLOAD PUSH3 0x461BCD PUSH1 0xE5 SHL DUP2 MSTORE PUSH1 0x4 ADD DUP1 DUP1 PUSH1 0x20 ADD DUP3 DUP2 SUB DUP3 MSTORE PUSH1 0x26 DUP2 MSTORE PUSH1 0x20 ADD DUP1 PUSH2 0xF26 PUSH1 0x26 SWAP2 CODECOPY PUSH1 0x40 ADD SWAP2 POP POP PUSH1 0x40 MLOAD DUP1 SWAP2 SUB SWAP1 REVERT JUMPDEST PUSH1 0x0 DUP1 SLOAD PUSH1 0x40 MLOAD PUSH1 0x1 PUSH1 0x1 PUSH1 0xA0 SHL SUB DUP1 DUP6 AND SWAP4 SWAP3 AND SWAP2 PUSH1 0x0 DUP1 MLOAD PUSH1 0x20 PUSH2 0xF94 DUP4 CODECOPY DUP2 MLOAD SWAP2 MSTORE SWAP2 LOG3 PUSH1 0x0 DUP1 SLOAD PUSH1 0x1 PUSH1 0x1 PUSH1 0xA0 SHL SUB NOT AND PUSH1 0x1 PUSH1 0x1 PUSH1 0xA0 SHL SUB SWAP3 SWAP1 SWAP3 AND SWAP2 SWAP1 SWAP2 OR SWAP1 SSTORE JUMP JUMPDEST PUSH1 0x0 PUSH2 0xC3B DUP4 DUP4 PUSH1 0x40 MLOAD DUP1 PUSH1 0x40 ADD PUSH1 0x40 MSTORE DUP1 PUSH1 0x1E DUP2 MSTORE PUSH1 0x20 ADD PUSH32 0x536166654D6174683A207375627472616374696F6E206F766572666C6F770000 DUP2 MSTORE POP PUSH2 0xB4C JUMP INVALID TIMESTAMP GASLIMIT POP ORIGIN ADDRESS GASPRICE KECCAK256 PUSH21 0x72616E736665722066726F6D20746865207A65726F KECCAK256 PUSH2 0x6464 PUSH19 0x65737342455032303A20617070726F76652066 PUSH19 0x6F6D20746865207A65726F2061646472657373 0x4F PUSH24 0x6E61626C653A206E6577206F776E65722069732074686520 PUSH27 0x65726F206164647265737342455032303A207472616E7366657220 PUSH2 0x6D6F PUSH22 0x6E74206578636565647320616C6C6F77616E63654F77 PUSH15 0x61626C653A2063616C6C6572206973 KECCAK256 PUSH15 0x6F7420746865206F776E65728BE007 SWAP13 MSTORE8 AND MSIZE EQ SGT DIFFICULTY 0xCD 0x1F 0xD0 LOG4 CALLCODE DUP5 NOT 0x49 PUSH32 0x9722A3DAAFE3B4186F6B6457E042455032303A207472616E7366657220616D6F PUSH22 0x6E7420657863656564732062616C616E6365DDF252AD SHL 0xE2 0xC8 SWAP12 PUSH10 0xC2B068FC378DAA952BA7 CALL PUSH4 0xC4A11628 CREATE2 GAS 0x4D CREATE2 0x23 0xB3 0xEF TIMESTAMP GASLIMIT POP ORIGIN ADDRESS GASPRICE KECCAK256 PUSH21 0x72616E7366657220746F20746865207A65726F2061 PUSH5 0x6472657373 TIMESTAMP GASLIMIT POP ORIGIN ADDRESS GASPRICE KECCAK256 PUSH5 0x6563726561 PUSH20 0x656420616C6C6F77616E63652062656C6F77207A PUSH6 0x726F42455032 ADDRESS GASPRICE KECCAK256 PUSH3 0x75726E KECCAK256 PUSH7 0x726F6D20746865 KECCAK256 PUSH27 0x65726F206164647265737342455032303A206275726E20616D6F75 PUSH15 0x7420657863656564732062616C616E PUSH4 0x65424550 ORIGIN ADDRESS GASPRICE KECCAK256 PUSH2 0x7070 PUSH19 0x6F766520746F20746865207A65726F20616464 PUSH19 0x657373A265627A7A7231582002413A4124ECFC ISZERO 0xB1 0xB6 0xE1 0xE5 0xAE 0xF9 PUSH31 0x3C1B39C37CA234ADAA736D52084119EAF464736F6C63430005100032000000 "
				},
				"gasEstimates": {
					"creation": {
						"codeDepositCost": "863000",
						"executionCost": "infinite",
						"totalCost": "infinite"
					},
					"external": {
						"_decimals()": "1101",
						"_name()": "infinite",
						"_symbol()": "infinite",
						"allowance(address,address)": "1624",
						"approve(address,uint256)": "infinite",
						"balanceOf(address)": "1296",
						"burn(uint256)": "infinite",
						"decimals()": "1079",
						"decreaseAllowance(address,uint256)": "infinite",
						"getOwner()": "1270",
						"increaseAllowance(address,uint256)": "infinite",
						"mint(uint256)": "infinite",
						"name()": "infinite",
						"owner()": "1257",
						"renounceOwnership()": "infinite",
						"symbol()": "infinite",
						"totalSupply()": "1020",
						"transfer(address,uint256)": "infinite",
						"transferFrom(address,address,uint256)": "infinite",
						"transferOwnership(address)": "infinite"
					},
					"internal": {
						"_approve(address,address,uint256)": "infinite",
						"_burn(address,uint256)": "infinite",
						"_burnFrom(address,uint256)": "infinite",
						"_mint(address,uint256)": "infinite",
						"_transfer(address,address,uint256)": "infinite"
					}
				},
				"methodIdentifiers": {
					"_decimals()": "32424aa3",
					"_name()": "d28d8852",
					"_symbol()": "b09f1266",
					"allowance(address,address)": "dd62ed3e",
					"approve(address,uint256)": "095ea7b3",
					"balanceOf(address)": "70a08231",
					"burn(uint256)": "42966c68",
					"decimals()": "313ce567",
					"decreaseAllowance(address,uint256)": "a457c2d7",
					"getOwner()": "893d20e8",
					"increaseAllowance(address,uint256)": "39509351",
					"mint(uint256)": "a0712d68",
					"name()": "06fdde03",
					"owner()": "8da5cb5b",
					"renounceOwnership()": "715018a6",
					"symbol()": "95d89b41",
					"totalSupply()": "18160ddd",
					"transfer(address,uint256)": "a9059cbb",
					"transferFrom(address,address,uint256)": "23b872dd",
					"transferOwnership(address)": "f2fde38b"
				}
			},
			"storageLayout": {
				"storage": [
					{
						"astId": 302,
						"contract": "tutorialtoken-box-master/KNS/PANCAKE/BUSD.sol:BEP20Token",
						"label": "_owner",
						"offset": 0,
						"slot": "0",
						"type": "t_address"
					},
					{
						"astId": 417,
						"contract": "tutorialtoken-box-master/KNS/PANCAKE/BUSD.sol:BEP20Token",
						"label": "_balances",
						"offset": 0,
						"slot": "1",
						"type": "t_mapping(t_address,t_uint256)"
					},
					{
						"astId": 423,
						"contract": "tutorialtoken-box-master/KNS/PANCAKE/BUSD.sol:BEP20Token",
						"label": "_allowances",
						"offset": 0,
						"slot": "2",
						"type": "t_mapping(t_address,t_mapping(t_address,t_uint256))"
					},
					{
						"astId": 425,
						"contract": "tutorialtoken-box-master/KNS/PANCAKE/BUSD.sol:BEP20Token",
						"label": "_totalSupply",
						"offset": 0,
						"slot": "3",
						"type": "t_uint256"
					},
					{
						"astId": 427,
						"contract": "tutorialtoken-box-master/KNS/PANCAKE/BUSD.sol:BEP20Token",
						"label": "_decimals",
						"offset": 0,
						"slot": "4",
						"type": "t_uint8"
					},
					{
						"astId": 429,
						"contract": "tutorialtoken-box-master/KNS/PANCAKE/BUSD.sol:BEP20Token",
						"label": "_symbol",
						"offset": 0,
						"slot": "5",
						"type": "t_string_storage"
					},
					{
						"astId": 431,
						"contract": "tutorialtoken-box-master/KNS/PANCAKE/BUSD.sol:BEP20Token",
						"label": "_name",
						"offset": 0,
						"slot": "6",
						"type": "t_string_storage"
					}
				],
				"types": {
					"t_address": {
						"encoding": "inplace",
						"label": "address",
						"numberOfBytes": "20"
					},
					"t_mapping(t_address,t_mapping(t_address,t_uint256))": {
						"encoding": "mapping",
						"key": "t_address",
						"label": "mapping(address => mapping(address => uint256))",
						"numberOfBytes": "32",
						"value": "t_mapping(t_address,t_uint256)"
					},
					"t_mapping(t_address,t_uint256)": {
						"encoding": "mapping",
						"key": "t_address",
						"label": "mapping(address => uint256)",
						"numberOfBytes": "32",
						"value": "t_uint256"
					},
					"t_string_storage": {
						"encoding": "bytes",
						"label": "string",
						"numberOfBytes": "32"
					},
					"t_uint256": {
						"encoding": "inplace",
						"label": "uint256",
						"numberOfBytes": "32"
					},
					"t_uint8": {
						"encoding": "inplace",
						"label": "uint8",
						"numberOfBytes": "1"
					}
				}
			},
			"userdoc": {
				"methods": {}
			}
		}
	}
}