{
	"data": {
		"bytecode": {
			"linkReferences": {},
			"object": "608060405234801561001057600080fd5b5061001a3361001f565b61006f565b600080546001600160a01b038381166001600160a01b0319831681178455604051919092169283917f8be0079c531659141344cd1fd0a4f28419497f9722a3daafe3b4186f6b6457e09190a35050565b615fb78061007e6000396000f3fe608060405234801561001057600080fd5b50600436106100785760003560e01c8063293577501461007d578063400f7a1e14610098578063636e66a0146100ee578063715018a61461012f5780638da5cb5b14610139578063ec69a02414610141578063f2fde38b14610154578063fcc9136c14610167575b600080fd5b610085600281565b6040519081526020015b60405180910390f35b6100ab6100a63660046107d0565b610170565b60405161008f919081516001600160a01b039081168252602080840151821690830152604080840151821690830152606092830151169181019190915260800190565b6101176100fc366004610809565b6002602052600090815260409020546001600160a01b031681565b6040516001600160a01b03909116815260200161008f565b610137610205565b005b610117610249565b61013761014f366004610822565b610258565b610137610162366004610873565b610636565b61008560035481565b6040805160808101825260008082526020820181905291810182905260608101829052908061019f85856106d6565b6001600160a01b039182166000908152600160208181526040808420948616845293815291839020835160808101855281548616815291810154851692820192909252600282015484169281019290925260030154909116606082015295945050505050565b3361020e610249565b6001600160a01b03161461023d5760405162461bcd60e51b815260040161023490610897565b60405180910390fd5b610247600061075e565b565b6000546001600160a01b031690565b33610261610249565b6001600160a01b0316146102875760405162461bcd60e51b815260040161023490610897565b6001600160a01b038516158015906102a757506001600160a01b03841615155b80156102c55750836001600160a01b0316856001600160a01b031614155b6103015760405162461bcd60e51b815260206004820152600d60248201526c24b63632b3b0b6103a37b5b2b760991b6044820152606401610234565b60008061030e87876106d6565b6001600160a01b038083166000908152600160209081526040808320848616845290915290208054939550919350909116156103825760405162461bcd60e51b81526020600482015260136024820152725061697220616c72656164792065786973747360681b6044820152606401610234565b6040805180820182526001600160a01b038086168252841660208083019190915291519091600091906103b69082016107ae565b601f1982820381018352601f9091011660408190526001600160601b031960608d811b821660208401528c811b8216603484015233901b16604882015242605c82015246607c820152909150600090609c016040516020818303038152906040528051906020012090506000818351602085016000f5604051632e83739560e01b81529091506001600160a01b03821690632e837395906104639087908e908e908e9033906004016108cc565b600060405180830381600087803b15801561047d57600080fd5b505af1158015610491573d6000803e3d6000fd5b505050508060026000600354815260200190815260200160002060006101000a8154816001600160a01b0302191690836001600160a01b03160217905550808560000160006101000a8154816001600160a01b0302191690836001600160a01b03160217905550868560010160006101000a8154816001600160a01b0302191690836001600160a01b03160217905550858560020160006101000a8154816001600160a01b0302191690836001600160a01b03160217905550806001600160a01b031663fc0c546a6040518163ffffffff1660e01b8152600401602060405180830381865afa158015610588573d6000803e3d6000fd5b505050506040513d601f19601f820116820180604052508101906105ac919061092c565b8560030160006101000a8154816001600160a01b0302191690836001600160a01b031602179055506001600360008282546105e79190610949565b90915550506040516001600160a01b0380881691898216918416907fa9551fb056fc743efe2a0a34e39f9769ad10166520df7843c09a66f82e148b9790600090a4505050505050505050505050565b3361063f610249565b6001600160a01b0316146106655760405162461bcd60e51b815260040161023490610897565b6001600160a01b0381166106ca5760405162461bcd60e51b815260206004820152602660248201527f4f776e61626c653a206e6577206f776e657220697320746865207a65726f206160448201526564647265737360d01b6064820152608401610234565b6106d38161075e565b50565b600080826001600160a01b0316846001600160a01b0316036107305760405162461bcd60e51b81526020600482015260136024820152724944454e544943414c5f41444452455353455360681b6044820152606401610234565b826001600160a01b0316846001600160a01b031610610750578284610753565b83835b909590945092505050565b600080546001600160a01b038381166001600160a01b0319831681178455604051919092169283917f8be0079c531659141344cd1fd0a4f28419497f9722a3daafe3b4186f6b6457e09190a35050565b6156118061097183390190565b6001600160a01b03811681146106d357600080fd5b600080604083850312156107e357600080fd5b82356107ee816107bb565b915060208301356107fe816107bb565b809150509250929050565b60006020828403121561081b57600080fd5b5035919050565b600080600080600060a0868803121561083a57600080fd5b8535610845816107bb565b94506020860135610855816107bb565b94979496505050506040830135926060810135926080909101359150565b60006020828403121561088557600080fd5b8135610890816107bb565b9392505050565b6020808252818101527f4f776e61626c653a2063616c6c6572206973206e6f7420746865206f776e6572604082015260600190565b60c08101818760005b60028110156108fd5781516001600160a01b03168352602092830192909101906001016108d5565b5050506040820195909552606081019390935260808301919091526001600160a01b031660a090910152919050565b60006020828403121561093e57600080fd5b8151610890816107bb565b8082018082111561096a57634e487b7160e01b600052601160045260246000fd5b9291505056fe60a06040523480156200001157600080fd5b506200001d336200002b565b60018055336080526200007b565b600080546001600160a01b038381166001600160a01b0319831681178455604051919092169283917f8be0079c531659141344cd1fd0a4f28419497f9722a3daafe3b4186f6b6457e09190a35050565b6080516155736200009e600039600081816104c90152610d5f01526155736000f3fe60806040523480156200001157600080fd5b5060043610620002aa5760003560e01c806306e9481c14620002af5780630b4c7e4d14620002cd5780631405228814620002e65780632081066c14620002f0578063226840fb14620002fa5780632935775014620003045780632a426896146200030d5780632e83739514620003175780633046f972146200032e57806330c540851462000338578063392e53cd14620003425780633969841514620003665780633c157e641462000371578063405e28f814620003885780634903b0d114620003925780634f12fe9714620003a95780634fb08c5e14620003b3578063524c390114620003ca5780635409491a14620003d4578063556d6e9f14620003de57806358680d0b14620003f55780635b36389c14620003ff5780635b41b90814620004165780635b5a1467146200042d57806362203d7414620004445780636d4366b7146200045b578063715018a614620004645780637dafa364146200046e57806385f11d1e14620004855780638da5cb5b146200049c5780639c868ac014620004b5578063a6b0a71814620004c3578063aaf5eb6814620004eb578063ab5ac06114620004fb578063b4b577ad1462000504578063bb7b8b80146200050e578063bc063e1a1462000518578063c66106571462000525578063ca8ca154146200053c578063d73792a91462000546578063ddca3f431462000553578063e2e7d264146200055d578063e31032731462000574578063e3698853146200058b578063e38244621462000595578063e5d9e903146200059f578063ed8e84f314620005aa578063edfb780114620005c1578063f1dc3cc914620005cc578063f2fde38b14620005e3578063f3de03621462000546578063f446c1d014620005fa578063fc0c546a1462000604578063fee3f7f91462000618575b600080fd5b620002ba6201518081565b6040519081526020015b60405180910390f35b620002e4620002de36600462004025565b62000622565b005b620002ba60105481565b620002ba600f5481565b620002e462000c96565b620002ba600281565b620002ba60145481565b620002e46200032836600462004070565b62000cfa565b620002e462001174565b620002e4620011dd565b6015546200035590610100900460ff1681565b6040519015158152602001620002c4565b620002ba620f424081565b620002e4620003823660046200410b565b62001315565b620002ba60115481565b620002ba620003a33660046200412e565b62001531565b620002e462001549565b620002ba620003c43660046200410b565b6200165c565b620002e462001676565b620002ba600d5481565b620002ba620003ef36600462004148565b6200179b565b620002ba60125481565b620002e46200041036600462004175565b6200190b565b620002e462000427366004620041a5565b62001bd2565b620002e46200043e3660046200410b565b62001f78565b620002ba620004553660046200412e565b62002102565b620002ba601281565b620002e462002113565b620002ba6200047f3660046200412e565b62002155565b620002ba6200049636600462004148565b62002166565b620004a66200225b565b604051620002c49190620041d8565b601554620003559060ff1681565b620004a67f000000000000000000000000000000000000000000000000000000000000000081565b620002ba670de0b6b3a764000081565b620002ba600a81565b620002ba600e5481565b620002ba6200226a565b620002ba64012a05f20081565b620004a6620005363660046200412e565b62002333565b620002e462002354565b620002ba6402540be40081565b620002ba600a5481565b620002ba6200056e3660046200412e565b620023ef565b620002e46200058536600462004025565b620024a0565b620002e462002a91565b620002ba60135481565b620002ba6203f48081565b620002ba620005bb366004620041fb565b62002b44565b620002ba624f1a0081565b620002e4620005dd36600462004148565b62002d32565b620002e4620005f436600462004238565b62002f02565b620002ba62002fa8565b600c54620004a6906001600160a01b031681565b620002ba600b5481565b600260015403620006505760405162461bcd60e51b8152600401620006479062004256565b60405180910390fd5b600260015560155460ff16156200067b5760405162461bcd60e51b815260040162000647906200428d565b6200068562003ecb565b60006200069560016002620042c3565b620006a2906004620042d9565b6002600a54620006b39190620042d9565b620006bf9190620042f3565b600b549091506000620006d162002fb9565b90506000600c60009054906101000a90046001600160a01b03166001600160a01b03166318160ddd6040518163ffffffff1660e01b8152600401602060405180830381865afa15801562000729573d6000803e3d6000fd5b505050506040513d601f19601f820116820180604052508101906200074f919062004316565b6040805180820191829052919250600091829160089060029082845b8154815260200190600101908083116200076b575050505050905060008311156200079f576200079c818562003074565b91505b8060005b60028110156200089b57846000036200082c5760008b8260028110620007cd57620007cd62004330565b6020020151116200082c5760405162461bcd60e51b815260206004820152602260248201527f496e697469616c206465706f73697420726571756972657320616c6c20636f696044820152616e7360f01b606482015260840162000647565b8a816002811062000841576200084162004330565b60200201518382600281106200085b576200085b62004330565b60200201516200086c919062004346565b82826002811062000881576200088162004330565b60200201528062000892816200435c565b915050620007a3565b506000620008aa828762003074565b9050838111620008fa5760405162461bcd60e51b815260206004820152601a60248201527904431206d7573742062652067726561746572207468616e2044360341b604482015260640162000647565b80851562000ae45760005b600281101562000acf5760008686836002811062000927576200092762004330565b6020020151620009389086620042d9565b620009449190620042f3565b905060008583600281106200095d576200095d62004330565b602002015182111562000998578583600281106200097f576200097f62004330565b6020020151620009909083620042c3565b9050620009c2565b81868460028110620009ae57620009ae62004330565b6020020151620009bf9190620042c3565b90505b6402540be400620009d4828e620042d9565b620009e09190620042f3565b8d8460028110620009f557620009f562004330565b60200201526402540be4008b8e856002811062000a165762000a1662004330565b602002015162000a279190620042d9565b62000a339190620042f3565b86846002811062000a485762000a4862004330565b602002015162000a599190620042c3565b6008846002811062000a6f5762000a6f62004330565b01558c836002811062000a865762000a8662004330565b602002015186846002811062000aa05762000aa062004330565b6020020181815162000ab39190620042c3565b90525082915062000ac69050816200435c565b91505062000905565b5062000adc838862003074565b905062000af5565b62000af3600884600262003ee9565b505b60008660000362000b0857508162000b30565b8562000b158184620042c3565b62000b219089620042d9565b62000b2d9190620042f3565b90505b8b81101562000b535760405162461bcd60e51b8152600401620006479062004378565b60005b600281101562000bcc5760008e826002811062000b775762000b7762004330565b60200201519050801562000bb65762000bb63330836006866002811062000ba25762000ba262004330565b01546001600160a01b03169291906200308c565b508062000bc3816200435c565b91505062000b56565b50600c546040516340c10f1960e01b81526001600160a01b03909116906340c10f199062000c019033908590600401620043a6565b600060405180830381600087803b15801562000c1c57600080fd5b505af115801562000c31573d6000803e3d6000fd5b503392507f26f55a85081d24974e85c6c00045d0f0453991e95873f52bff0d21af4079a76891508f90508d8662000c69868d62004346565b60405162000c7b9493929190620043e4565b60405180910390a25050600180555050505050505050505050565b3362000ca16200225b565b6001600160a01b03161462000cca5760405162461bcd60e51b8152600401620006479062004415565b600060118190556040517f1b4883af197c705114490f8d84f9ce30bef6a6199f7b7b649e845577cf0769a19190a1565b601554610100900460ff161562000d545760405162461bcd60e51b815260206004820152601f60248201527f4f7065726174696f6e733a20416c726561647920696e697469616c697a656400604482015260640162000647565b336001600160a01b037f0000000000000000000000000000000000000000000000000000000000000000161462000dc85760405162461bcd60e51b81526020600482015260176024820152764f7065726174696f6e733a204e6f7420666163746f727960481b604482015260640162000647565b620f424084111562000e125760405162461bcd60e51b81526020600482015260126024820152715f412065786365656473206d6178696d756d60701b604482015260640162000647565b64012a05f20083111562000e605760405162461bcd60e51b81526020600482015260146024820152735f6665652065786365656473206d6178696d756d60601b604482015260640162000647565b6402540be40082111562000eb45760405162461bcd60e51b815260206004820152601a6024820152795f61646d696e5f6665652065786365656473206d6178696d756d60301b604482015260640162000647565b6015805461ff00191661010017905560005b6002811015620010a257600086826002811062000ee75762000ee762004330565b60200201516001600160a01b03160362000f335760405162461bcd60e51b815260206004820152600c60248201526b5a45524f204164647265737360a01b604482015260640162000647565b600086826002811062000f4a5762000f4a62004330565b60200201516001600160a01b031663313ce5676040518163ffffffff1660e01b8152600401602060405180830381865afa15801562000f8d573d6000803e3d6000fd5b505050506040513d601f19601f8201168201806040525081019062000fb391906200444a565b60ff1690506012811115620010175760405162461bcd60e51b8152602060048201526024808201527f546865206d6178696d756d20646563696d616c2063616e6e6f742065786365656044820152630c84062760e31b606482015260840162000647565b62001024816012620042c3565b6200103190600a6200456c565b6002836002811062001047576200104762004330565b01556002828181106200105e576200105e62004330565b01546200107490670de0b6b3a7640000620042d9565b600483600281106200108a576200108a62004330565b0155508062001099816200435c565b91505062000ec6565b50600060405180602001620010b79062003f28565b6020820181038252601f19601f820116604052509050600086334246604051602001620010e894939291906200457a565b6040516020818303038152906040528051906020012090506000818351602085016000f590506200111d600689600262003f36565b50600d879055600e879055600a869055600b85905562001141624f1a004262004346565b601455600c80546001600160a01b0319166001600160a01b0383161790556200116a8462002f02565b5050505050505050565b336200117f6200225b565b6001600160a01b031614620011a85760405162461bcd60e51b8152600401620006479062004415565b6015805460ff191690556040517f061284ffa2814ace135f62907c78a7cff0f070efe7e6a0a42740ea1da2c8bdc890600090a1565b33620011e86200225b565b6001600160a01b031614620012115760405162461bcd60e51b8152600401620006479062004415565b60005b6002811015620013125760006006826002811062001236576200123662004330565b01546001600160a01b031690506000600883600281106200125b576200125b62004330565b01546040516370a0823160e01b81526001600160a01b038416906370a08231906200128b903090600401620041d8565b602060405180830381865afa158015620012a9573d6000803e3d6000fd5b505050506040513d601f19601f82011682018060405250810190620012cf919062004316565b620012db9190620042c3565b90508015620012fa57620012fa6001600160a01b0383163383620030ff565b5050808062001309906200435c565b91505062001214565b50565b33620013206200225b565b6001600160a01b031614620013495760405162461bcd60e51b8152600401620006479062004415565b62015180600f546200135c919062004346565b4210156200139f5760405162461bcd60e51b815260206004820152600f60248201526e646576203a20746f6f206561726c7960881b604482015260640162000647565b620013ae620151804262004346565b811015620013d05760405162461bcd60e51b81526004016200064790620045d8565b6000620013dc62002fb9565b9050600083118015620013f15750620f424083105b6200144d5760405162461bcd60e51b815260206004820152602560248201527f5f6675747572655f41206d757374206265206265747765656e203020616e64206044820152644d41585f4160d81b606482015260840162000647565b8083101580156200146a575062001466600a82620042d9565b8311155b806200148d575080831080156200148d5750806200148a600a85620042d9565b10155b620014d95760405162461bcd60e51b815260206004820152601b60248201527a496c6c6567616c20706172616d65746572205f6675747572655f4160281b604482015260640162000647565b600d819055600e83905542600f81905560108390556040517fa2b71ec6df949300b59aab36b55e189697b750119dd349fcfa8c0f779e83c25491620015249184918791879062004608565b60405180910390a1505050565b600881600281106200154257600080fd5b0154905081565b33620015546200225b565b6001600160a01b0316146200157d5760405162461bcd60e51b8152600401620006479062004415565b601154421015620015a25760405162461bcd60e51b81526004016200064790620045d8565b601154600003620016055760405162461bcd60e51b815260206004820152602660248201527f61646d696e5f616374696f6e735f646561646c696e652073686f756c64206e6f60448201526507420626520360d41b606482015260840162000647565b6000601155601254600a819055601354600b8190556040517fbe12859b636aed607d5230b2cc2711f68d70e51060e6cca1f575ef5d2fcc95d1926200165292908252602082015260400190565b60405180910390a1565b6000806200166b848462003126565b509150505b92915050565b33620016816200225b565b6001600160a01b031614620016aa5760405162461bcd60e51b8152600401620006479062004415565b60005b60028110156200176f5760068160028110620016cd57620016cd62004330565b01546040516370a0823160e01b81526001600160a01b03909116906370a0823190620016fe903090600401620041d8565b602060405180830381865afa1580156200171c573d6000803e3d6000fd5b505050506040513d601f19601f8201168201806040525081019062001742919062004316565b6008826002811062001758576200175862004330565b01558062001766816200435c565b915050620016ad565b506040517f2c7203581ca666b8c5094c11c03f0b19b3750234a9d281bcbc88a260bcb006de90600090a1565b604080518082019182905260009182919060049060029082845b815481526020019060010190808311620017b557505050505090506000620017dc6200347d565b90506000670de0b6b3a7640000838860028110620017fe57620017fe62004330565b60200201516200180f9087620042d9565b6200181b9190620042f3565b82886002811062001830576200183062004330565b602002015162001841919062004346565b9050600062001853888884866200354a565b905060008488600281106200186c576200186c62004330565b6020020151670de0b6b3a7640000600184878c6002811062001892576200189262004330565b6020020151620018a39190620042c3565b620018af9190620042c3565b620018bb9190620042d9565b620018c79190620042f3565b905060006402540be40082600a54620018e19190620042d9565b620018ed9190620042f3565b9050620018fb8183620042c3565b96505050505050505b9392505050565b600260015403620019305760405162461bcd60e51b8152600401620006479062004256565b6002600155600c54604080516318160ddd60e01b815290516000926001600160a01b0316916318160ddd9160048083019260209291908290030181865afa15801562001980573d6000803e3d6000fd5b505050506040513d601f19601f82011682018060405250810190620019a6919062004316565b9050620019b262003ecb565b620019bc62003ecb565b60005b600281101562001b12576000848760088460028110620019e357620019e362004330565b0154620019f19190620042d9565b620019fd9190620042f3565b905085826002811062001a145762001a1462004330565b602002015181101562001a835760405162461bcd60e51b815260206004820152603060248201527f5769746864726177616c20726573756c74656420696e20666577657220636f6960448201526f1b9cc81d1a185b88195e1c1958dd195960821b606482015260840162000647565b806008836002811062001a9a5762001a9a62004330565b01600082825462001aac9190620042c3565b9091555081905084836002811062001ac85762001ac862004330565b602002015262001afc33826006856002811062001ae95762001ae962004330565b01546001600160a01b03169190620030ff565b508062001b09816200435c565b915050620019bf565b50600c5460405163079cc67960e41b81526001600160a01b03909116906379cc67909062001b479033908990600401620043a6565b600060405180830381600087803b15801562001b6257600080fd5b505af115801562001b77573d6000803e3d6000fd5b503392507f7c363854ccf79623411f8995b362bce5eddff18c927edc6f5dbbb5e05819a82c91508490508362001bae8988620042c3565b60405162001bbf9392919062004623565b60405180910390a2505060018055505050565b60026001540362001bf75760405162461bcd60e51b8152600401620006479062004256565b600260015560155460ff161562001c225760405162461bcd60e51b815260040162000647906200428d565b604080518082019182905260009160089060029082845b81548152602001906001019080831162001c395750505050509050600062001c61826200377e565b90506000670de0b6b3a76400006004886002811062001c845762001c8462004330565b015462001c929087620042d9565b62001c9e9190620042f3565b82886002811062001cb35762001cb362004330565b602002015162001cc4919062004346565b9050600062001cd6888884866200354a565b90506000600182858a6002811062001cf25762001cf262004330565b602002015162001d039190620042c3565b62001d0f9190620042c3565b905060006402540be400600a548362001d299190620042d9565b62001d359190620042f3565b90506004896002811062001d4d5762001d4d62004330565b0154670de0b6b3a764000062001d648385620042c3565b62001d709190620042d9565b62001d7c9190620042f3565b91508682101562001de75760405162461bcd60e51b815260206004820152602e60248201527f45786368616e676520726573756c74656420696e20666577657220636f696e7360448201526d081d1a185b88195e1c1958dd195960921b606482015260840162000647565b60006402540be400600b548362001dff9190620042d9565b62001e0b9190620042f3565b905060048a6002811062001e235762001e2362004330565b015462001e39670de0b6b3a764000083620042d9565b62001e459190620042f3565b905088878c6002811062001e5d5762001e5d62004330565b602002015162001e6e919062004346565b60088c6002811062001e845762001e8462004330565b01558083888c6002811062001e9d5762001e9d62004330565b602002015162001eae9190620042c3565b62001eba9190620042c3565b60088b6002811062001ed05762001ed062004330565b0155600060068c6002811062001eea5762001eea62004330565b01546001600160a01b0316905062001f058133308d6200308c565b600060068c6002811062001f1d5762001f1d62004330565b01546001600160a01b0316905062001f37813387620030ff565b336001600160a01b03167fb2e76ae99761dc136e598d4a629bb347eccb9532a5f8bbd72e18467c3c34cc988e8d8f8960405162000c7b949392919062004608565b3362001f836200225b565b6001600160a01b03161462001fac5760405162461bcd60e51b8152600401620006479062004415565b6011541562001ffe5760405162461bcd60e51b815260206004820181905260248201527f61646d696e5f616374696f6e735f646561646c696e65206d7573742062652030604482015260640162000647565b64012a05f200821115620020505760405162461bcd60e51b81526020600482015260186024820152776465763a206665652065786365656473206d6178696d756d60401b604482015260640162000647565b6402540be400811115620020a75760405162461bcd60e51b815260206004820152601e60248201527f6465763a2061646d696e206665652065786365656473206d6178696d756d0000604482015260640162000647565b620020b66203f4804262004346565b60118190556012839055601382905560408051848152602081018490527f351fc5da2fbf480f2225debf3664a4bc90fa9923743aad58b4603f648e931fe0910160405180910390a25050565b600481600281106200154257600080fd5b336200211e6200225b565b6001600160a01b031614620021475760405162461bcd60e51b8152600401620006479062004415565b6200215360006200384f565b565b600281600281106200154257600080fd5b600080620021736200347d565b604080518082019182905291925060009190600290819081845b8154815260200190600101908083116200218d57505050505090506000818760028110620021bf57620021bf62004330565b6020020151620021d09086620042d9565b838860028110620021e557620021e562004330565b6020020151620021f6919062004346565b9050600062002208888884876200354a565b9050600083886002811062002221576200222162004330565b6020020151600183878b600281106200223e576200223e62004330565b60200201516200224f9190620042c3565b620018bb9190620042c3565b6000546001600160a01b031690565b6000806200228b6200227b6200347d565b6200228562002fb9565b6200389f565b90506000600c60009054906101000a90046001600160a01b03166001600160a01b03166318160ddd6040518163ffffffff1660e01b8152600401602060405180830381865afa158015620022e3573d6000803e3d6000fd5b505050506040513d601f19601f8201168201806040525081019062002309919062004316565b90508062002320670de0b6b3a764000084620042d9565b6200232c9190620042f3565b9250505090565b600681600281106200234457600080fd5b01546001600160a01b0316905081565b336200235f6200225b565b6001600160a01b031614620023885760405162461bcd60e51b8152600401620006479062004415565b60006200239462002fb9565b600d819055600e81905542600f81905560108190556040519192507f46e22fb3709ad289f62ce63d469248536dbc78d82b84a3d7e74ad606dc20193891620023e491848252602082015260400190565b60405180910390a150565b60006008826002811062002407576200240762004330565b0154600683600281106200241f576200241f62004330565b01546040516370a0823160e01b81526001600160a01b03909116906370a082319062002450903090600401620041d8565b602060405180830381865afa1580156200246e573d6000803e3d6000fd5b505050506040513d601f19601f8201168201806040525081019062002494919062004316565b620016709190620042c3565b600260015403620024c55760405162461bcd60e51b8152600401620006479062004256565b600260015560155460ff1615620024f05760405162461bcd60e51b815260040162000647906200428d565b600c54604080516318160ddd60e01b815290516000926001600160a01b0316916318160ddd9160048083019260209291908290030181865afa1580156200253b573d6000803e3d6000fd5b505050506040513d601f19601f8201168201806040525081019062002561919062004316565b905060008111620025ae5760405162461bcd60e51b81526020600482015260166024820152756465763a207a65726f20746f74616c20737570706c7960501b604482015260640162000647565b6000620025be60016002620042c3565b620025cb906004620042d9565b6002600a54620025dc9190620042d9565b620025e89190620042f3565b600b549091506000620025fa62002fb9565b60408051808201918290529192506000919060089060029082845b8154815260200190600101908083116200261557505050505090506000819050600062002643838562003074565b905060005b6002811015620026ac5789816002811062002667576200266762004330565b602002015183826002811062002681576200268162004330565b60200201818151620026949190620042c3565b90525080620026a3816200435c565b91505062002648565b506000620026bb838662003074565b9050620026c762003ecb565b60005b60028110156200289457600084878360028110620026ec57620026ec62004330565b6020020151620026fd9086620042d9565b620027099190620042f3565b9050600086836002811062002722576200272262004330565b60200201518211156200275d5786836002811062002744576200274462004330565b6020020151620027559083620042c3565b905062002787565b8187846002811062002773576200277362004330565b6020020151620027849190620042c3565b90505b6402540be40062002799828d620042d9565b620027a59190620042f3565b848460028110620027ba57620027ba62004330565b60200201526402540be4008a858560028110620027db57620027db62004330565b6020020151620027ec9190620042d9565b620027f89190620042f3565b8784600281106200280d576200280d62004330565b60200201516200281e9190620042c3565b6008846002811062002834576200283462004330565b01558383600281106200284b576200284b62004330565b602002015187846002811062002865576200286562004330565b60200201818151620028789190620042c3565b9052508291506200288b9050816200435c565b915050620026ca565b506000620028a3858862003074565b90506000848b620028b58483620042c3565b620028c19190620042d9565b620028cd9190620042f3565b9050600081116200292d5760405162461bcd60e51b815260206004820152602360248201527f746f6b656e5f616d6f756e74206d75737420626520677265617465722074686160448201526206e20360ec1b606482015260840162000647565b6200293a60018262004346565b90508b8111156200295f5760405162461bcd60e51b8152600401620006479062004378565b600c5460405163079cc67960e41b81526001600160a01b03909116906379cc679090620029939033908590600401620043a6565b600060405180830381600087803b158015620029ae57600080fd5b505af1158015620029c3573d6000803e3d6000fd5b5050505060005b600281101562002a415760008e8260028110620029eb57620029eb62004330565b6020020151111562002a2c5762002a2c338f836002811062002a115762002a1162004330565b60200201516006846002811062001ae95762001ae962004330565b8062002a38816200435c565b915050620029ca565b5062002a4e818c620042c3565b9a50336001600160a01b03167f2b5508378d7e19e0d5fa338419034731416c4f5b219a10379956f764317fd47e8e85878f60405162000c7b9493929190620043e4565b3362002a9c6200225b565b6001600160a01b03161462002ac55760405162461bcd60e51b8152600401620006479062004415565b426014541162002b0c5760405162461bcd60e51b8152602060048201526011602482015270457863656564656420646561646c696e6560781b604482015260640162000647565b6015805460ff191660011790556040517fbe26733c2bf6ff3ea5ba8cfe744422bd49052ff9ed5685c9e81e6f9321dbaddd90600090a1565b604080518082019182905260009182919060089060029082845b81548152602001906001019080831162002b5e5750505050509050600062002b8562002fb9565b9050600062002b95838362003074565b905060005b600281101562002c5157851562002bf65786816002811062002bc05762002bc062004330565b602002015184826002811062002bda5762002bda62004330565b6020020181815162002bed919062004346565b90525062002c3c565b86816002811062002c0b5762002c0b62004330565b602002015184826002811062002c255762002c2562004330565b6020020181815162002c389190620042c3565b9052505b8062002c48816200435c565b91505062002b9a565b50600062002c60848462003074565b90506000600c60009054906101000a90046001600160a01b03166001600160a01b03166318160ddd6040518163ffffffff1660e01b8152600401602060405180830381865afa15801562002cb8573d6000803e3d6000fd5b505050506040513d601f19601f8201168201806040525081019062002cde919062004316565b90506000871562002cfd5762002cf58484620042c3565b905062002d0c565b62002d098385620042c3565b90505b8362002d198383620042d9565b62002d259190620042f3565b9998505050505050505050565b60026001540362002d575760405162461bcd60e51b8152600401620006479062004256565b600260015560155460ff161562002d825760405162461bcd60e51b815260040162000647906200428d565b60008062002d91858562003126565b915091508282101562002de25760405162461bcd60e51b8152602060048201526018602482015277139bdd08195b9bdd59da0818dbda5b9cc81c995b5bdd995960421b604482015260640162000647565b6402540be400600b548262002df89190620042d9565b62002e049190620042f3565b62002e10908362004346565b6008856002811062002e265762002e2662004330565b01600082825462002e389190620042c3565b9091555050600c5460405163079cc67960e41b81526001600160a01b03909116906379cc67909062002e719033908990600401620043a6565b600060405180830381600087803b15801562002e8c57600080fd5b505af115801562002ea1573d6000803e3d6000fd5b5050505062002ec133836006876002811062001ae95762001ae962004330565b604080518581526020810187905290810183905233907f5ad056f2e28a8cec232015406b843668c1e36cda598127ec3b8c59b8c72773a09060600162001bbf565b3362002f0d6200225b565b6001600160a01b03161462002f365760405162461bcd60e51b8152600401620006479062004415565b6001600160a01b03811662002f9d5760405162461bcd60e51b815260206004820152602660248201527f4f776e61626c653a206e6577206f776e657220697320746865207a65726f206160448201526564647265737360d01b606482015260840162000647565b62001312816200384f565b600062002fb462002fb9565b905090565b601054600e5460009190428211156200167057600d54600f54818311156200302c5762002fe78185620042c3565b62002ff38242620042c3565b62002fff8486620042c3565b6200300b9190620042d9565b620030179190620042f3565b62003023908362004346565b94505050505090565b620030388185620042c3565b620030448242620042c3565b620030508585620042c3565b6200305c9190620042d9565b620030689190620042f3565b620030239083620042c3565b60006200190462003085846200377e565b836200389f565b6040516001600160a01b0380851660248301528316604482015260648101829052620030f99085906323b872dd60e01b906084015b60408051601f198184030181529190526020810180516001600160e01b03166001600160e01b03199093169290921790915262003a74565b50505050565b620031218363a9059cbb60e01b8484604051602401620030c1929190620043a6565b505050565b60008060006200313562002fb9565b905060006200314760016002620042c3565b62003154906004620042d9565b6002600a54620031659190620042d9565b620031719190620042f3565b604080518082019182905291925060009190600290819081845b8154815260200190600101908083116200318b57505050505090506000600c60009054906101000a90046001600160a01b03166001600160a01b03166318160ddd6040518163ffffffff1660e01b8152600401602060405180830381865afa158015620031fc573d6000803e3d6000fd5b505050506040513d601f19601f8201168201806040525081019062003222919062004316565b90506000620032306200347d565b905060006200324082876200389f565b905060008362003251838d620042d9565b6200325d9190620042f3565b620032699083620042c3565b90508260006200327c898d848662003b4d565b90506000878d6002811062003295576200329562004330565b602002015182878f60028110620032b057620032b062004330565b6020020151620032c19190620042c3565b620032cd9190620042f3565b905060005b6002811015620033ec5760008e82036200332f578387878a8560028110620032fe57620032fe62004330565b60200201516200330f9190620042d9565b6200331b9190620042f3565b620033279190620042c3565b90506200338c565b868689846002811062003346576200334662004330565b6020020151620033579190620042d9565b620033639190620042f3565b88836002811062003378576200337862004330565b6020020151620033899190620042c3565b90505b6402540be4006200339e828d620042d9565b620033aa9190620042f3565b858360028110620033bf57620033bf62004330565b60200201818151620033d29190620042c3565b905250819050620033e3816200435c565b915050620032d2565b506000620033fd8b8f868862003b4d565b848f6002811062003412576200341262004330565b6020020151620034239190620042c3565b9050888e600281106200343a576200343a62004330565b60200201516200344c600183620042c3565b620034589190620042f3565b905080620034678184620042c3565b9c509c5050505050505050505050509250929050565b6200348762003ecb565b60408051808201918290529060049060029082845b8154815260200190600101908083116200349c575050505050905060005b60028110156200354657670de0b6b3a764000060088260028110620034e357620034e362004330565b0154838360028110620034fa57620034fa62004330565b60200201516200350b9190620042d9565b620035179190620042f3565b8282600281106200352c576200352c62004330565b6020020152806200353d816200435c565b915050620034ba565b5090565b60008385141580156200355d5750600285105b80156200356a5750600284105b620035ac5760405162461bcd60e51b815260206004820152601160248201527024b63632b3b0b6103830b930b6b2ba32b960791b604482015260640162000647565b6000620035b862002fb9565b90506000620035c884836200389f565b905080600080620035db600286620042d9565b90506000805b600281101562003677578b8103620035fc578991506200362c565b8a8114620036265788816002811062003619576200361962004330565b602002015191506200362c565b62003662565b62003638828562004346565b935062003647600283620042d9565b620036538787620042d9565b6200365f9190620042f3565b94505b806200366e816200435c565b915050620035e1565b5062003685600283620042d9565b620036918686620042d9565b6200369d9190620042f3565b93506000620036ad8387620042f3565b620036b9908562004346565b9050600086815b60ff8110156200376c578192508884836002620036de9190620042d9565b620036ea919062004346565b620036f69190620042c3565b88620037038480620042d9565b6200370f919062004346565b6200371b9190620042f3565b91508282111562003741576001620037348484620042c3565b11156200376c5762003757565b60016200374f8385620042c3565b11156200376c575b8062003763816200435c565b915050620036c0565b509d9c50505050505050505050505050565b6200378862003ecb565b60408051808201918290529060049060029082845b8154815260200190600101908083116200379d575050505050905060005b60028110156200384957670de0b6b3a7640000838260028110620037e357620037e362004330565b6020020151838360028110620037fd57620037fd62004330565b60200201516200380e9190620042d9565b6200381a9190620042f3565b8282600281106200382f576200382f62004330565b60200201528062003840816200435c565b915050620037bb565b50919050565b600080546001600160a01b038381166001600160a01b0319831681178455604051919092169283917f8be0079c531659141344cd1fd0a4f28419497f9722a3daafe3b4186f6b6457e09190a35050565b60008060005b6002811015620038ec57848160028110620038c457620038c462004330565b6020020151620038d5908362004346565b915080620038e3816200435c565b915050620038a5565b50806000036200390157600091505062001670565b6000818162003912600287620042d9565b905060005b60ff81101562003a68578260005b6002811015620039865760028a826002811062003946576200394662004330565b6020020151620039579190620042d9565b620039638684620042d9565b6200396f9190620042f3565b9150806200397d816200435c565b91505062003925565b5083945080600260016200399b919062004346565b620039a79190620042d9565b84620039b5600186620042c3565b620039c19190620042d9565b620039cd919062004346565b84620039db600284620042d9565b620039e78987620042d9565b620039f3919062004346565b620039ff9190620042d9565b62003a0b9190620042f3565b93508484111562003a3757600162003a248686620042c3565b1162003a31575062003a68565b62003a52565b600162003a458587620042c3565b1162003a52575062003a68565b508062003a5f816200435c565b91505062003917565b50909695505050505050565b600062003acb826040518060400160405280602081526020017f5361666545524332303a206c6f772d6c6576656c2063616c6c206661696c6564815250856001600160a01b031662003d399092919063ffffffff16565b80519091501562003121578080602001905181019062003aec919062004650565b620031215760405162461bcd60e51b815260206004820152602a60248201527f5361666545524332303a204552433230206f7065726174696f6e20646964206e6044820152691bdd081cdd58d8d9595960b21b606482015260840162000647565b60006002841062003b985760405162461bcd60e51b81526020600482015260146024820152736465763a20692061626f7665204e5f434f494e5360601b604482015260640162000647565b8160008062003ba9600289620042d9565b90506000805b600281101562003c345788811462003be35787816002811062003bd65762003bd662004330565b6020020151915062003be9565b62003c1f565b62003bf5828562004346565b935062003c04600283620042d9565b62003c108887620042d9565b62003c1c9190620042f3565b94505b8062003c2b816200435c565b91505062003baf565b5062003c42600283620042d9565b62003c4e8786620042d9565b62003c5a9190620042f3565b9350600062003c6a8388620042f3565b62003c76908562004346565b9050600087815b60ff81101562003d2957819250898483600262003c9b9190620042d9565b62003ca7919062004346565b62003cb39190620042c3565b8862003cc08480620042d9565b62003ccc919062004346565b62003cd89190620042f3565b91508282111562003cfe57600162003cf18484620042c3565b111562003d295762003d14565b600162003d0c8385620042c3565b111562003d29575b8062003d20816200435c565b91505062003c7d565b509b9a5050505050505050505050565b606062003d4a848460008562003d52565b949350505050565b60608247101562003db55760405162461bcd60e51b815260206004820152602660248201527f416464726573733a20696e73756666696369656e742062616c616e636520666f6044820152651c8818d85b1b60d21b606482015260840162000647565b6001600160a01b0385163b62003e0e5760405162461bcd60e51b815260206004820152601d60248201527f416464726573733a2063616c6c20746f206e6f6e2d636f6e7472616374000000604482015260640162000647565b600080866001600160a01b0316858760405162003e2c919062004696565b60006040518083038185875af1925050503d806000811462003e6b576040519150601f19603f3d011682016040523d82523d6000602084013e62003e70565b606091505b509150915062003e8282828662003e8d565b979650505050505050565b6060831562003e9e57508162001904565b82511562003eaf5782518084602001fd5b8160405162461bcd60e51b8152600401620006479190620046b4565b60405180604001604052806002906020820280368337509192915050565b826002810192821562003f1a579160200282015b8281111562003f1a57825182559160200191906001019062003efd565b506200354692915062003f81565b610e5480620046ea83390190565b826002810192821562003f1a579160200282015b8281111562003f1a57825182546001600160a01b0319166001600160a01b0390911617825560209092019160019091019062003f4a565b5b8082111562003546576000815560010162003f82565b604080519081016001600160401b038111828210171562003fc957634e487b7160e01b600052604160045260246000fd5b60405290565b600082601f83011262003fe157600080fd5b62003feb62003f98565b80604084018581111562003ffe57600080fd5b845b818110156200401a57803584526020938401930162004000565b509095945050505050565b600080606083850312156200403957600080fd5b62004045848462003fcf565b946040939093013593505050565b80356001600160a01b03811681146200406b57600080fd5b919050565b600080600080600060c086880312156200408957600080fd5b86601f8701126200409957600080fd5b620040a362003f98565b806040880189811115620040b657600080fd5b885b81811015620040db57620040cc8162004053565b845260209384019301620040b8565b50909650359450506060860135925060808601359150620040ff60a0870162004053565b90509295509295909350565b600080604083850312156200411f57600080fd5b50508035926020909101359150565b6000602082840312156200414157600080fd5b5035919050565b6000806000606084860312156200415e57600080fd5b505081359360208301359350604090920135919050565b600080606083850312156200418957600080fd5b823591506200419c846020850162003fcf565b90509250929050565b60008060008060808587031215620041bc57600080fd5b5050823594602084013594506040840135936060013592509050565b6001600160a01b0391909116815260200190565b80151581146200131257600080fd5b600080606083850312156200420f57600080fd5b6200421b848462003fcf565b915060408301356200422d81620041ec565b809150509250929050565b6000602082840312156200424b57600080fd5b620019048262004053565b6020808252601f908201527f5265656e7472616e637947756172643a207265656e7472616e742063616c6c00604082015260600190565b60208082526006908201526512da5b1b195960d21b604082015260600190565b634e487b7160e01b600052601160045260246000fd5b81810381811115620016705762001670620042ad565b8082028115828204841417620016705762001670620042ad565b6000826200431157634e487b7160e01b600052601260045260246000fd5b500490565b6000602082840312156200432957600080fd5b5051919050565b634e487b7160e01b600052603260045260246000fd5b80820180821115620016705762001670620042ad565b600060018201620043715762004371620042ad565b5060010190565b602080825260149082015273536c697070616765207363726577656420796f7560601b604082015260600190565b6001600160a01b03929092168252602082015260400190565b8060005b6002811015620030f9578151845260209384019390910190600101620043c3565b60c08101620043f48287620043bf565b620044036040830186620043bf565b608082019390935260a0015292915050565b6020808252818101527f4f776e61626c653a2063616c6c6572206973206e6f7420746865206f776e6572604082015260600190565b6000602082840312156200445d57600080fd5b815160ff811681146200190457600080fd5b600181815b80851115620044b0578160001904821115620044945762004494620042ad565b80851615620044a257918102915b93841c939080029062004474565b509250929050565b600082620044c95750600162001670565b81620044d85750600062001670565b8160018114620044f15760028114620044fc576200451c565b600191505062001670565b60ff841115620045105762004510620042ad565b50506001821b62001670565b5060208310610133831016604e8410600b841016171562004541575081810a62001670565b6200454d83836200446f565b8060001904821115620045645762004564620042ad565b029392505050565b6000620019048383620044b8565b60008186825b6002811015620045aa5781516001600160a01b031683526020928301929091019060010162004580565b5050505060609390931b6001600160601b031916604084015260548301919091526074820152609401919050565b6020808252601690820152756465763a20696e73756666696369656e742074696d6560501b604082015260600190565b93845260208401929092526040830152606082015260800190565b60a08101620046338286620043bf565b620046426040830185620043bf565b826080830152949350505050565b6000602082840312156200466357600080fd5b81516200190481620041ec565b60005b838110156200468d57818101518382015260200162004673565b50506000910152565b60008251620046aa81846020870162004670565b9190910192915050565b6020815260008251806020840152620046d581604085016020870162004670565b601f01601f1916919091016040019291505056fe60a06040523480156200001157600080fd5b506040518060400160405280601681526020017f50616e63616b6520537461626c6553776170204c507300000000000000000000815250604051806040016040528060098152602001680537461626c652d4c560bc1b81525081600390816200007b91906200013c565b5060046200008a82826200013c565b5050336080525062000208565b634e487b7160e01b600052604160045260246000fd5b600181811c90821680620000c257607f821691505b602082108103620000e357634e487b7160e01b600052602260045260246000fd5b50919050565b601f8211156200013757600081815260208120601f850160051c81016020861015620001125750805b601f850160051c820191505b8181101562000133578281556001016200011e565b5050505b505050565b81516001600160401b0381111562000158576200015862000097565b6200017081620001698454620000ad565b84620000e9565b602080601f831160018114620001a857600084156200018f5750858301515b600019600386901b1c1916600185901b17855562000133565b600085815260208120601f198616915b82811015620001d957888601518255948401946001909101908401620001b8565b5085821015620001f85787850151600019600388901b60f8161c191681555b5050505050600190811b01905550565b608051610c23620002316000396000818160e20152818161033201526103910152610c236000f3fe608060405234801561001057600080fd5b50600436106100ba5760003560e01c806306fdde03146100bf57806307546172146100dd578063095ea7b31461011c57806318160ddd1461013f57806323b872dd14610151578063313ce56714610164578063395093511461017357806340c10f191461018657806370a082311461019b57806379cc6790146101c457806395d89b41146101d7578063a457c2d7146101df578063a9059cbb146101f2578063dd62ed3e14610205575b600080fd5b6100c7610218565b6040516100d49190610a0e565b60405180910390f35b6101047f000000000000000000000000000000000000000000000000000000000000000081565b6040516001600160a01b0390911681526020016100d4565b61012f61012a366004610a78565b6102aa565b60405190151581526020016100d4565b6002545b6040519081526020016100d4565b61012f61015f366004610aa2565b6102c4565b604051601281526020016100d4565b61012f610181366004610a78565b6102e8565b610199610194366004610a78565b610327565b005b6101436101a9366004610ade565b6001600160a01b031660009081526020819052604090205490565b6101996101d2366004610a78565b610386565b6100c76103d8565b61012f6101ed366004610a78565b6103e7565b61012f610200366004610a78565b610479565b610143610213366004610b00565b610487565b60606003805461022790610b33565b80601f016020809104026020016040519081016040528092919081815260200182805461025390610b33565b80156102a05780601f10610275576101008083540402835291602001916102a0565b820191906000526020600020905b81548152906001019060200180831161028357829003601f168201915b5050505050905090565b6000336102b88185856104b2565b60019150505b92915050565b6000336102d28582856105d7565b6102dd858585610651565b506001949350505050565b3360008181526001602090815260408083206001600160a01b03871684529091528120549091906102b89082908690610322908790610b83565b6104b2565b336001600160a01b037f000000000000000000000000000000000000000000000000000000000000000016146103785760405162461bcd60e51b815260040161036f90610b96565b60405180910390fd5b610382828261080d565b5050565b336001600160a01b037f000000000000000000000000000000000000000000000000000000000000000016146103ce5760405162461bcd60e51b815260040161036f90610b96565b61038282826108da565b60606004805461022790610b33565b3360008181526001602090815260408083206001600160a01b03871684529091528120549091908381101561046c5760405162461bcd60e51b815260206004820152602560248201527f45524332303a2064656372656173656420616c6c6f77616e63652062656c6f77604482015264207a65726f60d81b606482015260840161036f565b6102dd82868684036104b2565b6000336102b8818585610651565b6001600160a01b03918216600090815260016020908152604080832093909416825291909152205490565b6001600160a01b0383166105145760405162461bcd60e51b8152602060048201526024808201527f45524332303a20617070726f76652066726f6d20746865207a65726f206164646044820152637265737360e01b606482015260840161036f565b6001600160a01b0382166105755760405162461bcd60e51b815260206004820152602260248201527f45524332303a20617070726f766520746f20746865207a65726f206164647265604482015261737360f01b606482015260840161036f565b6001600160a01b0383811660008181526001602090815260408083209487168084529482529182902085905590518481527f8c5be1e5ebec7d5bd14f71427d1e84f3dd0314c0f7b2291e5b200ac8c7c3b92591015b60405180910390a3505050565b60006105e38484610487565b9050600019811461064b578181101561063e5760405162461bcd60e51b815260206004820152601d60248201527f45524332303a20696e73756666696369656e7420616c6c6f77616e6365000000604482015260640161036f565b61064b84848484036104b2565b50505050565b6001600160a01b0383166106b55760405162461bcd60e51b815260206004820152602560248201527f45524332303a207472616e736665722066726f6d20746865207a65726f206164604482015264647265737360d81b606482015260840161036f565b6001600160a01b0382166107175760405162461bcd60e51b815260206004820152602360248201527f45524332303a207472616e7366657220746f20746865207a65726f206164647260448201526265737360e81b606482015260840161036f565b6001600160a01b0383166000908152602081905260409020548181101561078f5760405162461bcd60e51b815260206004820152602660248201527f45524332303a207472616e7366657220616d6f756e7420657863656564732062604482015265616c616e636560d01b606482015260840161036f565b6001600160a01b038085166000908152602081905260408082208585039055918516815290812080548492906107c6908490610b83565b92505081905550826001600160a01b0316846001600160a01b0316600080516020610bce8339815191528460405161080091815260200190565b60405180910390a361064b565b6001600160a01b0382166108635760405162461bcd60e51b815260206004820152601f60248201527f45524332303a206d696e7420746f20746865207a65726f206164647265737300604482015260640161036f565b80600260008282546108759190610b83565b90915550506001600160a01b038216600090815260208190526040812080548392906108a2908490610b83565b90915550506040518181526001600160a01b03831690600090600080516020610bce8339815191529060200160405180910390a35050565b6001600160a01b03821661093a5760405162461bcd60e51b815260206004820152602160248201527f45524332303a206275726e2066726f6d20746865207a65726f206164647265736044820152607360f81b606482015260840161036f565b6001600160a01b038216600090815260208190526040902054818110156109ae5760405162461bcd60e51b815260206004820152602260248201527f45524332303a206275726e20616d6f756e7420657863656564732062616c616e604482015261636560f01b606482015260840161036f565b6001600160a01b03831660009081526020819052604081208383039055600280548492906109dd908490610bba565b90915550506040518281526000906001600160a01b03851690600080516020610bce833981519152906020016105ca565b600060208083528351808285015260005b81811015610a3b57858101830151858201604001528201610a1f565b506000604082860101526040601f19601f8301168501019250505092915050565b80356001600160a01b0381168114610a7357600080fd5b919050565b60008060408385031215610a8b57600080fd5b610a9483610a5c565b946020939093013593505050565b600080600060608486031215610ab757600080fd5b610ac084610a5c565b9250610ace60208501610a5c565b9150604084013590509250925092565b600060208284031215610af057600080fd5b610af982610a5c565b9392505050565b60008060408385031215610b1357600080fd5b610b1c83610a5c565b9150610b2a60208401610a5c565b90509250929050565b600181811c90821680610b4757607f821691505b602082108103610b6757634e487b7160e01b600052602260045260246000fd5b50919050565b634e487b7160e01b600052601160045260246000fd5b808201808211156102be576102be610b6d565b6020808252600a90820152692737ba1036b4b73a32b960b11b604082015260600190565b818103818111156102be576102be610b6d56feddf252ad1be2c89b69c2b068fc378daa952ba7f163c4a11628f55a4df523b3efa2646970667358221220551816ce0920626748485d006be718ee5fdb2c928f25697ff82d6c3f1b73280564736f6c63430008120033a26469706673582212208246c5d93849dd762f5f4f316b041cb54bcd99a2ae4044260861494ddc8a130a64736f6c63430008120033a2646970667358221220148972d137ea972d59c6896dd2003b8db14fc1678dcf8a5c0bb88ab13308672d64736f6c63430008120033",
			"opcodes": "PUSH1 0x80 PUSH1 0x40 MSTORE CALLVALUE DUP1 ISZERO PUSH2 0x10 JUMPI PUSH1 0x0 DUP1 REVERT JUMPDEST POP PUSH2 0x1A CALLER PUSH2 0x1F JUMP JUMPDEST PUSH2 0x6F JUMP JUMPDEST PUSH1 0x0 DUP1 SLOAD PUSH1 0x1 PUSH1 0x1 PUSH1 0xA0 SHL SUB DUP4 DUP2 AND PUSH1 0x1 PUSH1 0x1 PUSH1 0xA0 SHL SUB NOT DUP4 AND DUP2 OR DUP5 SSTORE PUSH1 0x40 MLOAD SWAP2 SWAP1 SWAP3 AND SWAP3 DUP4 SWAP2 PUSH32 0x8BE0079C531659141344CD1FD0A4F28419497F9722A3DAAFE3B4186F6B6457E0 SWAP2 SWAP1 LOG3 POP POP JUMP JUMPDEST PUSH2 0x5FB7 DUP1 PUSH2 0x7E PUSH1 0x0 CODECOPY PUSH1 0x0 RETURN INVALID PUSH1 0x80 PUSH1 0x40 MSTORE CALLVALUE DUP1 ISZERO PUSH2 0x10 JUMPI PUSH1 0x0 DUP1 REVERT JUMPDEST POP PUSH1 0x4 CALLDATASIZE LT PUSH2 0x78 JUMPI PUSH1 0x0 CALLDATALOAD PUSH1 0xE0 SHR DUP1 PUSH4 0x29357750 EQ PUSH2 0x7D JUMPI DUP1 PUSH4 0x400F7A1E EQ PUSH2 0x98 JUMPI DUP1 PUSH4 0x636E66A0 EQ PUSH2 0xEE JUMPI DUP1 PUSH4 0x715018A6 EQ PUSH2 0x12F JUMPI DUP1 PUSH4 0x8DA5CB5B EQ PUSH2 0x139 JUMPI DUP1 PUSH4 0xEC69A024 EQ PUSH2 0x141 JUMPI DUP1 PUSH4 0xF2FDE38B EQ PUSH2 0x154 JUMPI DUP1 PUSH4 0xFCC9136C EQ PUSH2 0x167 JUMPI JUMPDEST PUSH1 0x0 DUP1 REVERT JUMPDEST PUSH2 0x85 PUSH1 0x2 DUP2 JUMP JUMPDEST PUSH1 0x40 MLOAD SWAP1 DUP2 MSTORE PUSH1 0x20 ADD JUMPDEST PUSH1 0x40 MLOAD DUP1 SWAP2 SUB SWAP1 RETURN JUMPDEST PUSH2 0xAB PUSH2 0xA6 CALLDATASIZE PUSH1 0x4 PUSH2 0x7D0 JUMP JUMPDEST PUSH2 0x170 JUMP JUMPDEST PUSH1 0x40 MLOAD PUSH2 0x8F SWAP2 SWAP1 DUP2 MLOAD PUSH1 0x1 PUSH1 0x1 PUSH1 0xA0 SHL SUB SWAP1 DUP2 AND DUP3 MSTORE PUSH1 0x20 DUP1 DUP5 ADD MLOAD DUP3 AND SWAP1 DUP4 ADD MSTORE PUSH1 0x40 DUP1 DUP5 ADD MLOAD DUP3 AND SWAP1 DUP4 ADD MSTORE PUSH1 0x60 SWAP3 DUP4 ADD MLOAD AND SWAP2 DUP2 ADD SWAP2 SWAP1 SWAP2 MSTORE PUSH1 0x80 ADD SWAP1 JUMP JUMPDEST PUSH2 0x117 PUSH2 0xFC CALLDATASIZE PUSH1 0x4 PUSH2 0x809 JUMP JUMPDEST PUSH1 0x2 PUSH1 0x20 MSTORE PUSH1 0x0 SWAP1 DUP2 MSTORE PUSH1 0x40 SWAP1 KECCAK256 SLOAD PUSH1 0x1 PUSH1 0x1 PUSH1 0xA0 SHL SUB AND DUP2 JUMP JUMPDEST PUSH1 0x40 MLOAD PUSH1 0x1 PUSH1 0x1 PUSH1 0xA0 SHL SUB SWAP1 SWAP2 AND DUP2 MSTORE PUSH1 0x20 ADD PUSH2 0x8F JUMP JUMPDEST PUSH2 0x137 PUSH2 0x205 JUMP JUMPDEST STOP JUMPDEST PUSH2 0x117 PUSH2 0x249 JUMP JUMPDEST PUSH2 0x137 PUSH2 0x14F CALLDATASIZE PUSH1 0x4 PUSH2 0x822 JUMP JUMPDEST PUSH2 0x258 JUMP JUMPDEST PUSH2 0x137 PUSH2 0x162 CALLDATASIZE PUSH1 0x4 PUSH2 0x873 JUMP JUMPDEST PUSH2 0x636 JUMP JUMPDEST PUSH2 0x85 PUSH1 0x3 SLOAD DUP2 JUMP JUMPDEST PUSH1 0x40 DUP1 MLOAD PUSH1 0x80 DUP2 ADD DUP3 MSTORE PUSH1 0x0 DUP1 DUP3 MSTORE PUSH1 0x20 DUP3 ADD DUP2 SWAP1 MSTORE SWAP2 DUP2 ADD DUP3 SWAP1 MSTORE PUSH1 0x60 DUP2 ADD DUP3 SWAP1 MSTORE SWAP1 DUP1 PUSH2 0x19F DUP6 DUP6 PUSH2 0x6D6 JUMP JUMPDEST PUSH1 0x1 PUSH1 0x1 PUSH1 0xA0 SHL SUB SWAP2 DUP3 AND PUSH1 0x0 SWAP1 DUP2 MSTORE PUSH1 0x1 PUSH1 0x20 DUP2 DUP2 MSTORE PUSH1 0x40 DUP1 DUP5 KECCAK256 SWAP5 DUP7 AND DUP5 MSTORE SWAP4 DUP2 MSTORE SWAP2 DUP4 SWAP1 KECCAK256 DUP4 MLOAD PUSH1 0x80 DUP2 ADD DUP6 MSTORE DUP2 SLOAD DUP7 AND DUP2 MSTORE SWAP2 DUP2 ADD SLOAD DUP6 AND SWAP3 DUP3 ADD SWAP3 SWAP1 SWAP3 MSTORE PUSH1 0x2 DUP3 ADD SLOAD DUP5 AND SWAP3 DUP2 ADD SWAP3 SWAP1 SWAP3 MSTORE PUSH1 0x3 ADD SLOAD SWAP1 SWAP2 AND PUSH1 0x60 DUP3 ADD MSTORE SWAP6 SWAP5 POP POP POP POP POP JUMP JUMPDEST CALLER PUSH2 0x20E PUSH2 0x249 JUMP JUMPDEST PUSH1 0x1 PUSH1 0x1 PUSH1 0xA0 SHL SUB AND EQ PUSH2 0x23D JUMPI PUSH1 0x40 MLOAD PUSH3 0x461BCD PUSH1 0xE5 SHL DUP2 MSTORE PUSH1 0x4 ADD PUSH2 0x234 SWAP1 PUSH2 0x897 JUMP JUMPDEST PUSH1 0x40 MLOAD DUP1 SWAP2 SUB SWAP1 REVERT JUMPDEST PUSH2 0x247 PUSH1 0x0 PUSH2 0x75E JUMP JUMPDEST JUMP JUMPDEST PUSH1 0x0 SLOAD PUSH1 0x1 PUSH1 0x1 PUSH1 0xA0 SHL SUB AND SWAP1 JUMP JUMPDEST CALLER PUSH2 0x261 PUSH2 0x249 JUMP JUMPDEST PUSH1 0x1 PUSH1 0x1 PUSH1 0xA0 SHL SUB AND EQ PUSH2 0x287 JUMPI PUSH1 0x40 MLOAD PUSH3 0x461BCD PUSH1 0xE5 SHL DUP2 MSTORE PUSH1 0x4 ADD PUSH2 0x234 SWAP1 PUSH2 0x897 JUMP JUMPDEST PUSH1 0x1 PUSH1 0x1 PUSH1 0xA0 SHL SUB DUP6 AND ISZERO DUP1 ISZERO SWAP1 PUSH2 0x2A7 JUMPI POP PUSH1 0x1 PUSH1 0x1 PUSH1 0xA0 SHL SUB DUP5 AND ISZERO ISZERO JUMPDEST DUP1 ISZERO PUSH2 0x2C5 JUMPI POP DUP4 PUSH1 0x1 PUSH1 0x1 PUSH1 0xA0 SHL SUB AND DUP6 PUSH1 0x1 PUSH1 0x1 PUSH1 0xA0 SHL SUB AND EQ ISZERO JUMPDEST PUSH2 0x301 JUMPI PUSH1 0x40 MLOAD PUSH3 0x461BCD PUSH1 0xE5 SHL DUP2 MSTORE PUSH1 0x20 PUSH1 0x4 DUP3 ADD MSTORE PUSH1 0xD PUSH1 0x24 DUP3 ADD MSTORE PUSH13 0x24B63632B3B0B6103A37B5B2B7 PUSH1 0x99 SHL PUSH1 0x44 DUP3 ADD MSTORE PUSH1 0x64 ADD PUSH2 0x234 JUMP JUMPDEST PUSH1 0x0 DUP1 PUSH2 0x30E DUP8 DUP8 PUSH2 0x6D6 JUMP JUMPDEST PUSH1 0x1 PUSH1 0x1 PUSH1 0xA0 SHL SUB DUP1 DUP4 AND PUSH1 0x0 SWAP1 DUP2 MSTORE PUSH1 0x1 PUSH1 0x20 SWAP1 DUP2 MSTORE PUSH1 0x40 DUP1 DUP4 KECCAK256 DUP5 DUP7 AND DUP5 MSTORE SWAP1 SWAP2 MSTORE SWAP1 KECCAK256 DUP1 SLOAD SWAP4 SWAP6 POP SWAP2 SWAP4 POP SWAP1 SWAP2 AND ISZERO PUSH2 0x382 JUMPI PUSH1 0x40 MLOAD PUSH3 0x461BCD PUSH1 0xE5 SHL DUP2 MSTORE PUSH1 0x20 PUSH1 0x4 DUP3 ADD MSTORE PUSH1 0x13 PUSH1 0x24 DUP3 ADD MSTORE PUSH19 0x5061697220616C726561647920657869737473 PUSH1 0x68 SHL PUSH1 0x44 DUP3 ADD MSTORE PUSH1 0x64 ADD PUSH2 0x234 JUMP JUMPDEST PUSH1 0x40 DUP1 MLOAD DUP1 DUP3 ADD DUP3 MSTORE PUSH1 0x1 PUSH1 0x1 PUSH1 0xA0 SHL SUB DUP1 DUP7 AND DUP3 MSTORE DUP5 AND PUSH1 0x20 DUP1 DUP4 ADD SWAP2 SWAP1 SWAP2 MSTORE SWAP2 MLOAD SWAP1 SWAP2 PUSH1 0x0 SWAP2 SWAP1 PUSH2 0x3B6 SWAP1 DUP3 ADD PUSH2 0x7AE JUMP JUMPDEST PUSH1 0x1F NOT DUP3 DUP3 SUB DUP2 ADD DUP4 MSTORE PUSH1 0x1F SWAP1 SWAP2 ADD AND PUSH1 0x40 DUP2 SWAP1 MSTORE PUSH1 0x1 PUSH1 0x1 PUSH1 0x60 SHL SUB NOT PUSH1 0x60 DUP14 DUP2 SHL DUP3 AND PUSH1 0x20 DUP5 ADD MSTORE DUP13 DUP2 SHL DUP3 AND PUSH1 0x34 DUP5 ADD MSTORE CALLER SWAP1 SHL AND PUSH1 0x48 DUP3 ADD MSTORE TIMESTAMP PUSH1 0x5C DUP3 ADD MSTORE CHAINID PUSH1 0x7C DUP3 ADD MSTORE SWAP1 SWAP2 POP PUSH1 0x0 SWAP1 PUSH1 0x9C ADD PUSH1 0x40 MLOAD PUSH1 0x20 DUP2 DUP4 SUB SUB DUP2 MSTORE SWAP1 PUSH1 0x40 MSTORE DUP1 MLOAD SWAP1 PUSH1 0x20 ADD KECCAK256 SWAP1 POP PUSH1 0x0 DUP2 DUP4 MLOAD PUSH1 0x20 DUP6 ADD PUSH1 0x0 CREATE2 PUSH1 0x40 MLOAD PUSH4 0x2E837395 PUSH1 0xE0 SHL DUP2 MSTORE SWAP1 SWAP2 POP PUSH1 0x1 PUSH1 0x1 PUSH1 0xA0 SHL SUB DUP3 AND SWAP1 PUSH4 0x2E837395 SWAP1 PUSH2 0x463 SWAP1 DUP8 SWAP1 DUP15 SWAP1 DUP15 SWAP1 DUP15 SWAP1 CALLER SWAP1 PUSH1 0x4 ADD PUSH2 0x8CC JUMP JUMPDEST PUSH1 0x0 PUSH1 0x40 MLOAD DUP1 DUP4 SUB DUP2 PUSH1 0x0 DUP8 DUP1 EXTCODESIZE ISZERO DUP1 ISZERO PUSH2 0x47D JUMPI PUSH1 0x0 DUP1 REVERT JUMPDEST POP GAS CALL ISZERO DUP1 ISZERO PUSH2 0x491 JUMPI RETURNDATASIZE PUSH1 0x0 DUP1 RETURNDATACOPY RETURNDATASIZE PUSH1 0x0 REVERT JUMPDEST POP POP POP POP DUP1 PUSH1 0x2 PUSH1 0x0 PUSH1 0x3 SLOAD DUP2 MSTORE PUSH1 0x20 ADD SWAP1 DUP2 MSTORE PUSH1 0x20 ADD PUSH1 0x0 KECCAK256 PUSH1 0x0 PUSH2 0x100 EXP DUP2 SLOAD DUP2 PUSH1 0x1 PUSH1 0x1 PUSH1 0xA0 SHL SUB MUL NOT AND SWAP1 DUP4 PUSH1 0x1 PUSH1 0x1 PUSH1 0xA0 SHL SUB AND MUL OR SWAP1 SSTORE POP DUP1 DUP6 PUSH1 0x0 ADD PUSH1 0x0 PUSH2 0x100 EXP DUP2 SLOAD DUP2 PUSH1 0x1 PUSH1 0x1 PUSH1 0xA0 SHL SUB MUL NOT AND SWAP1 DUP4 PUSH1 0x1 PUSH1 0x1 PUSH1 0xA0 SHL SUB AND MUL OR SWAP1 SSTORE POP DUP7 DUP6 PUSH1 0x1 ADD PUSH1 0x0 PUSH2 0x100 EXP DUP2 SLOAD DUP2 PUSH1 0x1 PUSH1 0x1 PUSH1 0xA0 SHL SUB MUL NOT AND SWAP1 DUP4 PUSH1 0x1 PUSH1 0x1 PUSH1 0xA0 SHL SUB AND MUL OR SWAP1 SSTORE POP DUP6 DUP6 PUSH1 0x2 ADD PUSH1 0x0 PUSH2 0x100 EXP DUP2 SLOAD DUP2 PUSH1 0x1 PUSH1 0x1 PUSH1 0xA0 SHL SUB MUL NOT AND SWAP1 DUP4 PUSH1 0x1 PUSH1 0x1 PUSH1 0xA0 SHL SUB AND MUL OR SWAP1 SSTORE POP DUP1 PUSH1 0x1 PUSH1 0x1 PUSH1 0xA0 SHL SUB AND PUSH4 0xFC0C546A PUSH1 0x40 MLOAD DUP2 PUSH4 0xFFFFFFFF AND PUSH1 0xE0 SHL DUP2 MSTORE PUSH1 0x4 ADD PUSH1 0x20 PUSH1 0x40 MLOAD DUP1 DUP4 SUB DUP2 DUP7 GAS STATICCALL ISZERO DUP1 ISZERO PUSH2 0x588 JUMPI RETURNDATASIZE PUSH1 0x0 DUP1 RETURNDATACOPY RETURNDATASIZE PUSH1 0x0 REVERT JUMPDEST POP POP POP POP PUSH1 0x40 MLOAD RETURNDATASIZE PUSH1 0x1F NOT PUSH1 0x1F DUP3 ADD AND DUP3 ADD DUP1 PUSH1 0x40 MSTORE POP DUP2 ADD SWAP1 PUSH2 0x5AC SWAP2 SWAP1 PUSH2 0x92C JUMP JUMPDEST DUP6 PUSH1 0x3 ADD PUSH1 0x0 PUSH2 0x100 EXP DUP2 SLOAD DUP2 PUSH1 0x1 PUSH1 0x1 PUSH1 0xA0 SHL SUB MUL NOT AND SWAP1 DUP4 PUSH1 0x1 PUSH1 0x1 PUSH1 0xA0 SHL SUB AND MUL OR SWAP1 SSTORE POP PUSH1 0x1 PUSH1 0x3 PUSH1 0x0 DUP3 DUP3 SLOAD PUSH2 0x5E7 SWAP2 SWAP1 PUSH2 0x949 JUMP JUMPDEST SWAP1 SWAP2 SSTORE POP POP PUSH1 0x40 MLOAD PUSH1 0x1 PUSH1 0x1 PUSH1 0xA0 SHL SUB DUP1 DUP9 AND SWAP2 DUP10 DUP3 AND SWAP2 DUP5 AND SWAP1 PUSH32 0xA9551FB056FC743EFE2A0A34E39F9769AD10166520DF7843C09A66F82E148B97 SWAP1 PUSH1 0x0 SWAP1 LOG4 POP POP POP POP POP POP POP POP POP POP POP POP JUMP JUMPDEST CALLER PUSH2 0x63F PUSH2 0x249 JUMP JUMPDEST PUSH1 0x1 PUSH1 0x1 PUSH1 0xA0 SHL SUB AND EQ PUSH2 0x665 JUMPI PUSH1 0x40 MLOAD PUSH3 0x461BCD PUSH1 0xE5 SHL DUP2 MSTORE PUSH1 0x4 ADD PUSH2 0x234 SWAP1 PUSH2 0x897 JUMP JUMPDEST PUSH1 0x1 PUSH1 0x1 PUSH1 0xA0 SHL SUB DUP2 AND PUSH2 0x6CA JUMPI PUSH1 0x40 MLOAD PUSH3 0x461BCD PUSH1 0xE5 SHL DUP2 MSTORE PUSH1 0x20 PUSH1 0x4 DUP3 ADD MSTORE PUSH1 0x26 PUSH1 0x24 DUP3 ADD MSTORE PUSH32 0x4F776E61626C653A206E6577206F776E657220697320746865207A65726F2061 PUSH1 0x44 DUP3 ADD MSTORE PUSH6 0x646472657373 PUSH1 0xD0 SHL PUSH1 0x64 DUP3 ADD MSTORE PUSH1 0x84 ADD PUSH2 0x234 JUMP JUMPDEST PUSH2 0x6D3 DUP2 PUSH2 0x75E JUMP JUMPDEST POP JUMP JUMPDEST PUSH1 0x0 DUP1 DUP3 PUSH1 0x1 PUSH1 0x1 PUSH1 0xA0 SHL SUB AND DUP5 PUSH1 0x1 PUSH1 0x1 PUSH1 0xA0 SHL SUB AND SUB PUSH2 0x730 JUMPI PUSH1 0x40 MLOAD PUSH3 0x461BCD PUSH1 0xE5 SHL DUP2 MSTORE PUSH1 0x20 PUSH1 0x4 DUP3 ADD MSTORE PUSH1 0x13 PUSH1 0x24 DUP3 ADD MSTORE PUSH19 0x4944454E544943414C5F414444524553534553 PUSH1 0x68 SHL PUSH1 0x44 DUP3 ADD MSTORE PUSH1 0x64 ADD PUSH2 0x234 JUMP JUMPDEST DUP3 PUSH1 0x1 PUSH1 0x1 PUSH1 0xA0 SHL SUB AND DUP5 PUSH1 0x1 PUSH1 0x1 PUSH1 0xA0 SHL SUB AND LT PUSH2 0x750 JUMPI DUP3 DUP5 PUSH2 0x753 JUMP JUMPDEST DUP4 DUP4 JUMPDEST SWAP1 SWAP6 SWAP1 SWAP5 POP SWAP3 POP POP POP JUMP JUMPDEST PUSH1 0x0 DUP1 SLOAD PUSH1 0x1 PUSH1 0x1 PUSH1 0xA0 SHL SUB DUP4 DUP2 AND PUSH1 0x1 PUSH1 0x1 PUSH1 0xA0 SHL SUB NOT DUP4 AND DUP2 OR DUP5 SSTORE PUSH1 0x40 MLOAD SWAP2 SWAP1 SWAP3 AND SWAP3 DUP4 SWAP2 PUSH32 0x8BE0079C531659141344CD1FD0A4F28419497F9722A3DAAFE3B4186F6B6457E0 SWAP2 SWAP1 LOG3 POP POP JUMP JUMPDEST PUSH2 0x5611 DUP1 PUSH2 0x971 DUP4 CODECOPY ADD SWAP1 JUMP JUMPDEST PUSH1 0x1 PUSH1 0x1 PUSH1 0xA0 SHL SUB DUP2 AND DUP2 EQ PUSH2 0x6D3 JUMPI PUSH1 0x0 DUP1 REVERT JUMPDEST PUSH1 0x0 DUP1 PUSH1 0x40 DUP4 DUP6 SUB SLT ISZERO PUSH2 0x7E3 JUMPI PUSH1 0x0 DUP1 REVERT JUMPDEST DUP3 CALLDATALOAD PUSH2 0x7EE DUP2 PUSH2 0x7BB JUMP JUMPDEST SWAP2 POP PUSH1 0x20 DUP4 ADD CALLDATALOAD PUSH2 0x7FE DUP2 PUSH2 0x7BB JUMP JUMPDEST DUP1 SWAP2 POP POP SWAP3 POP SWAP3 SWAP1 POP JUMP JUMPDEST PUSH1 0x0 PUSH1 0x20 DUP3 DUP5 SUB SLT ISZERO PUSH2 0x81B JUMPI PUSH1 0x0 DUP1 REVERT JUMPDEST POP CALLDATALOAD SWAP2 SWAP1 POP JUMP JUMPDEST PUSH1 0x0 DUP1 PUSH1 0x0 DUP1 PUSH1 0x0 PUSH1 0xA0 DUP7 DUP9 SUB SLT ISZERO PUSH2 0x83A JUMPI PUSH1 0x0 DUP1 REVERT JUMPDEST DUP6 CALLDATALOAD PUSH2 0x845 DUP2 PUSH2 0x7BB JUMP JUMPDEST SWAP5 POP PUSH1 0x20 DUP7 ADD CALLDATALOAD PUSH2 0x855 DUP2 PUSH2 0x7BB JUMP JUMPDEST SWAP5 SWAP8 SWAP5 SWAP7 POP POP POP POP PUSH1 0x40 DUP4 ADD CALLDATALOAD SWAP3 PUSH1 0x60 DUP2 ADD CALLDATALOAD SWAP3 PUSH1 0x80 SWAP1 SWAP2 ADD CALLDATALOAD SWAP2 POP JUMP JUMPDEST PUSH1 0x0 PUSH1 0x20 DUP3 DUP5 SUB SLT ISZERO PUSH2 0x885 JUMPI PUSH1 0x0 DUP1 REVERT JUMPDEST DUP2 CALLDATALOAD PUSH2 0x890 DUP2 PUSH2 0x7BB JUMP JUMPDEST SWAP4 SWAP3 POP POP POP JUMP JUMPDEST PUSH1 0x20 DUP1 DUP3 MSTORE DUP2 DUP2 ADD MSTORE PUSH32 0x4F776E61626C653A2063616C6C6572206973206E6F7420746865206F776E6572 PUSH1 0x40 DUP3 ADD MSTORE PUSH1 0x60 ADD SWAP1 JUMP JUMPDEST PUSH1 0xC0 DUP2 ADD DUP2 DUP8 PUSH1 0x0 JUMPDEST PUSH1 0x2 DUP2 LT ISZERO PUSH2 0x8FD JUMPI DUP2 MLOAD PUSH1 0x1 PUSH1 0x1 PUSH1 0xA0 SHL SUB AND DUP4 MSTORE PUSH1 0x20 SWAP3 DUP4 ADD SWAP3 SWAP1 SWAP2 ADD SWAP1 PUSH1 0x1 ADD PUSH2 0x8D5 JUMP JUMPDEST POP POP POP PUSH1 0x40 DUP3 ADD SWAP6 SWAP1 SWAP6 MSTORE PUSH1 0x60 DUP2 ADD SWAP4 SWAP1 SWAP4 MSTORE PUSH1 0x80 DUP4 ADD SWAP2 SWAP1 SWAP2 MSTORE PUSH1 0x1 PUSH1 0x1 PUSH1 0xA0 SHL SUB AND PUSH1 0xA0 SWAP1 SWAP2 ADD MSTORE SWAP2 SWAP1 POP JUMP JUMPDEST PUSH1 0x0 PUSH1 0x20 DUP3 DUP5 SUB SLT ISZERO PUSH2 0x93E JUMPI PUSH1 0x0 DUP1 REVERT JUMPDEST DUP2 MLOAD PUSH2 0x890 DUP2 PUSH2 0x7BB JUMP JUMPDEST DUP1 DUP3 ADD DUP1 DUP3 GT ISZERO PUSH2 0x96A JUMPI PUSH4 0x4E487B71 PUSH1 0xE0 SHL PUSH1 0x0 MSTORE PUSH1 0x11 PUSH1 0x4 MSTORE PUSH1 0x24 PUSH1 0x0 REVERT JUMPDEST SWAP3 SWAP2 POP POP JUMP INVALID PUSH1 0xA0 PUSH1 0x40 MSTORE CALLVALUE DUP1 ISZERO PUSH3 0x11 JUMPI PUSH1 0x0 DUP1 REVERT JUMPDEST POP PUSH3 0x1D CALLER PUSH3 0x2B JUMP JUMPDEST PUSH1 0x1 DUP1 SSTORE CALLER PUSH1 0x80 MSTORE PUSH3 0x7B JUMP JUMPDEST PUSH1 0x0 DUP1 SLOAD PUSH1 0x1 PUSH1 0x1 PUSH1 0xA0 SHL SUB DUP4 DUP2 AND PUSH1 0x1 PUSH1 0x1 PUSH1 0xA0 SHL SUB NOT DUP4 AND DUP2 OR DUP5 SSTORE PUSH1 0x40 MLOAD SWAP2 SWAP1 SWAP3 AND SWAP3 DUP4 SWAP2 PUSH32 0x8BE0079C531659141344CD1FD0A4F28419497F9722A3DAAFE3B4186F6B6457E0 SWAP2 SWAP1 LOG3 POP POP JUMP JUMPDEST PUSH1 0x80 MLOAD PUSH2 0x5573 PUSH3 0x9E PUSH1 0x0 CODECOPY PUSH1 0x0 DUP2 DUP2 PUSH2 0x4C9 ADD MSTORE PUSH2 0xD5F ADD MSTORE PUSH2 0x5573 PUSH1 0x0 RETURN INVALID PUSH1 0x80 PUSH1 0x40 MSTORE CALLVALUE DUP1 ISZERO PUSH3 0x11 JUMPI PUSH1 0x0 DUP1 REVERT JUMPDEST POP PUSH1 0x4 CALLDATASIZE LT PUSH3 0x2AA JUMPI PUSH1 0x0 CALLDATALOAD PUSH1 0xE0 SHR DUP1 PUSH4 0x6E9481C EQ PUSH3 0x2AF JUMPI DUP1 PUSH4 0xB4C7E4D EQ PUSH3 0x2CD JUMPI DUP1 PUSH4 0x14052288 EQ PUSH3 0x2E6 JUMPI DUP1 PUSH4 0x2081066C EQ PUSH3 0x2F0 JUMPI DUP1 PUSH4 0x226840FB EQ PUSH3 0x2FA JUMPI DUP1 PUSH4 0x29357750 EQ PUSH3 0x304 JUMPI DUP1 PUSH4 0x2A426896 EQ PUSH3 0x30D JUMPI DUP1 PUSH4 0x2E837395 EQ PUSH3 0x317 JUMPI DUP1 PUSH4 0x3046F972 EQ PUSH3 0x32E JUMPI DUP1 PUSH4 0x30C54085 EQ PUSH3 0x338 JUMPI DUP1 PUSH4 0x392E53CD EQ PUSH3 0x342 JUMPI DUP1 PUSH4 0x39698415 EQ PUSH3 0x366 JUMPI DUP1 PUSH4 0x3C157E64 EQ PUSH3 0x371 JUMPI DUP1 PUSH4 0x405E28F8 EQ PUSH3 0x388 JUMPI DUP1 PUSH4 0x4903B0D1 EQ PUSH3 0x392 JUMPI DUP1 PUSH4 0x4F12FE97 EQ PUSH3 0x3A9 JUMPI DUP1 PUSH4 0x4FB08C5E EQ PUSH3 0x3B3 JUMPI DUP1 PUSH4 0x524C3901 EQ PUSH3 0x3CA JUMPI DUP1 PUSH4 0x5409491A EQ PUSH3 0x3D4 JUMPI DUP1 PUSH4 0x556D6E9F EQ PUSH3 0x3DE JUMPI DUP1 PUSH4 0x58680D0B EQ PUSH3 0x3F5 JUMPI DUP1 PUSH4 0x5B36389C EQ PUSH3 0x3FF JUMPI DUP1 PUSH4 0x5B41B908 EQ PUSH3 0x416 JUMPI DUP1 PUSH4 0x5B5A1467 EQ PUSH3 0x42D JUMPI DUP1 PUSH4 0x62203D74 EQ PUSH3 0x444 JUMPI DUP1 PUSH4 0x6D4366B7 EQ PUSH3 0x45B JUMPI DUP1 PUSH4 0x715018A6 EQ PUSH3 0x464 JUMPI DUP1 PUSH4 0x7DAFA364 EQ PUSH3 0x46E JUMPI DUP1 PUSH4 0x85F11D1E EQ PUSH3 0x485 JUMPI DUP1 PUSH4 0x8DA5CB5B EQ PUSH3 0x49C JUMPI DUP1 PUSH4 0x9C868AC0 EQ PUSH3 0x4B5 JUMPI DUP1 PUSH4 0xA6B0A718 EQ PUSH3 0x4C3 JUMPI DUP1 PUSH4 0xAAF5EB68 EQ PUSH3 0x4EB JUMPI DUP1 PUSH4 0xAB5AC061 EQ PUSH3 0x4FB JUMPI DUP1 PUSH4 0xB4B577AD EQ PUSH3 0x504 JUMPI DUP1 PUSH4 0xBB7B8B80 EQ PUSH3 0x50E JUMPI DUP1 PUSH4 0xBC063E1A EQ PUSH3 0x518 JUMPI DUP1 PUSH4 0xC6610657 EQ PUSH3 0x525 JUMPI DUP1 PUSH4 0xCA8CA154 EQ PUSH3 0x53C JUMPI DUP1 PUSH4 0xD73792A9 EQ PUSH3 0x546 JUMPI DUP1 PUSH4 0xDDCA3F43 EQ PUSH3 0x553 JUMPI DUP1 PUSH4 0xE2E7D264 EQ PUSH3 0x55D JUMPI DUP1 PUSH4 0xE3103273 EQ PUSH3 0x574 JUMPI DUP1 PUSH4 0xE3698853 EQ PUSH3 0x58B JUMPI DUP1 PUSH4 0xE3824462 EQ PUSH3 0x595 JUMPI DUP1 PUSH4 0xE5D9E903 EQ PUSH3 0x59F JUMPI DUP1 PUSH4 0xED8E84F3 EQ PUSH3 0x5AA JUMPI DUP1 PUSH4 0xEDFB7801 EQ PUSH3 0x5C1 JUMPI DUP1 PUSH4 0xF1DC3CC9 EQ PUSH3 0x5CC JUMPI DUP1 PUSH4 0xF2FDE38B EQ PUSH3 0x5E3 JUMPI DUP1 PUSH4 0xF3DE0362 EQ PUSH3 0x546 JUMPI DUP1 PUSH4 0xF446C1D0 EQ PUSH3 0x5FA JUMPI DUP1 PUSH4 0xFC0C546A EQ PUSH3 0x604 JUMPI DUP1 PUSH4 0xFEE3F7F9 EQ PUSH3 0x618 JUMPI JUMPDEST PUSH1 0x0 DUP1 REVERT JUMPDEST PUSH3 0x2BA PUSH3 0x15180 DUP2 JUMP JUMPDEST PUSH1 0x40 MLOAD SWAP1 DUP2 MSTORE PUSH1 0x20 ADD JUMPDEST PUSH1 0x40 MLOAD DUP1 SWAP2 SUB SWAP1 RETURN JUMPDEST PUSH3 0x2E4 PUSH3 0x2DE CALLDATASIZE PUSH1 0x4 PUSH3 0x4025 JUMP JUMPDEST PUSH3 0x622 JUMP JUMPDEST STOP JUMPDEST PUSH3 0x2BA PUSH1 0x10 SLOAD DUP2 JUMP JUMPDEST PUSH3 0x2BA PUSH1 0xF SLOAD DUP2 JUMP JUMPDEST PUSH3 0x2E4 PUSH3 0xC96 JUMP JUMPDEST PUSH3 0x2BA PUSH1 0x2 DUP2 JUMP JUMPDEST PUSH3 0x2BA PUSH1 0x14 SLOAD DUP2 JUMP JUMPDEST PUSH3 0x2E4 PUSH3 0x328 CALLDATASIZE PUSH1 0x4 PUSH3 0x4070 JUMP JUMPDEST PUSH3 0xCFA JUMP JUMPDEST PUSH3 0x2E4 PUSH3 0x1174 JUMP JUMPDEST PUSH3 0x2E4 PUSH3 0x11DD JUMP JUMPDEST PUSH1 0x15 SLOAD PUSH3 0x355 SWAP1 PUSH2 0x100 SWAP1 DIV PUSH1 0xFF AND DUP2 JUMP JUMPDEST PUSH1 0x40 MLOAD SWAP1 ISZERO ISZERO DUP2 MSTORE PUSH1 0x20 ADD PUSH3 0x2C4 JUMP JUMPDEST PUSH3 0x2BA PUSH3 0xF4240 DUP2 JUMP JUMPDEST PUSH3 0x2E4 PUSH3 0x382 CALLDATASIZE PUSH1 0x4 PUSH3 0x410B JUMP JUMPDEST PUSH3 0x1315 JUMP JUMPDEST PUSH3 0x2BA PUSH1 0x11 SLOAD DUP2 JUMP JUMPDEST PUSH3 0x2BA PUSH3 0x3A3 CALLDATASIZE PUSH1 0x4 PUSH3 0x412E JUMP JUMPDEST PUSH3 0x1531 JUMP JUMPDEST PUSH3 0x2E4 PUSH3 0x1549 JUMP JUMPDEST PUSH3 0x2BA PUSH3 0x3C4 CALLDATASIZE PUSH1 0x4 PUSH3 0x410B JUMP JUMPDEST PUSH3 0x165C JUMP JUMPDEST PUSH3 0x2E4 PUSH3 0x1676 JUMP JUMPDEST PUSH3 0x2BA PUSH1 0xD SLOAD DUP2 JUMP JUMPDEST PUSH3 0x2BA PUSH3 0x3EF CALLDATASIZE PUSH1 0x4 PUSH3 0x4148 JUMP JUMPDEST PUSH3 0x179B JUMP JUMPDEST PUSH3 0x2BA PUSH1 0x12 SLOAD DUP2 JUMP JUMPDEST PUSH3 0x2E4 PUSH3 0x410 CALLDATASIZE PUSH1 0x4 PUSH3 0x4175 JUMP JUMPDEST PUSH3 0x190B JUMP JUMPDEST PUSH3 0x2E4 PUSH3 0x427 CALLDATASIZE PUSH1 0x4 PUSH3 0x41A5 JUMP JUMPDEST PUSH3 0x1BD2 JUMP JUMPDEST PUSH3 0x2E4 PUSH3 0x43E CALLDATASIZE PUSH1 0x4 PUSH3 0x410B JUMP JUMPDEST PUSH3 0x1F78 JUMP JUMPDEST PUSH3 0x2BA PUSH3 0x455 CALLDATASIZE PUSH1 0x4 PUSH3 0x412E JUMP JUMPDEST PUSH3 0x2102 JUMP JUMPDEST PUSH3 0x2BA PUSH1 0x12 DUP2 JUMP JUMPDEST PUSH3 0x2E4 PUSH3 0x2113 JUMP JUMPDEST PUSH3 0x2BA PUSH3 0x47F CALLDATASIZE PUSH1 0x4 PUSH3 0x412E JUMP JUMPDEST PUSH3 0x2155 JUMP JUMPDEST PUSH3 0x2BA PUSH3 0x496 CALLDATASIZE PUSH1 0x4 PUSH3 0x4148 JUMP JUMPDEST PUSH3 0x2166 JUMP JUMPDEST PUSH3 0x4A6 PUSH3 0x225B JUMP JUMPDEST PUSH1 0x40 MLOAD PUSH3 0x2C4 SWAP2 SWAP1 PUSH3 0x41D8 JUMP JUMPDEST PUSH1 0x15 SLOAD PUSH3 0x355 SWAP1 PUSH1 0xFF AND DUP2 JUMP JUMPDEST PUSH3 0x4A6 PUSH32 0x0 DUP2 JUMP JUMPDEST PUSH3 0x2BA PUSH8 0xDE0B6B3A7640000 DUP2 JUMP JUMPDEST PUSH3 0x2BA PUSH1 0xA DUP2 JUMP JUMPDEST PUSH3 0x2BA PUSH1 0xE SLOAD DUP2 JUMP JUMPDEST PUSH3 0x2BA PUSH3 0x226A JUMP JUMPDEST PUSH3 0x2BA PUSH5 0x12A05F200 DUP2 JUMP JUMPDEST PUSH3 0x4A6 PUSH3 0x536 CALLDATASIZE PUSH1 0x4 PUSH3 0x412E JUMP JUMPDEST PUSH3 0x2333 JUMP JUMPDEST PUSH3 0x2E4 PUSH3 0x2354 JUMP JUMPDEST PUSH3 0x2BA PUSH5 0x2540BE400 DUP2 JUMP JUMPDEST PUSH3 0x2BA PUSH1 0xA SLOAD DUP2 JUMP JUMPDEST PUSH3 0x2BA PUSH3 0x56E CALLDATASIZE PUSH1 0x4 PUSH3 0x412E JUMP JUMPDEST PUSH3 0x23EF JUMP JUMPDEST PUSH3 0x2E4 PUSH3 0x585 CALLDATASIZE PUSH1 0x4 PUSH3 0x4025 JUMP JUMPDEST PUSH3 0x24A0 JUMP JUMPDEST PUSH3 0x2E4 PUSH3 0x2A91 JUMP JUMPDEST PUSH3 0x2BA PUSH1 0x13 SLOAD DUP2 JUMP JUMPDEST PUSH3 0x2BA PUSH3 0x3F480 DUP2 JUMP JUMPDEST PUSH3 0x2BA PUSH3 0x5BB CALLDATASIZE PUSH1 0x4 PUSH3 0x41FB JUMP JUMPDEST PUSH3 0x2B44 JUMP JUMPDEST PUSH3 0x2BA PUSH3 0x4F1A00 DUP2 JUMP JUMPDEST PUSH3 0x2E4 PUSH3 0x5DD CALLDATASIZE PUSH1 0x4 PUSH3 0x4148 JUMP JUMPDEST PUSH3 0x2D32 JUMP JUMPDEST PUSH3 0x2E4 PUSH3 0x5F4 CALLDATASIZE PUSH1 0x4 PUSH3 0x4238 JUMP JUMPDEST PUSH3 0x2F02 JUMP JUMPDEST PUSH3 0x2BA PUSH3 0x2FA8 JUMP JUMPDEST PUSH1 0xC SLOAD PUSH3 0x4A6 SWAP1 PUSH1 0x1 PUSH1 0x1 PUSH1 0xA0 SHL SUB AND DUP2 JUMP JUMPDEST PUSH3 0x2BA PUSH1 0xB SLOAD DUP2 JUMP JUMPDEST PUSH1 0x2 PUSH1 0x1 SLOAD SUB PUSH3 0x650 JUMPI PUSH1 0x40 MLOAD PUSH3 0x461BCD PUSH1 0xE5 SHL DUP2 MSTORE PUSH1 0x4 ADD PUSH3 0x647 SWAP1 PUSH3 0x4256 JUMP JUMPDEST PUSH1 0x40 MLOAD DUP1 SWAP2 SUB SWAP1 REVERT JUMPDEST PUSH1 0x2 PUSH1 0x1 SSTORE PUSH1 0x15 SLOAD PUSH1 0xFF AND ISZERO PUSH3 0x67B JUMPI PUSH1 0x40 MLOAD PUSH3 0x461BCD PUSH1 0xE5 SHL DUP2 MSTORE PUSH1 0x4 ADD PUSH3 0x647 SWAP1 PUSH3 0x428D JUMP JUMPDEST PUSH3 0x685 PUSH3 0x3ECB JUMP JUMPDEST PUSH1 0x0 PUSH3 0x695 PUSH1 0x1 PUSH1 0x2 PUSH3 0x42C3 JUMP JUMPDEST PUSH3 0x6A2 SWAP1 PUSH1 0x4 PUSH3 0x42D9 JUMP JUMPDEST PUSH1 0x2 PUSH1 0xA SLOAD PUSH3 0x6B3 SWAP2 SWAP1 PUSH3 0x42D9 JUMP JUMPDEST PUSH3 0x6BF SWAP2 SWAP1 PUSH3 0x42F3 JUMP JUMPDEST PUSH1 0xB SLOAD SWAP1 SWAP2 POP PUSH1 0x0 PUSH3 0x6D1 PUSH3 0x2FB9 JUMP JUMPDEST SWAP1 POP PUSH1 0x0 PUSH1 0xC PUSH1 0x0 SWAP1 SLOAD SWAP1 PUSH2 0x100 EXP SWAP1 DIV PUSH1 0x1 PUSH1 0x1 PUSH1 0xA0 SHL SUB AND PUSH1 0x1 PUSH1 0x1 PUSH1 0xA0 SHL SUB AND PUSH4 0x18160DDD PUSH1 0x40 MLOAD DUP2 PUSH4 0xFFFFFFFF AND PUSH1 0xE0 SHL DUP2 MSTORE PUSH1 0x4 ADD PUSH1 0x20 PUSH1 0x40 MLOAD DUP1 DUP4 SUB DUP2 DUP7 GAS STATICCALL ISZERO DUP1 ISZERO PUSH3 0x729 JUMPI RETURNDATASIZE PUSH1 0x0 DUP1 RETURNDATACOPY RETURNDATASIZE PUSH1 0x0 REVERT JUMPDEST POP POP POP POP PUSH1 0x40 MLOAD RETURNDATASIZE PUSH1 0x1F NOT PUSH1 0x1F DUP3 ADD AND DUP3 ADD DUP1 PUSH1 0x40 MSTORE POP DUP2 ADD SWAP1 PUSH3 0x74F SWAP2 SWAP1 PUSH3 0x4316 JUMP JUMPDEST PUSH1 0x40 DUP1 MLOAD DUP1 DUP3 ADD SWAP2 DUP3 SWAP1 MSTORE SWAP2 SWAP3 POP PUSH1 0x0 SWAP2 DUP3 SWAP2 PUSH1 0x8 SWAP1 PUSH1 0x2 SWAP1 DUP3 DUP5 JUMPDEST DUP2 SLOAD DUP2 MSTORE PUSH1 0x20 ADD SWAP1 PUSH1 0x1 ADD SWAP1 DUP1 DUP4 GT PUSH3 0x76B JUMPI POP POP POP POP POP SWAP1 POP PUSH1 0x0 DUP4 GT ISZERO PUSH3 0x79F JUMPI PUSH3 0x79C DUP2 DUP6 PUSH3 0x3074 JUMP JUMPDEST SWAP2 POP JUMPDEST DUP1 PUSH1 0x0 JUMPDEST PUSH1 0x2 DUP2 LT ISZERO PUSH3 0x89B JUMPI DUP5 PUSH1 0x0 SUB PUSH3 0x82C JUMPI PUSH1 0x0 DUP12 DUP3 PUSH1 0x2 DUP2 LT PUSH3 0x7CD JUMPI PUSH3 0x7CD PUSH3 0x4330 JUMP JUMPDEST PUSH1 0x20 MUL ADD MLOAD GT PUSH3 0x82C JUMPI PUSH1 0x40 MLOAD PUSH3 0x461BCD PUSH1 0xE5 SHL DUP2 MSTORE PUSH1 0x20 PUSH1 0x4 DUP3 ADD MSTORE PUSH1 0x22 PUSH1 0x24 DUP3 ADD MSTORE PUSH32 0x496E697469616C206465706F73697420726571756972657320616C6C20636F69 PUSH1 0x44 DUP3 ADD MSTORE PUSH2 0x6E73 PUSH1 0xF0 SHL PUSH1 0x64 DUP3 ADD MSTORE PUSH1 0x84 ADD PUSH3 0x647 JUMP JUMPDEST DUP11 DUP2 PUSH1 0x2 DUP2 LT PUSH3 0x841 JUMPI PUSH3 0x841 PUSH3 0x4330 JUMP JUMPDEST PUSH1 0x20 MUL ADD MLOAD DUP4 DUP3 PUSH1 0x2 DUP2 LT PUSH3 0x85B JUMPI PUSH3 0x85B PUSH3 0x4330 JUMP JUMPDEST PUSH1 0x20 MUL ADD MLOAD PUSH3 0x86C SWAP2 SWAP1 PUSH3 0x4346 JUMP JUMPDEST DUP3 DUP3 PUSH1 0x2 DUP2 LT PUSH3 0x881 JUMPI PUSH3 0x881 PUSH3 0x4330 JUMP JUMPDEST PUSH1 0x20 MUL ADD MSTORE DUP1 PUSH3 0x892 DUP2 PUSH3 0x435C JUMP JUMPDEST SWAP2 POP POP PUSH3 0x7A3 JUMP JUMPDEST POP PUSH1 0x0 PUSH3 0x8AA DUP3 DUP8 PUSH3 0x3074 JUMP JUMPDEST SWAP1 POP DUP4 DUP2 GT PUSH3 0x8FA JUMPI PUSH1 0x40 MLOAD PUSH3 0x461BCD PUSH1 0xE5 SHL DUP2 MSTORE PUSH1 0x20 PUSH1 0x4 DUP3 ADD MSTORE PUSH1 0x1A PUSH1 0x24 DUP3 ADD MSTORE PUSH26 0x4431206D7573742062652067726561746572207468616E20443 PUSH1 0x34 SHL PUSH1 0x44 DUP3 ADD MSTORE PUSH1 0x64 ADD PUSH3 0x647 JUMP JUMPDEST DUP1 DUP6 ISZERO PUSH3 0xAE4 JUMPI PUSH1 0x0 JUMPDEST PUSH1 0x2 DUP2 LT ISZERO PUSH3 0xACF JUMPI PUSH1 0x0 DUP7 DUP7 DUP4 PUSH1 0x2 DUP2 LT PUSH3 0x927 JUMPI PUSH3 0x927 PUSH3 0x4330 JUMP JUMPDEST PUSH1 0x20 MUL ADD MLOAD PUSH3 0x938 SWAP1 DUP7 PUSH3 0x42D9 JUMP JUMPDEST PUSH3 0x944 SWAP2 SWAP1 PUSH3 0x42F3 JUMP JUMPDEST SWAP1 POP PUSH1 0x0 DUP6 DUP4 PUSH1 0x2 DUP2 LT PUSH3 0x95D JUMPI PUSH3 0x95D PUSH3 0x4330 JUMP JUMPDEST PUSH1 0x20 MUL ADD MLOAD DUP3 GT ISZERO PUSH3 0x998 JUMPI DUP6 DUP4 PUSH1 0x2 DUP2 LT PUSH3 0x97F JUMPI PUSH3 0x97F PUSH3 0x4330 JUMP JUMPDEST PUSH1 0x20 MUL ADD MLOAD PUSH3 0x990 SWAP1 DUP4 PUSH3 0x42C3 JUMP JUMPDEST SWAP1 POP PUSH3 0x9C2 JUMP JUMPDEST DUP2 DUP7 DUP5 PUSH1 0x2 DUP2 LT PUSH3 0x9AE JUMPI PUSH3 0x9AE PUSH3 0x4330 JUMP JUMPDEST PUSH1 0x20 MUL ADD MLOAD PUSH3 0x9BF SWAP2 SWAP1 PUSH3 0x42C3 JUMP JUMPDEST SWAP1 POP JUMPDEST PUSH5 0x2540BE400 PUSH3 0x9D4 DUP3 DUP15 PUSH3 0x42D9 JUMP JUMPDEST PUSH3 0x9E0 SWAP2 SWAP1 PUSH3 0x42F3 JUMP JUMPDEST DUP14 DUP5 PUSH1 0x2 DUP2 LT PUSH3 0x9F5 JUMPI PUSH3 0x9F5 PUSH3 0x4330 JUMP JUMPDEST PUSH1 0x20 MUL ADD MSTORE PUSH5 0x2540BE400 DUP12 DUP15 DUP6 PUSH1 0x2 DUP2 LT PUSH3 0xA16 JUMPI PUSH3 0xA16 PUSH3 0x4330 JUMP JUMPDEST PUSH1 0x20 MUL ADD MLOAD PUSH3 0xA27 SWAP2 SWAP1 PUSH3 0x42D9 JUMP JUMPDEST PUSH3 0xA33 SWAP2 SWAP1 PUSH3 0x42F3 JUMP JUMPDEST DUP7 DUP5 PUSH1 0x2 DUP2 LT PUSH3 0xA48 JUMPI PUSH3 0xA48 PUSH3 0x4330 JUMP JUMPDEST PUSH1 0x20 MUL ADD MLOAD PUSH3 0xA59 SWAP2 SWAP1 PUSH3 0x42C3 JUMP JUMPDEST PUSH1 0x8 DUP5 PUSH1 0x2 DUP2 LT PUSH3 0xA6F JUMPI PUSH3 0xA6F PUSH3 0x4330 JUMP JUMPDEST ADD SSTORE DUP13 DUP4 PUSH1 0x2 DUP2 LT PUSH3 0xA86 JUMPI PUSH3 0xA86 PUSH3 0x4330 JUMP JUMPDEST PUSH1 0x20 MUL ADD MLOAD DUP7 DUP5 PUSH1 0x2 DUP2 LT PUSH3 0xAA0 JUMPI PUSH3 0xAA0 PUSH3 0x4330 JUMP JUMPDEST PUSH1 0x20 MUL ADD DUP2 DUP2 MLOAD PUSH3 0xAB3 SWAP2 SWAP1 PUSH3 0x42C3 JUMP JUMPDEST SWAP1 MSTORE POP DUP3 SWAP2 POP PUSH3 0xAC6 SWAP1 POP DUP2 PUSH3 0x435C JUMP JUMPDEST SWAP2 POP POP PUSH3 0x905 JUMP JUMPDEST POP PUSH3 0xADC DUP4 DUP9 PUSH3 0x3074 JUMP JUMPDEST SWAP1 POP PUSH3 0xAF5 JUMP JUMPDEST PUSH3 0xAF3 PUSH1 0x8 DUP5 PUSH1 0x2 PUSH3 0x3EE9 JUMP JUMPDEST POP JUMPDEST PUSH1 0x0 DUP7 PUSH1 0x0 SUB PUSH3 0xB08 JUMPI POP DUP2 PUSH3 0xB30 JUMP JUMPDEST DUP6 PUSH3 0xB15 DUP2 DUP5 PUSH3 0x42C3 JUMP JUMPDEST PUSH3 0xB21 SWAP1 DUP10 PUSH3 0x42D9 JUMP JUMPDEST PUSH3 0xB2D SWAP2 SWAP1 PUSH3 0x42F3 JUMP JUMPDEST SWAP1 POP JUMPDEST DUP12 DUP2 LT ISZERO PUSH3 0xB53 JUMPI PUSH1 0x40 MLOAD PUSH3 0x461BCD PUSH1 0xE5 SHL DUP2 MSTORE PUSH1 0x4 ADD PUSH3 0x647 SWAP1 PUSH3 0x4378 JUMP JUMPDEST PUSH1 0x0 JUMPDEST PUSH1 0x2 DUP2 LT ISZERO PUSH3 0xBCC JUMPI PUSH1 0x0 DUP15 DUP3 PUSH1 0x2 DUP2 LT PUSH3 0xB77 JUMPI PUSH3 0xB77 PUSH3 0x4330 JUMP JUMPDEST PUSH1 0x20 MUL ADD MLOAD SWAP1 POP DUP1 ISZERO PUSH3 0xBB6 JUMPI PUSH3 0xBB6 CALLER ADDRESS DUP4 PUSH1 0x6 DUP7 PUSH1 0x2 DUP2 LT PUSH3 0xBA2 JUMPI PUSH3 0xBA2 PUSH3 0x4330 JUMP JUMPDEST ADD SLOAD PUSH1 0x1 PUSH1 0x1 PUSH1 0xA0 SHL SUB AND SWAP3 SWAP2 SWAP1 PUSH3 0x308C JUMP JUMPDEST POP DUP1 PUSH3 0xBC3 DUP2 PUSH3 0x435C JUMP JUMPDEST SWAP2 POP POP PUSH3 0xB56 JUMP JUMPDEST POP PUSH1 0xC SLOAD PUSH1 0x40 MLOAD PUSH4 0x40C10F19 PUSH1 0xE0 SHL DUP2 MSTORE PUSH1 0x1 PUSH1 0x1 PUSH1 0xA0 SHL SUB SWAP1 SWAP2 AND SWAP1 PUSH4 0x40C10F19 SWAP1 PUSH3 0xC01 SWAP1 CALLER SWAP1 DUP6 SWAP1 PUSH1 0x4 ADD PUSH3 0x43A6 JUMP JUMPDEST PUSH1 0x0 PUSH1 0x40 MLOAD DUP1 DUP4 SUB DUP2 PUSH1 0x0 DUP8 DUP1 EXTCODESIZE ISZERO DUP1 ISZERO PUSH3 0xC1C JUMPI PUSH1 0x0 DUP1 REVERT JUMPDEST POP GAS CALL ISZERO DUP1 ISZERO PUSH3 0xC31 JUMPI RETURNDATASIZE PUSH1 0x0 DUP1 RETURNDATACOPY RETURNDATASIZE PUSH1 0x0 REVERT JUMPDEST POP CALLER SWAP3 POP PUSH32 0x26F55A85081D24974E85C6C00045D0F0453991E95873F52BFF0D21AF4079A768 SWAP2 POP DUP16 SWAP1 POP DUP14 DUP7 PUSH3 0xC69 DUP7 DUP14 PUSH3 0x4346 JUMP JUMPDEST PUSH1 0x40 MLOAD PUSH3 0xC7B SWAP5 SWAP4 SWAP3 SWAP2 SWAP1 PUSH3 0x43E4 JUMP JUMPDEST PUSH1 0x40 MLOAD DUP1 SWAP2 SUB SWAP1 LOG2 POP POP PUSH1 0x1 DUP1 SSTORE POP POP POP POP POP POP POP POP POP POP POP JUMP JUMPDEST CALLER PUSH3 0xCA1 PUSH3 0x225B JUMP JUMPDEST PUSH1 0x1 PUSH1 0x1 PUSH1 0xA0 SHL SUB AND EQ PUSH3 0xCCA JUMPI PUSH1 0x40 MLOAD PUSH3 0x461BCD PUSH1 0xE5 SHL DUP2 MSTORE PUSH1 0x4 ADD PUSH3 0x647 SWAP1 PUSH3 0x4415 JUMP JUMPDEST PUSH1 0x0 PUSH1 0x11 DUP2 SWAP1 SSTORE PUSH1 0x40 MLOAD PUSH32 0x1B4883AF197C705114490F8D84F9CE30BEF6A6199F7B7B649E845577CF0769A1 SWAP2 SWAP1 LOG1 JUMP JUMPDEST PUSH1 0x15 SLOAD PUSH2 0x100 SWAP1 DIV PUSH1 0xFF AND ISZERO PUSH3 0xD54 JUMPI PUSH1 0x40 MLOAD PUSH3 0x461BCD PUSH1 0xE5 SHL DUP2 MSTORE PUSH1 0x20 PUSH1 0x4 DUP3 ADD MSTORE PUSH1 0x1F PUSH1 0x24 DUP3 ADD MSTORE PUSH32 0x4F7065726174696F6E733A20416C726561647920696E697469616C697A656400 PUSH1 0x44 DUP3 ADD MSTORE PUSH1 0x64 ADD PUSH3 0x647 JUMP JUMPDEST CALLER PUSH1 0x1 PUSH1 0x1 PUSH1 0xA0 SHL SUB PUSH32 0x0 AND EQ PUSH3 0xDC8 JUMPI PUSH1 0x40 MLOAD PUSH3 0x461BCD PUSH1 0xE5 SHL DUP2 MSTORE PUSH1 0x20 PUSH1 0x4 DUP3 ADD MSTORE PUSH1 0x17 PUSH1 0x24 DUP3 ADD MSTORE PUSH23 0x4F7065726174696F6E733A204E6F7420666163746F7279 PUSH1 0x48 SHL PUSH1 0x44 DUP3 ADD MSTORE PUSH1 0x64 ADD PUSH3 0x647 JUMP JUMPDEST PUSH3 0xF4240 DUP5 GT ISZERO PUSH3 0xE12 JUMPI PUSH1 0x40 MLOAD PUSH3 0x461BCD PUSH1 0xE5 SHL DUP2 MSTORE PUSH1 0x20 PUSH1 0x4 DUP3 ADD MSTORE PUSH1 0x12 PUSH1 0x24 DUP3 ADD MSTORE PUSH18 0x5F412065786365656473206D6178696D756D PUSH1 0x70 SHL PUSH1 0x44 DUP3 ADD MSTORE PUSH1 0x64 ADD PUSH3 0x647 JUMP JUMPDEST PUSH5 0x12A05F200 DUP4 GT ISZERO PUSH3 0xE60 JUMPI PUSH1 0x40 MLOAD PUSH3 0x461BCD PUSH1 0xE5 SHL DUP2 MSTORE PUSH1 0x20 PUSH1 0x4 DUP3 ADD MSTORE PUSH1 0x14 PUSH1 0x24 DUP3 ADD MSTORE PUSH20 0x5F6665652065786365656473206D6178696D756D PUSH1 0x60 SHL PUSH1 0x44 DUP3 ADD MSTORE PUSH1 0x64 ADD PUSH3 0x647 JUMP JUMPDEST PUSH5 0x2540BE400 DUP3 GT ISZERO PUSH3 0xEB4 JUMPI PUSH1 0x40 MLOAD PUSH3 0x461BCD PUSH1 0xE5 SHL DUP2 MSTORE PUSH1 0x20 PUSH1 0x4 DUP3 ADD MSTORE PUSH1 0x1A PUSH1 0x24 DUP3 ADD MSTORE PUSH26 0x5F61646D696E5F6665652065786365656473206D6178696D756D PUSH1 0x30 SHL PUSH1 0x44 DUP3 ADD MSTORE PUSH1 0x64 ADD PUSH3 0x647 JUMP JUMPDEST PUSH1 0x15 DUP1 SLOAD PUSH2 0xFF00 NOT AND PUSH2 0x100 OR SWAP1 SSTORE PUSH1 0x0 JUMPDEST PUSH1 0x2 DUP2 LT ISZERO PUSH3 0x10A2 JUMPI PUSH1 0x0 DUP7 DUP3 PUSH1 0x2 DUP2 LT PUSH3 0xEE7 JUMPI PUSH3 0xEE7 PUSH3 0x4330 JUMP JUMPDEST PUSH1 0x20 MUL ADD MLOAD PUSH1 0x1 PUSH1 0x1 PUSH1 0xA0 SHL SUB AND SUB PUSH3 0xF33 JUMPI PUSH1 0x40 MLOAD PUSH3 0x461BCD PUSH1 0xE5 SHL DUP2 MSTORE PUSH1 0x20 PUSH1 0x4 DUP3 ADD MSTORE PUSH1 0xC PUSH1 0x24 DUP3 ADD MSTORE PUSH12 0x5A45524F2041646472657373 PUSH1 0xA0 SHL PUSH1 0x44 DUP3 ADD MSTORE PUSH1 0x64 ADD PUSH3 0x647 JUMP JUMPDEST PUSH1 0x0 DUP7 DUP3 PUSH1 0x2 DUP2 LT PUSH3 0xF4A JUMPI PUSH3 0xF4A PUSH3 0x4330 JUMP JUMPDEST PUSH1 0x20 MUL ADD MLOAD PUSH1 0x1 PUSH1 0x1 PUSH1 0xA0 SHL SUB AND PUSH4 0x313CE567 PUSH1 0x40 MLOAD DUP2 PUSH4 0xFFFFFFFF AND PUSH1 0xE0 SHL DUP2 MSTORE PUSH1 0x4 ADD PUSH1 0x20 PUSH1 0x40 MLOAD DUP1 DUP4 SUB DUP2 DUP7 GAS STATICCALL ISZERO DUP1 ISZERO PUSH3 0xF8D JUMPI RETURNDATASIZE PUSH1 0x0 DUP1 RETURNDATACOPY RETURNDATASIZE PUSH1 0x0 REVERT JUMPDEST POP POP POP POP PUSH1 0x40 MLOAD RETURNDATASIZE PUSH1 0x1F NOT PUSH1 0x1F DUP3 ADD AND DUP3 ADD DUP1 PUSH1 0x40 MSTORE POP DUP2 ADD SWAP1 PUSH3 0xFB3 SWAP2 SWAP1 PUSH3 0x444A JUMP JUMPDEST PUSH1 0xFF AND SWAP1 POP PUSH1 0x12 DUP2 GT ISZERO PUSH3 0x1017 JUMPI PUSH1 0x40 MLOAD PUSH3 0x461BCD PUSH1 0xE5 SHL DUP2 MSTORE PUSH1 0x20 PUSH1 0x4 DUP3 ADD MSTORE PUSH1 0x24 DUP1 DUP3 ADD MSTORE PUSH32 0x546865206D6178696D756D20646563696D616C2063616E6E6F74206578636565 PUSH1 0x44 DUP3 ADD MSTORE PUSH4 0xC840627 PUSH1 0xE3 SHL PUSH1 0x64 DUP3 ADD MSTORE PUSH1 0x84 ADD PUSH3 0x647 JUMP JUMPDEST PUSH3 0x1024 DUP2 PUSH1 0x12 PUSH3 0x42C3 JUMP JUMPDEST PUSH3 0x1031 SWAP1 PUSH1 0xA PUSH3 0x456C JUMP JUMPDEST PUSH1 0x2 DUP4 PUSH1 0x2 DUP2 LT PUSH3 0x1047 JUMPI PUSH3 0x1047 PUSH3 0x4330 JUMP JUMPDEST ADD SSTORE PUSH1 0x2 DUP3 DUP2 DUP2 LT PUSH3 0x105E JUMPI PUSH3 0x105E PUSH3 0x4330 JUMP JUMPDEST ADD SLOAD PUSH3 0x1074 SWAP1 PUSH8 0xDE0B6B3A7640000 PUSH3 0x42D9 JUMP JUMPDEST PUSH1 0x4 DUP4 PUSH1 0x2 DUP2 LT PUSH3 0x108A JUMPI PUSH3 0x108A PUSH3 0x4330 JUMP JUMPDEST ADD SSTORE POP DUP1 PUSH3 0x1099 DUP2 PUSH3 0x435C JUMP JUMPDEST SWAP2 POP POP PUSH3 0xEC6 JUMP JUMPDEST POP PUSH1 0x0 PUSH1 0x40 MLOAD DUP1 PUSH1 0x20 ADD PUSH3 0x10B7 SWAP1 PUSH3 0x3F28 JUMP JUMPDEST PUSH1 0x20 DUP3 ADD DUP2 SUB DUP3 MSTORE PUSH1 0x1F NOT PUSH1 0x1F DUP3 ADD AND PUSH1 0x40 MSTORE POP SWAP1 POP PUSH1 0x0 DUP7 CALLER TIMESTAMP CHAINID PUSH1 0x40 MLOAD PUSH1 0x20 ADD PUSH3 0x10E8 SWAP5 SWAP4 SWAP3 SWAP2 SWAP1 PUSH3 0x457A JUMP JUMPDEST PUSH1 0x40 MLOAD PUSH1 0x20 DUP2 DUP4 SUB SUB DUP2 MSTORE SWAP1 PUSH1 0x40 MSTORE DUP1 MLOAD SWAP1 PUSH1 0x20 ADD KECCAK256 SWAP1 POP PUSH1 0x0 DUP2 DUP4 MLOAD PUSH1 0x20 DUP6 ADD PUSH1 0x0 CREATE2 SWAP1 POP PUSH3 0x111D PUSH1 0x6 DUP10 PUSH1 0x2 PUSH3 0x3F36 JUMP JUMPDEST POP PUSH1 0xD DUP8 SWAP1 SSTORE PUSH1 0xE DUP8 SWAP1 SSTORE PUSH1 0xA DUP7 SWAP1 SSTORE PUSH1 0xB DUP6 SWAP1 SSTORE PUSH3 0x1141 PUSH3 0x4F1A00 TIMESTAMP PUSH3 0x4346 JUMP JUMPDEST PUSH1 0x14 SSTORE PUSH1 0xC DUP1 SLOAD PUSH1 0x1 PUSH1 0x1 PUSH1 0xA0 SHL SUB NOT AND PUSH1 0x1 PUSH1 0x1 PUSH1 0xA0 SHL SUB DUP4 AND OR SWAP1 SSTORE PUSH3 0x116A DUP5 PUSH3 0x2F02 JUMP JUMPDEST POP POP POP POP POP POP POP POP JUMP JUMPDEST CALLER PUSH3 0x117F PUSH3 0x225B JUMP JUMPDEST PUSH1 0x1 PUSH1 0x1 PUSH1 0xA0 SHL SUB AND EQ PUSH3 0x11A8 JUMPI PUSH1 0x40 MLOAD PUSH3 0x461BCD PUSH1 0xE5 SHL DUP2 MSTORE PUSH1 0x4 ADD PUSH3 0x647 SWAP1 PUSH3 0x4415 JUMP JUMPDEST PUSH1 0x15 DUP1 SLOAD PUSH1 0xFF NOT AND SWAP1 SSTORE PUSH1 0x40 MLOAD PUSH32 0x61284FFA2814ACE135F62907C78A7CFF0F070EFE7E6A0A42740EA1DA2C8BDC8 SWAP1 PUSH1 0x0 SWAP1 LOG1 JUMP JUMPDEST CALLER PUSH3 0x11E8 PUSH3 0x225B JUMP JUMPDEST PUSH1 0x1 PUSH1 0x1 PUSH1 0xA0 SHL SUB AND EQ PUSH3 0x1211 JUMPI PUSH1 0x40 MLOAD PUSH3 0x461BCD PUSH1 0xE5 SHL DUP2 MSTORE PUSH1 0x4 ADD PUSH3 0x647 SWAP1 PUSH3 0x4415 JUMP JUMPDEST PUSH1 0x0 JUMPDEST PUSH1 0x2 DUP2 LT ISZERO PUSH3 0x1312 JUMPI PUSH1 0x0 PUSH1 0x6 DUP3 PUSH1 0x2 DUP2 LT PUSH3 0x1236 JUMPI PUSH3 0x1236 PUSH3 0x4330 JUMP JUMPDEST ADD SLOAD PUSH1 0x1 PUSH1 0x1 PUSH1 0xA0 SHL SUB AND SWAP1 POP PUSH1 0x0 PUSH1 0x8 DUP4 PUSH1 0x2 DUP2 LT PUSH3 0x125B JUMPI PUSH3 0x125B PUSH3 0x4330 JUMP JUMPDEST ADD SLOAD PUSH1 0x40 MLOAD PUSH4 0x70A08231 PUSH1 0xE0 SHL DUP2 MSTORE PUSH1 0x1 PUSH1 0x1 PUSH1 0xA0 SHL SUB DUP5 AND SWAP1 PUSH4 0x70A08231 SWAP1 PUSH3 0x128B SWAP1 ADDRESS SWAP1 PUSH1 0x4 ADD PUSH3 0x41D8 JUMP JUMPDEST PUSH1 0x20 PUSH1 0x40 MLOAD DUP1 DUP4 SUB DUP2 DUP7 GAS STATICCALL ISZERO DUP1 ISZERO PUSH3 0x12A9 JUMPI RETURNDATASIZE PUSH1 0x0 DUP1 RETURNDATACOPY RETURNDATASIZE PUSH1 0x0 REVERT JUMPDEST POP POP POP POP PUSH1 0x40 MLOAD RETURNDATASIZE PUSH1 0x1F NOT PUSH1 0x1F DUP3 ADD AND DUP3 ADD DUP1 PUSH1 0x40 MSTORE POP DUP2 ADD SWAP1 PUSH3 0x12CF SWAP2 SWAP1 PUSH3 0x4316 JUMP JUMPDEST PUSH3 0x12DB SWAP2 SWAP1 PUSH3 0x42C3 JUMP JUMPDEST SWAP1 POP DUP1 ISZERO PUSH3 0x12FA JUMPI PUSH3 0x12FA PUSH1 0x1 PUSH1 0x1 PUSH1 0xA0 SHL SUB DUP4 AND CALLER DUP4 PUSH3 0x30FF JUMP JUMPDEST POP POP DUP1 DUP1 PUSH3 0x1309 SWAP1 PUSH3 0x435C JUMP JUMPDEST SWAP2 POP POP PUSH3 0x1214 JUMP JUMPDEST POP JUMP JUMPDEST CALLER PUSH3 0x1320 PUSH3 0x225B JUMP JUMPDEST PUSH1 0x1 PUSH1 0x1 PUSH1 0xA0 SHL SUB AND EQ PUSH3 0x1349 JUMPI PUSH1 0x40 MLOAD PUSH3 0x461BCD PUSH1 0xE5 SHL DUP2 MSTORE PUSH1 0x4 ADD PUSH3 0x647 SWAP1 PUSH3 0x4415 JUMP JUMPDEST PUSH3 0x15180 PUSH1 0xF SLOAD PUSH3 0x135C SWAP2 SWAP1 PUSH3 0x4346 JUMP JUMPDEST TIMESTAMP LT ISZERO PUSH3 0x139F JUMPI PUSH1 0x40 MLOAD PUSH3 0x461BCD PUSH1 0xE5 SHL DUP2 MSTORE PUSH1 0x20 PUSH1 0x4 DUP3 ADD MSTORE PUSH1 0xF PUSH1 0x24 DUP3 ADD MSTORE PUSH15 0x646576203A20746F6F206561726C79 PUSH1 0x88 SHL PUSH1 0x44 DUP3 ADD MSTORE PUSH1 0x64 ADD PUSH3 0x647 JUMP JUMPDEST PUSH3 0x13AE PUSH3 0x15180 TIMESTAMP PUSH3 0x4346 JUMP JUMPDEST DUP2 LT ISZERO PUSH3 0x13D0 JUMPI PUSH1 0x40 MLOAD PUSH3 0x461BCD PUSH1 0xE5 SHL DUP2 MSTORE PUSH1 0x4 ADD PUSH3 0x647 SWAP1 PUSH3 0x45D8 JUMP JUMPDEST PUSH1 0x0 PUSH3 0x13DC PUSH3 0x2FB9 JUMP JUMPDEST SWAP1 POP PUSH1 0x0 DUP4 GT DUP1 ISZERO PUSH3 0x13F1 JUMPI POP PUSH3 0xF4240 DUP4 LT JUMPDEST PUSH3 0x144D JUMPI PUSH1 0x40 MLOAD PUSH3 0x461BCD PUSH1 0xE5 SHL DUP2 MSTORE PUSH1 0x20 PUSH1 0x4 DUP3 ADD MSTORE PUSH1 0x25 PUSH1 0x24 DUP3 ADD MSTORE PUSH32 0x5F6675747572655F41206D757374206265206265747765656E203020616E6420 PUSH1 0x44 DUP3 ADD MSTORE PUSH5 0x4D41585F41 PUSH1 0xD8 SHL PUSH1 0x64 DUP3 ADD MSTORE PUSH1 0x84 ADD PUSH3 0x647 JUMP JUMPDEST DUP1 DUP4 LT ISZERO DUP1 ISZERO PUSH3 0x146A JUMPI POP PUSH3 0x1466 PUSH1 0xA DUP3 PUSH3 0x42D9 JUMP JUMPDEST DUP4 GT ISZERO JUMPDEST DUP1 PUSH3 0x148D JUMPI POP DUP1 DUP4 LT DUP1 ISZERO PUSH3 0x148D JUMPI POP DUP1 PUSH3 0x148A PUSH1 0xA DUP6 PUSH3 0x42D9 JUMP JUMPDEST LT ISZERO JUMPDEST PUSH3 0x14D9 JUMPI PUSH1 0x40 MLOAD PUSH3 0x461BCD PUSH1 0xE5 SHL DUP2 MSTORE PUSH1 0x20 PUSH1 0x4 DUP3 ADD MSTORE PUSH1 0x1B PUSH1 0x24 DUP3 ADD MSTORE PUSH27 0x496C6C6567616C20706172616D65746572205F6675747572655F41 PUSH1 0x28 SHL PUSH1 0x44 DUP3 ADD MSTORE PUSH1 0x64 ADD PUSH3 0x647 JUMP JUMPDEST PUSH1 0xD DUP2 SWAP1 SSTORE PUSH1 0xE DUP4 SWAP1 SSTORE TIMESTAMP PUSH1 0xF DUP2 SWAP1 SSTORE PUSH1 0x10 DUP4 SWAP1 SSTORE PUSH1 0x40 MLOAD PUSH32 0xA2B71EC6DF949300B59AAB36B55E189697B750119DD349FCFA8C0F779E83C254 SWAP2 PUSH3 0x1524 SWAP2 DUP5 SWAP2 DUP8 SWAP2 DUP8 SWAP1 PUSH3 0x4608 JUMP JUMPDEST PUSH1 0x40 MLOAD DUP1 SWAP2 SUB SWAP1 LOG1 POP POP POP JUMP JUMPDEST PUSH1 0x8 DUP2 PUSH1 0x2 DUP2 LT PUSH3 0x1542 JUMPI PUSH1 0x0 DUP1 REVERT JUMPDEST ADD SLOAD SWAP1 POP DUP2 JUMP JUMPDEST CALLER PUSH3 0x1554 PUSH3 0x225B JUMP JUMPDEST PUSH1 0x1 PUSH1 0x1 PUSH1 0xA0 SHL SUB AND EQ PUSH3 0x157D JUMPI PUSH1 0x40 MLOAD PUSH3 0x461BCD PUSH1 0xE5 SHL DUP2 MSTORE PUSH1 0x4 ADD PUSH3 0x647 SWAP1 PUSH3 0x4415 JUMP JUMPDEST PUSH1 0x11 SLOAD TIMESTAMP LT ISZERO PUSH3 0x15A2 JUMPI PUSH1 0x40 MLOAD PUSH3 0x461BCD PUSH1 0xE5 SHL DUP2 MSTORE PUSH1 0x4 ADD PUSH3 0x647 SWAP1 PUSH3 0x45D8 JUMP JUMPDEST PUSH1 0x11 SLOAD PUSH1 0x0 SUB PUSH3 0x1605 JUMPI PUSH1 0x40 MLOAD PUSH3 0x461BCD PUSH1 0xE5 SHL DUP2 MSTORE PUSH1 0x20 PUSH1 0x4 DUP3 ADD MSTORE PUSH1 0x26 PUSH1 0x24 DUP3 ADD MSTORE PUSH32 0x61646D696E5F616374696F6E735F646561646C696E652073686F756C64206E6F PUSH1 0x44 DUP3 ADD MSTORE PUSH6 0x74206265203 PUSH1 0xD4 SHL PUSH1 0x64 DUP3 ADD MSTORE PUSH1 0x84 ADD PUSH3 0x647 JUMP JUMPDEST PUSH1 0x0 PUSH1 0x11 SSTORE PUSH1 0x12 SLOAD PUSH1 0xA DUP2 SWAP1 SSTORE PUSH1 0x13 SLOAD PUSH1 0xB DUP2 SWAP1 SSTORE PUSH1 0x40 MLOAD PUSH32 0xBE12859B636AED607D5230B2CC2711F68D70E51060E6CCA1F575EF5D2FCC95D1 SWAP3 PUSH3 0x1652 SWAP3 SWAP1 DUP3 MSTORE PUSH1 0x20 DUP3 ADD MSTORE PUSH1 0x40 ADD SWAP1 JUMP JUMPDEST PUSH1 0x40 MLOAD DUP1 SWAP2 SUB SWAP1 LOG1 JUMP JUMPDEST PUSH1 0x0 DUP1 PUSH3 0x166B DUP5 DUP5 PUSH3 0x3126 JUMP JUMPDEST POP SWAP2 POP POP JUMPDEST SWAP3 SWAP2 POP POP JUMP JUMPDEST CALLER PUSH3 0x1681 PUSH3 0x225B JUMP JUMPDEST PUSH1 0x1 PUSH1 0x1 PUSH1 0xA0 SHL SUB AND EQ PUSH3 0x16AA JUMPI PUSH1 0x40 MLOAD PUSH3 0x461BCD PUSH1 0xE5 SHL DUP2 MSTORE PUSH1 0x4 ADD PUSH3 0x647 SWAP1 PUSH3 0x4415 JUMP JUMPDEST PUSH1 0x0 JUMPDEST PUSH1 0x2 DUP2 LT ISZERO PUSH3 0x176F JUMPI PUSH1 0x6 DUP2 PUSH1 0x2 DUP2 LT PUSH3 0x16CD JUMPI PUSH3 0x16CD PUSH3 0x4330 JUMP JUMPDEST ADD SLOAD PUSH1 0x40 MLOAD PUSH4 0x70A08231 PUSH1 0xE0 SHL DUP2 MSTORE PUSH1 0x1 PUSH1 0x1 PUSH1 0xA0 SHL SUB SWAP1 SWAP2 AND SWAP1 PUSH4 0x70A08231 SWAP1 PUSH3 0x16FE SWAP1 ADDRESS SWAP1 PUSH1 0x4 ADD PUSH3 0x41D8 JUMP JUMPDEST PUSH1 0x20 PUSH1 0x40 MLOAD DUP1 DUP4 SUB DUP2 DUP7 GAS STATICCALL ISZERO DUP1 ISZERO PUSH3 0x171C JUMPI RETURNDATASIZE PUSH1 0x0 DUP1 RETURNDATACOPY RETURNDATASIZE PUSH1 0x0 REVERT JUMPDEST POP POP POP POP PUSH1 0x40 MLOAD RETURNDATASIZE PUSH1 0x1F NOT PUSH1 0x1F DUP3 ADD AND DUP3 ADD DUP1 PUSH1 0x40 MSTORE POP DUP2 ADD SWAP1 PUSH3 0x1742 SWAP2 SWAP1 PUSH3 0x4316 JUMP JUMPDEST PUSH1 0x8 DUP3 PUSH1 0x2 DUP2 LT PUSH3 0x1758 JUMPI PUSH3 0x1758 PUSH3 0x4330 JUMP JUMPDEST ADD SSTORE DUP1 PUSH3 0x1766 DUP2 PUSH3 0x435C JUMP JUMPDEST SWAP2 POP POP PUSH3 0x16AD JUMP JUMPDEST POP PUSH1 0x40 MLOAD PUSH32 0x2C7203581CA666B8C5094C11C03F0B19B3750234A9D281BCBC88A260BCB006DE SWAP1 PUSH1 0x0 SWAP1 LOG1 JUMP JUMPDEST PUSH1 0x40 DUP1 MLOAD DUP1 DUP3 ADD SWAP2 DUP3 SWAP1 MSTORE PUSH1 0x0 SWAP2 DUP3 SWAP2 SWAP1 PUSH1 0x4 SWAP1 PUSH1 0x2 SWAP1 DUP3 DUP5 JUMPDEST DUP2 SLOAD DUP2 MSTORE PUSH1 0x20 ADD SWAP1 PUSH1 0x1 ADD SWAP1 DUP1 DUP4 GT PUSH3 0x17B5 JUMPI POP POP POP POP POP SWAP1 POP PUSH1 0x0 PUSH3 0x17DC PUSH3 0x347D JUMP JUMPDEST SWAP1 POP PUSH1 0x0 PUSH8 0xDE0B6B3A7640000 DUP4 DUP9 PUSH1 0x2 DUP2 LT PUSH3 0x17FE JUMPI PUSH3 0x17FE PUSH3 0x4330 JUMP JUMPDEST PUSH1 0x20 MUL ADD MLOAD PUSH3 0x180F SWAP1 DUP8 PUSH3 0x42D9 JUMP JUMPDEST PUSH3 0x181B SWAP2 SWAP1 PUSH3 0x42F3 JUMP JUMPDEST DUP3 DUP9 PUSH1 0x2 DUP2 LT PUSH3 0x1830 JUMPI PUSH3 0x1830 PUSH3 0x4330 JUMP JUMPDEST PUSH1 0x20 MUL ADD MLOAD PUSH3 0x1841 SWAP2 SWAP1 PUSH3 0x4346 JUMP JUMPDEST SWAP1 POP PUSH1 0x0 PUSH3 0x1853 DUP9 DUP9 DUP5 DUP7 PUSH3 0x354A JUMP JUMPDEST SWAP1 POP PUSH1 0x0 DUP5 DUP9 PUSH1 0x2 DUP2 LT PUSH3 0x186C JUMPI PUSH3 0x186C PUSH3 0x4330 JUMP JUMPDEST PUSH1 0x20 MUL ADD MLOAD PUSH8 0xDE0B6B3A7640000 PUSH1 0x1 DUP5 DUP8 DUP13 PUSH1 0x2 DUP2 LT PUSH3 0x1892 JUMPI PUSH3 0x1892 PUSH3 0x4330 JUMP JUMPDEST PUSH1 0x20 MUL ADD MLOAD PUSH3 0x18A3 SWAP2 SWAP1 PUSH3 0x42C3 JUMP JUMPDEST PUSH3 0x18AF SWAP2 SWAP1 PUSH3 0x42C3 JUMP JUMPDEST PUSH3 0x18BB SWAP2 SWAP1 PUSH3 0x42D9 JUMP JUMPDEST PUSH3 0x18C7 SWAP2 SWAP1 PUSH3 0x42F3 JUMP JUMPDEST SWAP1 POP PUSH1 0x0 PUSH5 0x2540BE400 DUP3 PUSH1 0xA SLOAD PUSH3 0x18E1 SWAP2 SWAP1 PUSH3 0x42D9 JUMP JUMPDEST PUSH3 0x18ED SWAP2 SWAP1 PUSH3 0x42F3 JUMP JUMPDEST SWAP1 POP PUSH3 0x18FB DUP2 DUP4 PUSH3 0x42C3 JUMP JUMPDEST SWAP7 POP POP POP POP POP POP POP JUMPDEST SWAP4 SWAP3 POP POP POP JUMP JUMPDEST PUSH1 0x2 PUSH1 0x1 SLOAD SUB PUSH3 0x1930 JUMPI PUSH1 0x40 MLOAD PUSH3 0x461BCD PUSH1 0xE5 SHL DUP2 MSTORE PUSH1 0x4 ADD PUSH3 0x647 SWAP1 PUSH3 0x4256 JUMP JUMPDEST PUSH1 0x2 PUSH1 0x1 SSTORE PUSH1 0xC SLOAD PUSH1 0x40 DUP1 MLOAD PUSH4 0x18160DDD PUSH1 0xE0 SHL DUP2 MSTORE SWAP1 MLOAD PUSH1 0x0 SWAP3 PUSH1 0x1 PUSH1 0x1 PUSH1 0xA0 SHL SUB AND SWAP2 PUSH4 0x18160DDD SWAP2 PUSH1 0x4 DUP1 DUP4 ADD SWAP3 PUSH1 0x20 SWAP3 SWAP2 SWAP1 DUP3 SWAP1 SUB ADD DUP2 DUP7 GAS STATICCALL ISZERO DUP1 ISZERO PUSH3 0x1980 JUMPI RETURNDATASIZE PUSH1 0x0 DUP1 RETURNDATACOPY RETURNDATASIZE PUSH1 0x0 REVERT JUMPDEST POP POP POP POP PUSH1 0x40 MLOAD RETURNDATASIZE PUSH1 0x1F NOT PUSH1 0x1F DUP3 ADD AND DUP3 ADD DUP1 PUSH1 0x40 MSTORE POP DUP2 ADD SWAP1 PUSH3 0x19A6 SWAP2 SWAP1 PUSH3 0x4316 JUMP JUMPDEST SWAP1 POP PUSH3 0x19B2 PUSH3 0x3ECB JUMP JUMPDEST PUSH3 0x19BC PUSH3 0x3ECB JUMP JUMPDEST PUSH1 0x0 JUMPDEST PUSH1 0x2 DUP2 LT ISZERO PUSH3 0x1B12 JUMPI PUSH1 0x0 DUP5 DUP8 PUSH1 0x8 DUP5 PUSH1 0x2 DUP2 LT PUSH3 0x19E3 JUMPI PUSH3 0x19E3 PUSH3 0x4330 JUMP JUMPDEST ADD SLOAD PUSH3 0x19F1 SWAP2 SWAP1 PUSH3 0x42D9 JUMP JUMPDEST PUSH3 0x19FD SWAP2 SWAP1 PUSH3 0x42F3 JUMP JUMPDEST SWAP1 POP DUP6 DUP3 PUSH1 0x2 DUP2 LT PUSH3 0x1A14 JUMPI PUSH3 0x1A14 PUSH3 0x4330 JUMP JUMPDEST PUSH1 0x20 MUL ADD MLOAD DUP2 LT ISZERO PUSH3 0x1A83 JUMPI PUSH1 0x40 MLOAD PUSH3 0x461BCD PUSH1 0xE5 SHL DUP2 MSTORE PUSH1 0x20 PUSH1 0x4 DUP3 ADD MSTORE PUSH1 0x30 PUSH1 0x24 DUP3 ADD MSTORE PUSH32 0x5769746864726177616C20726573756C74656420696E20666577657220636F69 PUSH1 0x44 DUP3 ADD MSTORE PUSH16 0x1B9CC81D1A185B88195E1C1958DD1959 PUSH1 0x82 SHL PUSH1 0x64 DUP3 ADD MSTORE PUSH1 0x84 ADD PUSH3 0x647 JUMP JUMPDEST DUP1 PUSH1 0x8 DUP4 PUSH1 0x2 DUP2 LT PUSH3 0x1A9A JUMPI PUSH3 0x1A9A PUSH3 0x4330 JUMP JUMPDEST ADD PUSH1 0x0 DUP3 DUP3 SLOAD PUSH3 0x1AAC SWAP2 SWAP1 PUSH3 0x42C3 JUMP JUMPDEST SWAP1 SWAP2 SSTORE POP DUP2 SWAP1 POP DUP5 DUP4 PUSH1 0x2 DUP2 LT PUSH3 0x1AC8 JUMPI PUSH3 0x1AC8 PUSH3 0x4330 JUMP JUMPDEST PUSH1 0x20 MUL ADD MSTORE PUSH3 0x1AFC CALLER DUP3 PUSH1 0x6 DUP6 PUSH1 0x2 DUP2 LT PUSH3 0x1AE9 JUMPI PUSH3 0x1AE9 PUSH3 0x4330 JUMP JUMPDEST ADD SLOAD PUSH1 0x1 PUSH1 0x1 PUSH1 0xA0 SHL SUB AND SWAP2 SWAP1 PUSH3 0x30FF JUMP JUMPDEST POP DUP1 PUSH3 0x1B09 DUP2 PUSH3 0x435C JUMP JUMPDEST SWAP2 POP POP PUSH3 0x19BF JUMP JUMPDEST POP PUSH1 0xC SLOAD PUSH1 0x40 MLOAD PUSH4 0x79CC679 PUSH1 0xE4 SHL DUP2 MSTORE PUSH1 0x1 PUSH1 0x1 PUSH1 0xA0 SHL SUB SWAP1 SWAP2 AND SWAP1 PUSH4 0x79CC6790 SWAP1 PUSH3 0x1B47 SWAP1 CALLER SWAP1 DUP10 SWAP1 PUSH1 0x4 ADD PUSH3 0x43A6 JUMP JUMPDEST PUSH1 0x0 PUSH1 0x40 MLOAD DUP1 DUP4 SUB DUP2 PUSH1 0x0 DUP8 DUP1 EXTCODESIZE ISZERO DUP1 ISZERO PUSH3 0x1B62 JUMPI PUSH1 0x0 DUP1 REVERT JUMPDEST POP GAS CALL ISZERO DUP1 ISZERO PUSH3 0x1B77 JUMPI RETURNDATASIZE PUSH1 0x0 DUP1 RETURNDATACOPY RETURNDATASIZE PUSH1 0x0 REVERT JUMPDEST POP CALLER SWAP3 POP PUSH32 0x7C363854CCF79623411F8995B362BCE5EDDFF18C927EDC6F5DBBB5E05819A82C SWAP2 POP DUP5 SWAP1 POP DUP4 PUSH3 0x1BAE DUP10 DUP9 PUSH3 0x42C3 JUMP JUMPDEST PUSH1 0x40 MLOAD PUSH3 0x1BBF SWAP4 SWAP3 SWAP2 SWAP1 PUSH3 0x4623 JUMP JUMPDEST PUSH1 0x40 MLOAD DUP1 SWAP2 SUB SWAP1 LOG2 POP POP PUSH1 0x1 DUP1 SSTORE POP POP POP JUMP JUMPDEST PUSH1 0x2 PUSH1 0x1 SLOAD SUB PUSH3 0x1BF7 JUMPI PUSH1 0x40 MLOAD PUSH3 0x461BCD PUSH1 0xE5 SHL DUP2 MSTORE PUSH1 0x4 ADD PUSH3 0x647 SWAP1 PUSH3 0x4256 JUMP JUMPDEST PUSH1 0x2 PUSH1 0x1 SSTORE PUSH1 0x15 SLOAD PUSH1 0xFF AND ISZERO PUSH3 0x1C22 JUMPI PUSH1 0x40 MLOAD PUSH3 0x461BCD PUSH1 0xE5 SHL DUP2 MSTORE PUSH1 0x4 ADD PUSH3 0x647 SWAP1 PUSH3 0x428D JUMP JUMPDEST PUSH1 0x40 DUP1 MLOAD DUP1 DUP3 ADD SWAP2 DUP3 SWAP1 MSTORE PUSH1 0x0 SWAP2 PUSH1 0x8 SWAP1 PUSH1 0x2 SWAP1 DUP3 DUP5 JUMPDEST DUP2 SLOAD DUP2 MSTORE PUSH1 0x20 ADD SWAP1 PUSH1 0x1 ADD SWAP1 DUP1 DUP4 GT PUSH3 0x1C39 JUMPI POP POP POP POP POP SWAP1 POP PUSH1 0x0 PUSH3 0x1C61 DUP3 PUSH3 0x377E JUMP JUMPDEST SWAP1 POP PUSH1 0x0 PUSH8 0xDE0B6B3A7640000 PUSH1 0x4 DUP9 PUSH1 0x2 DUP2 LT PUSH3 0x1C84 JUMPI PUSH3 0x1C84 PUSH3 0x4330 JUMP JUMPDEST ADD SLOAD PUSH3 0x1C92 SWAP1 DUP8 PUSH3 0x42D9 JUMP JUMPDEST PUSH3 0x1C9E SWAP2 SWAP1 PUSH3 0x42F3 JUMP JUMPDEST DUP3 DUP9 PUSH1 0x2 DUP2 LT PUSH3 0x1CB3 JUMPI PUSH3 0x1CB3 PUSH3 0x4330 JUMP JUMPDEST PUSH1 0x20 MUL ADD MLOAD PUSH3 0x1CC4 SWAP2 SWAP1 PUSH3 0x4346 JUMP JUMPDEST SWAP1 POP PUSH1 0x0 PUSH3 0x1CD6 DUP9 DUP9 DUP5 DUP7 PUSH3 0x354A JUMP JUMPDEST SWAP1 POP PUSH1 0x0 PUSH1 0x1 DUP3 DUP6 DUP11 PUSH1 0x2 DUP2 LT PUSH3 0x1CF2 JUMPI PUSH3 0x1CF2 PUSH3 0x4330 JUMP JUMPDEST PUSH1 0x20 MUL ADD MLOAD PUSH3 0x1D03 SWAP2 SWAP1 PUSH3 0x42C3 JUMP JUMPDEST PUSH3 0x1D0F SWAP2 SWAP1 PUSH3 0x42C3 JUMP JUMPDEST SWAP1 POP PUSH1 0x0 PUSH5 0x2540BE400 PUSH1 0xA SLOAD DUP4 PUSH3 0x1D29 SWAP2 SWAP1 PUSH3 0x42D9 JUMP JUMPDEST PUSH3 0x1D35 SWAP2 SWAP1 PUSH3 0x42F3 JUMP JUMPDEST SWAP1 POP PUSH1 0x4 DUP10 PUSH1 0x2 DUP2 LT PUSH3 0x1D4D JUMPI PUSH3 0x1D4D PUSH3 0x4330 JUMP JUMPDEST ADD SLOAD PUSH8 0xDE0B6B3A7640000 PUSH3 0x1D64 DUP4 DUP6 PUSH3 0x42C3 JUMP JUMPDEST PUSH3 0x1D70 SWAP2 SWAP1 PUSH3 0x42D9 JUMP JUMPDEST PUSH3 0x1D7C SWAP2 SWAP1 PUSH3 0x42F3 JUMP JUMPDEST SWAP2 POP DUP7 DUP3 LT ISZERO PUSH3 0x1DE7 JUMPI PUSH1 0x40 MLOAD PUSH3 0x461BCD PUSH1 0xE5 SHL DUP2 MSTORE PUSH1 0x20 PUSH1 0x4 DUP3 ADD MSTORE PUSH1 0x2E PUSH1 0x24 DUP3 ADD MSTORE PUSH32 0x45786368616E676520726573756C74656420696E20666577657220636F696E73 PUSH1 0x44 DUP3 ADD MSTORE PUSH14 0x81D1A185B88195E1C1958DD1959 PUSH1 0x92 SHL PUSH1 0x64 DUP3 ADD MSTORE PUSH1 0x84 ADD PUSH3 0x647 JUMP JUMPDEST PUSH1 0x0 PUSH5 0x2540BE400 PUSH1 0xB SLOAD DUP4 PUSH3 0x1DFF SWAP2 SWAP1 PUSH3 0x42D9 JUMP JUMPDEST PUSH3 0x1E0B SWAP2 SWAP1 PUSH3 0x42F3 JUMP JUMPDEST SWAP1 POP PUSH1 0x4 DUP11 PUSH1 0x2 DUP2 LT PUSH3 0x1E23 JUMPI PUSH3 0x1E23 PUSH3 0x4330 JUMP JUMPDEST ADD SLOAD PUSH3 0x1E39 PUSH8 0xDE0B6B3A7640000 DUP4 PUSH3 0x42D9 JUMP JUMPDEST PUSH3 0x1E45 SWAP2 SWAP1 PUSH3 0x42F3 JUMP JUMPDEST SWAP1 POP DUP9 DUP8 DUP13 PUSH1 0x2 DUP2 LT PUSH3 0x1E5D JUMPI PUSH3 0x1E5D PUSH3 0x4330 JUMP JUMPDEST PUSH1 0x20 MUL ADD MLOAD PUSH3 0x1E6E SWAP2 SWAP1 PUSH3 0x4346 JUMP JUMPDEST PUSH1 0x8 DUP13 PUSH1 0x2 DUP2 LT PUSH3 0x1E84 JUMPI PUSH3 0x1E84 PUSH3 0x4330 JUMP JUMPDEST ADD SSTORE DUP1 DUP4 DUP9 DUP13 PUSH1 0x2 DUP2 LT PUSH3 0x1E9D JUMPI PUSH3 0x1E9D PUSH3 0x4330 JUMP JUMPDEST PUSH1 0x20 MUL ADD MLOAD PUSH3 0x1EAE SWAP2 SWAP1 PUSH3 0x42C3 JUMP JUMPDEST PUSH3 0x1EBA SWAP2 SWAP1 PUSH3 0x42C3 JUMP JUMPDEST PUSH1 0x8 DUP12 PUSH1 0x2 DUP2 LT PUSH3 0x1ED0 JUMPI PUSH3 0x1ED0 PUSH3 0x4330 JUMP JUMPDEST ADD SSTORE PUSH1 0x0 PUSH1 0x6 DUP13 PUSH1 0x2 DUP2 LT PUSH3 0x1EEA JUMPI PUSH3 0x1EEA PUSH3 0x4330 JUMP JUMPDEST ADD SLOAD PUSH1 0x1 PUSH1 0x1 PUSH1 0xA0 SHL SUB AND SWAP1 POP PUSH3 0x1F05 DUP2 CALLER ADDRESS DUP14 PUSH3 0x308C JUMP JUMPDEST PUSH1 0x0 PUSH1 0x6 DUP13 PUSH1 0x2 DUP2 LT PUSH3 0x1F1D JUMPI PUSH3 0x1F1D PUSH3 0x4330 JUMP JUMPDEST ADD SLOAD PUSH1 0x1 PUSH1 0x1 PUSH1 0xA0 SHL SUB AND SWAP1 POP PUSH3 0x1F37 DUP2 CALLER DUP8 PUSH3 0x30FF JUMP JUMPDEST CALLER PUSH1 0x1 PUSH1 0x1 PUSH1 0xA0 SHL SUB AND PUSH32 0xB2E76AE99761DC136E598D4A629BB347ECCB9532A5F8BBD72E18467C3C34CC98 DUP15 DUP14 DUP16 DUP10 PUSH1 0x40 MLOAD PUSH3 0xC7B SWAP5 SWAP4 SWAP3 SWAP2 SWAP1 PUSH3 0x4608 JUMP JUMPDEST CALLER PUSH3 0x1F83 PUSH3 0x225B JUMP JUMPDEST PUSH1 0x1 PUSH1 0x1 PUSH1 0xA0 SHL SUB AND EQ PUSH3 0x1FAC JUMPI PUSH1 0x40 MLOAD PUSH3 0x461BCD PUSH1 0xE5 SHL DUP2 MSTORE PUSH1 0x4 ADD PUSH3 0x647 SWAP1 PUSH3 0x4415 JUMP JUMPDEST PUSH1 0x11 SLOAD ISZERO PUSH3 0x1FFE JUMPI PUSH1 0x40 MLOAD PUSH3 0x461BCD PUSH1 0xE5 SHL DUP2 MSTORE PUSH1 0x20 PUSH1 0x4 DUP3 ADD DUP2 SWAP1 MSTORE PUSH1 0x24 DUP3 ADD MSTORE PUSH32 0x61646D696E5F616374696F6E735F646561646C696E65206D7573742062652030 PUSH1 0x44 DUP3 ADD MSTORE PUSH1 0x64 ADD PUSH3 0x647 JUMP JUMPDEST PUSH5 0x12A05F200 DUP3 GT ISZERO PUSH3 0x2050 JUMPI PUSH1 0x40 MLOAD PUSH3 0x461BCD PUSH1 0xE5 SHL DUP2 MSTORE PUSH1 0x20 PUSH1 0x4 DUP3 ADD MSTORE PUSH1 0x18 PUSH1 0x24 DUP3 ADD MSTORE PUSH24 0x6465763A206665652065786365656473206D6178696D756D PUSH1 0x40 SHL PUSH1 0x44 DUP3 ADD MSTORE PUSH1 0x64 ADD PUSH3 0x647 JUMP JUMPDEST PUSH5 0x2540BE400 DUP2 GT ISZERO PUSH3 0x20A7 JUMPI PUSH1 0x40 MLOAD PUSH3 0x461BCD PUSH1 0xE5 SHL DUP2 MSTORE PUSH1 0x20 PUSH1 0x4 DUP3 ADD MSTORE PUSH1 0x1E PUSH1 0x24 DUP3 ADD MSTORE PUSH32 0x6465763A2061646D696E206665652065786365656473206D6178696D756D0000 PUSH1 0x44 DUP3 ADD MSTORE PUSH1 0x64 ADD PUSH3 0x647 JUMP JUMPDEST PUSH3 0x20B6 PUSH3 0x3F480 TIMESTAMP PUSH3 0x4346 JUMP JUMPDEST PUSH1 0x11 DUP2 SWAP1 SSTORE PUSH1 0x12 DUP4 SWAP1 SSTORE PUSH1 0x13 DUP3 SWAP1 SSTORE PUSH1 0x40 DUP1 MLOAD DUP5 DUP2 MSTORE PUSH1 0x20 DUP2 ADD DUP5 SWAP1 MSTORE PUSH32 0x351FC5DA2FBF480F2225DEBF3664A4BC90FA9923743AAD58B4603F648E931FE0 SWAP2 ADD PUSH1 0x40 MLOAD DUP1 SWAP2 SUB SWAP1 LOG2 POP POP JUMP JUMPDEST PUSH1 0x4 DUP2 PUSH1 0x2 DUP2 LT PUSH3 0x1542 JUMPI PUSH1 0x0 DUP1 REVERT JUMPDEST CALLER PUSH3 0x211E PUSH3 0x225B JUMP JUMPDEST PUSH1 0x1 PUSH1 0x1 PUSH1 0xA0 SHL SUB AND EQ PUSH3 0x2147 JUMPI PUSH1 0x40 MLOAD PUSH3 0x461BCD PUSH1 0xE5 SHL DUP2 MSTORE PUSH1 0x4 ADD PUSH3 0x647 SWAP1 PUSH3 0x4415 JUMP JUMPDEST PUSH3 0x2153 PUSH1 0x0 PUSH3 0x384F JUMP JUMPDEST JUMP JUMPDEST PUSH1 0x2 DUP2 PUSH1 0x2 DUP2 LT PUSH3 0x1542 JUMPI PUSH1 0x0 DUP1 REVERT JUMPDEST PUSH1 0x0 DUP1 PUSH3 0x2173 PUSH3 0x347D JUMP JUMPDEST PUSH1 0x40 DUP1 MLOAD DUP1 DUP3 ADD SWAP2 DUP3 SWAP1 MSTORE SWAP2 SWAP3 POP PUSH1 0x0 SWAP2 SWAP1 PUSH1 0x2 SWAP1 DUP2 SWAP1 DUP2 DUP5 JUMPDEST DUP2 SLOAD DUP2 MSTORE PUSH1 0x20 ADD SWAP1 PUSH1 0x1 ADD SWAP1 DUP1 DUP4 GT PUSH3 0x218D JUMPI POP POP POP POP POP SWAP1 POP PUSH1 0x0 DUP2 DUP8 PUSH1 0x2 DUP2 LT PUSH3 0x21BF JUMPI PUSH3 0x21BF PUSH3 0x4330 JUMP JUMPDEST PUSH1 0x20 MUL ADD MLOAD PUSH3 0x21D0 SWAP1 DUP7 PUSH3 0x42D9 JUMP JUMPDEST DUP4 DUP9 PUSH1 0x2 DUP2 LT PUSH3 0x21E5 JUMPI PUSH3 0x21E5 PUSH3 0x4330 JUMP JUMPDEST PUSH1 0x20 MUL ADD MLOAD PUSH3 0x21F6 SWAP2 SWAP1 PUSH3 0x4346 JUMP JUMPDEST SWAP1 POP PUSH1 0x0 PUSH3 0x2208 DUP9 DUP9 DUP5 DUP8 PUSH3 0x354A JUMP JUMPDEST SWAP1 POP PUSH1 0x0 DUP4 DUP9 PUSH1 0x2 DUP2 LT PUSH3 0x2221 JUMPI PUSH3 0x2221 PUSH3 0x4330 JUMP JUMPDEST PUSH1 0x20 MUL ADD MLOAD PUSH1 0x1 DUP4 DUP8 DUP12 PUSH1 0x2 DUP2 LT PUSH3 0x223E JUMPI PUSH3 0x223E PUSH3 0x4330 JUMP JUMPDEST PUSH1 0x20 MUL ADD MLOAD PUSH3 0x224F SWAP2 SWAP1 PUSH3 0x42C3 JUMP JUMPDEST PUSH3 0x18BB SWAP2 SWAP1 PUSH3 0x42C3 JUMP JUMPDEST PUSH1 0x0 SLOAD PUSH1 0x1 PUSH1 0x1 PUSH1 0xA0 SHL SUB AND SWAP1 JUMP JUMPDEST PUSH1 0x0 DUP1 PUSH3 0x228B PUSH3 0x227B PUSH3 0x347D JUMP JUMPDEST PUSH3 0x2285 PUSH3 0x2FB9 JUMP JUMPDEST PUSH3 0x389F JUMP JUMPDEST SWAP1 POP PUSH1 0x0 PUSH1 0xC PUSH1 0x0 SWAP1 SLOAD SWAP1 PUSH2 0x100 EXP SWAP1 DIV PUSH1 0x1 PUSH1 0x1 PUSH1 0xA0 SHL SUB AND PUSH1 0x1 PUSH1 0x1 PUSH1 0xA0 SHL SUB AND PUSH4 0x18160DDD PUSH1 0x40 MLOAD DUP2 PUSH4 0xFFFFFFFF AND PUSH1 0xE0 SHL DUP2 MSTORE PUSH1 0x4 ADD PUSH1 0x20 PUSH1 0x40 MLOAD DUP1 DUP4 SUB DUP2 DUP7 GAS STATICCALL ISZERO DUP1 ISZERO PUSH3 0x22E3 JUMPI RETURNDATASIZE PUSH1 0x0 DUP1 RETURNDATACOPY RETURNDATASIZE PUSH1 0x0 REVERT JUMPDEST POP POP POP POP PUSH1 0x40 MLOAD RETURNDATASIZE PUSH1 0x1F NOT PUSH1 0x1F DUP3 ADD AND DUP3 ADD DUP1 PUSH1 0x40 MSTORE POP DUP2 ADD SWAP1 PUSH3 0x2309 SWAP2 SWAP1 PUSH3 0x4316 JUMP JUMPDEST SWAP1 POP DUP1 PUSH3 0x2320 PUSH8 0xDE0B6B3A7640000 DUP5 PUSH3 0x42D9 JUMP JUMPDEST PUSH3 0x232C SWAP2 SWAP1 PUSH3 0x42F3 JUMP JUMPDEST SWAP3 POP POP POP SWAP1 JUMP JUMPDEST PUSH1 0x6 DUP2 PUSH1 0x2 DUP2 LT PUSH3 0x2344 JUMPI PUSH1 0x0 DUP1 REVERT JUMPDEST ADD SLOAD PUSH1 0x1 PUSH1 0x1 PUSH1 0xA0 SHL SUB AND SWAP1 POP DUP2 JUMP JUMPDEST CALLER PUSH3 0x235F PUSH3 0x225B JUMP JUMPDEST PUSH1 0x1 PUSH1 0x1 PUSH1 0xA0 SHL SUB AND EQ PUSH3 0x2388 JUMPI PUSH1 0x40 MLOAD PUSH3 0x461BCD PUSH1 0xE5 SHL DUP2 MSTORE PUSH1 0x4 ADD PUSH3 0x647 SWAP1 PUSH3 0x4415 JUMP JUMPDEST PUSH1 0x0 PUSH3 0x2394 PUSH3 0x2FB9 JUMP JUMPDEST PUSH1 0xD DUP2 SWAP1 SSTORE PUSH1 0xE DUP2 SWAP1 SSTORE TIMESTAMP PUSH1 0xF DUP2 SWAP1 SSTORE PUSH1 0x10 DUP2 SWAP1 SSTORE PUSH1 0x40 MLOAD SWAP2 SWAP3 POP PUSH32 0x46E22FB3709AD289F62CE63D469248536DBC78D82B84A3D7E74AD606DC201938 SWAP2 PUSH3 0x23E4 SWAP2 DUP5 DUP3 MSTORE PUSH1 0x20 DUP3 ADD MSTORE PUSH1 0x40 ADD SWAP1 JUMP JUMPDEST PUSH1 0x40 MLOAD DUP1 SWAP2 SUB SWAP1 LOG1 POP JUMP JUMPDEST PUSH1 0x0 PUSH1 0x8 DUP3 PUSH1 0x2 DUP2 LT PUSH3 0x2407 JUMPI PUSH3 0x2407 PUSH3 0x4330 JUMP JUMPDEST ADD SLOAD PUSH1 0x6 DUP4 PUSH1 0x2 DUP2 LT PUSH3 0x241F JUMPI PUSH3 0x241F PUSH3 0x4330 JUMP JUMPDEST ADD SLOAD PUSH1 0x40 MLOAD PUSH4 0x70A08231 PUSH1 0xE0 SHL DUP2 MSTORE PUSH1 0x1 PUSH1 0x1 PUSH1 0xA0 SHL SUB SWAP1 SWAP2 AND SWAP1 PUSH4 0x70A08231 SWAP1 PUSH3 0x2450 SWAP1 ADDRESS SWAP1 PUSH1 0x4 ADD PUSH3 0x41D8 JUMP JUMPDEST PUSH1 0x20 PUSH1 0x40 MLOAD DUP1 DUP4 SUB DUP2 DUP7 GAS STATICCALL ISZERO DUP1 ISZERO PUSH3 0x246E JUMPI RETURNDATASIZE PUSH1 0x0 DUP1 RETURNDATACOPY RETURNDATASIZE PUSH1 0x0 REVERT JUMPDEST POP POP POP POP PUSH1 0x40 MLOAD RETURNDATASIZE PUSH1 0x1F NOT PUSH1 0x1F DUP3 ADD AND DUP3 ADD DUP1 PUSH1 0x40 MSTORE POP DUP2 ADD SWAP1 PUSH3 0x2494 SWAP2 SWAP1 PUSH3 0x4316 JUMP JUMPDEST PUSH3 0x1670 SWAP2 SWAP1 PUSH3 0x42C3 JUMP JUMPDEST PUSH1 0x2 PUSH1 0x1 SLOAD SUB PUSH3 0x24C5 JUMPI PUSH1 0x40 MLOAD PUSH3 0x461BCD PUSH1 0xE5 SHL DUP2 MSTORE PUSH1 0x4 ADD PUSH3 0x647 SWAP1 PUSH3 0x4256 JUMP JUMPDEST PUSH1 0x2 PUSH1 0x1 SSTORE PUSH1 0x15 SLOAD PUSH1 0xFF AND ISZERO PUSH3 0x24F0 JUMPI PUSH1 0x40 MLOAD PUSH3 0x461BCD PUSH1 0xE5 SHL DUP2 MSTORE PUSH1 0x4 ADD PUSH3 0x647 SWAP1 PUSH3 0x428D JUMP JUMPDEST PUSH1 0xC SLOAD PUSH1 0x40 DUP1 MLOAD PUSH4 0x18160DDD PUSH1 0xE0 SHL DUP2 MSTORE SWAP1 MLOAD PUSH1 0x0 SWAP3 PUSH1 0x1 PUSH1 0x1 PUSH1 0xA0 SHL SUB AND SWAP2 PUSH4 0x18160DDD SWAP2 PUSH1 0x4 DUP1 DUP4 ADD SWAP3 PUSH1 0x20 SWAP3 SWAP2 SWAP1 DUP3 SWAP1 SUB ADD DUP2 DUP7 GAS STATICCALL ISZERO DUP1 ISZERO PUSH3 0x253B JUMPI RETURNDATASIZE PUSH1 0x0 DUP1 RETURNDATACOPY RETURNDATASIZE PUSH1 0x0 REVERT JUMPDEST POP POP POP POP PUSH1 0x40 MLOAD RETURNDATASIZE PUSH1 0x1F NOT PUSH1 0x1F DUP3 ADD AND DUP3 ADD DUP1 PUSH1 0x40 MSTORE POP DUP2 ADD SWAP1 PUSH3 0x2561 SWAP2 SWAP1 PUSH3 0x4316 JUMP JUMPDEST SWAP1 POP PUSH1 0x0 DUP2 GT PUSH3 0x25AE JUMPI PUSH1 0x40 MLOAD PUSH3 0x461BCD PUSH1 0xE5 SHL DUP2 MSTORE PUSH1 0x20 PUSH1 0x4 DUP3 ADD MSTORE PUSH1 0x16 PUSH1 0x24 DUP3 ADD MSTORE PUSH22 0x6465763A207A65726F20746F74616C20737570706C79 PUSH1 0x50 SHL PUSH1 0x44 DUP3 ADD MSTORE PUSH1 0x64 ADD PUSH3 0x647 JUMP JUMPDEST PUSH1 0x0 PUSH3 0x25BE PUSH1 0x1 PUSH1 0x2 PUSH3 0x42C3 JUMP JUMPDEST PUSH3 0x25CB SWAP1 PUSH1 0x4 PUSH3 0x42D9 JUMP JUMPDEST PUSH1 0x2 PUSH1 0xA SLOAD PUSH3 0x25DC SWAP2 SWAP1 PUSH3 0x42D9 JUMP JUMPDEST PUSH3 0x25E8 SWAP2 SWAP1 PUSH3 0x42F3 JUMP JUMPDEST PUSH1 0xB SLOAD SWAP1 SWAP2 POP PUSH1 0x0 PUSH3 0x25FA PUSH3 0x2FB9 JUMP JUMPDEST PUSH1 0x40 DUP1 MLOAD DUP1 DUP3 ADD SWAP2 DUP3 SWAP1 MSTORE SWAP2 SWAP3 POP PUSH1 0x0 SWAP2 SWAP1 PUSH1 0x8 SWAP1 PUSH1 0x2 SWAP1 DUP3 DUP5 JUMPDEST DUP2 SLOAD DUP2 MSTORE PUSH1 0x20 ADD SWAP1 PUSH1 0x1 ADD SWAP1 DUP1 DUP4 GT PUSH3 0x2615 JUMPI POP POP POP POP POP SWAP1 POP PUSH1 0x0 DUP2 SWAP1 POP PUSH1 0x0 PUSH3 0x2643 DUP4 DUP6 PUSH3 0x3074 JUMP JUMPDEST SWAP1 POP PUSH1 0x0 JUMPDEST PUSH1 0x2 DUP2 LT ISZERO PUSH3 0x26AC JUMPI DUP10 DUP2 PUSH1 0x2 DUP2 LT PUSH3 0x2667 JUMPI PUSH3 0x2667 PUSH3 0x4330 JUMP JUMPDEST PUSH1 0x20 MUL ADD MLOAD DUP4 DUP3 PUSH1 0x2 DUP2 LT PUSH3 0x2681 JUMPI PUSH3 0x2681 PUSH3 0x4330 JUMP JUMPDEST PUSH1 0x20 MUL ADD DUP2 DUP2 MLOAD PUSH3 0x2694 SWAP2 SWAP1 PUSH3 0x42C3 JUMP JUMPDEST SWAP1 MSTORE POP DUP1 PUSH3 0x26A3 DUP2 PUSH3 0x435C JUMP JUMPDEST SWAP2 POP POP PUSH3 0x2648 JUMP JUMPDEST POP PUSH1 0x0 PUSH3 0x26BB DUP4 DUP7 PUSH3 0x3074 JUMP JUMPDEST SWAP1 POP PUSH3 0x26C7 PUSH3 0x3ECB JUMP JUMPDEST PUSH1 0x0 JUMPDEST PUSH1 0x2 DUP2 LT ISZERO PUSH3 0x2894 JUMPI PUSH1 0x0 DUP5 DUP8 DUP4 PUSH1 0x2 DUP2 LT PUSH3 0x26EC JUMPI PUSH3 0x26EC PUSH3 0x4330 JUMP JUMPDEST PUSH1 0x20 MUL ADD MLOAD PUSH3 0x26FD SWAP1 DUP7 PUSH3 0x42D9 JUMP JUMPDEST PUSH3 0x2709 SWAP2 SWAP1 PUSH3 0x42F3 JUMP JUMPDEST SWAP1 POP PUSH1 0x0 DUP7 DUP4 PUSH1 0x2 DUP2 LT PUSH3 0x2722 JUMPI PUSH3 0x2722 PUSH3 0x4330 JUMP JUMPDEST PUSH1 0x20 MUL ADD MLOAD DUP3 GT ISZERO PUSH3 0x275D JUMPI DUP7 DUP4 PUSH1 0x2 DUP2 LT PUSH3 0x2744 JUMPI PUSH3 0x2744 PUSH3 0x4330 JUMP JUMPDEST PUSH1 0x20 MUL ADD MLOAD PUSH3 0x2755 SWAP1 DUP4 PUSH3 0x42C3 JUMP JUMPDEST SWAP1 POP PUSH3 0x2787 JUMP JUMPDEST DUP2 DUP8 DUP5 PUSH1 0x2 DUP2 LT PUSH3 0x2773 JUMPI PUSH3 0x2773 PUSH3 0x4330 JUMP JUMPDEST PUSH1 0x20 MUL ADD MLOAD PUSH3 0x2784 SWAP2 SWAP1 PUSH3 0x42C3 JUMP JUMPDEST SWAP1 POP JUMPDEST PUSH5 0x2540BE400 PUSH3 0x2799 DUP3 DUP14 PUSH3 0x42D9 JUMP JUMPDEST PUSH3 0x27A5 SWAP2 SWAP1 PUSH3 0x42F3 JUMP JUMPDEST DUP5 DUP5 PUSH1 0x2 DUP2 LT PUSH3 0x27BA JUMPI PUSH3 0x27BA PUSH3 0x4330 JUMP JUMPDEST PUSH1 0x20 MUL ADD MSTORE PUSH5 0x2540BE400 DUP11 DUP6 DUP6 PUSH1 0x2 DUP2 LT PUSH3 0x27DB JUMPI PUSH3 0x27DB PUSH3 0x4330 JUMP JUMPDEST PUSH1 0x20 MUL ADD MLOAD PUSH3 0x27EC SWAP2 SWAP1 PUSH3 0x42D9 JUMP JUMPDEST PUSH3 0x27F8 SWAP2 SWAP1 PUSH3 0x42F3 JUMP JUMPDEST DUP8 DUP5 PUSH1 0x2 DUP2 LT PUSH3 0x280D JUMPI PUSH3 0x280D PUSH3 0x4330 JUMP JUMPDEST PUSH1 0x20 MUL ADD MLOAD PUSH3 0x281E SWAP2 SWAP1 PUSH3 0x42C3 JUMP JUMPDEST PUSH1 0x8 DUP5 PUSH1 0x2 DUP2 LT PUSH3 0x2834 JUMPI PUSH3 0x2834 PUSH3 0x4330 JUMP JUMPDEST ADD SSTORE DUP4 DUP4 PUSH1 0x2 DUP2 LT PUSH3 0x284B JUMPI PUSH3 0x284B PUSH3 0x4330 JUMP JUMPDEST PUSH1 0x20 MUL ADD MLOAD DUP8 DUP5 PUSH1 0x2 DUP2 LT PUSH3 0x2865 JUMPI PUSH3 0x2865 PUSH3 0x4330 JUMP JUMPDEST PUSH1 0x20 MUL ADD DUP2 DUP2 MLOAD PUSH3 0x2878 SWAP2 SWAP1 PUSH3 0x42C3 JUMP JUMPDEST SWAP1 MSTORE POP DUP3 SWAP2 POP PUSH3 0x288B SWAP1 POP DUP2 PUSH3 0x435C JUMP JUMPDEST SWAP2 POP POP PUSH3 0x26CA JUMP JUMPDEST POP PUSH1 0x0 PUSH3 0x28A3 DUP6 DUP9 PUSH3 0x3074 JUMP JUMPDEST SWAP1 POP PUSH1 0x0 DUP5 DUP12 PUSH3 0x28B5 DUP5 DUP4 PUSH3 0x42C3 JUMP JUMPDEST PUSH3 0x28C1 SWAP2 SWAP1 PUSH3 0x42D9 JUMP JUMPDEST PUSH3 0x28CD SWAP2 SWAP1 PUSH3 0x42F3 JUMP JUMPDEST SWAP1 POP PUSH1 0x0 DUP2 GT PUSH3 0x292D JUMPI PUSH1 0x40 MLOAD PUSH3 0x461BCD PUSH1 0xE5 SHL DUP2 MSTORE PUSH1 0x20 PUSH1 0x4 DUP3 ADD MSTORE PUSH1 0x23 PUSH1 0x24 DUP3 ADD MSTORE PUSH32 0x746F6B656E5F616D6F756E74206D757374206265206772656174657220746861 PUSH1 0x44 DUP3 ADD MSTORE PUSH3 0x6E203 PUSH1 0xEC SHL PUSH1 0x64 DUP3 ADD MSTORE PUSH1 0x84 ADD PUSH3 0x647 JUMP JUMPDEST PUSH3 0x293A PUSH1 0x1 DUP3 PUSH3 0x4346 JUMP JUMPDEST SWAP1 POP DUP12 DUP2 GT ISZERO PUSH3 0x295F JUMPI PUSH1 0x40 MLOAD PUSH3 0x461BCD PUSH1 0xE5 SHL DUP2 MSTORE PUSH1 0x4 ADD PUSH3 0x647 SWAP1 PUSH3 0x4378 JUMP JUMPDEST PUSH1 0xC SLOAD PUSH1 0x40 MLOAD PUSH4 0x79CC679 PUSH1 0xE4 SHL DUP2 MSTORE PUSH1 0x1 PUSH1 0x1 PUSH1 0xA0 SHL SUB SWAP1 SWAP2 AND SWAP1 PUSH4 0x79CC6790 SWAP1 PUSH3 0x2993 SWAP1 CALLER SWAP1 DUP6 SWAP1 PUSH1 0x4 ADD PUSH3 0x43A6 JUMP JUMPDEST PUSH1 0x0 PUSH1 0x40 MLOAD DUP1 DUP4 SUB DUP2 PUSH1 0x0 DUP8 DUP1 EXTCODESIZE ISZERO DUP1 ISZERO PUSH3 0x29AE JUMPI PUSH1 0x0 DUP1 REVERT JUMPDEST POP GAS CALL ISZERO DUP1 ISZERO PUSH3 0x29C3 JUMPI RETURNDATASIZE PUSH1 0x0 DUP1 RETURNDATACOPY RETURNDATASIZE PUSH1 0x0 REVERT JUMPDEST POP POP POP POP PUSH1 0x0 JUMPDEST PUSH1 0x2 DUP2 LT ISZERO PUSH3 0x2A41 JUMPI PUSH1 0x0 DUP15 DUP3 PUSH1 0x2 DUP2 LT PUSH3 0x29EB JUMPI PUSH3 0x29EB PUSH3 0x4330 JUMP JUMPDEST PUSH1 0x20 MUL ADD MLOAD GT ISZERO PUSH3 0x2A2C JUMPI PUSH3 0x2A2C CALLER DUP16 DUP4 PUSH1 0x2 DUP2 LT PUSH3 0x2A11 JUMPI PUSH3 0x2A11 PUSH3 0x4330 JUMP JUMPDEST PUSH1 0x20 MUL ADD MLOAD PUSH1 0x6 DUP5 PUSH1 0x2 DUP2 LT PUSH3 0x1AE9 JUMPI PUSH3 0x1AE9 PUSH3 0x4330 JUMP JUMPDEST DUP1 PUSH3 0x2A38 DUP2 PUSH3 0x435C JUMP JUMPDEST SWAP2 POP POP PUSH3 0x29CA JUMP JUMPDEST POP PUSH3 0x2A4E DUP2 DUP13 PUSH3 0x42C3 JUMP JUMPDEST SWAP11 POP CALLER PUSH1 0x1 PUSH1 0x1 PUSH1 0xA0 SHL SUB AND PUSH32 0x2B5508378D7E19E0D5FA338419034731416C4F5B219A10379956F764317FD47E DUP15 DUP6 DUP8 DUP16 PUSH1 0x40 MLOAD PUSH3 0xC7B SWAP5 SWAP4 SWAP3 SWAP2 SWAP1 PUSH3 0x43E4 JUMP JUMPDEST CALLER PUSH3 0x2A9C PUSH3 0x225B JUMP JUMPDEST PUSH1 0x1 PUSH1 0x1 PUSH1 0xA0 SHL SUB AND EQ PUSH3 0x2AC5 JUMPI PUSH1 0x40 MLOAD PUSH3 0x461BCD PUSH1 0xE5 SHL DUP2 MSTORE PUSH1 0x4 ADD PUSH3 0x647 SWAP1 PUSH3 0x4415 JUMP JUMPDEST TIMESTAMP PUSH1 0x14 SLOAD GT PUSH3 0x2B0C JUMPI PUSH1 0x40 MLOAD PUSH3 0x461BCD PUSH1 0xE5 SHL DUP2 MSTORE PUSH1 0x20 PUSH1 0x4 DUP3 ADD MSTORE PUSH1 0x11 PUSH1 0x24 DUP3 ADD MSTORE PUSH17 0x457863656564656420646561646C696E65 PUSH1 0x78 SHL PUSH1 0x44 DUP3 ADD MSTORE PUSH1 0x64 ADD PUSH3 0x647 JUMP JUMPDEST PUSH1 0x15 DUP1 SLOAD PUSH1 0xFF NOT AND PUSH1 0x1 OR SWAP1 SSTORE PUSH1 0x40 MLOAD PUSH32 0xBE26733C2BF6FF3EA5BA8CFE744422BD49052FF9ED5685C9E81E6F9321DBADDD SWAP1 PUSH1 0x0 SWAP1 LOG1 JUMP JUMPDEST PUSH1 0x40 DUP1 MLOAD DUP1 DUP3 ADD SWAP2 DUP3 SWAP1 MSTORE PUSH1 0x0 SWAP2 DUP3 SWAP2 SWAP1 PUSH1 0x8 SWAP1 PUSH1 0x2 SWAP1 DUP3 DUP5 JUMPDEST DUP2 SLOAD DUP2 MSTORE PUSH1 0x20 ADD SWAP1 PUSH1 0x1 ADD SWAP1 DUP1 DUP4 GT PUSH3 0x2B5E JUMPI POP POP POP POP POP SWAP1 POP PUSH1 0x0 PUSH3 0x2B85 PUSH3 0x2FB9 JUMP JUMPDEST SWAP1 POP PUSH1 0x0 PUSH3 0x2B95 DUP4 DUP4 PUSH3 0x3074 JUMP JUMPDEST SWAP1 POP PUSH1 0x0 JUMPDEST PUSH1 0x2 DUP2 LT ISZERO PUSH3 0x2C51 JUMPI DUP6 ISZERO PUSH3 0x2BF6 JUMPI DUP7 DUP2 PUSH1 0x2 DUP2 LT PUSH3 0x2BC0 JUMPI PUSH3 0x2BC0 PUSH3 0x4330 JUMP JUMPDEST PUSH1 0x20 MUL ADD MLOAD DUP5 DUP3 PUSH1 0x2 DUP2 LT PUSH3 0x2BDA JUMPI PUSH3 0x2BDA PUSH3 0x4330 JUMP JUMPDEST PUSH1 0x20 MUL ADD DUP2 DUP2 MLOAD PUSH3 0x2BED SWAP2 SWAP1 PUSH3 0x4346 JUMP JUMPDEST SWAP1 MSTORE POP PUSH3 0x2C3C JUMP JUMPDEST DUP7 DUP2 PUSH1 0x2 DUP2 LT PUSH3 0x2C0B JUMPI PUSH3 0x2C0B PUSH3 0x4330 JUMP JUMPDEST PUSH1 0x20 MUL ADD MLOAD DUP5 DUP3 PUSH1 0x2 DUP2 LT PUSH3 0x2C25 JUMPI PUSH3 0x2C25 PUSH3 0x4330 JUMP JUMPDEST PUSH1 0x20 MUL ADD DUP2 DUP2 MLOAD PUSH3 0x2C38 SWAP2 SWAP1 PUSH3 0x42C3 JUMP JUMPDEST SWAP1 MSTORE POP JUMPDEST DUP1 PUSH3 0x2C48 DUP2 PUSH3 0x435C JUMP JUMPDEST SWAP2 POP POP PUSH3 0x2B9A JUMP JUMPDEST POP PUSH1 0x0 PUSH3 0x2C60 DUP5 DUP5 PUSH3 0x3074 JUMP JUMPDEST SWAP1 POP PUSH1 0x0 PUSH1 0xC PUSH1 0x0 SWAP1 SLOAD SWAP1 PUSH2 0x100 EXP SWAP1 DIV PUSH1 0x1 PUSH1 0x1 PUSH1 0xA0 SHL SUB AND PUSH1 0x1 PUSH1 0x1 PUSH1 0xA0 SHL SUB AND PUSH4 0x18160DDD PUSH1 0x40 MLOAD DUP2 PUSH4 0xFFFFFFFF AND PUSH1 0xE0 SHL DUP2 MSTORE PUSH1 0x4 ADD PUSH1 0x20 PUSH1 0x40 MLOAD DUP1 DUP4 SUB DUP2 DUP7 GAS STATICCALL ISZERO DUP1 ISZERO PUSH3 0x2CB8 JUMPI RETURNDATASIZE PUSH1 0x0 DUP1 RETURNDATACOPY RETURNDATASIZE PUSH1 0x0 REVERT JUMPDEST POP POP POP POP PUSH1 0x40 MLOAD RETURNDATASIZE PUSH1 0x1F NOT PUSH1 0x1F DUP3 ADD AND DUP3 ADD DUP1 PUSH1 0x40 MSTORE POP DUP2 ADD SWAP1 PUSH3 0x2CDE SWAP2 SWAP1 PUSH3 0x4316 JUMP JUMPDEST SWAP1 POP PUSH1 0x0 DUP8 ISZERO PUSH3 0x2CFD JUMPI PUSH3 0x2CF5 DUP5 DUP5 PUSH3 0x42C3 JUMP JUMPDEST SWAP1 POP PUSH3 0x2D0C JUMP JUMPDEST PUSH3 0x2D09 DUP4 DUP6 PUSH3 0x42C3 JUMP JUMPDEST SWAP1 POP JUMPDEST DUP4 PUSH3 0x2D19 DUP4 DUP4 PUSH3 0x42D9 JUMP JUMPDEST PUSH3 0x2D25 SWAP2 SWAP1 PUSH3 0x42F3 JUMP JUMPDEST SWAP10 SWAP9 POP POP POP POP POP POP POP POP POP JUMP JUMPDEST PUSH1 0x2 PUSH1 0x1 SLOAD SUB PUSH3 0x2D57 JUMPI PUSH1 0x40 MLOAD PUSH3 0x461BCD PUSH1 0xE5 SHL DUP2 MSTORE PUSH1 0x4 ADD PUSH3 0x647 SWAP1 PUSH3 0x4256 JUMP JUMPDEST PUSH1 0x2 PUSH1 0x1 SSTORE PUSH1 0x15 SLOAD PUSH1 0xFF AND ISZERO PUSH3 0x2D82 JUMPI PUSH1 0x40 MLOAD PUSH3 0x461BCD PUSH1 0xE5 SHL DUP2 MSTORE PUSH1 0x4 ADD PUSH3 0x647 SWAP1 PUSH3 0x428D JUMP JUMPDEST PUSH1 0x0 DUP1 PUSH3 0x2D91 DUP6 DUP6 PUSH3 0x3126 JUMP JUMPDEST SWAP2 POP SWAP2 POP DUP3 DUP3 LT ISZERO PUSH3 0x2DE2 JUMPI PUSH1 0x40 MLOAD PUSH3 0x461BCD PUSH1 0xE5 SHL DUP2 MSTORE PUSH1 0x20 PUSH1 0x4 DUP3 ADD MSTORE PUSH1 0x18 PUSH1 0x24 DUP3 ADD MSTORE PUSH24 0x139BDD08195B9BDD59DA0818DBDA5B9CC81C995B5BDD9959 PUSH1 0x42 SHL PUSH1 0x44 DUP3 ADD MSTORE PUSH1 0x64 ADD PUSH3 0x647 JUMP JUMPDEST PUSH5 0x2540BE400 PUSH1 0xB SLOAD DUP3 PUSH3 0x2DF8 SWAP2 SWAP1 PUSH3 0x42D9 JUMP JUMPDEST PUSH3 0x2E04 SWAP2 SWAP1 PUSH3 0x42F3 JUMP JUMPDEST PUSH3 0x2E10 SWAP1 DUP4 PUSH3 0x4346 JUMP JUMPDEST PUSH1 0x8 DUP6 PUSH1 0x2 DUP2 LT PUSH3 0x2E26 JUMPI PUSH3 0x2E26 PUSH3 0x4330 JUMP JUMPDEST ADD PUSH1 0x0 DUP3 DUP3 SLOAD PUSH3 0x2E38 SWAP2 SWAP1 PUSH3 0x42C3 JUMP JUMPDEST SWAP1 SWAP2 SSTORE POP POP PUSH1 0xC SLOAD PUSH1 0x40 MLOAD PUSH4 0x79CC679 PUSH1 0xE4 SHL DUP2 MSTORE PUSH1 0x1 PUSH1 0x1 PUSH1 0xA0 SHL SUB SWAP1 SWAP2 AND SWAP1 PUSH4 0x79CC6790 SWAP1 PUSH3 0x2E71 SWAP1 CALLER SWAP1 DUP10 SWAP1 PUSH1 0x4 ADD PUSH3 0x43A6 JUMP JUMPDEST PUSH1 0x0 PUSH1 0x40 MLOAD DUP1 DUP4 SUB DUP2 PUSH1 0x0 DUP8 DUP1 EXTCODESIZE ISZERO DUP1 ISZERO PUSH3 0x2E8C JUMPI PUSH1 0x0 DUP1 REVERT JUMPDEST POP GAS CALL ISZERO DUP1 ISZERO PUSH3 0x2EA1 JUMPI RETURNDATASIZE PUSH1 0x0 DUP1 RETURNDATACOPY RETURNDATASIZE PUSH1 0x0 REVERT JUMPDEST POP POP POP POP PUSH3 0x2EC1 CALLER DUP4 PUSH1 0x6 DUP8 PUSH1 0x2 DUP2 LT PUSH3 0x1AE9 JUMPI PUSH3 0x1AE9 PUSH3 0x4330 JUMP JUMPDEST PUSH1 0x40 DUP1 MLOAD DUP6 DUP2 MSTORE PUSH1 0x20 DUP2 ADD DUP8 SWAP1 MSTORE SWAP1 DUP2 ADD DUP4 SWAP1 MSTORE CALLER SWAP1 PUSH32 0x5AD056F2E28A8CEC232015406B843668C1E36CDA598127EC3B8C59B8C72773A0 SWAP1 PUSH1 0x60 ADD PUSH3 0x1BBF JUMP JUMPDEST CALLER PUSH3 0x2F0D PUSH3 0x225B JUMP JUMPDEST PUSH1 0x1 PUSH1 0x1 PUSH1 0xA0 SHL SUB AND EQ PUSH3 0x2F36 JUMPI PUSH1 0x40 MLOAD PUSH3 0x461BCD PUSH1 0xE5 SHL DUP2 MSTORE PUSH1 0x4 ADD PUSH3 0x647 SWAP1 PUSH3 0x4415 JUMP JUMPDEST PUSH1 0x1 PUSH1 0x1 PUSH1 0xA0 SHL SUB DUP2 AND PUSH3 0x2F9D JUMPI PUSH1 0x40 MLOAD PUSH3 0x461BCD PUSH1 0xE5 SHL DUP2 MSTORE PUSH1 0x20 PUSH1 0x4 DUP3 ADD MSTORE PUSH1 0x26 PUSH1 0x24 DUP3 ADD MSTORE PUSH32 0x4F776E61626C653A206E6577206F776E657220697320746865207A65726F2061 PUSH1 0x44 DUP3 ADD MSTORE PUSH6 0x646472657373 PUSH1 0xD0 SHL PUSH1 0x64 DUP3 ADD MSTORE PUSH1 0x84 ADD PUSH3 0x647 JUMP JUMPDEST PUSH3 0x1312 DUP2 PUSH3 0x384F JUMP JUMPDEST PUSH1 0x0 PUSH3 0x2FB4 PUSH3 0x2FB9 JUMP JUMPDEST SWAP1 POP SWAP1 JUMP JUMPDEST PUSH1 0x10 SLOAD PUSH1 0xE SLOAD PUSH1 0x0 SWAP2 SWAP1 TIMESTAMP DUP3 GT ISZERO PUSH3 0x1670 JUMPI PUSH1 0xD SLOAD PUSH1 0xF SLOAD DUP2 DUP4 GT ISZERO PUSH3 0x302C JUMPI PUSH3 0x2FE7 DUP2 DUP6 PUSH3 0x42C3 JUMP JUMPDEST PUSH3 0x2FF3 DUP3 TIMESTAMP PUSH3 0x42C3 JUMP JUMPDEST PUSH3 0x2FFF DUP5 DUP7 PUSH3 0x42C3 JUMP JUMPDEST PUSH3 0x300B SWAP2 SWAP1 PUSH3 0x42D9 JUMP JUMPDEST PUSH3 0x3017 SWAP2 SWAP1 PUSH3 0x42F3 JUMP JUMPDEST PUSH3 0x3023 SWAP1 DUP4 PUSH3 0x4346 JUMP JUMPDEST SWAP5 POP POP POP POP POP SWAP1 JUMP JUMPDEST PUSH3 0x3038 DUP2 DUP6 PUSH3 0x42C3 JUMP JUMPDEST PUSH3 0x3044 DUP3 TIMESTAMP PUSH3 0x42C3 JUMP JUMPDEST PUSH3 0x3050 DUP6 DUP6 PUSH3 0x42C3 JUMP JUMPDEST PUSH3 0x305C SWAP2 SWAP1 PUSH3 0x42D9 JUMP JUMPDEST PUSH3 0x3068 SWAP2 SWAP1 PUSH3 0x42F3 JUMP JUMPDEST PUSH3 0x3023 SWAP1 DUP4 PUSH3 0x42C3 JUMP JUMPDEST PUSH1 0x0 PUSH3 0x1904 PUSH3 0x3085 DUP5 PUSH3 0x377E JUMP JUMPDEST DUP4 PUSH3 0x389F JUMP JUMPDEST PUSH1 0x40 MLOAD PUSH1 0x1 PUSH1 0x1 PUSH1 0xA0 SHL SUB DUP1 DUP6 AND PUSH1 0x24 DUP4 ADD MSTORE DUP4 AND PUSH1 0x44 DUP3 ADD MSTORE PUSH1 0x64 DUP2 ADD DUP3 SWAP1 MSTORE PUSH3 0x30F9 SWAP1 DUP6 SWAP1 PUSH4 0x23B872DD PUSH1 0xE0 SHL SWAP1 PUSH1 0x84 ADD JUMPDEST PUSH1 0x40 DUP1 MLOAD PUSH1 0x1F NOT DUP2 DUP5 SUB ADD DUP2 MSTORE SWAP2 SWAP1 MSTORE PUSH1 0x20 DUP2 ADD DUP1 MLOAD PUSH1 0x1 PUSH1 0x1 PUSH1 0xE0 SHL SUB AND PUSH1 0x1 PUSH1 0x1 PUSH1 0xE0 SHL SUB NOT SWAP1 SWAP4 AND SWAP3 SWAP1 SWAP3 OR SWAP1 SWAP2 MSTORE PUSH3 0x3A74 JUMP JUMPDEST POP POP POP POP JUMP JUMPDEST PUSH3 0x3121 DUP4 PUSH4 0xA9059CBB PUSH1 0xE0 SHL DUP5 DUP5 PUSH1 0x40 MLOAD PUSH1 0x24 ADD PUSH3 0x30C1 SWAP3 SWAP2 SWAP1 PUSH3 0x43A6 JUMP JUMPDEST POP POP POP JUMP JUMPDEST PUSH1 0x0 DUP1 PUSH1 0x0 PUSH3 0x3135 PUSH3 0x2FB9 JUMP JUMPDEST SWAP1 POP PUSH1 0x0 PUSH3 0x3147 PUSH1 0x1 PUSH1 0x2 PUSH3 0x42C3 JUMP JUMPDEST PUSH3 0x3154 SWAP1 PUSH1 0x4 PUSH3 0x42D9 JUMP JUMPDEST PUSH1 0x2 PUSH1 0xA SLOAD PUSH3 0x3165 SWAP2 SWAP1 PUSH3 0x42D9 JUMP JUMPDEST PUSH3 0x3171 SWAP2 SWAP1 PUSH3 0x42F3 JUMP JUMPDEST PUSH1 0x40 DUP1 MLOAD DUP1 DUP3 ADD SWAP2 DUP3 SWAP1 MSTORE SWAP2 SWAP3 POP PUSH1 0x0 SWAP2 SWAP1 PUSH1 0x2 SWAP1 DUP2 SWAP1 DUP2 DUP5 JUMPDEST DUP2 SLOAD DUP2 MSTORE PUSH1 0x20 ADD SWAP1 PUSH1 0x1 ADD SWAP1 DUP1 DUP4 GT PUSH3 0x318B JUMPI POP POP POP POP POP SWAP1 POP PUSH1 0x0 PUSH1 0xC PUSH1 0x0 SWAP1 SLOAD SWAP1 PUSH2 0x100 EXP SWAP1 DIV PUSH1 0x1 PUSH1 0x1 PUSH1 0xA0 SHL SUB AND PUSH1 0x1 PUSH1 0x1 PUSH1 0xA0 SHL SUB AND PUSH4 0x18160DDD PUSH1 0x40 MLOAD DUP2 PUSH4 0xFFFFFFFF AND PUSH1 0xE0 SHL DUP2 MSTORE PUSH1 0x4 ADD PUSH1 0x20 PUSH1 0x40 MLOAD DUP1 DUP4 SUB DUP2 DUP7 GAS STATICCALL ISZERO DUP1 ISZERO PUSH3 0x31FC JUMPI RETURNDATASIZE PUSH1 0x0 DUP1 RETURNDATACOPY RETURNDATASIZE PUSH1 0x0 REVERT JUMPDEST POP POP POP POP PUSH1 0x40 MLOAD RETURNDATASIZE PUSH1 0x1F NOT PUSH1 0x1F DUP3 ADD AND DUP3 ADD DUP1 PUSH1 0x40 MSTORE POP DUP2 ADD SWAP1 PUSH3 0x3222 SWAP2 SWAP1 PUSH3 0x4316 JUMP JUMPDEST SWAP1 POP PUSH1 0x0 PUSH3 0x3230 PUSH3 0x347D JUMP JUMPDEST SWAP1 POP PUSH1 0x0 PUSH3 0x3240 DUP3 DUP8 PUSH3 0x389F JUMP JUMPDEST SWAP1 POP PUSH1 0x0 DUP4 PUSH3 0x3251 DUP4 DUP14 PUSH3 0x42D9 JUMP JUMPDEST PUSH3 0x325D SWAP2 SWAP1 PUSH3 0x42F3 JUMP JUMPDEST PUSH3 0x3269 SWAP1 DUP4 PUSH3 0x42C3 JUMP JUMPDEST SWAP1 POP DUP3 PUSH1 0x0 PUSH3 0x327C DUP10 DUP14 DUP5 DUP7 PUSH3 0x3B4D JUMP JUMPDEST SWAP1 POP PUSH1 0x0 DUP8 DUP14 PUSH1 0x2 DUP2 LT PUSH3 0x3295 JUMPI PUSH3 0x3295 PUSH3 0x4330 JUMP JUMPDEST PUSH1 0x20 MUL ADD MLOAD DUP3 DUP8 DUP16 PUSH1 0x2 DUP2 LT PUSH3 0x32B0 JUMPI PUSH3 0x32B0 PUSH3 0x4330 JUMP JUMPDEST PUSH1 0x20 MUL ADD MLOAD PUSH3 0x32C1 SWAP2 SWAP1 PUSH3 0x42C3 JUMP JUMPDEST PUSH3 0x32CD SWAP2 SWAP1 PUSH3 0x42F3 JUMP JUMPDEST SWAP1 POP PUSH1 0x0 JUMPDEST PUSH1 0x2 DUP2 LT ISZERO PUSH3 0x33EC JUMPI PUSH1 0x0 DUP15 DUP3 SUB PUSH3 0x332F JUMPI DUP4 DUP8 DUP8 DUP11 DUP6 PUSH1 0x2 DUP2 LT PUSH3 0x32FE JUMPI PUSH3 0x32FE PUSH3 0x4330 JUMP JUMPDEST PUSH1 0x20 MUL ADD MLOAD PUSH3 0x330F SWAP2 SWAP1 PUSH3 0x42D9 JUMP JUMPDEST PUSH3 0x331B SWAP2 SWAP1 PUSH3 0x42F3 JUMP JUMPDEST PUSH3 0x3327 SWAP2 SWAP1 PUSH3 0x42C3 JUMP JUMPDEST SWAP1 POP PUSH3 0x338C JUMP JUMPDEST DUP7 DUP7 DUP10 DUP5 PUSH1 0x2 DUP2 LT PUSH3 0x3346 JUMPI PUSH3 0x3346 PUSH3 0x4330 JUMP JUMPDEST PUSH1 0x20 MUL ADD MLOAD PUSH3 0x3357 SWAP2 SWAP1 PUSH3 0x42D9 JUMP JUMPDEST PUSH3 0x3363 SWAP2 SWAP1 PUSH3 0x42F3 JUMP JUMPDEST DUP9 DUP4 PUSH1 0x2 DUP2 LT PUSH3 0x3378 JUMPI PUSH3 0x3378 PUSH3 0x4330 JUMP JUMPDEST PUSH1 0x20 MUL ADD MLOAD PUSH3 0x3389 SWAP2 SWAP1 PUSH3 0x42C3 JUMP JUMPDEST SWAP1 POP JUMPDEST PUSH5 0x2540BE400 PUSH3 0x339E DUP3 DUP14 PUSH3 0x42D9 JUMP JUMPDEST PUSH3 0x33AA SWAP2 SWAP1 PUSH3 0x42F3 JUMP JUMPDEST DUP6 DUP4 PUSH1 0x2 DUP2 LT PUSH3 0x33BF JUMPI PUSH3 0x33BF PUSH3 0x4330 JUMP JUMPDEST PUSH1 0x20 MUL ADD DUP2 DUP2 MLOAD PUSH3 0x33D2 SWAP2 SWAP1 PUSH3 0x42C3 JUMP JUMPDEST SWAP1 MSTORE POP DUP2 SWAP1 POP PUSH3 0x33E3 DUP2 PUSH3 0x435C JUMP JUMPDEST SWAP2 POP POP PUSH3 0x32D2 JUMP JUMPDEST POP PUSH1 0x0 PUSH3 0x33FD DUP12 DUP16 DUP7 DUP9 PUSH3 0x3B4D JUMP JUMPDEST DUP5 DUP16 PUSH1 0x2 DUP2 LT PUSH3 0x3412 JUMPI PUSH3 0x3412 PUSH3 0x4330 JUMP JUMPDEST PUSH1 0x20 MUL ADD MLOAD PUSH3 0x3423 SWAP2 SWAP1 PUSH3 0x42C3 JUMP JUMPDEST SWAP1 POP DUP9 DUP15 PUSH1 0x2 DUP2 LT PUSH3 0x343A JUMPI PUSH3 0x343A PUSH3 0x4330 JUMP JUMPDEST PUSH1 0x20 MUL ADD MLOAD PUSH3 0x344C PUSH1 0x1 DUP4 PUSH3 0x42C3 JUMP JUMPDEST PUSH3 0x3458 SWAP2 SWAP1 PUSH3 0x42F3 JUMP JUMPDEST SWAP1 POP DUP1 PUSH3 0x3467 DUP2 DUP5 PUSH3 0x42C3 JUMP JUMPDEST SWAP13 POP SWAP13 POP POP POP POP POP POP POP POP POP POP POP POP SWAP3 POP SWAP3 SWAP1 POP JUMP JUMPDEST PUSH3 0x3487 PUSH3 0x3ECB JUMP JUMPDEST PUSH1 0x40 DUP1 MLOAD DUP1 DUP3 ADD SWAP2 DUP3 SWAP1 MSTORE SWAP1 PUSH1 0x4 SWAP1 PUSH1 0x2 SWAP1 DUP3 DUP5 JUMPDEST DUP2 SLOAD DUP2 MSTORE PUSH1 0x20 ADD SWAP1 PUSH1 0x1 ADD SWAP1 DUP1 DUP4 GT PUSH3 0x349C JUMPI POP POP POP POP POP SWAP1 POP PUSH1 0x0 JUMPDEST PUSH1 0x2 DUP2 LT ISZERO PUSH3 0x3546 JUMPI PUSH8 0xDE0B6B3A7640000 PUSH1 0x8 DUP3 PUSH1 0x2 DUP2 LT PUSH3 0x34E3 JUMPI PUSH3 0x34E3 PUSH3 0x4330 JUMP JUMPDEST ADD SLOAD DUP4 DUP4 PUSH1 0x2 DUP2 LT PUSH3 0x34FA JUMPI PUSH3 0x34FA PUSH3 0x4330 JUMP JUMPDEST PUSH1 0x20 MUL ADD MLOAD PUSH3 0x350B SWAP2 SWAP1 PUSH3 0x42D9 JUMP JUMPDEST PUSH3 0x3517 SWAP2 SWAP1 PUSH3 0x42F3 JUMP JUMPDEST DUP3 DUP3 PUSH1 0x2 DUP2 LT PUSH3 0x352C JUMPI PUSH3 0x352C PUSH3 0x4330 JUMP JUMPDEST PUSH1 0x20 MUL ADD MSTORE DUP1 PUSH3 0x353D DUP2 PUSH3 0x435C JUMP JUMPDEST SWAP2 POP POP PUSH3 0x34BA JUMP JUMPDEST POP SWAP1 JUMP JUMPDEST PUSH1 0x0 DUP4 DUP6 EQ ISZERO DUP1 ISZERO PUSH3 0x355D JUMPI POP PUSH1 0x2 DUP6 LT JUMPDEST DUP1 ISZERO PUSH3 0x356A JUMPI POP PUSH1 0x2 DUP5 LT JUMPDEST PUSH3 0x35AC JUMPI PUSH1 0x40 MLOAD PUSH3 0x461BCD PUSH1 0xE5 SHL DUP2 MSTORE PUSH1 0x20 PUSH1 0x4 DUP3 ADD MSTORE PUSH1 0x11 PUSH1 0x24 DUP3 ADD MSTORE PUSH17 0x24B63632B3B0B6103830B930B6B2BA32B9 PUSH1 0x79 SHL PUSH1 0x44 DUP3 ADD MSTORE PUSH1 0x64 ADD PUSH3 0x647 JUMP JUMPDEST PUSH1 0x0 PUSH3 0x35B8 PUSH3 0x2FB9 JUMP JUMPDEST SWAP1 POP PUSH1 0x0 PUSH3 0x35C8 DUP5 DUP4 PUSH3 0x389F JUMP JUMPDEST SWAP1 POP DUP1 PUSH1 0x0 DUP1 PUSH3 0x35DB PUSH1 0x2 DUP7 PUSH3 0x42D9 JUMP JUMPDEST SWAP1 POP PUSH1 0x0 DUP1 JUMPDEST PUSH1 0x2 DUP2 LT ISZERO PUSH3 0x3677 JUMPI DUP12 DUP2 SUB PUSH3 0x35FC JUMPI DUP10 SWAP2 POP PUSH3 0x362C JUMP JUMPDEST DUP11 DUP2 EQ PUSH3 0x3626 JUMPI DUP9 DUP2 PUSH1 0x2 DUP2 LT PUSH3 0x3619 JUMPI PUSH3 0x3619 PUSH3 0x4330 JUMP JUMPDEST PUSH1 0x20 MUL ADD MLOAD SWAP2 POP PUSH3 0x362C JUMP JUMPDEST PUSH3 0x3662 JUMP JUMPDEST PUSH3 0x3638 DUP3 DUP6 PUSH3 0x4346 JUMP JUMPDEST SWAP4 POP PUSH3 0x3647 PUSH1 0x2 DUP4 PUSH3 0x42D9 JUMP JUMPDEST PUSH3 0x3653 DUP8 DUP8 PUSH3 0x42D9 JUMP JUMPDEST PUSH3 0x365F SWAP2 SWAP1 PUSH3 0x42F3 JUMP JUMPDEST SWAP5 POP JUMPDEST DUP1 PUSH3 0x366E DUP2 PUSH3 0x435C JUMP JUMPDEST SWAP2 POP POP PUSH3 0x35E1 JUMP JUMPDEST POP PUSH3 0x3685 PUSH1 0x2 DUP4 PUSH3 0x42D9 JUMP JUMPDEST PUSH3 0x3691 DUP7 DUP7 PUSH3 0x42D9 JUMP JUMPDEST PUSH3 0x369D SWAP2 SWAP1 PUSH3 0x42F3 JUMP JUMPDEST SWAP4 POP PUSH1 0x0 PUSH3 0x36AD DUP4 DUP8 PUSH3 0x42F3 JUMP JUMPDEST PUSH3 0x36B9 SWAP1 DUP6 PUSH3 0x4346 JUMP JUMPDEST SWAP1 POP PUSH1 0x0 DUP7 DUP2 JUMPDEST PUSH1 0xFF DUP2 LT ISZERO PUSH3 0x376C JUMPI DUP2 SWAP3 POP DUP9 DUP5 DUP4 PUSH1 0x2 PUSH3 0x36DE SWAP2 SWAP1 PUSH3 0x42D9 JUMP JUMPDEST PUSH3 0x36EA SWAP2 SWAP1 PUSH3 0x4346 JUMP JUMPDEST PUSH3 0x36F6 SWAP2 SWAP1 PUSH3 0x42C3 JUMP JUMPDEST DUP9 PUSH3 0x3703 DUP5 DUP1 PUSH3 0x42D9 JUMP JUMPDEST PUSH3 0x370F SWAP2 SWAP1 PUSH3 0x4346 JUMP JUMPDEST PUSH3 0x371B SWAP2 SWAP1 PUSH3 0x42F3 JUMP JUMPDEST SWAP2 POP DUP3 DUP3 GT ISZERO PUSH3 0x3741 JUMPI PUSH1 0x1 PUSH3 0x3734 DUP5 DUP5 PUSH3 0x42C3 JUMP JUMPDEST GT ISZERO PUSH3 0x376C JUMPI PUSH3 0x3757 JUMP JUMPDEST PUSH1 0x1 PUSH3 0x374F DUP4 DUP6 PUSH3 0x42C3 JUMP JUMPDEST GT ISZERO PUSH3 0x376C JUMPI JUMPDEST DUP1 PUSH3 0x3763 DUP2 PUSH3 0x435C JUMP JUMPDEST SWAP2 POP POP PUSH3 0x36C0 JUMP JUMPDEST POP SWAP14 SWAP13 POP POP POP POP POP POP POP POP POP POP POP POP POP JUMP JUMPDEST PUSH3 0x3788 PUSH3 0x3ECB JUMP JUMPDEST PUSH1 0x40 DUP1 MLOAD DUP1 DUP3 ADD SWAP2 DUP3 SWAP1 MSTORE SWAP1 PUSH1 0x4 SWAP1 PUSH1 0x2 SWAP1 DUP3 DUP5 JUMPDEST DUP2 SLOAD DUP2 MSTORE PUSH1 0x20 ADD SWAP1 PUSH1 0x1 ADD SWAP1 DUP1 DUP4 GT PUSH3 0x379D JUMPI POP POP POP POP POP SWAP1 POP PUSH1 0x0 JUMPDEST PUSH1 0x2 DUP2 LT ISZERO PUSH3 0x3849 JUMPI PUSH8 0xDE0B6B3A7640000 DUP4 DUP3 PUSH1 0x2 DUP2 LT PUSH3 0x37E3 JUMPI PUSH3 0x37E3 PUSH3 0x4330 JUMP JUMPDEST PUSH1 0x20 MUL ADD MLOAD DUP4 DUP4 PUSH1 0x2 DUP2 LT PUSH3 0x37FD JUMPI PUSH3 0x37FD PUSH3 0x4330 JUMP JUMPDEST PUSH1 0x20 MUL ADD MLOAD PUSH3 0x380E SWAP2 SWAP1 PUSH3 0x42D9 JUMP JUMPDEST PUSH3 0x381A SWAP2 SWAP1 PUSH3 0x42F3 JUMP JUMPDEST DUP3 DUP3 PUSH1 0x2 DUP2 LT PUSH3 0x382F JUMPI PUSH3 0x382F PUSH3 0x4330 JUMP JUMPDEST PUSH1 0x20 MUL ADD MSTORE DUP1 PUSH3 0x3840 DUP2 PUSH3 0x435C JUMP JUMPDEST SWAP2 POP POP PUSH3 0x37BB JUMP JUMPDEST POP SWAP2 SWAP1 POP JUMP JUMPDEST PUSH1 0x0 DUP1 SLOAD PUSH1 0x1 PUSH1 0x1 PUSH1 0xA0 SHL SUB DUP4 DUP2 AND PUSH1 0x1 PUSH1 0x1 PUSH1 0xA0 SHL SUB NOT DUP4 AND DUP2 OR DUP5 SSTORE PUSH1 0x40 MLOAD SWAP2 SWAP1 SWAP3 AND SWAP3 DUP4 SWAP2 PUSH32 0x8BE0079C531659141344CD1FD0A4F28419497F9722A3DAAFE3B4186F6B6457E0 SWAP2 SWAP1 LOG3 POP POP JUMP JUMPDEST PUSH1 0x0 DUP1 PUSH1 0x0 JUMPDEST PUSH1 0x2 DUP2 LT ISZERO PUSH3 0x38EC JUMPI DUP5 DUP2 PUSH1 0x2 DUP2 LT PUSH3 0x38C4 JUMPI PUSH3 0x38C4 PUSH3 0x4330 JUMP JUMPDEST PUSH1 0x20 MUL ADD MLOAD PUSH3 0x38D5 SWAP1 DUP4 PUSH3 0x4346 JUMP JUMPDEST SWAP2 POP DUP1 PUSH3 0x38E3 DUP2 PUSH3 0x435C JUMP JUMPDEST SWAP2 POP POP PUSH3 0x38A5 JUMP JUMPDEST POP DUP1 PUSH1 0x0 SUB PUSH3 0x3901 JUMPI PUSH1 0x0 SWAP2 POP POP PUSH3 0x1670 JUMP JUMPDEST PUSH1 0x0 DUP2 DUP2 PUSH3 0x3912 PUSH1 0x2 DUP8 PUSH3 0x42D9 JUMP JUMPDEST SWAP1 POP PUSH1 0x0 JUMPDEST PUSH1 0xFF DUP2 LT ISZERO PUSH3 0x3A68 JUMPI DUP3 PUSH1 0x0 JUMPDEST PUSH1 0x2 DUP2 LT ISZERO PUSH3 0x3986 JUMPI PUSH1 0x2 DUP11 DUP3 PUSH1 0x2 DUP2 LT PUSH3 0x3946 JUMPI PUSH3 0x3946 PUSH3 0x4330 JUMP JUMPDEST PUSH1 0x20 MUL ADD MLOAD PUSH3 0x3957 SWAP2 SWAP1 PUSH3 0x42D9 JUMP JUMPDEST PUSH3 0x3963 DUP7 DUP5 PUSH3 0x42D9 JUMP JUMPDEST PUSH3 0x396F SWAP2 SWAP1 PUSH3 0x42F3 JUMP JUMPDEST SWAP2 POP DUP1 PUSH3 0x397D DUP2 PUSH3 0x435C JUMP JUMPDEST SWAP2 POP POP PUSH3 0x3925 JUMP JUMPDEST POP DUP4 SWAP5 POP DUP1 PUSH1 0x2 PUSH1 0x1 PUSH3 0x399B SWAP2 SWAP1 PUSH3 0x4346 JUMP JUMPDEST PUSH3 0x39A7 SWAP2 SWAP1 PUSH3 0x42D9 JUMP JUMPDEST DUP5 PUSH3 0x39B5 PUSH1 0x1 DUP7 PUSH3 0x42C3 JUMP JUMPDEST PUSH3 0x39C1 SWAP2 SWAP1 PUSH3 0x42D9 JUMP JUMPDEST PUSH3 0x39CD SWAP2 SWAP1 PUSH3 0x4346 JUMP JUMPDEST DUP5 PUSH3 0x39DB PUSH1 0x2 DUP5 PUSH3 0x42D9 JUMP JUMPDEST PUSH3 0x39E7 DUP10 DUP8 PUSH3 0x42D9 JUMP JUMPDEST PUSH3 0x39F3 SWAP2 SWAP1 PUSH3 0x4346 JUMP JUMPDEST PUSH3 0x39FF SWAP2 SWAP1 PUSH3 0x42D9 JUMP JUMPDEST PUSH3 0x3A0B SWAP2 SWAP1 PUSH3 0x42F3 JUMP JUMPDEST SWAP4 POP DUP5 DUP5 GT ISZERO PUSH3 0x3A37 JUMPI PUSH1 0x1 PUSH3 0x3A24 DUP7 DUP7 PUSH3 0x42C3 JUMP JUMPDEST GT PUSH3 0x3A31 JUMPI POP PUSH3 0x3A68 JUMP JUMPDEST PUSH3 0x3A52 JUMP JUMPDEST PUSH1 0x1 PUSH3 0x3A45 DUP6 DUP8 PUSH3 0x42C3 JUMP JUMPDEST GT PUSH3 0x3A52 JUMPI POP PUSH3 0x3A68 JUMP JUMPDEST POP DUP1 PUSH3 0x3A5F DUP2 PUSH3 0x435C JUMP JUMPDEST SWAP2 POP POP PUSH3 0x3917 JUMP JUMPDEST POP SWAP1 SWAP7 SWAP6 POP POP POP POP POP POP JUMP JUMPDEST PUSH1 0x0 PUSH3 0x3ACB DUP3 PUSH1 0x40 MLOAD DUP1 PUSH1 0x40 ADD PUSH1 0x40 MSTORE DUP1 PUSH1 0x20 DUP2 MSTORE PUSH1 0x20 ADD PUSH32 0x5361666545524332303A206C6F772D6C6576656C2063616C6C206661696C6564 DUP2 MSTORE POP DUP6 PUSH1 0x1 PUSH1 0x1 PUSH1 0xA0 SHL SUB AND PUSH3 0x3D39 SWAP1 SWAP3 SWAP2 SWAP1 PUSH4 0xFFFFFFFF AND JUMP JUMPDEST DUP1 MLOAD SWAP1 SWAP2 POP ISZERO PUSH3 0x3121 JUMPI DUP1 DUP1 PUSH1 0x20 ADD SWAP1 MLOAD DUP2 ADD SWAP1 PUSH3 0x3AEC SWAP2 SWAP1 PUSH3 0x4650 JUMP JUMPDEST PUSH3 0x3121 JUMPI PUSH1 0x40 MLOAD PUSH3 0x461BCD PUSH1 0xE5 SHL DUP2 MSTORE PUSH1 0x20 PUSH1 0x4 DUP3 ADD MSTORE PUSH1 0x2A PUSH1 0x24 DUP3 ADD MSTORE PUSH32 0x5361666545524332303A204552433230206F7065726174696F6E20646964206E PUSH1 0x44 DUP3 ADD MSTORE PUSH10 0x1BDD081CDD58D8D95959 PUSH1 0xB2 SHL PUSH1 0x64 DUP3 ADD MSTORE PUSH1 0x84 ADD PUSH3 0x647 JUMP JUMPDEST PUSH1 0x0 PUSH1 0x2 DUP5 LT PUSH3 0x3B98 JUMPI PUSH1 0x40 MLOAD PUSH3 0x461BCD PUSH1 0xE5 SHL DUP2 MSTORE PUSH1 0x20 PUSH1 0x4 DUP3 ADD MSTORE PUSH1 0x14 PUSH1 0x24 DUP3 ADD MSTORE PUSH20 0x6465763A20692061626F7665204E5F434F494E53 PUSH1 0x60 SHL PUSH1 0x44 DUP3 ADD MSTORE PUSH1 0x64 ADD PUSH3 0x647 JUMP JUMPDEST DUP2 PUSH1 0x0 DUP1 PUSH3 0x3BA9 PUSH1 0x2 DUP10 PUSH3 0x42D9 JUMP JUMPDEST SWAP1 POP PUSH1 0x0 DUP1 JUMPDEST PUSH1 0x2 DUP2 LT ISZERO PUSH3 0x3C34 JUMPI DUP9 DUP2 EQ PUSH3 0x3BE3 JUMPI DUP8 DUP2 PUSH1 0x2 DUP2 LT PUSH3 0x3BD6 JUMPI PUSH3 0x3BD6 PUSH3 0x4330 JUMP JUMPDEST PUSH1 0x20 MUL ADD MLOAD SWAP2 POP PUSH3 0x3BE9 JUMP JUMPDEST PUSH3 0x3C1F JUMP JUMPDEST PUSH3 0x3BF5 DUP3 DUP6 PUSH3 0x4346 JUMP JUMPDEST SWAP4 POP PUSH3 0x3C04 PUSH1 0x2 DUP4 PUSH3 0x42D9 JUMP JUMPDEST PUSH3 0x3C10 DUP9 DUP8 PUSH3 0x42D9 JUMP JUMPDEST PUSH3 0x3C1C SWAP2 SWAP1 PUSH3 0x42F3 JUMP JUMPDEST SWAP5 POP JUMPDEST DUP1 PUSH3 0x3C2B DUP2 PUSH3 0x435C JUMP JUMPDEST SWAP2 POP POP PUSH3 0x3BAF JUMP JUMPDEST POP PUSH3 0x3C42 PUSH1 0x2 DUP4 PUSH3 0x42D9 JUMP JUMPDEST PUSH3 0x3C4E DUP8 DUP7 PUSH3 0x42D9 JUMP JUMPDEST PUSH3 0x3C5A SWAP2 SWAP1 PUSH3 0x42F3 JUMP JUMPDEST SWAP4 POP PUSH1 0x0 PUSH3 0x3C6A DUP4 DUP9 PUSH3 0x42F3 JUMP JUMPDEST PUSH3 0x3C76 SWAP1 DUP6 PUSH3 0x4346 JUMP JUMPDEST SWAP1 POP PUSH1 0x0 DUP8 DUP2 JUMPDEST PUSH1 0xFF DUP2 LT ISZERO PUSH3 0x3D29 JUMPI DUP2 SWAP3 POP DUP10 DUP5 DUP4 PUSH1 0x2 PUSH3 0x3C9B SWAP2 SWAP1 PUSH3 0x42D9 JUMP JUMPDEST PUSH3 0x3CA7 SWAP2 SWAP1 PUSH3 0x4346 JUMP JUMPDEST PUSH3 0x3CB3 SWAP2 SWAP1 PUSH3 0x42C3 JUMP JUMPDEST DUP9 PUSH3 0x3CC0 DUP5 DUP1 PUSH3 0x42D9 JUMP JUMPDEST PUSH3 0x3CCC SWAP2 SWAP1 PUSH3 0x4346 JUMP JUMPDEST PUSH3 0x3CD8 SWAP2 SWAP1 PUSH3 0x42F3 JUMP JUMPDEST SWAP2 POP DUP3 DUP3 GT ISZERO PUSH3 0x3CFE JUMPI PUSH1 0x1 PUSH3 0x3CF1 DUP5 DUP5 PUSH3 0x42C3 JUMP JUMPDEST GT ISZERO PUSH3 0x3D29 JUMPI PUSH3 0x3D14 JUMP JUMPDEST PUSH1 0x1 PUSH3 0x3D0C DUP4 DUP6 PUSH3 0x42C3 JUMP JUMPDEST GT ISZERO PUSH3 0x3D29 JUMPI JUMPDEST DUP1 PUSH3 0x3D20 DUP2 PUSH3 0x435C JUMP JUMPDEST SWAP2 POP POP PUSH3 0x3C7D JUMP JUMPDEST POP SWAP12 SWAP11 POP POP POP POP POP POP POP POP POP POP POP JUMP JUMPDEST PUSH1 0x60 PUSH3 0x3D4A DUP5 DUP5 PUSH1 0x0 DUP6 PUSH3 0x3D52 JUMP JUMPDEST SWAP5 SWAP4 POP POP POP POP JUMP JUMPDEST PUSH1 0x60 DUP3 SELFBALANCE LT ISZERO PUSH3 0x3DB5 JUMPI PUSH1 0x40 MLOAD PUSH3 0x461BCD PUSH1 0xE5 SHL DUP2 MSTORE PUSH1 0x20 PUSH1 0x4 DUP3 ADD MSTORE PUSH1 0x26 PUSH1 0x24 DUP3 ADD MSTORE PUSH32 0x416464726573733A20696E73756666696369656E742062616C616E636520666F PUSH1 0x44 DUP3 ADD MSTORE PUSH6 0x1C8818D85B1B PUSH1 0xD2 SHL PUSH1 0x64 DUP3 ADD MSTORE PUSH1 0x84 ADD PUSH3 0x647 JUMP JUMPDEST PUSH1 0x1 PUSH1 0x1 PUSH1 0xA0 SHL SUB DUP6 AND EXTCODESIZE PUSH3 0x3E0E JUMPI PUSH1 0x40 MLOAD PUSH3 0x461BCD PUSH1 0xE5 SHL DUP2 MSTORE PUSH1 0x20 PUSH1 0x4 DUP3 ADD MSTORE PUSH1 0x1D PUSH1 0x24 DUP3 ADD MSTORE PUSH32 0x416464726573733A2063616C6C20746F206E6F6E2D636F6E7472616374000000 PUSH1 0x44 DUP3 ADD MSTORE PUSH1 0x64 ADD PUSH3 0x647 JUMP JUMPDEST PUSH1 0x0 DUP1 DUP7 PUSH1 0x1 PUSH1 0x1 PUSH1 0xA0 SHL SUB AND DUP6 DUP8 PUSH1 0x40 MLOAD PUSH3 0x3E2C SWAP2 SWAP1 PUSH3 0x4696 JUMP JUMPDEST PUSH1 0x0 PUSH1 0x40 MLOAD DUP1 DUP4 SUB DUP2 DUP6 DUP8 GAS CALL SWAP3 POP POP POP RETURNDATASIZE DUP1 PUSH1 0x0 DUP2 EQ PUSH3 0x3E6B JUMPI PUSH1 0x40 MLOAD SWAP2 POP PUSH1 0x1F NOT PUSH1 0x3F RETURNDATASIZE ADD AND DUP3 ADD PUSH1 0x40 MSTORE RETURNDATASIZE DUP3 MSTORE RETURNDATASIZE PUSH1 0x0 PUSH1 0x20 DUP5 ADD RETURNDATACOPY PUSH3 0x3E70 JUMP JUMPDEST PUSH1 0x60 SWAP2 POP JUMPDEST POP SWAP2 POP SWAP2 POP PUSH3 0x3E82 DUP3 DUP3 DUP7 PUSH3 0x3E8D JUMP JUMPDEST SWAP8 SWAP7 POP POP POP POP POP POP POP JUMP JUMPDEST PUSH1 0x60 DUP4 ISZERO PUSH3 0x3E9E JUMPI POP DUP2 PUSH3 0x1904 JUMP JUMPDEST DUP3 MLOAD ISZERO PUSH3 0x3EAF JUMPI DUP3 MLOAD DUP1 DUP5 PUSH1 0x20 ADD REVERT JUMPDEST DUP2 PUSH1 0x40 MLOAD PUSH3 0x461BCD PUSH1 0xE5 SHL DUP2 MSTORE PUSH1 0x4 ADD PUSH3 0x647 SWAP2 SWAP1 PUSH3 0x46B4 JUMP JUMPDEST PUSH1 0x40 MLOAD DUP1 PUSH1 0x40 ADD PUSH1 0x40 MSTORE DUP1 PUSH1 0x2 SWAP1 PUSH1 0x20 DUP3 MUL DUP1 CALLDATASIZE DUP4 CALLDATACOPY POP SWAP2 SWAP3 SWAP2 POP POP JUMP JUMPDEST DUP3 PUSH1 0x2 DUP2 ADD SWAP3 DUP3 ISZERO PUSH3 0x3F1A JUMPI SWAP2 PUSH1 0x20 MUL DUP3 ADD JUMPDEST DUP3 DUP2 GT ISZERO PUSH3 0x3F1A JUMPI DUP3 MLOAD DUP3 SSTORE SWAP2 PUSH1 0x20 ADD SWAP2 SWAP1 PUSH1 0x1 ADD SWAP1 PUSH3 0x3EFD JUMP JUMPDEST POP PUSH3 0x3546 SWAP3 SWAP2 POP PUSH3 0x3F81 JUMP JUMPDEST PUSH2 0xE54 DUP1 PUSH3 0x46EA DUP4 CODECOPY ADD SWAP1 JUMP JUMPDEST DUP3 PUSH1 0x2 DUP2 ADD SWAP3 DUP3 ISZERO PUSH3 0x3F1A JUMPI SWAP2 PUSH1 0x20 MUL DUP3 ADD JUMPDEST DUP3 DUP2 GT ISZERO PUSH3 0x3F1A JUMPI DUP3 MLOAD DUP3 SLOAD PUSH1 0x1 PUSH1 0x1 PUSH1 0xA0 SHL SUB NOT AND PUSH1 0x1 PUSH1 0x1 PUSH1 0xA0 SHL SUB SWAP1 SWAP2 AND OR DUP3 SSTORE PUSH1 0x20 SWAP1 SWAP3 ADD SWAP2 PUSH1 0x1 SWAP1 SWAP2 ADD SWAP1 PUSH3 0x3F4A JUMP JUMPDEST JUMPDEST DUP1 DUP3 GT ISZERO PUSH3 0x3546 JUMPI PUSH1 0x0 DUP2 SSTORE PUSH1 0x1 ADD PUSH3 0x3F82 JUMP JUMPDEST PUSH1 0x40 DUP1 MLOAD SWAP1 DUP2 ADD PUSH1 0x1 PUSH1 0x1 PUSH1 0x40 SHL SUB DUP2 GT DUP3 DUP3 LT OR ISZERO PUSH3 0x3FC9 JUMPI PUSH4 0x4E487B71 PUSH1 0xE0 SHL PUSH1 0x0 MSTORE PUSH1 0x41 PUSH1 0x4 MSTORE PUSH1 0x24 PUSH1 0x0 REVERT JUMPDEST PUSH1 0x40 MSTORE SWAP1 JUMP JUMPDEST PUSH1 0x0 DUP3 PUSH1 0x1F DUP4 ADD SLT PUSH3 0x3FE1 JUMPI PUSH1 0x0 DUP1 REVERT JUMPDEST PUSH3 0x3FEB PUSH3 0x3F98 JUMP JUMPDEST DUP1 PUSH1 0x40 DUP5 ADD DUP6 DUP2 GT ISZERO PUSH3 0x3FFE JUMPI PUSH1 0x0 DUP1 REVERT JUMPDEST DUP5 JUMPDEST DUP2 DUP2 LT ISZERO PUSH3 0x401A JUMPI DUP1 CALLDATALOAD DUP5 MSTORE PUSH1 0x20 SWAP4 DUP5 ADD SWAP4 ADD PUSH3 0x4000 JUMP JUMPDEST POP SWAP1 SWAP6 SWAP5 POP POP POP POP POP JUMP JUMPDEST PUSH1 0x0 DUP1 PUSH1 0x60 DUP4 DUP6 SUB SLT ISZERO PUSH3 0x4039 JUMPI PUSH1 0x0 DUP1 REVERT JUMPDEST PUSH3 0x4045 DUP5 DUP5 PUSH3 0x3FCF JUMP JUMPDEST SWAP5 PUSH1 0x40 SWAP4 SWAP1 SWAP4 ADD CALLDATALOAD SWAP4 POP POP POP JUMP JUMPDEST DUP1 CALLDATALOAD PUSH1 0x1 PUSH1 0x1 PUSH1 0xA0 SHL SUB DUP2 AND DUP2 EQ PUSH3 0x406B JUMPI PUSH1 0x0 DUP1 REVERT JUMPDEST SWAP2 SWAP1 POP JUMP JUMPDEST PUSH1 0x0 DUP1 PUSH1 0x0 DUP1 PUSH1 0x0 PUSH1 0xC0 DUP7 DUP9 SUB SLT ISZERO PUSH3 0x4089 JUMPI PUSH1 0x0 DUP1 REVERT JUMPDEST DUP7 PUSH1 0x1F DUP8 ADD SLT PUSH3 0x4099 JUMPI PUSH1 0x0 DUP1 REVERT JUMPDEST PUSH3 0x40A3 PUSH3 0x3F98 JUMP JUMPDEST DUP1 PUSH1 0x40 DUP9 ADD DUP10 DUP2 GT ISZERO PUSH3 0x40B6 JUMPI PUSH1 0x0 DUP1 REVERT JUMPDEST DUP9 JUMPDEST DUP2 DUP2 LT ISZERO PUSH3 0x40DB JUMPI PUSH3 0x40CC DUP2 PUSH3 0x4053 JUMP JUMPDEST DUP5 MSTORE PUSH1 0x20 SWAP4 DUP5 ADD SWAP4 ADD PUSH3 0x40B8 JUMP JUMPDEST POP SWAP1 SWAP7 POP CALLDATALOAD SWAP5 POP POP PUSH1 0x60 DUP7 ADD CALLDATALOAD SWAP3 POP PUSH1 0x80 DUP7 ADD CALLDATALOAD SWAP2 POP PUSH3 0x40FF PUSH1 0xA0 DUP8 ADD PUSH3 0x4053 JUMP JUMPDEST SWAP1 POP SWAP3 SWAP6 POP SWAP3 SWAP6 SWAP1 SWAP4 POP JUMP JUMPDEST PUSH1 0x0 DUP1 PUSH1 0x40 DUP4 DUP6 SUB SLT ISZERO PUSH3 0x411F JUMPI PUSH1 0x0 DUP1 REVERT JUMPDEST POP POP DUP1 CALLDATALOAD SWAP3 PUSH1 0x20 SWAP1 SWAP2 ADD CALLDATALOAD SWAP2 POP JUMP JUMPDEST PUSH1 0x0 PUSH1 0x20 DUP3 DUP5 SUB SLT ISZERO PUSH3 0x4141 JUMPI PUSH1 0x0 DUP1 REVERT JUMPDEST POP CALLDATALOAD SWAP2 SWAP1 POP JUMP JUMPDEST PUSH1 0x0 DUP1 PUSH1 0x0 PUSH1 0x60 DUP5 DUP7 SUB SLT ISZERO PUSH3 0x415E JUMPI PUSH1 0x0 DUP1 REVERT JUMPDEST POP POP DUP2 CALLDATALOAD SWAP4 PUSH1 0x20 DUP4 ADD CALLDATALOAD SWAP4 POP PUSH1 0x40 SWAP1 SWAP3 ADD CALLDATALOAD SWAP2 SWAP1 POP JUMP JUMPDEST PUSH1 0x0 DUP1 PUSH1 0x60 DUP4 DUP6 SUB SLT ISZERO PUSH3 0x4189 JUMPI PUSH1 0x0 DUP1 REVERT JUMPDEST DUP3 CALLDATALOAD SWAP2 POP PUSH3 0x419C DUP5 PUSH1 0x20 DUP6 ADD PUSH3 0x3FCF JUMP JUMPDEST SWAP1 POP SWAP3 POP SWAP3 SWAP1 POP JUMP JUMPDEST PUSH1 0x0 DUP1 PUSH1 0x0 DUP1 PUSH1 0x80 DUP6 DUP8 SUB SLT ISZERO PUSH3 0x41BC JUMPI PUSH1 0x0 DUP1 REVERT JUMPDEST POP POP DUP3 CALLDATALOAD SWAP5 PUSH1 0x20 DUP5 ADD CALLDATALOAD SWAP5 POP PUSH1 0x40 DUP5 ADD CALLDATALOAD SWAP4 PUSH1 0x60 ADD CALLDATALOAD SWAP3 POP SWAP1 POP JUMP JUMPDEST PUSH1 0x1 PUSH1 0x1 PUSH1 0xA0 SHL SUB SWAP2 SWAP1 SWAP2 AND DUP2 MSTORE PUSH1 0x20 ADD SWAP1 JUMP JUMPDEST DUP1 ISZERO ISZERO DUP2 EQ PUSH3 0x1312 JUMPI PUSH1 0x0 DUP1 REVERT JUMPDEST PUSH1 0x0 DUP1 PUSH1 0x60 DUP4 DUP6 SUB SLT ISZERO PUSH3 0x420F JUMPI PUSH1 0x0 DUP1 REVERT JUMPDEST PUSH3 0x421B DUP5 DUP5 PUSH3 0x3FCF JUMP JUMPDEST SWAP2 POP PUSH1 0x40 DUP4 ADD CALLDATALOAD PUSH3 0x422D DUP2 PUSH3 0x41EC JUMP JUMPDEST DUP1 SWAP2 POP POP SWAP3 POP SWAP3 SWAP1 POP JUMP JUMPDEST PUSH1 0x0 PUSH1 0x20 DUP3 DUP5 SUB SLT ISZERO PUSH3 0x424B JUMPI PUSH1 0x0 DUP1 REVERT JUMPDEST PUSH3 0x1904 DUP3 PUSH3 0x4053 JUMP JUMPDEST PUSH1 0x20 DUP1 DUP3 MSTORE PUSH1 0x1F SWAP1 DUP3 ADD MSTORE PUSH32 0x5265656E7472616E637947756172643A207265656E7472616E742063616C6C00 PUSH1 0x40 DUP3 ADD MSTORE PUSH1 0x60 ADD SWAP1 JUMP JUMPDEST PUSH1 0x20 DUP1 DUP3 MSTORE PUSH1 0x6 SWAP1 DUP3 ADD MSTORE PUSH6 0x12DA5B1B1959 PUSH1 0xD2 SHL PUSH1 0x40 DUP3 ADD MSTORE PUSH1 0x60 ADD SWAP1 JUMP JUMPDEST PUSH4 0x4E487B71 PUSH1 0xE0 SHL PUSH1 0x0 MSTORE PUSH1 0x11 PUSH1 0x4 MSTORE PUSH1 0x24 PUSH1 0x0 REVERT JUMPDEST DUP2 DUP2 SUB DUP2 DUP2 GT ISZERO PUSH3 0x1670 JUMPI PUSH3 0x1670 PUSH3 0x42AD JUMP JUMPDEST DUP1 DUP3 MUL DUP2 ISZERO DUP3 DUP3 DIV DUP5 EQ OR PUSH3 0x1670 JUMPI PUSH3 0x1670 PUSH3 0x42AD JUMP JUMPDEST PUSH1 0x0 DUP3 PUSH3 0x4311 JUMPI PUSH4 0x4E487B71 PUSH1 0xE0 SHL PUSH1 0x0 MSTORE PUSH1 0x12 PUSH1 0x4 MSTORE PUSH1 0x24 PUSH1 0x0 REVERT JUMPDEST POP DIV SWAP1 JUMP JUMPDEST PUSH1 0x0 PUSH1 0x20 DUP3 DUP5 SUB SLT ISZERO PUSH3 0x4329 JUMPI PUSH1 0x0 DUP1 REVERT JUMPDEST POP MLOAD SWAP2 SWAP1 POP JUMP JUMPDEST PUSH4 0x4E487B71 PUSH1 0xE0 SHL PUSH1 0x0 MSTORE PUSH1 0x32 PUSH1 0x4 MSTORE PUSH1 0x24 PUSH1 0x0 REVERT JUMPDEST DUP1 DUP3 ADD DUP1 DUP3 GT ISZERO PUSH3 0x1670 JUMPI PUSH3 0x1670 PUSH3 0x42AD JUMP JUMPDEST PUSH1 0x0 PUSH1 0x1 DUP3 ADD PUSH3 0x4371 JUMPI PUSH3 0x4371 PUSH3 0x42AD JUMP JUMPDEST POP PUSH1 0x1 ADD SWAP1 JUMP JUMPDEST PUSH1 0x20 DUP1 DUP3 MSTORE PUSH1 0x14 SWAP1 DUP3 ADD MSTORE PUSH20 0x536C697070616765207363726577656420796F75 PUSH1 0x60 SHL PUSH1 0x40 DUP3 ADD MSTORE PUSH1 0x60 ADD SWAP1 JUMP JUMPDEST PUSH1 0x1 PUSH1 0x1 PUSH1 0xA0 SHL SUB SWAP3 SWAP1 SWAP3 AND DUP3 MSTORE PUSH1 0x20 DUP3 ADD MSTORE PUSH1 0x40 ADD SWAP1 JUMP JUMPDEST DUP1 PUSH1 0x0 JUMPDEST PUSH1 0x2 DUP2 LT ISZERO PUSH3 0x30F9 JUMPI DUP2 MLOAD DUP5 MSTORE PUSH1 0x20 SWAP4 DUP5 ADD SWAP4 SWAP1 SWAP2 ADD SWAP1 PUSH1 0x1 ADD PUSH3 0x43C3 JUMP JUMPDEST PUSH1 0xC0 DUP2 ADD PUSH3 0x43F4 DUP3 DUP8 PUSH3 0x43BF JUMP JUMPDEST PUSH3 0x4403 PUSH1 0x40 DUP4 ADD DUP7 PUSH3 0x43BF JUMP JUMPDEST PUSH1 0x80 DUP3 ADD SWAP4 SWAP1 SWAP4 MSTORE PUSH1 0xA0 ADD MSTORE SWAP3 SWAP2 POP POP JUMP JUMPDEST PUSH1 0x20 DUP1 DUP3 MSTORE DUP2 DUP2 ADD MSTORE PUSH32 0x4F776E61626C653A2063616C6C6572206973206E6F7420746865206F776E6572 PUSH1 0x40 DUP3 ADD MSTORE PUSH1 0x60 ADD SWAP1 JUMP JUMPDEST PUSH1 0x0 PUSH1 0x20 DUP3 DUP5 SUB SLT ISZERO PUSH3 0x445D JUMPI PUSH1 0x0 DUP1 REVERT JUMPDEST DUP2 MLOAD PUSH1 0xFF DUP2 AND DUP2 EQ PUSH3 0x1904 JUMPI PUSH1 0x0 DUP1 REVERT JUMPDEST PUSH1 0x1 DUP2 DUP2 JUMPDEST DUP1 DUP6 GT ISZERO PUSH3 0x44B0 JUMPI DUP2 PUSH1 0x0 NOT DIV DUP3 GT ISZERO PUSH3 0x4494 JUMPI PUSH3 0x4494 PUSH3 0x42AD JUMP JUMPDEST DUP1 DUP6 AND ISZERO PUSH3 0x44A2 JUMPI SWAP2 DUP2 MUL SWAP2 JUMPDEST SWAP4 DUP5 SHR SWAP4 SWAP1 DUP1 MUL SWAP1 PUSH3 0x4474 JUMP JUMPDEST POP SWAP3 POP SWAP3 SWAP1 POP JUMP JUMPDEST PUSH1 0x0 DUP3 PUSH3 0x44C9 JUMPI POP PUSH1 0x1 PUSH3 0x1670 JUMP JUMPDEST DUP2 PUSH3 0x44D8 JUMPI POP PUSH1 0x0 PUSH3 0x1670 JUMP JUMPDEST DUP2 PUSH1 0x1 DUP2 EQ PUSH3 0x44F1 JUMPI PUSH1 0x2 DUP2 EQ PUSH3 0x44FC JUMPI PUSH3 0x451C JUMP JUMPDEST PUSH1 0x1 SWAP2 POP POP PUSH3 0x1670 JUMP JUMPDEST PUSH1 0xFF DUP5 GT ISZERO PUSH3 0x4510 JUMPI PUSH3 0x4510 PUSH3 0x42AD JUMP JUMPDEST POP POP PUSH1 0x1 DUP3 SHL PUSH3 0x1670 JUMP JUMPDEST POP PUSH1 0x20 DUP4 LT PUSH2 0x133 DUP4 LT AND PUSH1 0x4E DUP5 LT PUSH1 0xB DUP5 LT AND OR ISZERO PUSH3 0x4541 JUMPI POP DUP2 DUP2 EXP PUSH3 0x1670 JUMP JUMPDEST PUSH3 0x454D DUP4 DUP4 PUSH3 0x446F JUMP JUMPDEST DUP1 PUSH1 0x0 NOT DIV DUP3 GT ISZERO PUSH3 0x4564 JUMPI PUSH3 0x4564 PUSH3 0x42AD JUMP JUMPDEST MUL SWAP4 SWAP3 POP POP POP JUMP JUMPDEST PUSH1 0x0 PUSH3 0x1904 DUP4 DUP4 PUSH3 0x44B8 JUMP JUMPDEST PUSH1 0x0 DUP2 DUP7 DUP3 JUMPDEST PUSH1 0x2 DUP2 LT ISZERO PUSH3 0x45AA JUMPI DUP2 MLOAD PUSH1 0x1 PUSH1 0x1 PUSH1 0xA0 SHL SUB AND DUP4 MSTORE PUSH1 0x20 SWAP3 DUP4 ADD SWAP3 SWAP1 SWAP2 ADD SWAP1 PUSH1 0x1 ADD PUSH3 0x4580 JUMP JUMPDEST POP POP POP POP PUSH1 0x60 SWAP4 SWAP1 SWAP4 SHL PUSH1 0x1 PUSH1 0x1 PUSH1 0x60 SHL SUB NOT AND PUSH1 0x40 DUP5 ADD MSTORE PUSH1 0x54 DUP4 ADD SWAP2 SWAP1 SWAP2 MSTORE PUSH1 0x74 DUP3 ADD MSTORE PUSH1 0x94 ADD SWAP2 SWAP1 POP JUMP JUMPDEST PUSH1 0x20 DUP1 DUP3 MSTORE PUSH1 0x16 SWAP1 DUP3 ADD MSTORE PUSH22 0x6465763A20696E73756666696369656E742074696D65 PUSH1 0x50 SHL PUSH1 0x40 DUP3 ADD MSTORE PUSH1 0x60 ADD SWAP1 JUMP JUMPDEST SWAP4 DUP5 MSTORE PUSH1 0x20 DUP5 ADD SWAP3 SWAP1 SWAP3 MSTORE PUSH1 0x40 DUP4 ADD MSTORE PUSH1 0x60 DUP3 ADD MSTORE PUSH1 0x80 ADD SWAP1 JUMP JUMPDEST PUSH1 0xA0 DUP2 ADD PUSH3 0x4633 DUP3 DUP7 PUSH3 0x43BF JUMP JUMPDEST PUSH3 0x4642 PUSH1 0x40 DUP4 ADD DUP6 PUSH3 0x43BF JUMP JUMPDEST DUP3 PUSH1 0x80 DUP4 ADD MSTORE SWAP5 SWAP4 POP POP POP POP JUMP JUMPDEST PUSH1 0x0 PUSH1 0x20 DUP3 DUP5 SUB SLT ISZERO PUSH3 0x4663 JUMPI PUSH1 0x0 DUP1 REVERT JUMPDEST DUP2 MLOAD PUSH3 0x1904 DUP2 PUSH3 0x41EC JUMP JUMPDEST PUSH1 0x0 JUMPDEST DUP4 DUP2 LT ISZERO PUSH3 0x468D JUMPI DUP2 DUP2 ADD MLOAD DUP4 DUP3 ADD MSTORE PUSH1 0x20 ADD PUSH3 0x4673 JUMP JUMPDEST POP POP PUSH1 0x0 SWAP2 ADD MSTORE JUMP JUMPDEST PUSH1 0x0 DUP3 MLOAD PUSH3 0x46AA DUP2 DUP5 PUSH1 0x20 DUP8 ADD PUSH3 0x4670 JUMP JUMPDEST SWAP2 SWAP1 SWAP2 ADD SWAP3 SWAP2 POP POP JUMP JUMPDEST PUSH1 0x20 DUP2 MSTORE PUSH1 0x0 DUP3 MLOAD DUP1 PUSH1 0x20 DUP5 ADD MSTORE PUSH3 0x46D5 DUP2 PUSH1 0x40 DUP6 ADD PUSH1 0x20 DUP8 ADD PUSH3 0x4670 JUMP JUMPDEST PUSH1 0x1F ADD PUSH1 0x1F NOT AND SWAP2 SWAP1 SWAP2 ADD PUSH1 0x40 ADD SWAP3 SWAP2 POP POP JUMP INVALID PUSH1 0xA0 PUSH1 0x40 MSTORE CALLVALUE DUP1 ISZERO PUSH3 0x11 JUMPI PUSH1 0x0 DUP1 REVERT JUMPDEST POP PUSH1 0x40 MLOAD DUP1 PUSH1 0x40 ADD PUSH1 0x40 MSTORE DUP1 PUSH1 0x16 DUP2 MSTORE PUSH1 0x20 ADD PUSH32 0x50616E63616B6520537461626C6553776170204C507300000000000000000000 DUP2 MSTORE POP PUSH1 0x40 MLOAD DUP1 PUSH1 0x40 ADD PUSH1 0x40 MSTORE DUP1 PUSH1 0x9 DUP2 MSTORE PUSH1 0x20 ADD PUSH9 0x537461626C652D4C5 PUSH1 0xBC SHL DUP2 MSTORE POP DUP2 PUSH1 0x3 SWAP1 DUP2 PUSH3 0x7B SWAP2 SWAP1 PUSH3 0x13C JUMP JUMPDEST POP PUSH1 0x4 PUSH3 0x8A DUP3 DUP3 PUSH3 0x13C JUMP JUMPDEST POP POP CALLER PUSH1 0x80 MSTORE POP PUSH3 0x208 JUMP JUMPDEST PUSH4 0x4E487B71 PUSH1 0xE0 SHL PUSH1 0x0 MSTORE PUSH1 0x41 PUSH1 0x4 MSTORE PUSH1 0x24 PUSH1 0x0 REVERT JUMPDEST PUSH1 0x1 DUP2 DUP2 SHR SWAP1 DUP3 AND DUP1 PUSH3 0xC2 JUMPI PUSH1 0x7F DUP3 AND SWAP2 POP JUMPDEST PUSH1 0x20 DUP3 LT DUP2 SUB PUSH3 0xE3 JUMPI PUSH4 0x4E487B71 PUSH1 0xE0 SHL PUSH1 0x0 MSTORE PUSH1 0x22 PUSH1 0x4 MSTORE PUSH1 0x24 PUSH1 0x0 REVERT JUMPDEST POP SWAP2 SWAP1 POP JUMP JUMPDEST PUSH1 0x1F DUP3 GT ISZERO PUSH3 0x137 JUMPI PUSH1 0x0 DUP2 DUP2 MSTORE PUSH1 0x20 DUP2 KECCAK256 PUSH1 0x1F DUP6 ADD PUSH1 0x5 SHR DUP2 ADD PUSH1 0x20 DUP7 LT ISZERO PUSH3 0x112 JUMPI POP DUP1 JUMPDEST PUSH1 0x1F DUP6 ADD PUSH1 0x5 SHR DUP3 ADD SWAP2 POP JUMPDEST DUP2 DUP2 LT ISZERO PUSH3 0x133 JUMPI DUP3 DUP2 SSTORE PUSH1 0x1 ADD PUSH3 0x11E JUMP JUMPDEST POP POP POP JUMPDEST POP POP POP JUMP JUMPDEST DUP2 MLOAD PUSH1 0x1 PUSH1 0x1 PUSH1 0x40 SHL SUB DUP2 GT ISZERO PUSH3 0x158 JUMPI PUSH3 0x158 PUSH3 0x97 JUMP JUMPDEST PUSH3 0x170 DUP2 PUSH3 0x169 DUP5 SLOAD PUSH3 0xAD JUMP JUMPDEST DUP5 PUSH3 0xE9 JUMP JUMPDEST PUSH1 0x20 DUP1 PUSH1 0x1F DUP4 GT PUSH1 0x1 DUP2 EQ PUSH3 0x1A8 JUMPI PUSH1 0x0 DUP5 ISZERO PUSH3 0x18F JUMPI POP DUP6 DUP4 ADD MLOAD JUMPDEST PUSH1 0x0 NOT PUSH1 0x3 DUP7 SWAP1 SHL SHR NOT AND PUSH1 0x1 DUP6 SWAP1 SHL OR DUP6 SSTORE PUSH3 0x133 JUMP JUMPDEST PUSH1 0x0 DUP6 DUP2 MSTORE PUSH1 0x20 DUP2 KECCAK256 PUSH1 0x1F NOT DUP7 AND SWAP2 JUMPDEST DUP3 DUP2 LT ISZERO PUSH3 0x1D9 JUMPI DUP9 DUP7 ADD MLOAD DUP3 SSTORE SWAP5 DUP5 ADD SWAP5 PUSH1 0x1 SWAP1 SWAP2 ADD SWAP1 DUP5 ADD PUSH3 0x1B8 JUMP JUMPDEST POP DUP6 DUP3 LT ISZERO PUSH3 0x1F8 JUMPI DUP8 DUP6 ADD MLOAD PUSH1 0x0 NOT PUSH1 0x3 DUP9 SWAP1 SHL PUSH1 0xF8 AND SHR NOT AND DUP2 SSTORE JUMPDEST POP POP POP POP POP PUSH1 0x1 SWAP1 DUP2 SHL ADD SWAP1 SSTORE POP JUMP JUMPDEST PUSH1 0x80 MLOAD PUSH2 0xC23 PUSH3 0x231 PUSH1 0x0 CODECOPY PUSH1 0x0 DUP2 DUP2 PUSH1 0xE2 ADD MSTORE DUP2 DUP2 PUSH2 0x332 ADD MSTORE PUSH2 0x391 ADD MSTORE PUSH2 0xC23 PUSH1 0x0 RETURN INVALID PUSH1 0x80 PUSH1 0x40 MSTORE CALLVALUE DUP1 ISZERO PUSH2 0x10 JUMPI PUSH1 0x0 DUP1 REVERT JUMPDEST POP PUSH1 0x4 CALLDATASIZE LT PUSH2 0xBA JUMPI PUSH1 0x0 CALLDATALOAD PUSH1 0xE0 SHR DUP1 PUSH4 0x6FDDE03 EQ PUSH2 0xBF JUMPI DUP1 PUSH4 0x7546172 EQ PUSH2 0xDD JUMPI DUP1 PUSH4 0x95EA7B3 EQ PUSH2 0x11C JUMPI DUP1 PUSH4 0x18160DDD EQ PUSH2 0x13F JUMPI DUP1 PUSH4 0x23B872DD EQ PUSH2 0x151 JUMPI DUP1 PUSH4 0x313CE567 EQ PUSH2 0x164 JUMPI DUP1 PUSH4 0x39509351 EQ PUSH2 0x173 JUMPI DUP1 PUSH4 0x40C10F19 EQ PUSH2 0x186 JUMPI DUP1 PUSH4 0x70A08231 EQ PUSH2 0x19B JUMPI DUP1 PUSH4 0x79CC6790 EQ PUSH2 0x1C4 JUMPI DUP1 PUSH4 0x95D89B41 EQ PUSH2 0x1D7 JUMPI DUP1 PUSH4 0xA457C2D7 EQ PUSH2 0x1DF JUMPI DUP1 PUSH4 0xA9059CBB EQ PUSH2 0x1F2 JUMPI DUP1 PUSH4 0xDD62ED3E EQ PUSH2 0x205 JUMPI JUMPDEST PUSH1 0x0 DUP1 REVERT JUMPDEST PUSH2 0xC7 PUSH2 0x218 JUMP JUMPDEST PUSH1 0x40 MLOAD PUSH2 0xD4 SWAP2 SWAP1 PUSH2 0xA0E JUMP JUMPDEST PUSH1 0x40 MLOAD DUP1 SWAP2 SUB SWAP1 RETURN JUMPDEST PUSH2 0x104 PUSH32 0x0 DUP2 JUMP JUMPDEST PUSH1 0x40 MLOAD PUSH1 0x1 PUSH1 0x1 PUSH1 0xA0 SHL SUB SWAP1 SWAP2 AND DUP2 MSTORE PUSH1 0x20 ADD PUSH2 0xD4 JUMP JUMPDEST PUSH2 0x12F PUSH2 0x12A CALLDATASIZE PUSH1 0x4 PUSH2 0xA78 JUMP JUMPDEST PUSH2 0x2AA JUMP JUMPDEST PUSH1 0x40 MLOAD SWAP1 ISZERO ISZERO DUP2 MSTORE PUSH1 0x20 ADD PUSH2 0xD4 JUMP JUMPDEST PUSH1 0x2 SLOAD JUMPDEST PUSH1 0x40 MLOAD SWAP1 DUP2 MSTORE PUSH1 0x20 ADD PUSH2 0xD4 JUMP JUMPDEST PUSH2 0x12F PUSH2 0x15F CALLDATASIZE PUSH1 0x4 PUSH2 0xAA2 JUMP JUMPDEST PUSH2 0x2C4 JUMP JUMPDEST PUSH1 0x40 MLOAD PUSH1 0x12 DUP2 MSTORE PUSH1 0x20 ADD PUSH2 0xD4 JUMP JUMPDEST PUSH2 0x12F PUSH2 0x181 CALLDATASIZE PUSH1 0x4 PUSH2 0xA78 JUMP JUMPDEST PUSH2 0x2E8 JUMP JUMPDEST PUSH2 0x199 PUSH2 0x194 CALLDATASIZE PUSH1 0x4 PUSH2 0xA78 JUMP JUMPDEST PUSH2 0x327 JUMP JUMPDEST STOP JUMPDEST PUSH2 0x143 PUSH2 0x1A9 CALLDATASIZE PUSH1 0x4 PUSH2 0xADE JUMP JUMPDEST PUSH1 0x1 PUSH1 0x1 PUSH1 0xA0 SHL SUB AND PUSH1 0x0 SWAP1 DUP2 MSTORE PUSH1 0x20 DUP2 SWAP1 MSTORE PUSH1 0x40 SWAP1 KECCAK256 SLOAD SWAP1 JUMP JUMPDEST PUSH2 0x199 PUSH2 0x1D2 CALLDATASIZE PUSH1 0x4 PUSH2 0xA78 JUMP JUMPDEST PUSH2 0x386 JUMP JUMPDEST PUSH2 0xC7 PUSH2 0x3D8 JUMP JUMPDEST PUSH2 0x12F PUSH2 0x1ED CALLDATASIZE PUSH1 0x4 PUSH2 0xA78 JUMP JUMPDEST PUSH2 0x3E7 JUMP JUMPDEST PUSH2 0x12F PUSH2 0x200 CALLDATASIZE PUSH1 0x4 PUSH2 0xA78 JUMP JUMPDEST PUSH2 0x479 JUMP JUMPDEST PUSH2 0x143 PUSH2 0x213 CALLDATASIZE PUSH1 0x4 PUSH2 0xB00 JUMP JUMPDEST PUSH2 0x487 JUMP JUMPDEST PUSH1 0x60 PUSH1 0x3 DUP1 SLOAD PUSH2 0x227 SWAP1 PUSH2 0xB33 JUMP JUMPDEST DUP1 PUSH1 0x1F ADD PUSH1 0x20 DUP1 SWAP2 DIV MUL PUSH1 0x20 ADD PUSH1 0x40 MLOAD SWAP1 DUP2 ADD PUSH1 0x40 MSTORE DUP1 SWAP3 SWAP2 SWAP1 DUP2 DUP2 MSTORE PUSH1 0x20 ADD DUP3 DUP1 SLOAD PUSH2 0x253 SWAP1 PUSH2 0xB33 JUMP JUMPDEST DUP1 ISZERO PUSH2 0x2A0 JUMPI DUP1 PUSH1 0x1F LT PUSH2 0x275 JUMPI PUSH2 0x100 DUP1 DUP4 SLOAD DIV MUL DUP4 MSTORE SWAP2 PUSH1 0x20 ADD SWAP2 PUSH2 0x2A0 JUMP JUMPDEST DUP3 ADD SWAP2 SWAP1 PUSH1 0x0 MSTORE PUSH1 0x20 PUSH1 0x0 KECCAK256 SWAP1 JUMPDEST DUP2 SLOAD DUP2 MSTORE SWAP1 PUSH1 0x1 ADD SWAP1 PUSH1 0x20 ADD DUP1 DUP4 GT PUSH2 0x283 JUMPI DUP3 SWAP1 SUB PUSH1 0x1F AND DUP3 ADD SWAP2 JUMPDEST POP POP POP POP POP SWAP1 POP SWAP1 JUMP JUMPDEST PUSH1 0x0 CALLER PUSH2 0x2B8 DUP2 DUP6 DUP6 PUSH2 0x4B2 JUMP JUMPDEST PUSH1 0x1 SWAP2 POP POP JUMPDEST SWAP3 SWAP2 POP POP JUMP JUMPDEST PUSH1 0x0 CALLER PUSH2 0x2D2 DUP6 DUP3 DUP6 PUSH2 0x5D7 JUMP JUMPDEST PUSH2 0x2DD DUP6 DUP6 DUP6 PUSH2 0x651 JUMP JUMPDEST POP PUSH1 0x1 SWAP5 SWAP4 POP POP POP POP JUMP JUMPDEST CALLER PUSH1 0x0 DUP2 DUP2 MSTORE PUSH1 0x1 PUSH1 0x20 SWAP1 DUP2 MSTORE PUSH1 0x40 DUP1 DUP4 KECCAK256 PUSH1 0x1 PUSH1 0x1 PUSH1 0xA0 SHL SUB DUP8 AND DUP5 MSTORE SWAP1 SWAP2 MSTORE DUP2 KECCAK256 SLOAD SWAP1 SWAP2 SWAP1 PUSH2 0x2B8 SWAP1 DUP3 SWAP1 DUP7 SWAP1 PUSH2 0x322 SWAP1 DUP8 SWAP1 PUSH2 0xB83 JUMP JUMPDEST PUSH2 0x4B2 JUMP JUMPDEST CALLER PUSH1 0x1 PUSH1 0x1 PUSH1 0xA0 SHL SUB PUSH32 0x0 AND EQ PUSH2 0x378 JUMPI PUSH1 0x40 MLOAD PUSH3 0x461BCD PUSH1 0xE5 SHL DUP2 MSTORE PUSH1 0x4 ADD PUSH2 0x36F SWAP1 PUSH2 0xB96 JUMP JUMPDEST PUSH1 0x40 MLOAD DUP1 SWAP2 SUB SWAP1 REVERT JUMPDEST PUSH2 0x382 DUP3 DUP3 PUSH2 0x80D JUMP JUMPDEST POP POP JUMP JUMPDEST CALLER PUSH1 0x1 PUSH1 0x1 PUSH1 0xA0 SHL SUB PUSH32 0x0 AND EQ PUSH2 0x3CE JUMPI PUSH1 0x40 MLOAD PUSH3 0x461BCD PUSH1 0xE5 SHL DUP2 MSTORE PUSH1 0x4 ADD PUSH2 0x36F SWAP1 PUSH2 0xB96 JUMP JUMPDEST PUSH2 0x382 DUP3 DUP3 PUSH2 0x8DA JUMP JUMPDEST PUSH1 0x60 PUSH1 0x4 DUP1 SLOAD PUSH2 0x227 SWAP1 PUSH2 0xB33 JUMP JUMPDEST CALLER PUSH1 0x0 DUP2 DUP2 MSTORE PUSH1 0x1 PUSH1 0x20 SWAP1 DUP2 MSTORE PUSH1 0x40 DUP1 DUP4 KECCAK256 PUSH1 0x1 PUSH1 0x1 PUSH1 0xA0 SHL SUB DUP8 AND DUP5 MSTORE SWAP1 SWAP2 MSTORE DUP2 KECCAK256 SLOAD SWAP1 SWAP2 SWAP1 DUP4 DUP2 LT ISZERO PUSH2 0x46C JUMPI PUSH1 0x40 MLOAD PUSH3 0x461BCD PUSH1 0xE5 SHL DUP2 MSTORE PUSH1 0x20 PUSH1 0x4 DUP3 ADD MSTORE PUSH1 0x25 PUSH1 0x24 DUP3 ADD MSTORE PUSH32 0x45524332303A2064656372656173656420616C6C6F77616E63652062656C6F77 PUSH1 0x44 DUP3 ADD MSTORE PUSH5 0x207A65726F PUSH1 0xD8 SHL PUSH1 0x64 DUP3 ADD MSTORE PUSH1 0x84 ADD PUSH2 0x36F JUMP JUMPDEST PUSH2 0x2DD DUP3 DUP7 DUP7 DUP5 SUB PUSH2 0x4B2 JUMP JUMPDEST PUSH1 0x0 CALLER PUSH2 0x2B8 DUP2 DUP6 DUP6 PUSH2 0x651 JUMP JUMPDEST PUSH1 0x1 PUSH1 0x1 PUSH1 0xA0 SHL SUB SWAP2 DUP3 AND PUSH1 0x0 SWAP1 DUP2 MSTORE PUSH1 0x1 PUSH1 0x20 SWAP1 DUP2 MSTORE PUSH1 0x40 DUP1 DUP4 KECCAK256 SWAP4 SWAP1 SWAP5 AND DUP3 MSTORE SWAP2 SWAP1 SWAP2 MSTORE KECCAK256 SLOAD SWAP1 JUMP JUMPDEST PUSH1 0x1 PUSH1 0x1 PUSH1 0xA0 SHL SUB DUP4 AND PUSH2 0x514 JUMPI PUSH1 0x40 MLOAD PUSH3 0x461BCD PUSH1 0xE5 SHL DUP2 MSTORE PUSH1 0x20 PUSH1 0x4 DUP3 ADD MSTORE PUSH1 0x24 DUP1 DUP3 ADD MSTORE PUSH32 0x45524332303A20617070726F76652066726F6D20746865207A65726F20616464 PUSH1 0x44 DUP3 ADD MSTORE PUSH4 0x72657373 PUSH1 0xE0 SHL PUSH1 0x64 DUP3 ADD MSTORE PUSH1 0x84 ADD PUSH2 0x36F JUMP JUMPDEST PUSH1 0x1 PUSH1 0x1 PUSH1 0xA0 SHL SUB DUP3 AND PUSH2 0x575 JUMPI PUSH1 0x40 MLOAD PUSH3 0x461BCD PUSH1 0xE5 SHL DUP2 MSTORE PUSH1 0x20 PUSH1 0x4 DUP3 ADD MSTORE PUSH1 0x22 PUSH1 0x24 DUP3 ADD MSTORE PUSH32 0x45524332303A20617070726F766520746F20746865207A65726F206164647265 PUSH1 0x44 DUP3 ADD MSTORE PUSH2 0x7373 PUSH1 0xF0 SHL PUSH1 0x64 DUP3 ADD MSTORE PUSH1 0x84 ADD PUSH2 0x36F JUMP JUMPDEST PUSH1 0x1 PUSH1 0x1 PUSH1 0xA0 SHL SUB DUP4 DUP2 AND PUSH1 0x0 DUP2 DUP2 MSTORE PUSH1 0x1 PUSH1 0x20 SWAP1 DUP2 MSTORE PUSH1 0x40 DUP1 DUP4 KECCAK256 SWAP5 DUP8 AND DUP1 DUP5 MSTORE SWAP5 DUP3 MSTORE SWAP2 DUP3 SWAP1 KECCAK256 DUP6 SWAP1 SSTORE SWAP1 MLOAD DUP5 DUP2 MSTORE PUSH32 0x8C5BE1E5EBEC7D5BD14F71427D1E84F3DD0314C0F7B2291E5B200AC8C7C3B925 SWAP2 ADD JUMPDEST PUSH1 0x40 MLOAD DUP1 SWAP2 SUB SWAP1 LOG3 POP POP POP JUMP JUMPDEST PUSH1 0x0 PUSH2 0x5E3 DUP5 DUP5 PUSH2 0x487 JUMP JUMPDEST SWAP1 POP PUSH1 0x0 NOT DUP2 EQ PUSH2 0x64B JUMPI DUP2 DUP2 LT ISZERO PUSH2 0x63E JUMPI PUSH1 0x40 MLOAD PUSH3 0x461BCD PUSH1 0xE5 SHL DUP2 MSTORE PUSH1 0x20 PUSH1 0x4 DUP3 ADD MSTORE PUSH1 0x1D PUSH1 0x24 DUP3 ADD MSTORE PUSH32 0x45524332303A20696E73756666696369656E7420616C6C6F77616E6365000000 PUSH1 0x44 DUP3 ADD MSTORE PUSH1 0x64 ADD PUSH2 0x36F JUMP JUMPDEST PUSH2 0x64B DUP5 DUP5 DUP5 DUP5 SUB PUSH2 0x4B2 JUMP JUMPDEST POP POP POP POP JUMP JUMPDEST PUSH1 0x1 PUSH1 0x1 PUSH1 0xA0 SHL SUB DUP4 AND PUSH2 0x6B5 JUMPI PUSH1 0x40 MLOAD PUSH3 0x461BCD PUSH1 0xE5 SHL DUP2 MSTORE PUSH1 0x20 PUSH1 0x4 DUP3 ADD MSTORE PUSH1 0x25 PUSH1 0x24 DUP3 ADD MSTORE PUSH32 0x45524332303A207472616E736665722066726F6D20746865207A65726F206164 PUSH1 0x44 DUP3 ADD MSTORE PUSH5 0x6472657373 PUSH1 0xD8 SHL PUSH1 0x64 DUP3 ADD MSTORE PUSH1 0x84 ADD PUSH2 0x36F JUMP JUMPDEST PUSH1 0x1 PUSH1 0x1 PUSH1 0xA0 SHL SUB DUP3 AND PUSH2 0x717 JUMPI PUSH1 0x40 MLOAD PUSH3 0x461BCD PUSH1 0xE5 SHL DUP2 MSTORE PUSH1 0x20 PUSH1 0x4 DUP3 ADD MSTORE PUSH1 0x23 PUSH1 0x24 DUP3 ADD MSTORE PUSH32 0x45524332303A207472616E7366657220746F20746865207A65726F2061646472 PUSH1 0x44 DUP3 ADD MSTORE PUSH3 0x657373 PUSH1 0xE8 SHL PUSH1 0x64 DUP3 ADD MSTORE PUSH1 0x84 ADD PUSH2 0x36F JUMP JUMPDEST PUSH1 0x1 PUSH1 0x1 PUSH1 0xA0 SHL SUB DUP4 AND PUSH1 0x0 SWAP1 DUP2 MSTORE PUSH1 0x20 DUP2 SWAP1 MSTORE PUSH1 0x40 SWAP1 KECCAK256 SLOAD DUP2 DUP2 LT ISZERO PUSH2 0x78F JUMPI PUSH1 0x40 MLOAD PUSH3 0x461BCD PUSH1 0xE5 SHL DUP2 MSTORE PUSH1 0x20 PUSH1 0x4 DUP3 ADD MSTORE PUSH1 0x26 PUSH1 0x24 DUP3 ADD MSTORE PUSH32 0x45524332303A207472616E7366657220616D6F756E7420657863656564732062 PUSH1 0x44 DUP3 ADD MSTORE PUSH6 0x616C616E6365 PUSH1 0xD0 SHL PUSH1 0x64 DUP3 ADD MSTORE PUSH1 0x84 ADD PUSH2 0x36F JUMP JUMPDEST PUSH1 0x1 PUSH1 0x1 PUSH1 0xA0 SHL SUB DUP1 DUP6 AND PUSH1 0x0 SWAP1 DUP2 MSTORE PUSH1 0x20 DUP2 SWAP1 MSTORE PUSH1 0x40 DUP1 DUP3 KECCAK256 DUP6 DUP6 SUB SWAP1 SSTORE SWAP2 DUP6 AND DUP2 MSTORE SWAP1 DUP2 KECCAK256 DUP1 SLOAD DUP5 SWAP3 SWAP1 PUSH2 0x7C6 SWAP1 DUP5 SWAP1 PUSH2 0xB83 JUMP JUMPDEST SWAP3 POP POP DUP2 SWAP1 SSTORE POP DUP3 PUSH1 0x1 PUSH1 0x1 PUSH1 0xA0 SHL SUB AND DUP5 PUSH1 0x1 PUSH1 0x1 PUSH1 0xA0 SHL SUB AND PUSH1 0x0 DUP1 MLOAD PUSH1 0x20 PUSH2 0xBCE DUP4 CODECOPY DUP2 MLOAD SWAP2 MSTORE DUP5 PUSH1 0x40 MLOAD PUSH2 0x800 SWAP2 DUP2 MSTORE PUSH1 0x20 ADD SWAP1 JUMP JUMPDEST PUSH1 0x40 MLOAD DUP1 SWAP2 SUB SWAP1 LOG3 PUSH2 0x64B JUMP JUMPDEST PUSH1 0x1 PUSH1 0x1 PUSH1 0xA0 SHL SUB DUP3 AND PUSH2 0x863 JUMPI PUSH1 0x40 MLOAD PUSH3 0x461BCD PUSH1 0xE5 SHL DUP2 MSTORE PUSH1 0x20 PUSH1 0x4 DUP3 ADD MSTORE PUSH1 0x1F PUSH1 0x24 DUP3 ADD MSTORE PUSH32 0x45524332303A206D696E7420746F20746865207A65726F206164647265737300 PUSH1 0x44 DUP3 ADD MSTORE PUSH1 0x64 ADD PUSH2 0x36F JUMP JUMPDEST DUP1 PUSH1 0x2 PUSH1 0x0 DUP3 DUP3 SLOAD PUSH2 0x875 SWAP2 SWAP1 PUSH2 0xB83 JUMP JUMPDEST SWAP1 SWAP2 SSTORE POP POP PUSH1 0x1 PUSH1 0x1 PUSH1 0xA0 SHL SUB DUP3 AND PUSH1 0x0 SWAP1 DUP2 MSTORE PUSH1 0x20 DUP2 SWAP1 MSTORE PUSH1 0x40 DUP2 KECCAK256 DUP1 SLOAD DUP4 SWAP3 SWAP1 PUSH2 0x8A2 SWAP1 DUP5 SWAP1 PUSH2 0xB83 JUMP JUMPDEST SWAP1 SWAP2 SSTORE POP POP PUSH1 0x40 MLOAD DUP2 DUP2 MSTORE PUSH1 0x1 PUSH1 0x1 PUSH1 0xA0 SHL SUB DUP4 AND SWAP1 PUSH1 0x0 SWAP1 PUSH1 0x0 DUP1 MLOAD PUSH1 0x20 PUSH2 0xBCE DUP4 CODECOPY DUP2 MLOAD SWAP2 MSTORE SWAP1 PUSH1 0x20 ADD PUSH1 0x40 MLOAD DUP1 SWAP2 SUB SWAP1 LOG3 POP POP JUMP JUMPDEST PUSH1 0x1 PUSH1 0x1 PUSH1 0xA0 SHL SUB DUP3 AND PUSH2 0x93A JUMPI PUSH1 0x40 MLOAD PUSH3 0x461BCD PUSH1 0xE5 SHL DUP2 MSTORE PUSH1 0x20 PUSH1 0x4 DUP3 ADD MSTORE PUSH1 0x21 PUSH1 0x24 DUP3 ADD MSTORE PUSH32 0x45524332303A206275726E2066726F6D20746865207A65726F20616464726573 PUSH1 0x44 DUP3 ADD MSTORE PUSH1 0x73 PUSH1 0xF8 SHL PUSH1 0x64 DUP3 ADD MSTORE PUSH1 0x84 ADD PUSH2 0x36F JUMP JUMPDEST PUSH1 0x1 PUSH1 0x1 PUSH1 0xA0 SHL SUB DUP3 AND PUSH1 0x0 SWAP1 DUP2 MSTORE PUSH1 0x20 DUP2 SWAP1 MSTORE PUSH1 0x40 SWAP1 KECCAK256 SLOAD DUP2 DUP2 LT ISZERO PUSH2 0x9AE JUMPI PUSH1 0x40 MLOAD PUSH3 0x461BCD PUSH1 0xE5 SHL DUP2 MSTORE PUSH1 0x20 PUSH1 0x4 DUP3 ADD MSTORE PUSH1 0x22 PUSH1 0x24 DUP3 ADD MSTORE PUSH32 0x45524332303A206275726E20616D6F756E7420657863656564732062616C616E PUSH1 0x44 DUP3 ADD MSTORE PUSH2 0x6365 PUSH1 0xF0 SHL PUSH1 0x64 DUP3 ADD MSTORE PUSH1 0x84 ADD PUSH2 0x36F JUMP JUMPDEST PUSH1 0x1 PUSH1 0x1 PUSH1 0xA0 SHL SUB DUP4 AND PUSH1 0x0 SWAP1 DUP2 MSTORE PUSH1 0x20 DUP2 SWAP1 MSTORE PUSH1 0x40 DUP2 KECCAK256 DUP4 DUP4 SUB SWAP1 SSTORE PUSH1 0x2 DUP1 SLOAD DUP5 SWAP3 SWAP1 PUSH2 0x9DD SWAP1 DUP5 SWAP1 PUSH2 0xBBA JUMP JUMPDEST SWAP1 SWAP2 SSTORE POP POP PUSH1 0x40 MLOAD DUP3 DUP2 MSTORE PUSH1 0x0 SWAP1 PUSH1 0x1 PUSH1 0x1 PUSH1 0xA0 SHL SUB DUP6 AND SWAP1 PUSH1 0x0 DUP1 MLOAD PUSH1 0x20 PUSH2 0xBCE DUP4 CODECOPY DUP2 MLOAD SWAP2 MSTORE SWAP1 PUSH1 0x20 ADD PUSH2 0x5CA JUMP JUMPDEST PUSH1 0x0 PUSH1 0x20 DUP1 DUP4 MSTORE DUP4 MLOAD DUP1 DUP3 DUP6 ADD MSTORE PUSH1 0x0 JUMPDEST DUP2 DUP2 LT ISZERO PUSH2 0xA3B JUMPI DUP6 DUP2 ADD DUP4 ADD MLOAD DUP6 DUP3 ADD PUSH1 0x40 ADD MSTORE DUP3 ADD PUSH2 0xA1F JUMP JUMPDEST POP PUSH1 0x0 PUSH1 0x40 DUP3 DUP7 ADD ADD MSTORE PUSH1 0x40 PUSH1 0x1F NOT PUSH1 0x1F DUP4 ADD AND DUP6 ADD ADD SWAP3 POP POP POP SWAP3 SWAP2 POP POP JUMP JUMPDEST DUP1 CALLDATALOAD PUSH1 0x1 PUSH1 0x1 PUSH1 0xA0 SHL SUB DUP2 AND DUP2 EQ PUSH2 0xA73 JUMPI PUSH1 0x0 DUP1 REVERT JUMPDEST SWAP2 SWAP1 POP JUMP JUMPDEST PUSH1 0x0 DUP1 PUSH1 0x40 DUP4 DUP6 SUB SLT ISZERO PUSH2 0xA8B JUMPI PUSH1 0x0 DUP1 REVERT JUMPDEST PUSH2 0xA94 DUP4 PUSH2 0xA5C JUMP JUMPDEST SWAP5 PUSH1 0x20 SWAP4 SWAP1 SWAP4 ADD CALLDATALOAD SWAP4 POP POP POP JUMP JUMPDEST PUSH1 0x0 DUP1 PUSH1 0x0 PUSH1 0x60 DUP5 DUP7 SUB SLT ISZERO PUSH2 0xAB7 JUMPI PUSH1 0x0 DUP1 REVERT JUMPDEST PUSH2 0xAC0 DUP5 PUSH2 0xA5C JUMP JUMPDEST SWAP3 POP PUSH2 0xACE PUSH1 0x20 DUP6 ADD PUSH2 0xA5C JUMP JUMPDEST SWAP2 POP PUSH1 0x40 DUP5 ADD CALLDATALOAD SWAP1 POP SWAP3 POP SWAP3 POP SWAP3 JUMP JUMPDEST PUSH1 0x0 PUSH1 0x20 DUP3 DUP5 SUB SLT ISZERO PUSH2 0xAF0 JUMPI PUSH1 0x0 DUP1 REVERT JUMPDEST PUSH2 0xAF9 DUP3 PUSH2 0xA5C JUMP JUMPDEST SWAP4 SWAP3 POP POP POP JUMP JUMPDEST PUSH1 0x0 DUP1 PUSH1 0x40 DUP4 DUP6 SUB SLT ISZERO PUSH2 0xB13 JUMPI PUSH1 0x0 DUP1 REVERT JUMPDEST PUSH2 0xB1C DUP4 PUSH2 0xA5C JUMP JUMPDEST SWAP2 POP PUSH2 0xB2A PUSH1 0x20 DUP5 ADD PUSH2 0xA5C JUMP JUMPDEST SWAP1 POP SWAP3 POP SWAP3 SWAP1 POP JUMP JUMPDEST PUSH1 0x1 DUP2 DUP2 SHR SWAP1 DUP3 AND DUP1 PUSH2 0xB47 JUMPI PUSH1 0x7F DUP3 AND SWAP2 POP JUMPDEST PUSH1 0x20 DUP3 LT DUP2 SUB PUSH2 0xB67 JUMPI PUSH4 0x4E487B71 PUSH1 0xE0 SHL PUSH1 0x0 MSTORE PUSH1 0x22 PUSH1 0x4 MSTORE PUSH1 0x24 PUSH1 0x0 REVERT JUMPDEST POP SWAP2 SWAP1 POP JUMP JUMPDEST PUSH4 0x4E487B71 PUSH1 0xE0 SHL PUSH1 0x0 MSTORE PUSH1 0x11 PUSH1 0x4 MSTORE PUSH1 0x24 PUSH1 0x0 REVERT JUMPDEST DUP1 DUP3 ADD DUP1 DUP3 GT ISZERO PUSH2 0x2BE JUMPI PUSH2 0x2BE PUSH2 0xB6D JUMP JUMPDEST PUSH1 0x20 DUP1 DUP3 MSTORE PUSH1 0xA SWAP1 DUP3 ADD MSTORE PUSH10 0x2737BA1036B4B73A32B9 PUSH1 0xB1 SHL PUSH1 0x40 DUP3 ADD MSTORE PUSH1 0x60 ADD SWAP1 JUMP JUMPDEST DUP2 DUP2 SUB DUP2 DUP2 GT ISZERO PUSH2 0x2BE JUMPI PUSH2 0x2BE PUSH2 0xB6D JUMP INVALID 0xDD CALLCODE MSTORE 0xAD SHL 0xE2 0xC8 SWAP12 PUSH10 0xC2B068FC378DAA952BA7 CALL PUSH4 0xC4A11628 CREATE2 GAS 0x4D CREATE2 0x23 0xB3 0xEF LOG2 PUSH5 0x6970667358 0x22 SLT KECCAK256 SSTORE XOR AND 0xCE MULMOD KECCAK256 PUSH3 0x674848 0x5D STOP PUSH12 0xE718EE5FDB2C928F25697FF8 0x2D PUSH13 0x3F1B73280564736F6C63430008 SLT STOP CALLER LOG2 PUSH5 0x6970667358 0x22 SLT KECCAK256 DUP3 CHAINID 0xC5 0xD9 CODESIZE 0x49 0xDD PUSH23 0x2F5F4F316B041CB54BCD99A2AE4044260861494DDC8A13 EXP PUSH5 0x736F6C6343 STOP ADDMOD SLT STOP CALLER LOG2 PUSH5 0x6970667358 0x22 SLT KECCAK256 EQ DUP10 PUSH19 0xD137EA972D59C6896DD2003B8DB14FC1678DCF DUP11 0x5C SIGNEXTEND 0xB8 DUP11 0xB1 CALLER ADDMOD PUSH8 0x2D64736F6C634300 ADDMOD SLT STOP CALLER "
		},
		"gasEstimates": {
			"creation": {
				"codeDepositCost": "4900600",
				"executionCost": "31634",
				"totalCost": "4932234"
			},
			"external": {
				"N_COINS()": "162",
				"createSwapPair(address,address,uint256,uint256,uint256)": "infinite",
				"getPairInfo(address,address)": "infinite",
				"owner()": "2412",
				"pairLength()": "2416",
				"renounceOwnership()": "28203",
				"swapPairContract(uint256)": "2499",
				"transferOwnership(address)": "infinite"
			},
			"internal": {
				"sortTokens(address,address)": "infinite"
			}
		},
		"methodIdentifiers": {
			"N_COINS()": "29357750",
			"createSwapPair(address,address,uint256,uint256,uint256)": "ec69a024",
			"getPairInfo(address,address)": "400f7a1e",
			"owner()": "8da5cb5b",
			"pairLength()": "fcc9136c",
			"renounceOwnership()": "715018a6",
			"swapPairContract(uint256)": "636e66a0",
			"transferOwnership(address)": "f2fde38b"
		}
	},
	"abi": [
		{
			"inputs": [],
			"stateMutability": "nonpayable",
			"type": "constructor"
		},
		{
			"anonymous": false,
			"inputs": [
				{
					"indexed": true,
					"internalType": "address",
					"name": "swapContract",
					"type": "address"
				},
				{
					"indexed": true,
					"internalType": "address",
					"name": "tokenA",
					"type": "address"
				},
				{
					"indexed": true,
					"internalType": "address",
					"name": "tokenB",
					"type": "address"
				}
			],
			"name": "NewStableSwapPair",
			"type": "event"
		},
		{
			"anonymous": false,
			"inputs": [
				{
					"indexed": true,
					"internalType": "address",
					"name": "previousOwner",
					"type": "address"
				},
				{
					"indexed": true,
					"internalType": "address",
					"name": "newOwner",
					"type": "address"
				}
			],
			"name": "OwnershipTransferred",
			"type": "event"
		},
		{
			"inputs": [],
			"name": "N_COINS",
			"outputs": [
				{
					"internalType": "uint256",
					"name": "",
					"type": "uint256"
				}
			],
			"stateMutability": "view",
			"type": "function"
		},
		{
			"inputs": [
				{
					"internalType": "address",
					"name": "_tokenA",
					"type": "address"
				},
				{
					"internalType": "address",
					"name": "_tokenB",
					"type": "address"
				},
				{
					"internalType": "uint256",
					"name": "_A",
					"type": "uint256"
				},
				{
					"internalType": "uint256",
					"name": "_fee",
					"type": "uint256"
				},
				{
					"internalType": "uint256",
					"name": "_admin_fee",
					"type": "uint256"
				}
			],
			"name": "createSwapPair",
			"outputs": [],
			"stateMutability": "nonpayable",
			"type": "function"
		},
		{
			"inputs": [
				{
					"internalType": "address",
					"name": "_tokenA",
					"type": "address"
				},
				{
					"internalType": "address",
					"name": "_tokenB",
					"type": "address"
				}
			],
			"name": "getPairInfo",
			"outputs": [
				{
					"components": [
						{
							"internalType": "address",
							"name": "swapContract",
							"type": "address"
						},
						{
							"internalType": "address",
							"name": "token0",
							"type": "address"
						},
						{
							"internalType": "address",
							"name": "token1",
							"type": "address"
						},
						{
							"internalType": "address",
							"name": "LPContract",
							"type": "address"
						}
					],
					"internalType": "struct PancakeStableSwapFactory.StableSwapPairInfo",
					"name": "info",
					"type": "tuple"
				}
			],
			"stateMutability": "view",
			"type": "function"
		},
		{
			"inputs": [],
			"name": "owner",
			"outputs": [
				{
					"internalType": "address",
					"name": "",
					"type": "address"
				}
			],
			"stateMutability": "view",
			"type": "function"
		},
		{
			"inputs": [],
			"name": "pairLength",
			"outputs": [
				{
					"internalType": "uint256",
					"name": "",
					"type": "uint256"
				}
			],
			"stateMutability": "view",
			"type": "function"
		},
		{
			"inputs": [],
			"name": "renounceOwnership",
			"outputs": [],
			"stateMutability": "nonpayable",
			"type": "function"
		},
		{
			"inputs": [
				{
					"internalType": "uint256",
					"name": "",
					"type": "uint256"
				}
			],
			"name": "swapPairContract",
			"outputs": [
				{
					"internalType": "address",
					"name": "",
					"type": "address"
				}
			],
			"stateMutability": "view",
			"type": "function"
		},
		{
			"inputs": [
				{
					"internalType": "address",
					"name": "newOwner",
					"type": "address"
				}
			],
			"name": "transferOwnership",
			"outputs": [],
			"stateMutability": "nonpayable",
			"type": "function"
		}
	]
}