{
	"data": {
		"bytecode": {
			"linkReferences": {},
			"object": "60c06040523480156200001157600080fd5b5060405162001f7a38038062001f7a8339810160408190526200003491620000df565b6200003f3362000072565b600180556001600160a01b0392831660805290821660a052600280546001600160a01b0319169190921617905562000129565b600080546001600160a01b038381166001600160a01b0319831681178455604051919092169283917f8be0079c531659141344cd1fd0a4f28419497f9722a3daafe3b4186f6b6457e09190a35050565b80516001600160a01b0381168114620000da57600080fd5b919050565b600080600060608486031215620000f557600080fd5b6200010084620000c2565b92506200011060208501620000c2565b91506200012060408501620000c2565b90509250925092565b60805160a051611e09620001716000396000818161010001526111f601526000818160a1015281816110fb0152818161118e015281816111d001526114230152611e096000f3fe60806040526004361061007a5760003560e01c80633fc8cef31461008f578063715018a6146100d957806382227fe4146100ee5780638da5cb5b14610122578063a6cbf41714610137578063ca24fde814610158578063d5f591161461016b578063e449d77c1461018b578063f2fde38b146101ab57610081565b3661008157005b34801561008d57600080fd5b005b34801561009b57600080fd5b506100c37f000000000000000000000000000000000000000000000000000000000000000081565b6040516100d09190611930565b60405180910390f35b3480156100e557600080fd5b5061008d6101cb565b3480156100fa57600080fd5b506100c37f000000000000000000000000000000000000000000000000000000000000000081565b34801561012e57600080fd5b506100c361020f565b61014a61014536600461196d565b61021e565b6040519081526020016100d0565b61014a610166366004611a13565b6104be565b34801561017757600080fd5b506002546100c3906001600160a01b031681565b34801561019757600080fd5b5061008d6101a6366004611a95565b6109d0565b3480156101b757600080fd5b5061008d6101c6366004611a95565b610a71565b336101d461020f565b6001600160a01b0316146102035760405162461bcd60e51b81526004016101fa90611ab9565b60405180910390fd5b61020d6000610b11565b565b6000546001600160a01b031690565b60006002600154036102425760405162461bcd60e51b81526004016101fa90611aee565b60026001556001600160a01b03808616908716036102615750826104b1565b6102766001600160a01b038716333087610b61565b600061028b6001600160a01b03881630610c8d565b905060008360018111156102a1576102a1611b25565b036103025734156102f25760405162461bcd60e51b815260206004820152601b60248201527a737761703a2077726f6e6720696e707574206d73672e76616c756560281b60448201526064016101fa565b6102fd878783610d24565b610328565b600183600181111561031657610316611b25565b03610328576103268787836110e0565b505b61033b6001600160a01b03871630610c8d565b9150838210156103a05760405162461bcd60e51b815260206004820152602a60248201527f737761703a2072657475726e20616d6f756e74206973206c657373207468616e6044820152691036b4b72932ba3ab93760b11b60648201526084016101fa565b60006103b56001600160a01b03891630610c8d565b90506001600160a01b03808816908916337fffebebfb273923089a3ed6bac0fd4686ac740307859becadeb82f998e30db6146103f18587611b51565b60405190815260200160405180910390a460006104176001600160a01b03891633610c8d565b905061042d6001600160a01b03891633866114fd565b85816104426001600160a01b038b1633610c8d565b61044c9190611b51565b10156104995760405162461bcd60e51b815260206004820152601c60248201527b737761703a20696e636f727265637420757365722062616c616e636560201b60448201526064016101fa565b6104ad6001600160a01b038a1633846114fd565b5050505b6001805595945050505050565b60006002600154036104e25760405162461bcd60e51b81526004016101fa90611aee565b600260019081556104f4908390611b64565b861461053c5760405162461bcd60e51b81526020600482015260176024820152760e6eec2e09aead8e8d27440eee4dedcce40d8cadccee8d604b1b60448201526064016101fa565b60008787600081811061055157610551611b77565b90506020020160208101906105669190611a95565b905060008888610577600182611b51565b81811061058657610586611b77565b905060200201602081019061059b9190611a95565b9050806001600160a01b0316826001600160a01b0316036105c05786925050506109c2565b6105d56001600160a01b03831633308a610b61565b60006105ea6001600160a01b03841630610c8d565b905060015b89811015610826578a8a8281811061060957610609611b77565b905060200201602081019061061e9190611a95565b6001600160a01b03168b8b610634600185611b51565b81811061064357610643611b77565b90506020020160208101906106589190611a95565b6001600160a01b0316146108145760008787610675600185611b51565b81811061068457610684611b77565b90506020020160208101906106999190611b8d565b60018111156106aa576106aa611b25565b03610758576107538b8b6106bf600185611b51565b8181106106ce576106ce611b77565b90506020020160208101906106e39190611a95565b8c8c848181106106f5576106f5611b77565b905060200201602081019061070a9190611a95565b61074e308f8f61071b600189611b51565b81811061072a5761072a611b77565b905060200201602081019061073f9190611a95565b6001600160a01b031690610c8d565b610d24565b610814565b60018787610767600185611b51565b81811061077657610776611b77565b905060200201602081019061078b9190611b8d565b600181111561079c5761079c611b25565b03610814576108128b8b6107b1600185611b51565b8181106107c0576107c0611b77565b90506020020160208101906107d59190611a95565b8c8c848181106107e7576107e7611b77565b90506020020160208101906107fc9190611a95565b61080d308f8f61071b600189611b51565b6110e0565b505b8061081e81611ba8565b9150506105ef565b5061083a6001600160a01b03831630610c8d565b9350868410156108a45760405162461bcd60e51b815260206004820152602f60248201527f737761704d756c74693a2072657475726e20616d6f756e74206973206c65737360448201526e103a3430b71036b4b72932ba3ab93760891b60648201526084016101fa565b60006108b96001600160a01b03851630610c8d565b90506001600160a01b03808416908516337fe8b92af316c53d808857f3a3735b431e5fd03fb223bfb8a397af9c179974bed46108f58587611b51565b60405190815260200160405180910390a4600061091b6001600160a01b03851633610c8d565b90506109316001600160a01b03851633886114fd565b88816109466001600160a01b03871633610c8d565b6109509190611b51565b10156109a85760405162461bcd60e51b815260206004820152602160248201527f737761704d756c74693a20696e636f727265637420757365722062616c616e636044820152606560f81b60648201526084016101fa565b6109bc6001600160a01b03861633846114fd565b50505050505b600180559695505050505050565b336109d961020f565b6001600160a01b0316146109ff5760405162461bcd60e51b81526004016101fa90611ab9565b6001600160a01b038116610a255760405162461bcd60e51b81526004016101fa90611bc1565b600280546001600160a01b0319166001600160a01b03831690811790915560405133907ff09c33b4a1bf40cbb338d09d6de033e08e296d62f61d55e9f72ea9c8a9d4173890600090a350565b33610a7a61020f565b6001600160a01b031614610aa05760405162461bcd60e51b81526004016101fa90611ab9565b6001600160a01b038116610b055760405162461bcd60e51b815260206004820152602660248201527f4f776e61626c653a206e6577206f776e657220697320746865207a65726f206160448201526564647265737360d01b60648201526084016101fa565b610b0e81610b11565b50565b600080546001600160a01b038381166001600160a01b0319831681178455604051919092169283917f8be0079c531659141344cd1fd0a4f28419497f9722a3daafe3b4186f6b6457e09190a35050565b8015610c8757610b70846115c4565b15610c725780341015610b9657604051630717c22560e51b815260040160405180910390fd5b6001600160a01b0383163314610bbf57604051632a9c363d60e01b815260040160405180910390fd5b6001600160a01b0382163014610be857604051632be51c8560e11b815260040160405180910390fd5b80341115610c6d576000836001600160a01b031682340361138890604051600060405180830381858888f193505050503d8060008114610c44576040519150601f19603f3d011682016040523d82523d6000602084013e610c49565b606091505b5050905080610c6b5760405163b12d13eb60e01b815260040160405180910390fd5b505b610c87565b610c876001600160a01b0385168484846115fd565b50505050565b6000610c98836115c4565b15610cae57506001600160a01b03811631610d1e565b6040516370a0823160e01b81526001600160a01b038416906370a0823190610cda908590600401611930565b602060405180830381865afa158015610cf7573d6000803e3d6000fd5b505050506040513d601f19601f82011682018060405250810190610d1b9190611c0a565b90505b92915050565b6002546001600160a01b0316610d4c5760405162461bcd60e51b81526004016101fa90611bc1565b600254604051632007bd0f60e11b81526000916001600160a01b03169063400f7a1e90610d7f9087908790600401611c23565b608060405180830381865afa158015610d9c573d6000803e3d6000fd5b505050506040513d601f19601f82011682018060405250810190610dc09190611c3d565b80519091506001600160a01b0316610dd85750505050565b80516040805160028082526060820183526000926020830190803683370190505060405163c661065760e01b8152600060048201529091506001600160a01b0383169063c661065790602401602060405180830381865afa158015610e41573d6000803e3d6000fd5b505050506040513d601f19601f82011682018060405250810190610e659190611ccf565b81600081518110610e7857610e78611b77565b6001600160a01b03928316602091820292909201015260405163c661065760e01b8152600160048201529083169063c661065790602401602060405180830381865afa158015610ecc573d6000803e3d6000fd5b505050506040513d601f19601f82011682018060405250810190610ef09190611ccf565b81600181518110610f0357610f03611b77565b60200260200101906001600160a01b031690816001600160a01b031681525050600081600181518110610f3857610f38611b77565b60200260200101516001600160a01b0316876001600160a01b031614610f5f576000610f62565b60025b82600081518110610f7557610f75611b77565b60200260200101516001600160a01b0316886001600160a01b031614610f9c576000610f9f565b60015b610fa99190611cec565b60ff169050600082600181518110610fc357610fc3611b77565b60200260200101516001600160a01b0316876001600160a01b031614610fea576000610fed565b60025b8360008151811061100057611000611b77565b60200260200101516001600160a01b0316886001600160a01b03161461102757600061102a565b60015b6110349190611cec565b60ff16905061104d6001600160a01b0389168588611681565b6001600160a01b038416635b41b908611067600185611b51565b611072600185611b51565b6040516001600160e01b031960e085901b168152600481019290925260248201526044810189905260006064820152608401600060405180830381600087803b1580156110be57600080fd5b505af11580156110d2573d6000803e3d6000fd5b505050505050505050505050565b60006110f4846001600160a01b03166115c4565b1561116e577f00000000000000000000000000000000000000000000000000000000000000006001600160a01b031663d0e30db0836040518263ffffffff1660e01b81526004016000604051808303818588803b15801561115457600080fd5b505af1158015611168573d6000803e3d6000fd5b50505050505b6000611182856001600160a01b03166115c4565b61118c57846111ae565b7f00000000000000000000000000000000000000000000000000000000000000005b905060006111c4856001600160a01b03166115c4565b6111ce57846111f0565b7f00000000000000000000000000000000000000000000000000000000000000005b905060007f00000000000000000000000000000000000000000000000000000000000000006001600160a01b031663e6a4390584846040518363ffffffff1660e01b8152600401611242929190611c23565b602060405180830381865afa15801561125f573d6000803e3d6000fd5b505050506040513d601f19601f820116820180604052508101906112839190611ccf565b90506112996001600160a01b03841682876116bc565b60006112b06001600160a01b0383168585896116ec565b9095509050801561130f57816001600160a01b031663fff6cae96040518163ffffffff1660e01b8152600401600060405180830381600087803b1580156112f657600080fd5b505af115801561130a573d6000803e3d6000fd5b505050505b826001600160a01b0316846001600160a01b031610156113915760405163022c0d9f60e01b81526001600160a01b0383169063022c0d9f9061135a9060009089903090600401611d05565b600060405180830381600087803b15801561137457600080fd5b505af1158015611388573d6000803e3d6000fd5b505050506113f5565b60405163022c0d9f60e01b81526001600160a01b0383169063022c0d9f906113c29088906000903090600401611d05565b600060405180830381600087803b1580156113dc57600080fd5b505af11580156113f0573d6000803e3d6000fd5b505050505b611407876001600160a01b03166115c4565b156114f2576040516370a0823160e01b81526001600160a01b037f00000000000000000000000000000000000000000000000000000000000000001690632e1a7d4d9082906370a0823190611460903090600401611930565b602060405180830381865afa15801561147d573d6000803e3d6000fd5b505050506040513d601f19601f820116820180604052508101906114a19190611c0a565b6040518263ffffffff1660e01b81526004016114bf91815260200190565b600060405180830381600087803b1580156114d957600080fd5b505af11580156114ed573d6000803e3d6000fd5b505050505b505050509392505050565b80156115bf5761150c836115c4565b156115ab578047101561153257604051631e9acf1760e31b815260040160405180910390fd5b6000826001600160a01b03168261138890604051600060405180830381858888f193505050503d8060008114611584576040519150601f19603f3d011682016040523d82523d6000602084013e611589565b606091505b5050905080610c875760405163b12d13eb60e01b815260040160405180910390fd5b6115bf6001600160a01b03841683836116bc565b505050565b60006001600160a01b0382161580610d1e57506001600160a01b03821673eeeeeeeeeeeeeeeeeeeeeeeeeeeeeeeeeeeeeeee1492915050565b60006323b872dd60e01b905060006040518281528560048201528460248201528360448201526020600060648360008b5af1915050801561165b573d801561165157600160005114601f3d11169150611659565b6000873b1191505b505b806116795760405163f405907160e01b815260040160405180910390fd5b505050505050565b61168a836115c4565b156116a857604051634ca17a9960e01b815260040160405180910390fd5b6115bf6001600160a01b0384168383611861565b6116cf8363a9059cbb60e01b84846118c6565b6115bf5760405163fb7f507960e01b815260040160405180910390fd5b600080806117036001600160a01b03871688610c8d565b9050600061171a6001600160a01b03871689610c8d565b9050600080896001600160a01b0316630902f1ac6040518163ffffffff1660e01b8152600401606060405180830381865afa15801561175d573d6000803e3d6000fd5b505050506040513d601f19601f820116820180604052508101906117819190611d4a565b5091509150876001600160a01b0316896001600160a01b031611156117a257905b6117b56001600160701b03831685611b51565b9650816001600160701b03168410806117d65750806001600160701b031683105b945060006117e6886126f7611d9a565b905060006117fd85846001600160701b031661191a565b6118079083611d9a565b905060008261181f88876001600160701b031661191a565b61182b90612710611d9a565b6118359190611b64565b9050801561184c576118478183611db1565b61184f565b60005b98505050505050505094509492505050565b6118748363095ea7b360e01b84846118c6565b6115bf5761188c8363095ea7b360e01b8460006118c6565b15806118a857506118a68363095ea7b360e01b84846118c6565b155b156115bf5760405163019be9a960e41b815260040160405180910390fd5b60006040518481528360048201528260248201526020600060448360008a5af19150508015611912573d801561190857600160005114601f3d11169150611910565b6000863b1191505b505b949350505050565b60008183106119295781610d1b565b5090919050565b6001600160a01b0391909116815260200190565b6001600160a01b0381168114610b0e57600080fd5b80356002811061196857600080fd5b919050565b600080600080600060a0868803121561198557600080fd5b853561199081611944565b945060208601356119a081611944565b935060408601359250606086013591506119bc60808701611959565b90509295509295909350565b60008083601f8401126119da57600080fd5b5081356001600160401b038111156119f157600080fd5b6020830191508360208260051b8501011115611a0c57600080fd5b9250929050565b60008060008060008060808789031215611a2c57600080fd5b86356001600160401b0380821115611a4357600080fd5b611a4f8a838b016119c8565b909850965060208901359550604089013594506060890135915080821115611a7657600080fd5b50611a8389828a016119c8565b979a9699509497509295939492505050565b600060208284031215611aa757600080fd5b8135611ab281611944565b9392505050565b6020808252818101527f4f776e61626c653a2063616c6c6572206973206e6f7420746865206f776e6572604082015260600190565b6020808252601f908201527f5265656e7472616e637947756172643a207265656e7472616e742063616c6c00604082015260600190565b634e487b7160e01b600052602160045260246000fd5b634e487b7160e01b600052601160045260246000fd5b81810381811115610d1e57610d1e611b3b565b80820180821115610d1e57610d1e611b3b565b634e487b7160e01b600052603260045260246000fd5b600060208284031215611b9f57600080fd5b610d1b82611959565b600060018201611bba57611bba611b3b565b5060010190565b60208082526029908201527f537461626c655377617020666163746f72792063616e6e6f74206265207a65726040820152686f206164647265737360b81b606082015260800190565b600060208284031215611c1c57600080fd5b5051919050565b6001600160a01b0392831681529116602082015260400190565b600060808284031215611c4f57600080fd5b604051608081016001600160401b0381118282101715611c7f57634e487b7160e01b600052604160045260246000fd5b6040528251611c8d81611944565b81526020830151611c9d81611944565b60208201526040830151611cb081611944565b60408201526060830151611cc381611944565b60608201529392505050565b600060208284031215611ce157600080fd5b8151611ab281611944565b60ff8181168382160190811115610d1e57610d1e611b3b565b92835260208301919091526001600160a01b0316604082015260806060820181905260009082015260a00190565b80516001600160701b038116811461196857600080fd5b600080600060608486031215611d5f57600080fd5b611d6884611d33565b9250611d7660208501611d33565b9150604084015163ffffffff81168114611d8f57600080fd5b809150509250925092565b8082028115828204841417610d1e57610d1e611b3b565b600082611dce57634e487b7160e01b600052601260045260246000fd5b50049056fea26469706673582212203a6aee1d4011fe17960a4d1e79dfc22ab28cedaac414d2d3d9188de3988d524964736f6c63430008120033",
			"opcodes": "PUSH1 0xC0 PUSH1 0x40 MSTORE CALLVALUE DUP1 ISZERO PUSH3 0x11 JUMPI PUSH1 0x0 DUP1 REVERT JUMPDEST POP PUSH1 0x40 MLOAD PUSH3 0x1F7A CODESIZE SUB DUP1 PUSH3 0x1F7A DUP4 CODECOPY DUP2 ADD PUSH1 0x40 DUP2 SWAP1 MSTORE PUSH3 0x34 SWAP2 PUSH3 0xDF JUMP JUMPDEST PUSH3 0x3F CALLER PUSH3 0x72 JUMP JUMPDEST PUSH1 0x1 DUP1 SSTORE PUSH1 0x1 PUSH1 0x1 PUSH1 0xA0 SHL SUB SWAP3 DUP4 AND PUSH1 0x80 MSTORE SWAP1 DUP3 AND PUSH1 0xA0 MSTORE PUSH1 0x2 DUP1 SLOAD PUSH1 0x1 PUSH1 0x1 PUSH1 0xA0 SHL SUB NOT AND SWAP2 SWAP1 SWAP3 AND OR SWAP1 SSTORE PUSH3 0x129 JUMP JUMPDEST PUSH1 0x0 DUP1 SLOAD PUSH1 0x1 PUSH1 0x1 PUSH1 0xA0 SHL SUB DUP4 DUP2 AND PUSH1 0x1 PUSH1 0x1 PUSH1 0xA0 SHL SUB NOT DUP4 AND DUP2 OR DUP5 SSTORE PUSH1 0x40 MLOAD SWAP2 SWAP1 SWAP3 AND SWAP3 DUP4 SWAP2 PUSH32 0x8BE0079C531659141344CD1FD0A4F28419497F9722A3DAAFE3B4186F6B6457E0 SWAP2 SWAP1 LOG3 POP POP JUMP JUMPDEST DUP1 MLOAD PUSH1 0x1 PUSH1 0x1 PUSH1 0xA0 SHL SUB DUP2 AND DUP2 EQ PUSH3 0xDA JUMPI PUSH1 0x0 DUP1 REVERT JUMPDEST SWAP2 SWAP1 POP JUMP JUMPDEST PUSH1 0x0 DUP1 PUSH1 0x0 PUSH1 0x60 DUP5 DUP7 SUB SLT ISZERO PUSH3 0xF5 JUMPI PUSH1 0x0 DUP1 REVERT JUMPDEST PUSH3 0x100 DUP5 PUSH3 0xC2 JUMP JUMPDEST SWAP3 POP PUSH3 0x110 PUSH1 0x20 DUP6 ADD PUSH3 0xC2 JUMP JUMPDEST SWAP2 POP PUSH3 0x120 PUSH1 0x40 DUP6 ADD PUSH3 0xC2 JUMP JUMPDEST SWAP1 POP SWAP3 POP SWAP3 POP SWAP3 JUMP JUMPDEST PUSH1 0x80 MLOAD PUSH1 0xA0 MLOAD PUSH2 0x1E09 PUSH3 0x171 PUSH1 0x0 CODECOPY PUSH1 0x0 DUP2 DUP2 PUSH2 0x100 ADD MSTORE PUSH2 0x11F6 ADD MSTORE PUSH1 0x0 DUP2 DUP2 PUSH1 0xA1 ADD MSTORE DUP2 DUP2 PUSH2 0x10FB ADD MSTORE DUP2 DUP2 PUSH2 0x118E ADD MSTORE DUP2 DUP2 PUSH2 0x11D0 ADD MSTORE PUSH2 0x1423 ADD MSTORE PUSH2 0x1E09 PUSH1 0x0 RETURN INVALID PUSH1 0x80 PUSH1 0x40 MSTORE PUSH1 0x4 CALLDATASIZE LT PUSH2 0x7A JUMPI PUSH1 0x0 CALLDATALOAD PUSH1 0xE0 SHR DUP1 PUSH4 0x3FC8CEF3 EQ PUSH2 0x8F JUMPI DUP1 PUSH4 0x715018A6 EQ PUSH2 0xD9 JUMPI DUP1 PUSH4 0x82227FE4 EQ PUSH2 0xEE JUMPI DUP1 PUSH4 0x8DA5CB5B EQ PUSH2 0x122 JUMPI DUP1 PUSH4 0xA6CBF417 EQ PUSH2 0x137 JUMPI DUP1 PUSH4 0xCA24FDE8 EQ PUSH2 0x158 JUMPI DUP1 PUSH4 0xD5F59116 EQ PUSH2 0x16B JUMPI DUP1 PUSH4 0xE449D77C EQ PUSH2 0x18B JUMPI DUP1 PUSH4 0xF2FDE38B EQ PUSH2 0x1AB JUMPI PUSH2 0x81 JUMP JUMPDEST CALLDATASIZE PUSH2 0x81 JUMPI STOP JUMPDEST CALLVALUE DUP1 ISZERO PUSH2 0x8D JUMPI PUSH1 0x0 DUP1 REVERT JUMPDEST STOP JUMPDEST CALLVALUE DUP1 ISZERO PUSH2 0x9B JUMPI PUSH1 0x0 DUP1 REVERT JUMPDEST POP PUSH2 0xC3 PUSH32 0x0 DUP2 JUMP JUMPDEST PUSH1 0x40 MLOAD PUSH2 0xD0 SWAP2 SWAP1 PUSH2 0x1930 JUMP JUMPDEST PUSH1 0x40 MLOAD DUP1 SWAP2 SUB SWAP1 RETURN JUMPDEST CALLVALUE DUP1 ISZERO PUSH2 0xE5 JUMPI PUSH1 0x0 DUP1 REVERT JUMPDEST POP PUSH2 0x8D PUSH2 0x1CB JUMP JUMPDEST CALLVALUE DUP1 ISZERO PUSH2 0xFA JUMPI PUSH1 0x0 DUP1 REVERT JUMPDEST POP PUSH2 0xC3 PUSH32 0x0 DUP2 JUMP JUMPDEST CALLVALUE DUP1 ISZERO PUSH2 0x12E JUMPI PUSH1 0x0 DUP1 REVERT JUMPDEST POP PUSH2 0xC3 PUSH2 0x20F JUMP JUMPDEST PUSH2 0x14A PUSH2 0x145 CALLDATASIZE PUSH1 0x4 PUSH2 0x196D JUMP JUMPDEST PUSH2 0x21E JUMP JUMPDEST PUSH1 0x40 MLOAD SWAP1 DUP2 MSTORE PUSH1 0x20 ADD PUSH2 0xD0 JUMP JUMPDEST PUSH2 0x14A PUSH2 0x166 CALLDATASIZE PUSH1 0x4 PUSH2 0x1A13 JUMP JUMPDEST PUSH2 0x4BE JUMP JUMPDEST CALLVALUE DUP1 ISZERO PUSH2 0x177 JUMPI PUSH1 0x0 DUP1 REVERT JUMPDEST POP PUSH1 0x2 SLOAD PUSH2 0xC3 SWAP1 PUSH1 0x1 PUSH1 0x1 PUSH1 0xA0 SHL SUB AND DUP2 JUMP JUMPDEST CALLVALUE DUP1 ISZERO PUSH2 0x197 JUMPI PUSH1 0x0 DUP1 REVERT JUMPDEST POP PUSH2 0x8D PUSH2 0x1A6 CALLDATASIZE PUSH1 0x4 PUSH2 0x1A95 JUMP JUMPDEST PUSH2 0x9D0 JUMP JUMPDEST CALLVALUE DUP1 ISZERO PUSH2 0x1B7 JUMPI PUSH1 0x0 DUP1 REVERT JUMPDEST POP PUSH2 0x8D PUSH2 0x1C6 CALLDATASIZE PUSH1 0x4 PUSH2 0x1A95 JUMP JUMPDEST PUSH2 0xA71 JUMP JUMPDEST CALLER PUSH2 0x1D4 PUSH2 0x20F JUMP JUMPDEST PUSH1 0x1 PUSH1 0x1 PUSH1 0xA0 SHL SUB AND EQ PUSH2 0x203 JUMPI PUSH1 0x40 MLOAD PUSH3 0x461BCD PUSH1 0xE5 SHL DUP2 MSTORE PUSH1 0x4 ADD PUSH2 0x1FA SWAP1 PUSH2 0x1AB9 JUMP JUMPDEST PUSH1 0x40 MLOAD DUP1 SWAP2 SUB SWAP1 REVERT JUMPDEST PUSH2 0x20D PUSH1 0x0 PUSH2 0xB11 JUMP JUMPDEST JUMP JUMPDEST PUSH1 0x0 SLOAD PUSH1 0x1 PUSH1 0x1 PUSH1 0xA0 SHL SUB AND SWAP1 JUMP JUMPDEST PUSH1 0x0 PUSH1 0x2 PUSH1 0x1 SLOAD SUB PUSH2 0x242 JUMPI PUSH1 0x40 MLOAD PUSH3 0x461BCD PUSH1 0xE5 SHL DUP2 MSTORE PUSH1 0x4 ADD PUSH2 0x1FA SWAP1 PUSH2 0x1AEE JUMP JUMPDEST PUSH1 0x2 PUSH1 0x1 SSTORE PUSH1 0x1 PUSH1 0x1 PUSH1 0xA0 SHL SUB DUP1 DUP7 AND SWAP1 DUP8 AND SUB PUSH2 0x261 JUMPI POP DUP3 PUSH2 0x4B1 JUMP JUMPDEST PUSH2 0x276 PUSH1 0x1 PUSH1 0x1 PUSH1 0xA0 SHL SUB DUP8 AND CALLER ADDRESS DUP8 PUSH2 0xB61 JUMP JUMPDEST PUSH1 0x0 PUSH2 0x28B PUSH1 0x1 PUSH1 0x1 PUSH1 0xA0 SHL SUB DUP9 AND ADDRESS PUSH2 0xC8D JUMP JUMPDEST SWAP1 POP PUSH1 0x0 DUP4 PUSH1 0x1 DUP2 GT ISZERO PUSH2 0x2A1 JUMPI PUSH2 0x2A1 PUSH2 0x1B25 JUMP JUMPDEST SUB PUSH2 0x302 JUMPI CALLVALUE ISZERO PUSH2 0x2F2 JUMPI PUSH1 0x40 MLOAD PUSH3 0x461BCD PUSH1 0xE5 SHL DUP2 MSTORE PUSH1 0x20 PUSH1 0x4 DUP3 ADD MSTORE PUSH1 0x1B PUSH1 0x24 DUP3 ADD MSTORE PUSH27 0x737761703A2077726F6E6720696E707574206D73672E76616C7565 PUSH1 0x28 SHL PUSH1 0x44 DUP3 ADD MSTORE PUSH1 0x64 ADD PUSH2 0x1FA JUMP JUMPDEST PUSH2 0x2FD DUP8 DUP8 DUP4 PUSH2 0xD24 JUMP JUMPDEST PUSH2 0x328 JUMP JUMPDEST PUSH1 0x1 DUP4 PUSH1 0x1 DUP2 GT ISZERO PUSH2 0x316 JUMPI PUSH2 0x316 PUSH2 0x1B25 JUMP JUMPDEST SUB PUSH2 0x328 JUMPI PUSH2 0x326 DUP8 DUP8 DUP4 PUSH2 0x10E0 JUMP JUMPDEST POP JUMPDEST PUSH2 0x33B PUSH1 0x1 PUSH1 0x1 PUSH1 0xA0 SHL SUB DUP8 AND ADDRESS PUSH2 0xC8D JUMP JUMPDEST SWAP2 POP DUP4 DUP3 LT ISZERO PUSH2 0x3A0 JUMPI PUSH1 0x40 MLOAD PUSH3 0x461BCD PUSH1 0xE5 SHL DUP2 MSTORE PUSH1 0x20 PUSH1 0x4 DUP3 ADD MSTORE PUSH1 0x2A PUSH1 0x24 DUP3 ADD MSTORE PUSH32 0x737761703A2072657475726E20616D6F756E74206973206C657373207468616E PUSH1 0x44 DUP3 ADD MSTORE PUSH10 0x1036B4B72932BA3AB937 PUSH1 0xB1 SHL PUSH1 0x64 DUP3 ADD MSTORE PUSH1 0x84 ADD PUSH2 0x1FA JUMP JUMPDEST PUSH1 0x0 PUSH2 0x3B5 PUSH1 0x1 PUSH1 0x1 PUSH1 0xA0 SHL SUB DUP10 AND ADDRESS PUSH2 0xC8D JUMP JUMPDEST SWAP1 POP PUSH1 0x1 PUSH1 0x1 PUSH1 0xA0 SHL SUB DUP1 DUP9 AND SWAP1 DUP10 AND CALLER PUSH32 0xFFEBEBFB273923089A3ED6BAC0FD4686AC740307859BECADEB82F998E30DB614 PUSH2 0x3F1 DUP6 DUP8 PUSH2 0x1B51 JUMP JUMPDEST PUSH1 0x40 MLOAD SWAP1 DUP2 MSTORE PUSH1 0x20 ADD PUSH1 0x40 MLOAD DUP1 SWAP2 SUB SWAP1 LOG4 PUSH1 0x0 PUSH2 0x417 PUSH1 0x1 PUSH1 0x1 PUSH1 0xA0 SHL SUB DUP10 AND CALLER PUSH2 0xC8D JUMP JUMPDEST SWAP1 POP PUSH2 0x42D PUSH1 0x1 PUSH1 0x1 PUSH1 0xA0 SHL SUB DUP10 AND CALLER DUP7 PUSH2 0x14FD JUMP JUMPDEST DUP6 DUP2 PUSH2 0x442 PUSH1 0x1 PUSH1 0x1 PUSH1 0xA0 SHL SUB DUP12 AND CALLER PUSH2 0xC8D JUMP JUMPDEST PUSH2 0x44C SWAP2 SWAP1 PUSH2 0x1B51 JUMP JUMPDEST LT ISZERO PUSH2 0x499 JUMPI PUSH1 0x40 MLOAD PUSH3 0x461BCD PUSH1 0xE5 SHL DUP2 MSTORE PUSH1 0x20 PUSH1 0x4 DUP3 ADD MSTORE PUSH1 0x1C PUSH1 0x24 DUP3 ADD MSTORE PUSH28 0x737761703A20696E636F727265637420757365722062616C616E6365 PUSH1 0x20 SHL PUSH1 0x44 DUP3 ADD MSTORE PUSH1 0x64 ADD PUSH2 0x1FA JUMP JUMPDEST PUSH2 0x4AD PUSH1 0x1 PUSH1 0x1 PUSH1 0xA0 SHL SUB DUP11 AND CALLER DUP5 PUSH2 0x14FD JUMP JUMPDEST POP POP POP JUMPDEST PUSH1 0x1 DUP1 SSTORE SWAP6 SWAP5 POP POP POP POP POP JUMP JUMPDEST PUSH1 0x0 PUSH1 0x2 PUSH1 0x1 SLOAD SUB PUSH2 0x4E2 JUMPI PUSH1 0x40 MLOAD PUSH3 0x461BCD PUSH1 0xE5 SHL DUP2 MSTORE PUSH1 0x4 ADD PUSH2 0x1FA SWAP1 PUSH2 0x1AEE JUMP JUMPDEST PUSH1 0x2 PUSH1 0x1 SWAP1 DUP2 SSTORE PUSH2 0x4F4 SWAP1 DUP4 SWAP1 PUSH2 0x1B64 JUMP JUMPDEST DUP7 EQ PUSH2 0x53C JUMPI PUSH1 0x40 MLOAD PUSH3 0x461BCD PUSH1 0xE5 SHL DUP2 MSTORE PUSH1 0x20 PUSH1 0x4 DUP3 ADD MSTORE PUSH1 0x17 PUSH1 0x24 DUP3 ADD MSTORE PUSH23 0xE6EEC2E09AEAD8E8D27440EEE4DEDCCE40D8CADCCEE8D PUSH1 0x4B SHL PUSH1 0x44 DUP3 ADD MSTORE PUSH1 0x64 ADD PUSH2 0x1FA JUMP JUMPDEST PUSH1 0x0 DUP8 DUP8 PUSH1 0x0 DUP2 DUP2 LT PUSH2 0x551 JUMPI PUSH2 0x551 PUSH2 0x1B77 JUMP JUMPDEST SWAP1 POP PUSH1 0x20 MUL ADD PUSH1 0x20 DUP2 ADD SWAP1 PUSH2 0x566 SWAP2 SWAP1 PUSH2 0x1A95 JUMP JUMPDEST SWAP1 POP PUSH1 0x0 DUP9 DUP9 PUSH2 0x577 PUSH1 0x1 DUP3 PUSH2 0x1B51 JUMP JUMPDEST DUP2 DUP2 LT PUSH2 0x586 JUMPI PUSH2 0x586 PUSH2 0x1B77 JUMP JUMPDEST SWAP1 POP PUSH1 0x20 MUL ADD PUSH1 0x20 DUP2 ADD SWAP1 PUSH2 0x59B SWAP2 SWAP1 PUSH2 0x1A95 JUMP JUMPDEST SWAP1 POP DUP1 PUSH1 0x1 PUSH1 0x1 PUSH1 0xA0 SHL SUB AND DUP3 PUSH1 0x1 PUSH1 0x1 PUSH1 0xA0 SHL SUB AND SUB PUSH2 0x5C0 JUMPI DUP7 SWAP3 POP POP POP PUSH2 0x9C2 JUMP JUMPDEST PUSH2 0x5D5 PUSH1 0x1 PUSH1 0x1 PUSH1 0xA0 SHL SUB DUP4 AND CALLER ADDRESS DUP11 PUSH2 0xB61 JUMP JUMPDEST PUSH1 0x0 PUSH2 0x5EA PUSH1 0x1 PUSH1 0x1 PUSH1 0xA0 SHL SUB DUP5 AND ADDRESS PUSH2 0xC8D JUMP JUMPDEST SWAP1 POP PUSH1 0x1 JUMPDEST DUP10 DUP2 LT ISZERO PUSH2 0x826 JUMPI DUP11 DUP11 DUP3 DUP2 DUP2 LT PUSH2 0x609 JUMPI PUSH2 0x609 PUSH2 0x1B77 JUMP JUMPDEST SWAP1 POP PUSH1 0x20 MUL ADD PUSH1 0x20 DUP2 ADD SWAP1 PUSH2 0x61E SWAP2 SWAP1 PUSH2 0x1A95 JUMP JUMPDEST PUSH1 0x1 PUSH1 0x1 PUSH1 0xA0 SHL SUB AND DUP12 DUP12 PUSH2 0x634 PUSH1 0x1 DUP6 PUSH2 0x1B51 JUMP JUMPDEST DUP2 DUP2 LT PUSH2 0x643 JUMPI PUSH2 0x643 PUSH2 0x1B77 JUMP JUMPDEST SWAP1 POP PUSH1 0x20 MUL ADD PUSH1 0x20 DUP2 ADD SWAP1 PUSH2 0x658 SWAP2 SWAP1 PUSH2 0x1A95 JUMP JUMPDEST PUSH1 0x1 PUSH1 0x1 PUSH1 0xA0 SHL SUB AND EQ PUSH2 0x814 JUMPI PUSH1 0x0 DUP8 DUP8 PUSH2 0x675 PUSH1 0x1 DUP6 PUSH2 0x1B51 JUMP JUMPDEST DUP2 DUP2 LT PUSH2 0x684 JUMPI PUSH2 0x684 PUSH2 0x1B77 JUMP JUMPDEST SWAP1 POP PUSH1 0x20 MUL ADD PUSH1 0x20 DUP2 ADD SWAP1 PUSH2 0x699 SWAP2 SWAP1 PUSH2 0x1B8D JUMP JUMPDEST PUSH1 0x1 DUP2 GT ISZERO PUSH2 0x6AA JUMPI PUSH2 0x6AA PUSH2 0x1B25 JUMP JUMPDEST SUB PUSH2 0x758 JUMPI PUSH2 0x753 DUP12 DUP12 PUSH2 0x6BF PUSH1 0x1 DUP6 PUSH2 0x1B51 JUMP JUMPDEST DUP2 DUP2 LT PUSH2 0x6CE JUMPI PUSH2 0x6CE PUSH2 0x1B77 JUMP JUMPDEST SWAP1 POP PUSH1 0x20 MUL ADD PUSH1 0x20 DUP2 ADD SWAP1 PUSH2 0x6E3 SWAP2 SWAP1 PUSH2 0x1A95 JUMP JUMPDEST DUP13 DUP13 DUP5 DUP2 DUP2 LT PUSH2 0x6F5 JUMPI PUSH2 0x6F5 PUSH2 0x1B77 JUMP JUMPDEST SWAP1 POP PUSH1 0x20 MUL ADD PUSH1 0x20 DUP2 ADD SWAP1 PUSH2 0x70A SWAP2 SWAP1 PUSH2 0x1A95 JUMP JUMPDEST PUSH2 0x74E ADDRESS DUP16 DUP16 PUSH2 0x71B PUSH1 0x1 DUP10 PUSH2 0x1B51 JUMP JUMPDEST DUP2 DUP2 LT PUSH2 0x72A JUMPI PUSH2 0x72A PUSH2 0x1B77 JUMP JUMPDEST SWAP1 POP PUSH1 0x20 MUL ADD PUSH1 0x20 DUP2 ADD SWAP1 PUSH2 0x73F SWAP2 SWAP1 PUSH2 0x1A95 JUMP JUMPDEST PUSH1 0x1 PUSH1 0x1 PUSH1 0xA0 SHL SUB AND SWAP1 PUSH2 0xC8D JUMP JUMPDEST PUSH2 0xD24 JUMP JUMPDEST PUSH2 0x814 JUMP JUMPDEST PUSH1 0x1 DUP8 DUP8 PUSH2 0x767 PUSH1 0x1 DUP6 PUSH2 0x1B51 JUMP JUMPDEST DUP2 DUP2 LT PUSH2 0x776 JUMPI PUSH2 0x776 PUSH2 0x1B77 JUMP JUMPDEST SWAP1 POP PUSH1 0x20 MUL ADD PUSH1 0x20 DUP2 ADD SWAP1 PUSH2 0x78B SWAP2 SWAP1 PUSH2 0x1B8D JUMP JUMPDEST PUSH1 0x1 DUP2 GT ISZERO PUSH2 0x79C JUMPI PUSH2 0x79C PUSH2 0x1B25 JUMP JUMPDEST SUB PUSH2 0x814 JUMPI PUSH2 0x812 DUP12 DUP12 PUSH2 0x7B1 PUSH1 0x1 DUP6 PUSH2 0x1B51 JUMP JUMPDEST DUP2 DUP2 LT PUSH2 0x7C0 JUMPI PUSH2 0x7C0 PUSH2 0x1B77 JUMP JUMPDEST SWAP1 POP PUSH1 0x20 MUL ADD PUSH1 0x20 DUP2 ADD SWAP1 PUSH2 0x7D5 SWAP2 SWAP1 PUSH2 0x1A95 JUMP JUMPDEST DUP13 DUP13 DUP5 DUP2 DUP2 LT PUSH2 0x7E7 JUMPI PUSH2 0x7E7 PUSH2 0x1B77 JUMP JUMPDEST SWAP1 POP PUSH1 0x20 MUL ADD PUSH1 0x20 DUP2 ADD SWAP1 PUSH2 0x7FC SWAP2 SWAP1 PUSH2 0x1A95 JUMP JUMPDEST PUSH2 0x80D ADDRESS DUP16 DUP16 PUSH2 0x71B PUSH1 0x1 DUP10 PUSH2 0x1B51 JUMP JUMPDEST PUSH2 0x10E0 JUMP JUMPDEST POP JUMPDEST DUP1 PUSH2 0x81E DUP2 PUSH2 0x1BA8 JUMP JUMPDEST SWAP2 POP POP PUSH2 0x5EF JUMP JUMPDEST POP PUSH2 0x83A PUSH1 0x1 PUSH1 0x1 PUSH1 0xA0 SHL SUB DUP4 AND ADDRESS PUSH2 0xC8D JUMP JUMPDEST SWAP4 POP DUP7 DUP5 LT ISZERO PUSH2 0x8A4 JUMPI PUSH1 0x40 MLOAD PUSH3 0x461BCD PUSH1 0xE5 SHL DUP2 MSTORE PUSH1 0x20 PUSH1 0x4 DUP3 ADD MSTORE PUSH1 0x2F PUSH1 0x24 DUP3 ADD MSTORE PUSH32 0x737761704D756C74693A2072657475726E20616D6F756E74206973206C657373 PUSH1 0x44 DUP3 ADD MSTORE PUSH15 0x103A3430B71036B4B72932BA3AB937 PUSH1 0x89 SHL PUSH1 0x64 DUP3 ADD MSTORE PUSH1 0x84 ADD PUSH2 0x1FA JUMP JUMPDEST PUSH1 0x0 PUSH2 0x8B9 PUSH1 0x1 PUSH1 0x1 PUSH1 0xA0 SHL SUB DUP6 AND ADDRESS PUSH2 0xC8D JUMP JUMPDEST SWAP1 POP PUSH1 0x1 PUSH1 0x1 PUSH1 0xA0 SHL SUB DUP1 DUP5 AND SWAP1 DUP6 AND CALLER PUSH32 0xE8B92AF316C53D808857F3A3735B431E5FD03FB223BFB8A397AF9C179974BED4 PUSH2 0x8F5 DUP6 DUP8 PUSH2 0x1B51 JUMP JUMPDEST PUSH1 0x40 MLOAD SWAP1 DUP2 MSTORE PUSH1 0x20 ADD PUSH1 0x40 MLOAD DUP1 SWAP2 SUB SWAP1 LOG4 PUSH1 0x0 PUSH2 0x91B PUSH1 0x1 PUSH1 0x1 PUSH1 0xA0 SHL SUB DUP6 AND CALLER PUSH2 0xC8D JUMP JUMPDEST SWAP1 POP PUSH2 0x931 PUSH1 0x1 PUSH1 0x1 PUSH1 0xA0 SHL SUB DUP6 AND CALLER DUP9 PUSH2 0x14FD JUMP JUMPDEST DUP9 DUP2 PUSH2 0x946 PUSH1 0x1 PUSH1 0x1 PUSH1 0xA0 SHL SUB DUP8 AND CALLER PUSH2 0xC8D JUMP JUMPDEST PUSH2 0x950 SWAP2 SWAP1 PUSH2 0x1B51 JUMP JUMPDEST LT ISZERO PUSH2 0x9A8 JUMPI PUSH1 0x40 MLOAD PUSH3 0x461BCD PUSH1 0xE5 SHL DUP2 MSTORE PUSH1 0x20 PUSH1 0x4 DUP3 ADD MSTORE PUSH1 0x21 PUSH1 0x24 DUP3 ADD MSTORE PUSH32 0x737761704D756C74693A20696E636F727265637420757365722062616C616E63 PUSH1 0x44 DUP3 ADD MSTORE PUSH1 0x65 PUSH1 0xF8 SHL PUSH1 0x64 DUP3 ADD MSTORE PUSH1 0x84 ADD PUSH2 0x1FA JUMP JUMPDEST PUSH2 0x9BC PUSH1 0x1 PUSH1 0x1 PUSH1 0xA0 SHL SUB DUP7 AND CALLER DUP5 PUSH2 0x14FD JUMP JUMPDEST POP POP POP POP POP JUMPDEST PUSH1 0x1 DUP1 SSTORE SWAP7 SWAP6 POP POP POP POP POP POP JUMP JUMPDEST CALLER PUSH2 0x9D9 PUSH2 0x20F JUMP JUMPDEST PUSH1 0x1 PUSH1 0x1 PUSH1 0xA0 SHL SUB AND EQ PUSH2 0x9FF JUMPI PUSH1 0x40 MLOAD PUSH3 0x461BCD PUSH1 0xE5 SHL DUP2 MSTORE PUSH1 0x4 ADD PUSH2 0x1FA SWAP1 PUSH2 0x1AB9 JUMP JUMPDEST PUSH1 0x1 PUSH1 0x1 PUSH1 0xA0 SHL SUB DUP2 AND PUSH2 0xA25 JUMPI PUSH1 0x40 MLOAD PUSH3 0x461BCD PUSH1 0xE5 SHL DUP2 MSTORE PUSH1 0x4 ADD PUSH2 0x1FA SWAP1 PUSH2 0x1BC1 JUMP JUMPDEST PUSH1 0x2 DUP1 SLOAD PUSH1 0x1 PUSH1 0x1 PUSH1 0xA0 SHL SUB NOT AND PUSH1 0x1 PUSH1 0x1 PUSH1 0xA0 SHL SUB DUP4 AND SWAP1 DUP2 OR SWAP1 SWAP2 SSTORE PUSH1 0x40 MLOAD CALLER SWAP1 PUSH32 0xF09C33B4A1BF40CBB338D09D6DE033E08E296D62F61D55E9F72EA9C8A9D41738 SWAP1 PUSH1 0x0 SWAP1 LOG3 POP JUMP JUMPDEST CALLER PUSH2 0xA7A PUSH2 0x20F JUMP JUMPDEST PUSH1 0x1 PUSH1 0x1 PUSH1 0xA0 SHL SUB AND EQ PUSH2 0xAA0 JUMPI PUSH1 0x40 MLOAD PUSH3 0x461BCD PUSH1 0xE5 SHL DUP2 MSTORE PUSH1 0x4 ADD PUSH2 0x1FA SWAP1 PUSH2 0x1AB9 JUMP JUMPDEST PUSH1 0x1 PUSH1 0x1 PUSH1 0xA0 SHL SUB DUP2 AND PUSH2 0xB05 JUMPI PUSH1 0x40 MLOAD PUSH3 0x461BCD PUSH1 0xE5 SHL DUP2 MSTORE PUSH1 0x20 PUSH1 0x4 DUP3 ADD MSTORE PUSH1 0x26 PUSH1 0x24 DUP3 ADD MSTORE PUSH32 0x4F776E61626C653A206E6577206F776E657220697320746865207A65726F2061 PUSH1 0x44 DUP3 ADD MSTORE PUSH6 0x646472657373 PUSH1 0xD0 SHL PUSH1 0x64 DUP3 ADD MSTORE PUSH1 0x84 ADD PUSH2 0x1FA JUMP JUMPDEST PUSH2 0xB0E DUP2 PUSH2 0xB11 JUMP JUMPDEST POP JUMP JUMPDEST PUSH1 0x0 DUP1 SLOAD PUSH1 0x1 PUSH1 0x1 PUSH1 0xA0 SHL SUB DUP4 DUP2 AND PUSH1 0x1 PUSH1 0x1 PUSH1 0xA0 SHL SUB NOT DUP4 AND DUP2 OR DUP5 SSTORE PUSH1 0x40 MLOAD SWAP2 SWAP1 SWAP3 AND SWAP3 DUP4 SWAP2 PUSH32 0x8BE0079C531659141344CD1FD0A4F28419497F9722A3DAAFE3B4186F6B6457E0 SWAP2 SWAP1 LOG3 POP POP JUMP JUMPDEST DUP1 ISZERO PUSH2 0xC87 JUMPI PUSH2 0xB70 DUP5 PUSH2 0x15C4 JUMP JUMPDEST ISZERO PUSH2 0xC72 JUMPI DUP1 CALLVALUE LT ISZERO PUSH2 0xB96 JUMPI PUSH1 0x40 MLOAD PUSH4 0x717C225 PUSH1 0xE5 SHL DUP2 MSTORE PUSH1 0x4 ADD PUSH1 0x40 MLOAD DUP1 SWAP2 SUB SWAP1 REVERT JUMPDEST PUSH1 0x1 PUSH1 0x1 PUSH1 0xA0 SHL SUB DUP4 AND CALLER EQ PUSH2 0xBBF JUMPI PUSH1 0x40 MLOAD PUSH4 0x2A9C363D PUSH1 0xE0 SHL DUP2 MSTORE PUSH1 0x4 ADD PUSH1 0x40 MLOAD DUP1 SWAP2 SUB SWAP1 REVERT JUMPDEST PUSH1 0x1 PUSH1 0x1 PUSH1 0xA0 SHL SUB DUP3 AND ADDRESS EQ PUSH2 0xBE8 JUMPI PUSH1 0x40 MLOAD PUSH4 0x2BE51C85 PUSH1 0xE1 SHL DUP2 MSTORE PUSH1 0x4 ADD PUSH1 0x40 MLOAD DUP1 SWAP2 SUB SWAP1 REVERT JUMPDEST DUP1 CALLVALUE GT ISZERO PUSH2 0xC6D JUMPI PUSH1 0x0 DUP4 PUSH1 0x1 PUSH1 0x1 PUSH1 0xA0 SHL SUB AND DUP3 CALLVALUE SUB PUSH2 0x1388 SWAP1 PUSH1 0x40 MLOAD PUSH1 0x0 PUSH1 0x40 MLOAD DUP1 DUP4 SUB DUP2 DUP6 DUP9 DUP9 CALL SWAP4 POP POP POP POP RETURNDATASIZE DUP1 PUSH1 0x0 DUP2 EQ PUSH2 0xC44 JUMPI PUSH1 0x40 MLOAD SWAP2 POP PUSH1 0x1F NOT PUSH1 0x3F RETURNDATASIZE ADD AND DUP3 ADD PUSH1 0x40 MSTORE RETURNDATASIZE DUP3 MSTORE RETURNDATASIZE PUSH1 0x0 PUSH1 0x20 DUP5 ADD RETURNDATACOPY PUSH2 0xC49 JUMP JUMPDEST PUSH1 0x60 SWAP2 POP JUMPDEST POP POP SWAP1 POP DUP1 PUSH2 0xC6B JUMPI PUSH1 0x40 MLOAD PUSH4 0xB12D13EB PUSH1 0xE0 SHL DUP2 MSTORE PUSH1 0x4 ADD PUSH1 0x40 MLOAD DUP1 SWAP2 SUB SWAP1 REVERT JUMPDEST POP JUMPDEST PUSH2 0xC87 JUMP JUMPDEST PUSH2 0xC87 PUSH1 0x1 PUSH1 0x1 PUSH1 0xA0 SHL SUB DUP6 AND DUP5 DUP5 DUP5 PUSH2 0x15FD JUMP JUMPDEST POP POP POP POP JUMP JUMPDEST PUSH1 0x0 PUSH2 0xC98 DUP4 PUSH2 0x15C4 JUMP JUMPDEST ISZERO PUSH2 0xCAE JUMPI POP PUSH1 0x1 PUSH1 0x1 PUSH1 0xA0 SHL SUB DUP2 AND BALANCE PUSH2 0xD1E JUMP JUMPDEST PUSH1 0x40 MLOAD PUSH4 0x70A08231 PUSH1 0xE0 SHL DUP2 MSTORE PUSH1 0x1 PUSH1 0x1 PUSH1 0xA0 SHL SUB DUP5 AND SWAP1 PUSH4 0x70A08231 SWAP1 PUSH2 0xCDA SWAP1 DUP6 SWAP1 PUSH1 0x4 ADD PUSH2 0x1930 JUMP JUMPDEST PUSH1 0x20 PUSH1 0x40 MLOAD DUP1 DUP4 SUB DUP2 DUP7 GAS STATICCALL ISZERO DUP1 ISZERO PUSH2 0xCF7 JUMPI RETURNDATASIZE PUSH1 0x0 DUP1 RETURNDATACOPY RETURNDATASIZE PUSH1 0x0 REVERT JUMPDEST POP POP POP POP PUSH1 0x40 MLOAD RETURNDATASIZE PUSH1 0x1F NOT PUSH1 0x1F DUP3 ADD AND DUP3 ADD DUP1 PUSH1 0x40 MSTORE POP DUP2 ADD SWAP1 PUSH2 0xD1B SWAP2 SWAP1 PUSH2 0x1C0A JUMP JUMPDEST SWAP1 POP JUMPDEST SWAP3 SWAP2 POP POP JUMP JUMPDEST PUSH1 0x2 SLOAD PUSH1 0x1 PUSH1 0x1 PUSH1 0xA0 SHL SUB AND PUSH2 0xD4C JUMPI PUSH1 0x40 MLOAD PUSH3 0x461BCD PUSH1 0xE5 SHL DUP2 MSTORE PUSH1 0x4 ADD PUSH2 0x1FA SWAP1 PUSH2 0x1BC1 JUMP JUMPDEST PUSH1 0x2 SLOAD PUSH1 0x40 MLOAD PUSH4 0x2007BD0F PUSH1 0xE1 SHL DUP2 MSTORE PUSH1 0x0 SWAP2 PUSH1 0x1 PUSH1 0x1 PUSH1 0xA0 SHL SUB AND SWAP1 PUSH4 0x400F7A1E SWAP1 PUSH2 0xD7F SWAP1 DUP8 SWAP1 DUP8 SWAP1 PUSH1 0x4 ADD PUSH2 0x1C23 JUMP JUMPDEST PUSH1 0x80 PUSH1 0x40 MLOAD DUP1 DUP4 SUB DUP2 DUP7 GAS STATICCALL ISZERO DUP1 ISZERO PUSH2 0xD9C JUMPI RETURNDATASIZE PUSH1 0x0 DUP1 RETURNDATACOPY RETURNDATASIZE PUSH1 0x0 REVERT JUMPDEST POP POP POP POP PUSH1 0x40 MLOAD RETURNDATASIZE PUSH1 0x1F NOT PUSH1 0x1F DUP3 ADD AND DUP3 ADD DUP1 PUSH1 0x40 MSTORE POP DUP2 ADD SWAP1 PUSH2 0xDC0 SWAP2 SWAP1 PUSH2 0x1C3D JUMP JUMPDEST DUP1 MLOAD SWAP1 SWAP2 POP PUSH1 0x1 PUSH1 0x1 PUSH1 0xA0 SHL SUB AND PUSH2 0xDD8 JUMPI POP POP POP POP JUMP JUMPDEST DUP1 MLOAD PUSH1 0x40 DUP1 MLOAD PUSH1 0x2 DUP1 DUP3 MSTORE PUSH1 0x60 DUP3 ADD DUP4 MSTORE PUSH1 0x0 SWAP3 PUSH1 0x20 DUP4 ADD SWAP1 DUP1 CALLDATASIZE DUP4 CALLDATACOPY ADD SWAP1 POP POP PUSH1 0x40 MLOAD PUSH4 0xC6610657 PUSH1 0xE0 SHL DUP2 MSTORE PUSH1 0x0 PUSH1 0x4 DUP3 ADD MSTORE SWAP1 SWAP2 POP PUSH1 0x1 PUSH1 0x1 PUSH1 0xA0 SHL SUB DUP4 AND SWAP1 PUSH4 0xC6610657 SWAP1 PUSH1 0x24 ADD PUSH1 0x20 PUSH1 0x40 MLOAD DUP1 DUP4 SUB DUP2 DUP7 GAS STATICCALL ISZERO DUP1 ISZERO PUSH2 0xE41 JUMPI RETURNDATASIZE PUSH1 0x0 DUP1 RETURNDATACOPY RETURNDATASIZE PUSH1 0x0 REVERT JUMPDEST POP POP POP POP PUSH1 0x40 MLOAD RETURNDATASIZE PUSH1 0x1F NOT PUSH1 0x1F DUP3 ADD AND DUP3 ADD DUP1 PUSH1 0x40 MSTORE POP DUP2 ADD SWAP1 PUSH2 0xE65 SWAP2 SWAP1 PUSH2 0x1CCF JUMP JUMPDEST DUP2 PUSH1 0x0 DUP2 MLOAD DUP2 LT PUSH2 0xE78 JUMPI PUSH2 0xE78 PUSH2 0x1B77 JUMP JUMPDEST PUSH1 0x1 PUSH1 0x1 PUSH1 0xA0 SHL SUB SWAP3 DUP4 AND PUSH1 0x20 SWAP2 DUP3 MUL SWAP3 SWAP1 SWAP3 ADD ADD MSTORE PUSH1 0x40 MLOAD PUSH4 0xC6610657 PUSH1 0xE0 SHL DUP2 MSTORE PUSH1 0x1 PUSH1 0x4 DUP3 ADD MSTORE SWAP1 DUP4 AND SWAP1 PUSH4 0xC6610657 SWAP1 PUSH1 0x24 ADD PUSH1 0x20 PUSH1 0x40 MLOAD DUP1 DUP4 SUB DUP2 DUP7 GAS STATICCALL ISZERO DUP1 ISZERO PUSH2 0xECC JUMPI RETURNDATASIZE PUSH1 0x0 DUP1 RETURNDATACOPY RETURNDATASIZE PUSH1 0x0 REVERT JUMPDEST POP POP POP POP PUSH1 0x40 MLOAD RETURNDATASIZE PUSH1 0x1F NOT PUSH1 0x1F DUP3 ADD AND DUP3 ADD DUP1 PUSH1 0x40 MSTORE POP DUP2 ADD SWAP1 PUSH2 0xEF0 SWAP2 SWAP1 PUSH2 0x1CCF JUMP JUMPDEST DUP2 PUSH1 0x1 DUP2 MLOAD DUP2 LT PUSH2 0xF03 JUMPI PUSH2 0xF03 PUSH2 0x1B77 JUMP JUMPDEST PUSH1 0x20 MUL PUSH1 0x20 ADD ADD SWAP1 PUSH1 0x1 PUSH1 0x1 PUSH1 0xA0 SHL SUB AND SWAP1 DUP2 PUSH1 0x1 PUSH1 0x1 PUSH1 0xA0 SHL SUB AND DUP2 MSTORE POP POP PUSH1 0x0 DUP2 PUSH1 0x1 DUP2 MLOAD DUP2 LT PUSH2 0xF38 JUMPI PUSH2 0xF38 PUSH2 0x1B77 JUMP JUMPDEST PUSH1 0x20 MUL PUSH1 0x20 ADD ADD MLOAD PUSH1 0x1 PUSH1 0x1 PUSH1 0xA0 SHL SUB AND DUP8 PUSH1 0x1 PUSH1 0x1 PUSH1 0xA0 SHL SUB AND EQ PUSH2 0xF5F JUMPI PUSH1 0x0 PUSH2 0xF62 JUMP JUMPDEST PUSH1 0x2 JUMPDEST DUP3 PUSH1 0x0 DUP2 MLOAD DUP2 LT PUSH2 0xF75 JUMPI PUSH2 0xF75 PUSH2 0x1B77 JUMP JUMPDEST PUSH1 0x20 MUL PUSH1 0x20 ADD ADD MLOAD PUSH1 0x1 PUSH1 0x1 PUSH1 0xA0 SHL SUB AND DUP9 PUSH1 0x1 PUSH1 0x1 PUSH1 0xA0 SHL SUB AND EQ PUSH2 0xF9C JUMPI PUSH1 0x0 PUSH2 0xF9F JUMP JUMPDEST PUSH1 0x1 JUMPDEST PUSH2 0xFA9 SWAP2 SWAP1 PUSH2 0x1CEC JUMP JUMPDEST PUSH1 0xFF AND SWAP1 POP PUSH1 0x0 DUP3 PUSH1 0x1 DUP2 MLOAD DUP2 LT PUSH2 0xFC3 JUMPI PUSH2 0xFC3 PUSH2 0x1B77 JUMP JUMPDEST PUSH1 0x20 MUL PUSH1 0x20 ADD ADD MLOAD PUSH1 0x1 PUSH1 0x1 PUSH1 0xA0 SHL SUB AND DUP8 PUSH1 0x1 PUSH1 0x1 PUSH1 0xA0 SHL SUB AND EQ PUSH2 0xFEA JUMPI PUSH1 0x0 PUSH2 0xFED JUMP JUMPDEST PUSH1 0x2 JUMPDEST DUP4 PUSH1 0x0 DUP2 MLOAD DUP2 LT PUSH2 0x1000 JUMPI PUSH2 0x1000 PUSH2 0x1B77 JUMP JUMPDEST PUSH1 0x20 MUL PUSH1 0x20 ADD ADD MLOAD PUSH1 0x1 PUSH1 0x1 PUSH1 0xA0 SHL SUB AND DUP9 PUSH1 0x1 PUSH1 0x1 PUSH1 0xA0 SHL SUB AND EQ PUSH2 0x1027 JUMPI PUSH1 0x0 PUSH2 0x102A JUMP JUMPDEST PUSH1 0x1 JUMPDEST PUSH2 0x1034 SWAP2 SWAP1 PUSH2 0x1CEC JUMP JUMPDEST PUSH1 0xFF AND SWAP1 POP PUSH2 0x104D PUSH1 0x1 PUSH1 0x1 PUSH1 0xA0 SHL SUB DUP10 AND DUP6 DUP9 PUSH2 0x1681 JUMP JUMPDEST PUSH1 0x1 PUSH1 0x1 PUSH1 0xA0 SHL SUB DUP5 AND PUSH4 0x5B41B908 PUSH2 0x1067 PUSH1 0x1 DUP6 PUSH2 0x1B51 JUMP JUMPDEST PUSH2 0x1072 PUSH1 0x1 DUP6 PUSH2 0x1B51 JUMP JUMPDEST PUSH1 0x40 MLOAD PUSH1 0x1 PUSH1 0x1 PUSH1 0xE0 SHL SUB NOT PUSH1 0xE0 DUP6 SWAP1 SHL AND DUP2 MSTORE PUSH1 0x4 DUP2 ADD SWAP3 SWAP1 SWAP3 MSTORE PUSH1 0x24 DUP3 ADD MSTORE PUSH1 0x44 DUP2 ADD DUP10 SWAP1 MSTORE PUSH1 0x0 PUSH1 0x64 DUP3 ADD MSTORE PUSH1 0x84 ADD PUSH1 0x0 PUSH1 0x40 MLOAD DUP1 DUP4 SUB DUP2 PUSH1 0x0 DUP8 DUP1 EXTCODESIZE ISZERO DUP1 ISZERO PUSH2 0x10BE JUMPI PUSH1 0x0 DUP1 REVERT JUMPDEST POP GAS CALL ISZERO DUP1 ISZERO PUSH2 0x10D2 JUMPI RETURNDATASIZE PUSH1 0x0 DUP1 RETURNDATACOPY RETURNDATASIZE PUSH1 0x0 REVERT JUMPDEST POP POP POP POP POP POP POP POP POP POP POP POP JUMP JUMPDEST PUSH1 0x0 PUSH2 0x10F4 DUP5 PUSH1 0x1 PUSH1 0x1 PUSH1 0xA0 SHL SUB AND PUSH2 0x15C4 JUMP JUMPDEST ISZERO PUSH2 0x116E JUMPI PUSH32 0x0 PUSH1 0x1 PUSH1 0x1 PUSH1 0xA0 SHL SUB AND PUSH4 0xD0E30DB0 DUP4 PUSH1 0x40 MLOAD DUP3 PUSH4 0xFFFFFFFF AND PUSH1 0xE0 SHL DUP2 MSTORE PUSH1 0x4 ADD PUSH1 0x0 PUSH1 0x40 MLOAD DUP1 DUP4 SUB DUP2 DUP6 DUP9 DUP1 EXTCODESIZE ISZERO DUP1 ISZERO PUSH2 0x1154 JUMPI PUSH1 0x0 DUP1 REVERT JUMPDEST POP GAS CALL ISZERO DUP1 ISZERO PUSH2 0x1168 JUMPI RETURNDATASIZE PUSH1 0x0 DUP1 RETURNDATACOPY RETURNDATASIZE PUSH1 0x0 REVERT JUMPDEST POP POP POP POP POP JUMPDEST PUSH1 0x0 PUSH2 0x1182 DUP6 PUSH1 0x1 PUSH1 0x1 PUSH1 0xA0 SHL SUB AND PUSH2 0x15C4 JUMP JUMPDEST PUSH2 0x118C JUMPI DUP5 PUSH2 0x11AE JUMP JUMPDEST PUSH32 0x0 JUMPDEST SWAP1 POP PUSH1 0x0 PUSH2 0x11C4 DUP6 PUSH1 0x1 PUSH1 0x1 PUSH1 0xA0 SHL SUB AND PUSH2 0x15C4 JUMP JUMPDEST PUSH2 0x11CE JUMPI DUP5 PUSH2 0x11F0 JUMP JUMPDEST PUSH32 0x0 JUMPDEST SWAP1 POP PUSH1 0x0 PUSH32 0x0 PUSH1 0x1 PUSH1 0x1 PUSH1 0xA0 SHL SUB AND PUSH4 0xE6A43905 DUP5 DUP5 PUSH1 0x40 MLOAD DUP4 PUSH4 0xFFFFFFFF AND PUSH1 0xE0 SHL DUP2 MSTORE PUSH1 0x4 ADD PUSH2 0x1242 SWAP3 SWAP2 SWAP1 PUSH2 0x1C23 JUMP JUMPDEST PUSH1 0x20 PUSH1 0x40 MLOAD DUP1 DUP4 SUB DUP2 DUP7 GAS STATICCALL ISZERO DUP1 ISZERO PUSH2 0x125F JUMPI RETURNDATASIZE PUSH1 0x0 DUP1 RETURNDATACOPY RETURNDATASIZE PUSH1 0x0 REVERT JUMPDEST POP POP POP POP PUSH1 0x40 MLOAD RETURNDATASIZE PUSH1 0x1F NOT PUSH1 0x1F DUP3 ADD AND DUP3 ADD DUP1 PUSH1 0x40 MSTORE POP DUP2 ADD SWAP1 PUSH2 0x1283 SWAP2 SWAP1 PUSH2 0x1CCF JUMP JUMPDEST SWAP1 POP PUSH2 0x1299 PUSH1 0x1 PUSH1 0x1 PUSH1 0xA0 SHL SUB DUP5 AND DUP3 DUP8 PUSH2 0x16BC JUMP JUMPDEST PUSH1 0x0 PUSH2 0x12B0 PUSH1 0x1 PUSH1 0x1 PUSH1 0xA0 SHL SUB DUP4 AND DUP6 DUP6 DUP10 PUSH2 0x16EC JUMP JUMPDEST SWAP1 SWAP6 POP SWAP1 POP DUP1 ISZERO PUSH2 0x130F JUMPI DUP2 PUSH1 0x1 PUSH1 0x1 PUSH1 0xA0 SHL SUB AND PUSH4 0xFFF6CAE9 PUSH1 0x40 MLOAD DUP2 PUSH4 0xFFFFFFFF AND PUSH1 0xE0 SHL DUP2 MSTORE PUSH1 0x4 ADD PUSH1 0x0 PUSH1 0x40 MLOAD DUP1 DUP4 SUB DUP2 PUSH1 0x0 DUP8 DUP1 EXTCODESIZE ISZERO DUP1 ISZERO PUSH2 0x12F6 JUMPI PUSH1 0x0 DUP1 REVERT JUMPDEST POP GAS CALL ISZERO DUP1 ISZERO PUSH2 0x130A JUMPI RETURNDATASIZE PUSH1 0x0 DUP1 RETURNDATACOPY RETURNDATASIZE PUSH1 0x0 REVERT JUMPDEST POP POP POP POP JUMPDEST DUP3 PUSH1 0x1 PUSH1 0x1 PUSH1 0xA0 SHL SUB AND DUP5 PUSH1 0x1 PUSH1 0x1 PUSH1 0xA0 SHL SUB AND LT ISZERO PUSH2 0x1391 JUMPI PUSH1 0x40 MLOAD PUSH4 0x22C0D9F PUSH1 0xE0 SHL DUP2 MSTORE PUSH1 0x1 PUSH1 0x1 PUSH1 0xA0 SHL SUB DUP4 AND SWAP1 PUSH4 0x22C0D9F SWAP1 PUSH2 0x135A SWAP1 PUSH1 0x0 SWAP1 DUP10 SWAP1 ADDRESS SWAP1 PUSH1 0x4 ADD PUSH2 0x1D05 JUMP JUMPDEST PUSH1 0x0 PUSH1 0x40 MLOAD DUP1 DUP4 SUB DUP2 PUSH1 0x0 DUP8 DUP1 EXTCODESIZE ISZERO DUP1 ISZERO PUSH2 0x1374 JUMPI PUSH1 0x0 DUP1 REVERT JUMPDEST POP GAS CALL ISZERO DUP1 ISZERO PUSH2 0x1388 JUMPI RETURNDATASIZE PUSH1 0x0 DUP1 RETURNDATACOPY RETURNDATASIZE PUSH1 0x0 REVERT JUMPDEST POP POP POP POP PUSH2 0x13F5 JUMP JUMPDEST PUSH1 0x40 MLOAD PUSH4 0x22C0D9F PUSH1 0xE0 SHL DUP2 MSTORE PUSH1 0x1 PUSH1 0x1 PUSH1 0xA0 SHL SUB DUP4 AND SWAP1 PUSH4 0x22C0D9F SWAP1 PUSH2 0x13C2 SWAP1 DUP9 SWAP1 PUSH1 0x0 SWAP1 ADDRESS SWAP1 PUSH1 0x4 ADD PUSH2 0x1D05 JUMP JUMPDEST PUSH1 0x0 PUSH1 0x40 MLOAD DUP1 DUP4 SUB DUP2 PUSH1 0x0 DUP8 DUP1 EXTCODESIZE ISZERO DUP1 ISZERO PUSH2 0x13DC JUMPI PUSH1 0x0 DUP1 REVERT JUMPDEST POP GAS CALL ISZERO DUP1 ISZERO PUSH2 0x13F0 JUMPI RETURNDATASIZE PUSH1 0x0 DUP1 RETURNDATACOPY RETURNDATASIZE PUSH1 0x0 REVERT JUMPDEST POP POP POP POP JUMPDEST PUSH2 0x1407 DUP8 PUSH1 0x1 PUSH1 0x1 PUSH1 0xA0 SHL SUB AND PUSH2 0x15C4 JUMP JUMPDEST ISZERO PUSH2 0x14F2 JUMPI PUSH1 0x40 MLOAD PUSH4 0x70A08231 PUSH1 0xE0 SHL DUP2 MSTORE PUSH1 0x1 PUSH1 0x1 PUSH1 0xA0 SHL SUB PUSH32 0x0 AND SWAP1 PUSH4 0x2E1A7D4D SWAP1 DUP3 SWAP1 PUSH4 0x70A08231 SWAP1 PUSH2 0x1460 SWAP1 ADDRESS SWAP1 PUSH1 0x4 ADD PUSH2 0x1930 JUMP JUMPDEST PUSH1 0x20 PUSH1 0x40 MLOAD DUP1 DUP4 SUB DUP2 DUP7 GAS STATICCALL ISZERO DUP1 ISZERO PUSH2 0x147D JUMPI RETURNDATASIZE PUSH1 0x0 DUP1 RETURNDATACOPY RETURNDATASIZE PUSH1 0x0 REVERT JUMPDEST POP POP POP POP PUSH1 0x40 MLOAD RETURNDATASIZE PUSH1 0x1F NOT PUSH1 0x1F DUP3 ADD AND DUP3 ADD DUP1 PUSH1 0x40 MSTORE POP DUP2 ADD SWAP1 PUSH2 0x14A1 SWAP2 SWAP1 PUSH2 0x1C0A JUMP JUMPDEST PUSH1 0x40 MLOAD DUP3 PUSH4 0xFFFFFFFF AND PUSH1 0xE0 SHL DUP2 MSTORE PUSH1 0x4 ADD PUSH2 0x14BF SWAP2 DUP2 MSTORE PUSH1 0x20 ADD SWAP1 JUMP JUMPDEST PUSH1 0x0 PUSH1 0x40 MLOAD DUP1 DUP4 SUB DUP2 PUSH1 0x0 DUP8 DUP1 EXTCODESIZE ISZERO DUP1 ISZERO PUSH2 0x14D9 JUMPI PUSH1 0x0 DUP1 REVERT JUMPDEST POP GAS CALL ISZERO DUP1 ISZERO PUSH2 0x14ED JUMPI RETURNDATASIZE PUSH1 0x0 DUP1 RETURNDATACOPY RETURNDATASIZE PUSH1 0x0 REVERT JUMPDEST POP POP POP POP JUMPDEST POP POP POP POP SWAP4 SWAP3 POP POP POP JUMP JUMPDEST DUP1 ISZERO PUSH2 0x15BF JUMPI PUSH2 0x150C DUP4 PUSH2 0x15C4 JUMP JUMPDEST ISZERO PUSH2 0x15AB JUMPI DUP1 SELFBALANCE LT ISZERO PUSH2 0x1532 JUMPI PUSH1 0x40 MLOAD PUSH4 0x1E9ACF17 PUSH1 0xE3 SHL DUP2 MSTORE PUSH1 0x4 ADD PUSH1 0x40 MLOAD DUP1 SWAP2 SUB SWAP1 REVERT JUMPDEST PUSH1 0x0 DUP3 PUSH1 0x1 PUSH1 0x1 PUSH1 0xA0 SHL SUB AND DUP3 PUSH2 0x1388 SWAP1 PUSH1 0x40 MLOAD PUSH1 0x0 PUSH1 0x40 MLOAD DUP1 DUP4 SUB DUP2 DUP6 DUP9 DUP9 CALL SWAP4 POP POP POP POP RETURNDATASIZE DUP1 PUSH1 0x0 DUP2 EQ PUSH2 0x1584 JUMPI PUSH1 0x40 MLOAD SWAP2 POP PUSH1 0x1F NOT PUSH1 0x3F RETURNDATASIZE ADD AND DUP3 ADD PUSH1 0x40 MSTORE RETURNDATASIZE DUP3 MSTORE RETURNDATASIZE PUSH1 0x0 PUSH1 0x20 DUP5 ADD RETURNDATACOPY PUSH2 0x1589 JUMP JUMPDEST PUSH1 0x60 SWAP2 POP JUMPDEST POP POP SWAP1 POP DUP1 PUSH2 0xC87 JUMPI PUSH1 0x40 MLOAD PUSH4 0xB12D13EB PUSH1 0xE0 SHL DUP2 MSTORE PUSH1 0x4 ADD PUSH1 0x40 MLOAD DUP1 SWAP2 SUB SWAP1 REVERT JUMPDEST PUSH2 0x15BF PUSH1 0x1 PUSH1 0x1 PUSH1 0xA0 SHL SUB DUP5 AND DUP4 DUP4 PUSH2 0x16BC JUMP JUMPDEST POP POP POP JUMP JUMPDEST PUSH1 0x0 PUSH1 0x1 PUSH1 0x1 PUSH1 0xA0 SHL SUB DUP3 AND ISZERO DUP1 PUSH2 0xD1E JUMPI POP PUSH1 0x1 PUSH1 0x1 PUSH1 0xA0 SHL SUB DUP3 AND PUSH20 0xEEEEEEEEEEEEEEEEEEEEEEEEEEEEEEEEEEEEEEEE EQ SWAP3 SWAP2 POP POP JUMP JUMPDEST PUSH1 0x0 PUSH4 0x23B872DD PUSH1 0xE0 SHL SWAP1 POP PUSH1 0x0 PUSH1 0x40 MLOAD DUP3 DUP2 MSTORE DUP6 PUSH1 0x4 DUP3 ADD MSTORE DUP5 PUSH1 0x24 DUP3 ADD MSTORE DUP4 PUSH1 0x44 DUP3 ADD MSTORE PUSH1 0x20 PUSH1 0x0 PUSH1 0x64 DUP4 PUSH1 0x0 DUP12 GAS CALL SWAP2 POP POP DUP1 ISZERO PUSH2 0x165B JUMPI RETURNDATASIZE DUP1 ISZERO PUSH2 0x1651 JUMPI PUSH1 0x1 PUSH1 0x0 MLOAD EQ PUSH1 0x1F RETURNDATASIZE GT AND SWAP2 POP PUSH2 0x1659 JUMP JUMPDEST PUSH1 0x0 DUP8 EXTCODESIZE GT SWAP2 POP JUMPDEST POP JUMPDEST DUP1 PUSH2 0x1679 JUMPI PUSH1 0x40 MLOAD PUSH4 0xF4059071 PUSH1 0xE0 SHL DUP2 MSTORE PUSH1 0x4 ADD PUSH1 0x40 MLOAD DUP1 SWAP2 SUB SWAP1 REVERT JUMPDEST POP POP POP POP POP POP JUMP JUMPDEST PUSH2 0x168A DUP4 PUSH2 0x15C4 JUMP JUMPDEST ISZERO PUSH2 0x16A8 JUMPI PUSH1 0x40 MLOAD PUSH4 0x4CA17A99 PUSH1 0xE0 SHL DUP2 MSTORE PUSH1 0x4 ADD PUSH1 0x40 MLOAD DUP1 SWAP2 SUB SWAP1 REVERT JUMPDEST PUSH2 0x15BF PUSH1 0x1 PUSH1 0x1 PUSH1 0xA0 SHL SUB DUP5 AND DUP4 DUP4 PUSH2 0x1861 JUMP JUMPDEST PUSH2 0x16CF DUP4 PUSH4 0xA9059CBB PUSH1 0xE0 SHL DUP5 DUP5 PUSH2 0x18C6 JUMP JUMPDEST PUSH2 0x15BF JUMPI PUSH1 0x40 MLOAD PUSH4 0xFB7F5079 PUSH1 0xE0 SHL DUP2 MSTORE PUSH1 0x4 ADD PUSH1 0x40 MLOAD DUP1 SWAP2 SUB SWAP1 REVERT JUMPDEST PUSH1 0x0 DUP1 DUP1 PUSH2 0x1703 PUSH1 0x1 PUSH1 0x1 PUSH1 0xA0 SHL SUB DUP8 AND DUP9 PUSH2 0xC8D JUMP JUMPDEST SWAP1 POP PUSH1 0x0 PUSH2 0x171A PUSH1 0x1 PUSH1 0x1 PUSH1 0xA0 SHL SUB DUP8 AND DUP10 PUSH2 0xC8D JUMP JUMPDEST SWAP1 POP PUSH1 0x0 DUP1 DUP10 PUSH1 0x1 PUSH1 0x1 PUSH1 0xA0 SHL SUB AND PUSH4 0x902F1AC PUSH1 0x40 MLOAD DUP2 PUSH4 0xFFFFFFFF AND PUSH1 0xE0 SHL DUP2 MSTORE PUSH1 0x4 ADD PUSH1 0x60 PUSH1 0x40 MLOAD DUP1 DUP4 SUB DUP2 DUP7 GAS STATICCALL ISZERO DUP1 ISZERO PUSH2 0x175D JUMPI RETURNDATASIZE PUSH1 0x0 DUP1 RETURNDATACOPY RETURNDATASIZE PUSH1 0x0 REVERT JUMPDEST POP POP POP POP PUSH1 0x40 MLOAD RETURNDATASIZE PUSH1 0x1F NOT PUSH1 0x1F DUP3 ADD AND DUP3 ADD DUP1 PUSH1 0x40 MSTORE POP DUP2 ADD SWAP1 PUSH2 0x1781 SWAP2 SWAP1 PUSH2 0x1D4A JUMP JUMPDEST POP SWAP2 POP SWAP2 POP DUP8 PUSH1 0x1 PUSH1 0x1 PUSH1 0xA0 SHL SUB AND DUP10 PUSH1 0x1 PUSH1 0x1 PUSH1 0xA0 SHL SUB AND GT ISZERO PUSH2 0x17A2 JUMPI SWAP1 JUMPDEST PUSH2 0x17B5 PUSH1 0x1 PUSH1 0x1 PUSH1 0x70 SHL SUB DUP4 AND DUP6 PUSH2 0x1B51 JUMP JUMPDEST SWAP7 POP DUP2 PUSH1 0x1 PUSH1 0x1 PUSH1 0x70 SHL SUB AND DUP5 LT DUP1 PUSH2 0x17D6 JUMPI POP DUP1 PUSH1 0x1 PUSH1 0x1 PUSH1 0x70 SHL SUB AND DUP4 LT JUMPDEST SWAP5 POP PUSH1 0x0 PUSH2 0x17E6 DUP9 PUSH2 0x26F7 PUSH2 0x1D9A JUMP JUMPDEST SWAP1 POP PUSH1 0x0 PUSH2 0x17FD DUP6 DUP5 PUSH1 0x1 PUSH1 0x1 PUSH1 0x70 SHL SUB AND PUSH2 0x191A JUMP JUMPDEST PUSH2 0x1807 SWAP1 DUP4 PUSH2 0x1D9A JUMP JUMPDEST SWAP1 POP PUSH1 0x0 DUP3 PUSH2 0x181F DUP9 DUP8 PUSH1 0x1 PUSH1 0x1 PUSH1 0x70 SHL SUB AND PUSH2 0x191A JUMP JUMPDEST PUSH2 0x182B SWAP1 PUSH2 0x2710 PUSH2 0x1D9A JUMP JUMPDEST PUSH2 0x1835 SWAP2 SWAP1 PUSH2 0x1B64 JUMP JUMPDEST SWAP1 POP DUP1 ISZERO PUSH2 0x184C JUMPI PUSH2 0x1847 DUP2 DUP4 PUSH2 0x1DB1 JUMP JUMPDEST PUSH2 0x184F JUMP JUMPDEST PUSH1 0x0 JUMPDEST SWAP9 POP POP POP POP POP POP POP POP SWAP5 POP SWAP5 SWAP3 POP POP POP JUMP JUMPDEST PUSH2 0x1874 DUP4 PUSH4 0x95EA7B3 PUSH1 0xE0 SHL DUP5 DUP5 PUSH2 0x18C6 JUMP JUMPDEST PUSH2 0x15BF JUMPI PUSH2 0x188C DUP4 PUSH4 0x95EA7B3 PUSH1 0xE0 SHL DUP5 PUSH1 0x0 PUSH2 0x18C6 JUMP JUMPDEST ISZERO DUP1 PUSH2 0x18A8 JUMPI POP PUSH2 0x18A6 DUP4 PUSH4 0x95EA7B3 PUSH1 0xE0 SHL DUP5 DUP5 PUSH2 0x18C6 JUMP JUMPDEST ISZERO JUMPDEST ISZERO PUSH2 0x15BF JUMPI PUSH1 0x40 MLOAD PUSH4 0x19BE9A9 PUSH1 0xE4 SHL DUP2 MSTORE PUSH1 0x4 ADD PUSH1 0x40 MLOAD DUP1 SWAP2 SUB SWAP1 REVERT JUMPDEST PUSH1 0x0 PUSH1 0x40 MLOAD DUP5 DUP2 MSTORE DUP4 PUSH1 0x4 DUP3 ADD MSTORE DUP3 PUSH1 0x24 DUP3 ADD MSTORE PUSH1 0x20 PUSH1 0x0 PUSH1 0x44 DUP4 PUSH1 0x0 DUP11 GAS CALL SWAP2 POP POP DUP1 ISZERO PUSH2 0x1912 JUMPI RETURNDATASIZE DUP1 ISZERO PUSH2 0x1908 JUMPI PUSH1 0x1 PUSH1 0x0 MLOAD EQ PUSH1 0x1F RETURNDATASIZE GT AND SWAP2 POP PUSH2 0x1910 JUMP JUMPDEST PUSH1 0x0 DUP7 EXTCODESIZE GT SWAP2 POP JUMPDEST POP JUMPDEST SWAP5 SWAP4 POP POP POP POP JUMP JUMPDEST PUSH1 0x0 DUP2 DUP4 LT PUSH2 0x1929 JUMPI DUP2 PUSH2 0xD1B JUMP JUMPDEST POP SWAP1 SWAP2 SWAP1 POP JUMP JUMPDEST PUSH1 0x1 PUSH1 0x1 PUSH1 0xA0 SHL SUB SWAP2 SWAP1 SWAP2 AND DUP2 MSTORE PUSH1 0x20 ADD SWAP1 JUMP JUMPDEST PUSH1 0x1 PUSH1 0x1 PUSH1 0xA0 SHL SUB DUP2 AND DUP2 EQ PUSH2 0xB0E JUMPI PUSH1 0x0 DUP1 REVERT JUMPDEST DUP1 CALLDATALOAD PUSH1 0x2 DUP2 LT PUSH2 0x1968 JUMPI PUSH1 0x0 DUP1 REVERT JUMPDEST SWAP2 SWAP1 POP JUMP JUMPDEST PUSH1 0x0 DUP1 PUSH1 0x0 DUP1 PUSH1 0x0 PUSH1 0xA0 DUP7 DUP9 SUB SLT ISZERO PUSH2 0x1985 JUMPI PUSH1 0x0 DUP1 REVERT JUMPDEST DUP6 CALLDATALOAD PUSH2 0x1990 DUP2 PUSH2 0x1944 JUMP JUMPDEST SWAP5 POP PUSH1 0x20 DUP7 ADD CALLDATALOAD PUSH2 0x19A0 DUP2 PUSH2 0x1944 JUMP JUMPDEST SWAP4 POP PUSH1 0x40 DUP7 ADD CALLDATALOAD SWAP3 POP PUSH1 0x60 DUP7 ADD CALLDATALOAD SWAP2 POP PUSH2 0x19BC PUSH1 0x80 DUP8 ADD PUSH2 0x1959 JUMP JUMPDEST SWAP1 POP SWAP3 SWAP6 POP SWAP3 SWAP6 SWAP1 SWAP4 POP JUMP JUMPDEST PUSH1 0x0 DUP1 DUP4 PUSH1 0x1F DUP5 ADD SLT PUSH2 0x19DA JUMPI PUSH1 0x0 DUP1 REVERT JUMPDEST POP DUP2 CALLDATALOAD PUSH1 0x1 PUSH1 0x1 PUSH1 0x40 SHL SUB DUP2 GT ISZERO PUSH2 0x19F1 JUMPI PUSH1 0x0 DUP1 REVERT JUMPDEST PUSH1 0x20 DUP4 ADD SWAP2 POP DUP4 PUSH1 0x20 DUP3 PUSH1 0x5 SHL DUP6 ADD ADD GT ISZERO PUSH2 0x1A0C JUMPI PUSH1 0x0 DUP1 REVERT JUMPDEST SWAP3 POP SWAP3 SWAP1 POP JUMP JUMPDEST PUSH1 0x0 DUP1 PUSH1 0x0 DUP1 PUSH1 0x0 DUP1 PUSH1 0x80 DUP8 DUP10 SUB SLT ISZERO PUSH2 0x1A2C JUMPI PUSH1 0x0 DUP1 REVERT JUMPDEST DUP7 CALLDATALOAD PUSH1 0x1 PUSH1 0x1 PUSH1 0x40 SHL SUB DUP1 DUP3 GT ISZERO PUSH2 0x1A43 JUMPI PUSH1 0x0 DUP1 REVERT JUMPDEST PUSH2 0x1A4F DUP11 DUP4 DUP12 ADD PUSH2 0x19C8 JUMP JUMPDEST SWAP1 SWAP9 POP SWAP7 POP PUSH1 0x20 DUP10 ADD CALLDATALOAD SWAP6 POP PUSH1 0x40 DUP10 ADD CALLDATALOAD SWAP5 POP PUSH1 0x60 DUP10 ADD CALLDATALOAD SWAP2 POP DUP1 DUP3 GT ISZERO PUSH2 0x1A76 JUMPI PUSH1 0x0 DUP1 REVERT JUMPDEST POP PUSH2 0x1A83 DUP10 DUP3 DUP11 ADD PUSH2 0x19C8 JUMP JUMPDEST SWAP8 SWAP11 SWAP7 SWAP10 POP SWAP5 SWAP8 POP SWAP3 SWAP6 SWAP4 SWAP5 SWAP3 POP POP POP JUMP JUMPDEST PUSH1 0x0 PUSH1 0x20 DUP3 DUP5 SUB SLT ISZERO PUSH2 0x1AA7 JUMPI PUSH1 0x0 DUP1 REVERT JUMPDEST DUP2 CALLDATALOAD PUSH2 0x1AB2 DUP2 PUSH2 0x1944 JUMP JUMPDEST SWAP4 SWAP3 POP POP POP JUMP JUMPDEST PUSH1 0x20 DUP1 DUP3 MSTORE DUP2 DUP2 ADD MSTORE PUSH32 0x4F776E61626C653A2063616C6C6572206973206E6F7420746865206F776E6572 PUSH1 0x40 DUP3 ADD MSTORE PUSH1 0x60 ADD SWAP1 JUMP JUMPDEST PUSH1 0x20 DUP1 DUP3 MSTORE PUSH1 0x1F SWAP1 DUP3 ADD MSTORE PUSH32 0x5265656E7472616E637947756172643A207265656E7472616E742063616C6C00 PUSH1 0x40 DUP3 ADD MSTORE PUSH1 0x60 ADD SWAP1 JUMP JUMPDEST PUSH4 0x4E487B71 PUSH1 0xE0 SHL PUSH1 0x0 MSTORE PUSH1 0x21 PUSH1 0x4 MSTORE PUSH1 0x24 PUSH1 0x0 REVERT JUMPDEST PUSH4 0x4E487B71 PUSH1 0xE0 SHL PUSH1 0x0 MSTORE PUSH1 0x11 PUSH1 0x4 MSTORE PUSH1 0x24 PUSH1 0x0 REVERT JUMPDEST DUP2 DUP2 SUB DUP2 DUP2 GT ISZERO PUSH2 0xD1E JUMPI PUSH2 0xD1E PUSH2 0x1B3B JUMP JUMPDEST DUP1 DUP3 ADD DUP1 DUP3 GT ISZERO PUSH2 0xD1E JUMPI PUSH2 0xD1E PUSH2 0x1B3B JUMP JUMPDEST PUSH4 0x4E487B71 PUSH1 0xE0 SHL PUSH1 0x0 MSTORE PUSH1 0x32 PUSH1 0x4 MSTORE PUSH1 0x24 PUSH1 0x0 REVERT JUMPDEST PUSH1 0x0 PUSH1 0x20 DUP3 DUP5 SUB SLT ISZERO PUSH2 0x1B9F JUMPI PUSH1 0x0 DUP1 REVERT JUMPDEST PUSH2 0xD1B DUP3 PUSH2 0x1959 JUMP JUMPDEST PUSH1 0x0 PUSH1 0x1 DUP3 ADD PUSH2 0x1BBA JUMPI PUSH2 0x1BBA PUSH2 0x1B3B JUMP JUMPDEST POP PUSH1 0x1 ADD SWAP1 JUMP JUMPDEST PUSH1 0x20 DUP1 DUP3 MSTORE PUSH1 0x29 SWAP1 DUP3 ADD MSTORE PUSH32 0x537461626C655377617020666163746F72792063616E6E6F74206265207A6572 PUSH1 0x40 DUP3 ADD MSTORE PUSH9 0x6F2061646472657373 PUSH1 0xB8 SHL PUSH1 0x60 DUP3 ADD MSTORE PUSH1 0x80 ADD SWAP1 JUMP JUMPDEST PUSH1 0x0 PUSH1 0x20 DUP3 DUP5 SUB SLT ISZERO PUSH2 0x1C1C JUMPI PUSH1 0x0 DUP1 REVERT JUMPDEST POP MLOAD SWAP2 SWAP1 POP JUMP JUMPDEST PUSH1 0x1 PUSH1 0x1 PUSH1 0xA0 SHL SUB SWAP3 DUP4 AND DUP2 MSTORE SWAP2 AND PUSH1 0x20 DUP3 ADD MSTORE PUSH1 0x40 ADD SWAP1 JUMP JUMPDEST PUSH1 0x0 PUSH1 0x80 DUP3 DUP5 SUB SLT ISZERO PUSH2 0x1C4F JUMPI PUSH1 0x0 DUP1 REVERT JUMPDEST PUSH1 0x40 MLOAD PUSH1 0x80 DUP2 ADD PUSH1 0x1 PUSH1 0x1 PUSH1 0x40 SHL SUB DUP2 GT DUP3 DUP3 LT OR ISZERO PUSH2 0x1C7F JUMPI PUSH4 0x4E487B71 PUSH1 0xE0 SHL PUSH1 0x0 MSTORE PUSH1 0x41 PUSH1 0x4 MSTORE PUSH1 0x24 PUSH1 0x0 REVERT JUMPDEST PUSH1 0x40 MSTORE DUP3 MLOAD PUSH2 0x1C8D DUP2 PUSH2 0x1944 JUMP JUMPDEST DUP2 MSTORE PUSH1 0x20 DUP4 ADD MLOAD PUSH2 0x1C9D DUP2 PUSH2 0x1944 JUMP JUMPDEST PUSH1 0x20 DUP3 ADD MSTORE PUSH1 0x40 DUP4 ADD MLOAD PUSH2 0x1CB0 DUP2 PUSH2 0x1944 JUMP JUMPDEST PUSH1 0x40 DUP3 ADD MSTORE PUSH1 0x60 DUP4 ADD MLOAD PUSH2 0x1CC3 DUP2 PUSH2 0x1944 JUMP JUMPDEST PUSH1 0x60 DUP3 ADD MSTORE SWAP4 SWAP3 POP POP POP JUMP JUMPDEST PUSH1 0x0 PUSH1 0x20 DUP3 DUP5 SUB SLT ISZERO PUSH2 0x1CE1 JUMPI PUSH1 0x0 DUP1 REVERT JUMPDEST DUP2 MLOAD PUSH2 0x1AB2 DUP2 PUSH2 0x1944 JUMP JUMPDEST PUSH1 0xFF DUP2 DUP2 AND DUP4 DUP3 AND ADD SWAP1 DUP2 GT ISZERO PUSH2 0xD1E JUMPI PUSH2 0xD1E PUSH2 0x1B3B JUMP JUMPDEST SWAP3 DUP4 MSTORE PUSH1 0x20 DUP4 ADD SWAP2 SWAP1 SWAP2 MSTORE PUSH1 0x1 PUSH1 0x1 PUSH1 0xA0 SHL SUB AND PUSH1 0x40 DUP3 ADD MSTORE PUSH1 0x80 PUSH1 0x60 DUP3 ADD DUP2 SWAP1 MSTORE PUSH1 0x0 SWAP1 DUP3 ADD MSTORE PUSH1 0xA0 ADD SWAP1 JUMP JUMPDEST DUP1 MLOAD PUSH1 0x1 PUSH1 0x1 PUSH1 0x70 SHL SUB DUP2 AND DUP2 EQ PUSH2 0x1968 JUMPI PUSH1 0x0 DUP1 REVERT JUMPDEST PUSH1 0x0 DUP1 PUSH1 0x0 PUSH1 0x60 DUP5 DUP7 SUB SLT ISZERO PUSH2 0x1D5F JUMPI PUSH1 0x0 DUP1 REVERT JUMPDEST PUSH2 0x1D68 DUP5 PUSH2 0x1D33 JUMP JUMPDEST SWAP3 POP PUSH2 0x1D76 PUSH1 0x20 DUP6 ADD PUSH2 0x1D33 JUMP JUMPDEST SWAP2 POP PUSH1 0x40 DUP5 ADD MLOAD PUSH4 0xFFFFFFFF DUP2 AND DUP2 EQ PUSH2 0x1D8F JUMPI PUSH1 0x0 DUP1 REVERT JUMPDEST DUP1 SWAP2 POP POP SWAP3 POP SWAP3 POP SWAP3 JUMP JUMPDEST DUP1 DUP3 MUL DUP2 ISZERO DUP3 DUP3 DIV DUP5 EQ OR PUSH2 0xD1E JUMPI PUSH2 0xD1E PUSH2 0x1B3B JUMP JUMPDEST PUSH1 0x0 DUP3 PUSH2 0x1DCE JUMPI PUSH4 0x4E487B71 PUSH1 0xE0 SHL PUSH1 0x0 MSTORE PUSH1 0x12 PUSH1 0x4 MSTORE PUSH1 0x24 PUSH1 0x0 REVERT JUMPDEST POP DIV SWAP1 JUMP INVALID LOG2 PUSH5 0x6970667358 0x22 SLT KECCAK256 GASPRICE PUSH11 0xEE1D4011FE17960A4D1E79 0xDF 0xC2 0x2A 0xB2 DUP13 0xED 0xAA 0xC4 EQ 0xD2 0xD3 0xD9 XOR DUP14 0xE3 SWAP9 DUP14 MSTORE 0x49 PUSH5 0x736F6C6343 STOP ADDMOD SLT STOP CALLER "
		},
		"gasEstimates": {
			"creation": {
				"codeDepositCost": "1537800",
				"executionCost": "infinite",
				"totalCost": "infinite"
			},
			"external": {
				"": "288",
				"owner()": "2414",
				"pancakeswapV2()": "infinite",
				"renounceOwnership()": "28159",
				"setStableSwapFactory(address)": "28436",
				"stableswapFactory()": "2471",
				"swap(address,address,uint256,uint256,uint8)": "infinite",
				"swapMulti(address[],uint256,uint256,uint8[])": "infinite",
				"transferOwnership(address)": "infinite",
				"weth()": "infinite"
			},
			"internal": {
				"_swapOnStableSwap(contract IERC20,contract IERC20,uint256)": "infinite",
				"_swapOnV2ExactIn(contract IERC20,contract IERC20,uint256)": "infinite"
			}
		},
		"methodIdentifiers": {
			"owner()": "8da5cb5b",
			"pancakeswapV2()": "82227fe4",
			"renounceOwnership()": "715018a6",
			"setStableSwapFactory(address)": "e449d77c",
			"stableswapFactory()": "d5f59116",
			"swap(address,address,uint256,uint256,uint8)": "a6cbf417",
			"swapMulti(address[],uint256,uint256,uint8[])": "ca24fde8",
			"transferOwnership(address)": "f2fde38b",
			"weth()": "3fc8cef3"
		}
	},
	"abi": [
		{
			"inputs": [
				{
					"internalType": "address",
					"name": "_WETHAddress",
					"type": "address"
				},
				{
					"internalType": "address",
					"name": "_pancakeswapV2",
					"type": "address"
				},
				{
					"internalType": "address",
					"name": "_stableswapFactory",
					"type": "address"
				}
			],
			"stateMutability": "nonpayable",
			"type": "constructor"
		},
		{
			"inputs": [],
			"name": "ApproveCalledOnETH",
			"type": "error"
		},
		{
			"inputs": [],
			"name": "ETHTransferFailed",
			"type": "error"
		},
		{
			"inputs": [],
			"name": "ForceApproveFailed",
			"type": "error"
		},
		{
			"inputs": [],
			"name": "FromIsNotSender",
			"type": "error"
		},
		{
			"inputs": [],
			"name": "InsufficientBalance",
			"type": "error"
		},
		{
			"inputs": [],
			"name": "NotEnoughValue",
			"type": "error"
		},
		{
			"inputs": [],
			"name": "SafeTransferFailed",
			"type": "error"
		},
		{
			"inputs": [],
			"name": "SafeTransferFromFailed",
			"type": "error"
		},
		{
			"inputs": [],
			"name": "ToIsNotThis",
			"type": "error"
		},
		{
			"anonymous": false,
			"inputs": [
				{
					"indexed": true,
					"internalType": "address",
					"name": "sender",
					"type": "address"
				},
				{
					"indexed": true,
					"internalType": "address",
					"name": "factory",
					"type": "address"
				}
			],
			"name": "NewStableSwapFactory",
			"type": "event"
		},
		{
			"anonymous": false,
			"inputs": [
				{
					"indexed": true,
					"internalType": "address",
					"name": "previousOwner",
					"type": "address"
				},
				{
					"indexed": true,
					"internalType": "address",
					"name": "newOwner",
					"type": "address"
				}
			],
			"name": "OwnershipTransferred",
			"type": "event"
		},
		{
			"anonymous": false,
			"inputs": [
				{
					"indexed": true,
					"internalType": "address",
					"name": "sender",
					"type": "address"
				},
				{
					"indexed": true,
					"internalType": "address",
					"name": "srcTokenAddr",
					"type": "address"
				},
				{
					"indexed": true,
					"internalType": "address",
					"name": "dstTokenAddr",
					"type": "address"
				},
				{
					"indexed": false,
					"internalType": "uint256",
					"name": "srcAmount",
					"type": "uint256"
				}
			],
			"name": "Swap",
			"type": "event"
		},
		{
			"anonymous": false,
			"inputs": [
				{
					"indexed": true,
					"internalType": "address",
					"name": "sender",
					"type": "address"
				},
				{
					"indexed": true,
					"internalType": "address",
					"name": "srcTokenAddr",
					"type": "address"
				},
				{
					"indexed": true,
					"internalType": "address",
					"name": "dstTokenAddr",
					"type": "address"
				},
				{
					"indexed": false,
					"internalType": "uint256",
					"name": "srcAmount",
					"type": "uint256"
				}
			],
			"name": "SwapMulti",
			"type": "event"
		},
		{
			"stateMutability": "nonpayable",
			"type": "fallback"
		},
		{
			"inputs": [],
			"name": "owner",
			"outputs": [
				{
					"internalType": "address",
					"name": "",
					"type": "address"
				}
			],
			"stateMutability": "view",
			"type": "function"
		},
		{
			"inputs": [],
			"name": "pancakeswapV2",
			"outputs": [
				{
					"internalType": "address",
					"name": "",
					"type": "address"
				}
			],
			"stateMutability": "view",
			"type": "function"
		},
		{
			"inputs": [],
			"name": "renounceOwnership",
			"outputs": [],
			"stateMutability": "nonpayable",
			"type": "function"
		},
		{
			"inputs": [
				{
					"internalType": "address",
					"name": "_factory",
					"type": "address"
				}
			],
			"name": "setStableSwapFactory",
			"outputs": [],
			"stateMutability": "nonpayable",
			"type": "function"
		},
		{
			"inputs": [],
			"name": "stableswapFactory",
			"outputs": [
				{
					"internalType": "address",
					"name": "",
					"type": "address"
				}
			],
			"stateMutability": "view",
			"type": "function"
		},
		{
			"inputs": [
				{
					"internalType": "contract IERC20",
					"name": "srcToken",
					"type": "address"
				},
				{
					"internalType": "contract IERC20",
					"name": "dstToken",
					"type": "address"
				},
				{
					"internalType": "uint256",
					"name": "amount",
					"type": "uint256"
				},
				{
					"internalType": "uint256",
					"name": "minReturn",
					"type": "uint256"
				},
				{
					"internalType": "enum PancakeSwapSmartRouter.FLAG",
					"name": "flag",
					"type": "uint8"
				}
			],
			"name": "swap",
			"outputs": [
				{
					"internalType": "uint256",
					"name": "returnAmount",
					"type": "uint256"
				}
			],
			"stateMutability": "payable",
			"type": "function"
		},
		{
			"inputs": [
				{
					"internalType": "contract IERC20[]",
					"name": "tokens",
					"type": "address[]"
				},
				{
					"internalType": "uint256",
					"name": "amount",
					"type": "uint256"
				},
				{
					"internalType": "uint256",
					"name": "minReturn",
					"type": "uint256"
				},
				{
					"internalType": "enum PancakeSwapSmartRouter.FLAG[]",
					"name": "flags",
					"type": "uint8[]"
				}
			],
			"name": "swapMulti",
			"outputs": [
				{
					"internalType": "uint256",
					"name": "returnAmount",
					"type": "uint256"
				}
			],
			"stateMutability": "payable",
			"type": "function"
		},
		{
			"inputs": [
				{
					"internalType": "address",
					"name": "newOwner",
					"type": "address"
				}
			],
			"name": "transferOwnership",
			"outputs": [],
			"stateMutability": "nonpayable",
			"type": "function"
		},
		{
			"inputs": [],
			"name": "weth",
			"outputs": [
				{
					"internalType": "contract IWETH02",
					"name": "",
					"type": "address"
				}
			],
			"stateMutability": "view",
			"type": "function"
		},
		{
			"stateMutability": "payable",
			"type": "receive"
		}
	]
}